{
  "contractName": "Auction",
  "abi": [
    {
      "inputs": [
        {
          "internalType": "address payable",
          "name": "_originalOwner",
          "type": "address"
        },
        {
          "internalType": "address payable",
          "name": "_seller",
          "type": "address"
        },
        {
          "internalType": "uint256",
          "name": "_nftId",
          "type": "uint256"
        },
        {
          "internalType": "uint256",
          "name": "_startingPrice",
          "type": "uint256"
        },
        {
          "internalType": "uint256",
          "name": "_auctionDuration",
          "type": "uint256"
        },
        {
          "internalType": "address",
          "name": "_nftContractAddress",
          "type": "address"
        },
        {
          "internalType": "address",
          "name": "_twitterContractAddress",
          "type": "address"
        }
      ],
      "stateMutability": "nonpayable",
      "type": "constructor"
    },
    {
      "anonymous": false,
      "inputs": [
        {
          "indexed": true,
          "internalType": "address",
          "name": "winner",
          "type": "address"
        },
        {
          "indexed": false,
          "internalType": "uint256",
          "name": "amount",
          "type": "uint256"
        },
        {
          "indexed": false,
          "internalType": "uint256",
          "name": "royaltyAmount",
          "type": "uint256"
        },
        {
          "indexed": false,
          "internalType": "uint256",
          "name": "twitterFee",
          "type": "uint256"
        },
        {
          "indexed": false,
          "internalType": "uint256",
          "name": "sellerShare",
          "type": "uint256"
        }
      ],
      "name": "AuctionEnded",
      "type": "event"
    },
    {
      "anonymous": false,
      "inputs": [
        {
          "indexed": true,
          "internalType": "address",
          "name": "bidder",
          "type": "address"
        },
        {
          "indexed": false,
          "internalType": "uint256",
          "name": "amount",
          "type": "uint256"
        }
      ],
      "name": "HighestBidIncreased",
      "type": "event"
    },
    {
      "inputs": [],
      "name": "auctionEndTime",
      "outputs": [
        {
          "internalType": "uint256",
          "name": "",
          "type": "uint256"
        }
      ],
      "stateMutability": "view",
      "type": "function"
    },
    {
      "inputs": [],
      "name": "ended",
      "outputs": [
        {
          "internalType": "bool",
          "name": "",
          "type": "bool"
        }
      ],
      "stateMutability": "view",
      "type": "function"
    },
    {
      "inputs": [],
      "name": "highestBid",
      "outputs": [
        {
          "internalType": "uint256",
          "name": "",
          "type": "uint256"
        }
      ],
      "stateMutability": "view",
      "type": "function"
    },
    {
      "inputs": [],
      "name": "highestBidder",
      "outputs": [
        {
          "internalType": "address payable",
          "name": "",
          "type": "address"
        }
      ],
      "stateMutability": "view",
      "type": "function"
    },
    {
      "inputs": [],
      "name": "nftContractAddress",
      "outputs": [
        {
          "internalType": "address",
          "name": "",
          "type": "address"
        }
      ],
      "stateMutability": "view",
      "type": "function"
    },
    {
      "inputs": [],
      "name": "nftId",
      "outputs": [
        {
          "internalType": "uint256",
          "name": "",
          "type": "uint256"
        }
      ],
      "stateMutability": "view",
      "type": "function"
    },
    {
      "inputs": [],
      "name": "originalOwner",
      "outputs": [
        {
          "internalType": "address payable",
          "name": "",
          "type": "address"
        }
      ],
      "stateMutability": "view",
      "type": "function"
    },
    {
      "inputs": [],
      "name": "royaltyPercentage",
      "outputs": [
        {
          "internalType": "uint256",
          "name": "",
          "type": "uint256"
        }
      ],
      "stateMutability": "view",
      "type": "function"
    },
    {
      "inputs": [],
      "name": "seller",
      "outputs": [
        {
          "internalType": "address payable",
          "name": "",
          "type": "address"
        }
      ],
      "stateMutability": "view",
      "type": "function"
    },
    {
      "inputs": [],
      "name": "startingPrice",
      "outputs": [
        {
          "internalType": "uint256",
          "name": "",
          "type": "uint256"
        }
      ],
      "stateMutability": "view",
      "type": "function"
    },
    {
      "inputs": [],
      "name": "twitterContract",
      "outputs": [
        {
          "internalType": "contract Twitter",
          "name": "",
          "type": "address"
        }
      ],
      "stateMutability": "view",
      "type": "function"
    },
    {
      "inputs": [],
      "name": "getStartingPrice",
      "outputs": [
        {
          "internalType": "uint256",
          "name": "",
          "type": "uint256"
        }
      ],
      "stateMutability": "view",
      "type": "function"
    },
    {
      "inputs": [],
      "name": "getAuctionEndTime",
      "outputs": [
        {
          "internalType": "uint256",
          "name": "",
          "type": "uint256"
        }
      ],
      "stateMutability": "view",
      "type": "function"
    },
    {
      "inputs": [],
      "name": "getHighestBidder",
      "outputs": [
        {
          "internalType": "address payable",
          "name": "",
          "type": "address"
        }
      ],
      "stateMutability": "view",
      "type": "function"
    },
    {
      "inputs": [],
      "name": "getHighestBid",
      "outputs": [
        {
          "internalType": "uint256",
          "name": "",
          "type": "uint256"
        }
      ],
      "stateMutability": "view",
      "type": "function"
    },
    {
      "inputs": [],
      "name": "getEnded",
      "outputs": [
        {
          "internalType": "bool",
          "name": "",
          "type": "bool"
        }
      ],
      "stateMutability": "view",
      "type": "function"
    },
    {
      "inputs": [],
      "name": "bid",
      "outputs": [],
      "stateMutability": "payable",
      "type": "function"
    },
    {
      "inputs": [],
      "name": "endAuction",
      "outputs": [],
      "stateMutability": "nonpayable",
      "type": "function"
    }
  ],
  "bytecode": "0x6080604052600560045534801561001557600080fd5b50604051610c45380380610c45833981016040819052610034916100dc565b6001600055600280546001600160a01b03808a166001600160a01b03199283161790925560038054928916929091169190911790556007859055600884905561007d834261015b565b600955600680546001600160a01b039384166001600160a01b0319918216811790925560058054821690921790915560018054929093169116179055506101829350505050565b6001600160a01b03811681146100d957600080fd5b50565b600080600080600080600060e0888a0312156100f757600080fd5b8751610102816100c4565b6020890151909750610113816100c4565b8096505060408801519450606088015193506080880151925060a088015161013a816100c4565b60c089015190925061014b816100c4565b8091505092959891949750929550565b8082018082111561017c57634e487b7160e01b600052601160045260246000fd5b92915050565b610ab4806101916000396000f3fe6080604052600436106101085760003560e01c80638a71bb2d11610095578063cebd31bc11610064578063cebd31bc14610282578063d57bde7914610297578063d6fbf202146102ad578063f1fffdcb146102c3578063fe67a54b146102e357600080fd5b80638a71bb2d1461021657806391f901571461022c578063aae282e11461024c578063c6bc51821461026c57600080fd5b80631998aeef116100dc5780631998aeef146101a257806332761573146101ac5780634979440a146101cc5780634b449cba146101eb578063787c0a6c1461020157600080fd5b80623495a41461010d57806308551a53146101445780630cc79a851461016457806312fa6feb14610188575b600080fd5b34801561011957600080fd5b50600a546001600160a01b03165b6040516001600160a01b0390911681526020015b60405180910390f35b34801561015057600080fd5b50600354610127906001600160a01b031681565b34801561017057600080fd5b50600c5460ff165b604051901515815260200161013b565b34801561019457600080fd5b50600c546101789060ff1681565b6101aa6102f8565b005b3480156101b857600080fd5b50600154610127906001600160a01b031681565b3480156101d857600080fd5b50600b545b60405190815260200161013b565b3480156101f757600080fd5b506101dd60095481565b34801561020d57600080fd5b506009546101dd565b34801561022257600080fd5b506101dd60045481565b34801561023857600080fd5b50600a54610127906001600160a01b031681565b34801561025857600080fd5b50600654610127906001600160a01b031681565b34801561027857600080fd5b506101dd60075481565b34801561028e57600080fd5b506008546101dd565b3480156102a357600080fd5b506101dd600b5481565b3480156102b957600080fd5b506101dd60085481565b3480156102cf57600080fd5b50600254610127906001600160a01b031681565b3480156102ef57600080fd5b506101aa61059b565b6103006109aa565b6003546001600160a01b031633036103735760405162461bcd60e51b815260206004820152602b60248201527f5477656574206f776e65722063616e6e6f7420626964206f6e2074686569722060448201526a37bbb71030bab1ba34b7b760a91b60648201526084015b60405180910390fd5b6008543410156103e05760405162461bcd60e51b815260206004820152603260248201527f4269642073686f756c6420626520657175616c206f722067726561746572207460448201527168616e207374617274696e6720707269636560701b606482015260840161036a565b600a546001600160a01b031633036104455760405162461bcd60e51b815260206004820152602260248201527f596f752061726520616c7265616479207468652068696768657374206269646460448201526132b960f11b606482015260840161036a565b600b5434116104b15760405162461bcd60e51b815260206004820152603260248201527f546865726520616c7265616479206973206120686967686572206269642c20696044820152711b98dc99585cd948189a5908185b5bdd5b9d60721b606482015260840161036a565b6009544211156104fb5760405162461bcd60e51b8152602060048201526015602482015274105d58dd1a5bdb88185b1c9958591e48195b991959605a1b604482015260640161036a565b600b541561054157600a54600b546040516001600160a01b039092169181156108fc0291906000818181858888f1935050505015801561053f573d6000803e3d6000fd5b505b600a80546001600160a01b0319163390811790915534600b8190556040519081527ff4757a49b326036464bec6fe419a4ae38c8a02ce3e68bf0809674f6aab8ad3009060200160405180910390a26105996001600055565b565b6105a36109aa565b6003546001600160a01b031633146105fd5760405162461bcd60e51b815260206004820152601b60248201527f4f6e6c792073656c6c65722063616e20656e642061756374696f6e0000000000604482015260640161036a565b6009544210156106475760405162461bcd60e51b8152602060048201526015602482015274105d58dd1a5bdb881a185cc81b9bdd08195b991959605a1b604482015260640161036a565b600c5460ff161561069a5760405162461bcd60e51b815260206004820152601f60248201527f41756374696f6e2068617320616c7265616479206265656e2063616c6c656400604482015260640161036a565b60006064600b5460056106ad9190610a19565b6106b79190610a36565b905060006064600454600b546106cd9190610a19565b6106d79190610a36565b905060008282600b546106ea9190610a58565b6106f49190610a58565b6003546002549192506001600160a01b039081169116036107be576002546001600160a01b03166108fc6107288484610a6b565b6040518115909202916000818181858888f19350505050158015610750573d6000803e3d6000fd5b50600160009054906101000a90046001600160a01b03166001600160a01b0316625c33e1846040518263ffffffff1660e01b81526004016000604051808303818588803b1580156107a057600080fd5b505af11580156107b4573d6000803e3d6000fd5b505050505061089d565b6002546040516001600160a01b039091169083156108fc029084906000818181858888f193505050501580156107f8573d6000803e3d6000fd5b506003546040516001600160a01b039091169082156108fc029083906000818181858888f19350505050158015610833573d6000803e3d6000fd5b50600160009054906101000a90046001600160a01b03166001600160a01b0316625c33e1846040518263ffffffff1660e01b81526004016000604051808303818588803b15801561088357600080fd5b505af1158015610897573d6000803e3d6000fd5b50505050505b600854600b541061092157600554600354600a54600754604051632142170760e11b81526001600160a01b039384166004820152918316602483015260448201529116906342842e0e90606401600060405180830381600087803b15801561090457600080fd5b505af1158015610918573d6000803e3d6000fd5b50505050610936565b5050600c805460ff19166001179055506109a0565b600c805460ff19166001179055600a54600b5460408051918252602082018590528101859052606081018390526001600160a01b03909116907fcb6595eef05297e01772a36ee3cb82dfcb2a2f09283ea7680fcb215d7536f4409060800160405180910390a25050505b6105996001600055565b6002600054036109fc5760405162461bcd60e51b815260206004820152601f60248201527f5265656e7472616e637947756172643a207265656e7472616e742063616c6c00604482015260640161036a565b6002600055565b634e487b7160e01b600052601160045260246000fd5b8082028115828204841417610a3057610a30610a03565b92915050565b600082610a5357634e487b7160e01b600052601260045260246000fd5b500490565b81810381811115610a3057610a30610a03565b80820180821115610a3057610a30610a0356fea264697066735822122049bb52db992151f7e900f466381532b15e035bad689d62e8af370f994d75ebe164736f6c63430008130033",
  "immutableReferences": {},
  "source": "// SPDX-License-Identifier: MIT\npragma solidity ^0.8.19;\n\nimport \"@openzeppelin/contracts/security/ReentrancyGuard.sol\";\n\nimport \"./TweetNFT.sol\";\nimport './Twitter.sol';\n\ncontract Auction is ReentrancyGuard {\n    Twitter public twitterContract;\n\n    address payable public originalOwner;\n    address payable public seller;\n    uint256 public royaltyPercentage = 5;\n\n    TweetNFT private nftContract;\n    address public nftContractAddress;\n    uint256 public nftId;\n\n    uint256 public startingPrice;\n    uint256 public auctionEndTime;\n    address payable public highestBidder;\n    uint256 public highestBid;\n\n    bool public ended;\n\n    event HighestBidIncreased(address indexed bidder, uint256 amount);\n    event AuctionEnded(address indexed winner, uint256 amount, uint256 royaltyAmount, uint256 twitterFee, uint256 sellerShare);\n\n    constructor(\n        address payable _originalOwner, \n        address payable _seller, \n        uint256 _nftId, \n        uint256 _startingPrice,\n        uint256 _auctionDuration, \n        address _nftContractAddress,\n        address _twitterContractAddress\n        ) {\n            originalOwner = _originalOwner;\n            seller = _seller;\n            nftId = _nftId;\n            startingPrice = _startingPrice;\n            auctionEndTime = block.timestamp + _auctionDuration;\n            nftContractAddress = _nftContractAddress;\n            nftContract = TweetNFT(_nftContractAddress);\n            twitterContract = Twitter(_twitterContractAddress);\n    }\n\n    function getStartingPrice() public view returns (uint256) {\n        return startingPrice;\n    }\n\n    function getAuctionEndTime() public view returns (uint256) {\n        return auctionEndTime;\n    }\n\n    function getHighestBidder() public view returns (address payable) {\n        return highestBidder;\n    }\n\n    function getHighestBid() public view returns (uint256) {\n        return highestBid;\n    }\n\n    function getEnded() public view returns (bool) {\n        return ended;\n    }\n\n\n    function bid() public payable nonReentrant {\n        require(msg.sender != seller, \"Tweet owner cannot bid on their own auction\");\n        require(msg.value >= startingPrice, \"Bid should be equal or greater than starting price\");\n        require(msg.sender != highestBidder, \"You are already the highest bidder\");\n        require(msg.value > highestBid, \"There already is a higher bid, increase bid amount\");\n        require(block.timestamp <= auctionEndTime, \"Auction already ended\");\n\n        if (highestBid != 0) {\n            highestBidder.transfer(highestBid);\n        }\n\n        highestBidder = payable(msg.sender);\n        highestBid = msg.value;\n        emit HighestBidIncreased(msg.sender, msg.value);\n    }\n\n    function endAuction() public nonReentrant {\n        require(msg.sender == seller, \"Only seller can end auction\");\n        require(block.timestamp >= auctionEndTime, \"Auction has not ended\");\n        require(!ended, \"Auction has already been called\");\n        \n        uint256 twitterFee = (highestBid * 5) / 100;\n        uint256 royaltyAmount = (highestBid * royaltyPercentage) / 100;\n        uint256 sellerShare = highestBid - royaltyAmount - twitterFee;\n\n        if (originalOwner == seller) {\n            originalOwner.transfer(sellerShare + royaltyAmount);\n            twitterContract.receiveFunds{value: twitterFee}();\n        } else {\n            originalOwner.transfer(royaltyAmount);\n            seller.transfer(sellerShare);\n            twitterContract.receiveFunds{value: twitterFee}();\n        }\n        // Transfer NFT ownership to highest bidder\n        if (highestBid >= startingPrice) {\n            nftContract.safeTransferFrom(seller, highestBidder, nftId);\n        } else {\n            ended = true;\n            return;\n        }\n            \n\n        ended = true;\n        emit AuctionEnded(highestBidder, highestBid, royaltyAmount, twitterFee, sellerShare);\n    }\n}\n",
  "sourcePath": "/Users/jamesstorage/Repos/decentralized-twitter/src/contracts/Auction.sol",
  "compiler": {
    "name": "solc",
    "version": "0.8.19+commit.7dd6d404.Emscripten.clang"
  },
  "schemaVersion": "3.4.13",
  "updatedAt": "2023-04-13T14:31:22.183Z",
  "networkType": "ethereum",
  "devdoc": {
    "kind": "dev",
    "methods": {},
    "version": 1
  },
  "userdoc": {
    "kind": "user",
    "methods": {},
    "version": 1
  }
}