{
  "contractName": "TweetNFT",
  "abi": [
    {
      "inputs": [],
      "stateMutability": "nonpayable",
      "type": "constructor"
    },
    {
      "anonymous": false,
      "inputs": [
        {
          "indexed": true,
          "internalType": "address",
          "name": "owner",
          "type": "address"
        },
        {
          "indexed": true,
          "internalType": "address",
          "name": "approved",
          "type": "address"
        },
        {
          "indexed": true,
          "internalType": "uint256",
          "name": "tokenId",
          "type": "uint256"
        }
      ],
      "name": "Approval",
      "type": "event"
    },
    {
      "anonymous": false,
      "inputs": [
        {
          "indexed": true,
          "internalType": "address",
          "name": "owner",
          "type": "address"
        },
        {
          "indexed": true,
          "internalType": "address",
          "name": "operator",
          "type": "address"
        },
        {
          "indexed": false,
          "internalType": "bool",
          "name": "approved",
          "type": "bool"
        }
      ],
      "name": "ApprovalForAll",
      "type": "event"
    },
    {
      "anonymous": false,
      "inputs": [
        {
          "indexed": false,
          "internalType": "address",
          "name": "originalOwner",
          "type": "address"
        },
        {
          "indexed": false,
          "internalType": "address",
          "name": "seller",
          "type": "address"
        },
        {
          "indexed": false,
          "internalType": "uint256",
          "name": "nftId",
          "type": "uint256"
        },
        {
          "indexed": false,
          "internalType": "uint256",
          "name": "startingPrice",
          "type": "uint256"
        },
        {
          "indexed": false,
          "internalType": "uint256",
          "name": "auctionDuration",
          "type": "uint256"
        },
        {
          "indexed": false,
          "internalType": "uint256",
          "name": "auctionEndTime",
          "type": "uint256"
        },
        {
          "indexed": false,
          "internalType": "address",
          "name": "twitterContract",
          "type": "address"
        },
        {
          "indexed": false,
          "internalType": "address",
          "name": "auctionAddress",
          "type": "address"
        }
      ],
      "name": "AuctionCreated",
      "type": "event"
    },
    {
      "anonymous": false,
      "inputs": [
        {
          "indexed": false,
          "internalType": "uint256",
          "name": "nftId",
          "type": "uint256"
        },
        {
          "indexed": false,
          "internalType": "address",
          "name": "owner",
          "type": "address"
        },
        {
          "indexed": false,
          "internalType": "uint256",
          "name": "tweetId",
          "type": "uint256"
        },
        {
          "indexed": false,
          "internalType": "string",
          "name": "fullUri",
          "type": "string"
        },
        {
          "indexed": false,
          "internalType": "string",
          "name": "imageURI",
          "type": "string"
        },
        {
          "indexed": false,
          "internalType": "string",
          "name": "htmlURI",
          "type": "string"
        },
        {
          "indexed": false,
          "internalType": "uint256",
          "name": "timestamp",
          "type": "uint256"
        }
      ],
      "name": "NFTMinted",
      "type": "event"
    },
    {
      "anonymous": false,
      "inputs": [
        {
          "indexed": true,
          "internalType": "address",
          "name": "from",
          "type": "address"
        },
        {
          "indexed": true,
          "internalType": "address",
          "name": "to",
          "type": "address"
        },
        {
          "indexed": true,
          "internalType": "uint256",
          "name": "tokenId",
          "type": "uint256"
        }
      ],
      "name": "Transfer",
      "type": "event"
    },
    {
      "inputs": [
        {
          "internalType": "address",
          "name": "to",
          "type": "address"
        },
        {
          "internalType": "uint256",
          "name": "tokenId",
          "type": "uint256"
        }
      ],
      "name": "approve",
      "outputs": [],
      "stateMutability": "nonpayable",
      "type": "function"
    },
    {
      "inputs": [
        {
          "internalType": "address",
          "name": "owner",
          "type": "address"
        }
      ],
      "name": "balanceOf",
      "outputs": [
        {
          "internalType": "uint256",
          "name": "",
          "type": "uint256"
        }
      ],
      "stateMutability": "view",
      "type": "function",
      "constant": true
    },
    {
      "inputs": [],
      "name": "baseURI",
      "outputs": [
        {
          "internalType": "string",
          "name": "",
          "type": "string"
        }
      ],
      "stateMutability": "view",
      "type": "function",
      "constant": true
    },
    {
      "inputs": [
        {
          "internalType": "uint256",
          "name": "tokenId",
          "type": "uint256"
        }
      ],
      "name": "getApproved",
      "outputs": [
        {
          "internalType": "address",
          "name": "",
          "type": "address"
        }
      ],
      "stateMutability": "view",
      "type": "function",
      "constant": true
    },
    {
      "inputs": [
        {
          "internalType": "address",
          "name": "owner",
          "type": "address"
        },
        {
          "internalType": "address",
          "name": "operator",
          "type": "address"
        }
      ],
      "name": "isApprovedForAll",
      "outputs": [
        {
          "internalType": "bool",
          "name": "",
          "type": "bool"
        }
      ],
      "stateMutability": "view",
      "type": "function",
      "constant": true
    },
    {
      "inputs": [],
      "name": "name",
      "outputs": [
        {
          "internalType": "string",
          "name": "",
          "type": "string"
        }
      ],
      "stateMutability": "view",
      "type": "function",
      "constant": true
    },
    {
      "inputs": [
        {
          "internalType": "uint256",
          "name": "",
          "type": "uint256"
        },
        {
          "internalType": "uint256",
          "name": "",
          "type": "uint256"
        }
      ],
      "name": "nftAuctions",
      "outputs": [
        {
          "internalType": "address",
          "name": "",
          "type": "address"
        }
      ],
      "stateMutability": "view",
      "type": "function",
      "constant": true
    },
    {
      "inputs": [
        {
          "internalType": "uint256",
          "name": "tokenId",
          "type": "uint256"
        }
      ],
      "name": "ownerOf",
      "outputs": [
        {
          "internalType": "address",
          "name": "",
          "type": "address"
        }
      ],
      "stateMutability": "view",
      "type": "function",
      "constant": true
    },
    {
      "inputs": [
        {
          "internalType": "address",
          "name": "from",
          "type": "address"
        },
        {
          "internalType": "address",
          "name": "to",
          "type": "address"
        },
        {
          "internalType": "uint256",
          "name": "tokenId",
          "type": "uint256"
        }
      ],
      "name": "safeTransferFrom",
      "outputs": [],
      "stateMutability": "nonpayable",
      "type": "function"
    },
    {
      "inputs": [
        {
          "internalType": "address",
          "name": "from",
          "type": "address"
        },
        {
          "internalType": "address",
          "name": "to",
          "type": "address"
        },
        {
          "internalType": "uint256",
          "name": "tokenId",
          "type": "uint256"
        },
        {
          "internalType": "bytes",
          "name": "data",
          "type": "bytes"
        }
      ],
      "name": "safeTransferFrom",
      "outputs": [],
      "stateMutability": "nonpayable",
      "type": "function"
    },
    {
      "inputs": [
        {
          "internalType": "address",
          "name": "operator",
          "type": "address"
        },
        {
          "internalType": "bool",
          "name": "approved",
          "type": "bool"
        }
      ],
      "name": "setApprovalForAll",
      "outputs": [],
      "stateMutability": "nonpayable",
      "type": "function"
    },
    {
      "inputs": [
        {
          "internalType": "bytes4",
          "name": "interfaceId",
          "type": "bytes4"
        }
      ],
      "name": "supportsInterface",
      "outputs": [
        {
          "internalType": "bool",
          "name": "",
          "type": "bool"
        }
      ],
      "stateMutability": "view",
      "type": "function",
      "constant": true
    },
    {
      "inputs": [],
      "name": "symbol",
      "outputs": [
        {
          "internalType": "string",
          "name": "",
          "type": "string"
        }
      ],
      "stateMutability": "view",
      "type": "function",
      "constant": true
    },
    {
      "inputs": [
        {
          "internalType": "address",
          "name": "from",
          "type": "address"
        },
        {
          "internalType": "address",
          "name": "to",
          "type": "address"
        },
        {
          "internalType": "uint256",
          "name": "tokenId",
          "type": "uint256"
        }
      ],
      "name": "transferFrom",
      "outputs": [],
      "stateMutability": "nonpayable",
      "type": "function"
    },
    {
      "inputs": [
        {
          "internalType": "uint256",
          "name": "nftId",
          "type": "uint256"
        }
      ],
      "name": "isTweetMinted",
      "outputs": [
        {
          "internalType": "bool",
          "name": "",
          "type": "bool"
        }
      ],
      "stateMutability": "view",
      "type": "function",
      "constant": true
    },
    {
      "inputs": [
        {
          "internalType": "uint256",
          "name": "nftId",
          "type": "uint256"
        }
      ],
      "name": "getOriginalOwner",
      "outputs": [
        {
          "internalType": "address",
          "name": "",
          "type": "address"
        }
      ],
      "stateMutability": "view",
      "type": "function",
      "constant": true
    },
    {
      "inputs": [],
      "name": "getTwitterContractAddress",
      "outputs": [
        {
          "internalType": "address",
          "name": "",
          "type": "address"
        }
      ],
      "stateMutability": "view",
      "type": "function",
      "constant": true
    },
    {
      "inputs": [
        {
          "internalType": "uint256",
          "name": "_nftId",
          "type": "uint256"
        }
      ],
      "name": "getAuctionAddresses",
      "outputs": [
        {
          "internalType": "address[]",
          "name": "",
          "type": "address[]"
        }
      ],
      "stateMutability": "view",
      "type": "function",
      "constant": true
    },
    {
      "inputs": [
        {
          "internalType": "string",
          "name": "_baseURI",
          "type": "string"
        }
      ],
      "name": "setBaseURI",
      "outputs": [],
      "stateMutability": "nonpayable",
      "type": "function"
    },
    {
      "inputs": [
        {
          "internalType": "uint256",
          "name": "tokenId",
          "type": "uint256"
        }
      ],
      "name": "tokenURI",
      "outputs": [
        {
          "internalType": "string",
          "name": "",
          "type": "string"
        }
      ],
      "stateMutability": "view",
      "type": "function",
      "constant": true
    },
    {
      "inputs": [
        {
          "internalType": "address",
          "name": "_twitterContractAddress",
          "type": "address"
        }
      ],
      "name": "setTwitterContractAddress",
      "outputs": [],
      "stateMutability": "nonpayable",
      "type": "function"
    },
    {
      "inputs": [
        {
          "internalType": "uint256",
          "name": "_nftId",
          "type": "uint256"
        },
        {
          "internalType": "uint256",
          "name": "_startingPrice",
          "type": "uint256"
        },
        {
          "internalType": "uint256",
          "name": "_auctionDuration",
          "type": "uint256"
        }
      ],
      "name": "createAuction",
      "outputs": [],
      "stateMutability": "nonpayable",
      "type": "function"
    },
    {
      "inputs": [
        {
          "internalType": "address payable",
          "name": "owner",
          "type": "address"
        },
        {
          "internalType": "uint256",
          "name": "tweetId",
          "type": "uint256"
        },
        {
          "internalType": "string",
          "name": "metadataURI",
          "type": "string"
        },
        {
          "internalType": "string",
          "name": "imageURI",
          "type": "string"
        },
        {
          "internalType": "string",
          "name": "htmlURI",
          "type": "string"
        }
      ],
      "name": "mintTweetNFT",
      "outputs": [
        {
          "internalType": "uint256",
          "name": "",
          "type": "uint256"
        }
      ],
      "stateMutability": "nonpayable",
      "type": "function"
    }
  ],
  "bytecode": "0x60806040523480156200001157600080fd5b5060405180604001604052806008815260200167151dd9595d13919560c21b815250604051806040016040528060058152602001641515d3919560da1b81525081600090816200006291906200011f565b5060016200007182826200011f565b505050620001eb565b634e487b7160e01b600052604160045260246000fd5b600181811c90821680620000a557607f821691505b602082108103620000c657634e487b7160e01b600052602260045260246000fd5b50919050565b601f8211156200011a57600081815260208120601f850160051c81016020861015620000f55750805b601f850160051c820191505b81811015620001165782815560010162000101565b5050505b505050565b81516001600160401b038111156200013b576200013b6200007a565b62000153816200014c845462000090565b84620000cc565b602080601f8311600181146200018b5760008415620001725750858301515b600019600386901b1c1916600185901b17855562000116565b600085815260208120601f198616915b82811015620001bc578886015182559484019460019091019084016200019b565b5085821015620001db5787850151600019600388901b60f8161c191681555b5050505050600190811b01905550565b612ba580620001fb6000396000f3fe60806040523480156200001157600080fd5b5060043610620001695760003560e01c80636352211e11620000d3578063b88d4fde1162000086578063b88d4fde146200034a578063bbc220151462000361578063c87b56dd1462000378578063cda4beef146200038f578063e86fb58a14620003a6578063e985e9c514620003bd57600080fd5b80636352211e14620002bc5780636c0360eb14620002d357806370a0823114620002dd57806395d89b411462000303578063a22cb465146200030d578063af5b3150146200032457600080fd5b806331236289116200012c57806331236289146200021357806342842e0e146200022a57806345bfb0c814620002415780634eeba5be146200026757806355f804b314620002935780635a61110714620002aa57600080fd5b806301ffc9a7146200016e57806306fdde03146200019a578063081812fc14620001b3578063095ea7b314620001e357806323b872dd14620001fc575b600080fd5b620001856200017f3660046200174b565b620003d4565b60405190151581526020015b60405180910390f35b620001a462000428565b604051620001919190620017bf565b620001ca620001c4366004620017d4565b620004c2565b6040516001600160a01b03909116815260200162000191565b620001fa620001f436600462001804565b620004eb565b005b620001fa6200020d36600462001833565b6200060f565b620001ca6200022436600462001879565b62000647565b620001fa6200023b36600462001833565b62000680565b6200018562000252366004620017d4565b60009081526008602052604090205460ff1690565b620001ca62000278366004620017d4565b6000908152600960205260409020546001600160a01b031690565b620001fa620002a436600462001952565b6200069d565b600a546001600160a01b0316620001ca565b620001ca620002cd366004620017d4565b620006af565b620001a462000711565b620002f4620002ee3660046200198b565b620007a7565b60405190815260200162000191565b620001a46200082f565b620001fa6200031e366004620019ab565b62000840565b6200033b62000335366004620017d4565b6200084d565b604051620001919190620019ed565b620001fa6200035b36600462001a3c565b620008bb565b620002f46200037236600462001ac5565b620008fa565b620001a462000389366004620017d4565b62000a22565b620001fa620003a036600462001b76565b62000a2f565b620001fa620003b73660046200198b565b62000c65565b62000185620003ce36600462001ba3565b62000cfe565b60006001600160e01b031982166380ac58cd60e01b14806200040657506001600160e01b03198216635b5e139f60e01b145b806200042257506301ffc9a760e01b6001600160e01b03198316145b92915050565b606060008054620004399062001bd6565b80601f0160208091040260200160405190810160405280929190818152602001828054620004679062001bd6565b8015620004b85780601f106200048c57610100808354040283529160200191620004b8565b820191906000526020600020905b8154815290600101906020018083116200049a57829003601f168201915b5050505050905090565b6000620004cf8262000d2c565b506000908152600460205260409020546001600160a01b031690565b6000620004f882620006af565b9050806001600160a01b0316836001600160a01b0316036200056b5760405162461bcd60e51b815260206004820152602160248201527f4552433732313a20617070726f76616c20746f2063757272656e74206f776e656044820152603960f91b60648201526084015b60405180910390fd5b336001600160a01b03821614806200058a57506200058a813362000cfe565b620005fe5760405162461bcd60e51b815260206004820152603d60248201527f4552433732313a20617070726f76652063616c6c6572206973206e6f7420746f60448201527f6b656e206f776e6572206f7220617070726f76656420666f7220616c6c000000606482015260840162000562565b6200060a838362000d90565b505050565b6200061b338262000e00565b6200063a5760405162461bcd60e51b8152600401620005629062001c12565b6200060a83838362000e67565b600c60205281600052604060002081815481106200066457600080fd5b6000918252602090912001546001600160a01b03169150829050565b6200060a83838360405180602001604052806000815250620008bb565b600b620006ab828262001cb1565b5050565b6000818152600260205260408120546001600160a01b031680620004225760405162461bcd60e51b8152602060048201526018602482015277115490cdcc8c4e881a5b9d985b1a59081d1bdad95b88125160421b604482015260640162000562565b600b8054620007209062001bd6565b80601f01602080910402602001604051908101604052809291908181526020018280546200074e9062001bd6565b80156200079f5780601f1062000773576101008083540402835291602001916200079f565b820191906000526020600020905b8154815290600101906020018083116200078157829003601f168201915b505050505081565b60006001600160a01b038216620008135760405162461bcd60e51b815260206004820152602960248201527f4552433732313a2061646472657373207a65726f206973206e6f7420612076616044820152683634b21037bbb732b960b91b606482015260840162000562565b506001600160a01b031660009081526003602052604090205490565b606060018054620004399062001bd6565b620006ab33838362000fd7565b6000818152600c6020908152604091829020805483518184028101840190945280845260609392830182828015620008af57602002820191906000526020600020905b81546001600160a01b0316815260019091019060200180831162000890575b50505050509050919050565b620008c7338362000e00565b620008e65760405162461bcd60e51b8152600401620005629062001c12565b620008f484848484620010a7565b50505050565b6000806200090760075490565b60008781526008602052604090205490915060ff16156200096b5760405162461bcd60e51b815260206004820152601d60248201527f54776565742068617320616c7265616479206265656e206d696e746564000000604482015260640162000562565b620009778782620010e1565b62000983818662001272565b6000868152600860209081526040808320805460ff191660011790558383526009909152902080546001600160a01b0389166001600160a01b0319909116179055620009d3600780546001019055565b7f4c56890966190adc39f6b2f57c84a525fd0d1749816f0b96cf398f10e7d4454d8188888888884260405162000a10979695949392919062001d7e565b60405180910390a19695505050505050565b6060620004228262001309565b6000838152600260205260409020546001600160a01b031662000a8a5760405162461bcd60e51b815260206004820152601260248201527113919508191bd95cc81b9bdd08195e1a5cdd60721b604482015260640162000562565b3362000a9684620006af565b6001600160a01b03161462000af95760405162461bcd60e51b815260206004820152602260248201527f43616c6c6572206973206e6f7420746865206f776e6572206f6620746865204e604482015261119560f21b606482015260840162000562565b6000838152600960205260408120546001600160a01b03169062000b1e834262001dec565b90506000823387878730600a60009054906101000a90046001600160a01b031660405162000b4c9062001726565b6001600160a01b0397881681529587166020870152604086019490945260608501929092526080840152831660a083015290911660c082015260e001604051809103906000f08015801562000ba5573d6000803e3d6000fd5b506000878152600c602090815260408220805460018101825590835291200180546001600160a01b0319166001600160a01b038316179055905062000beb818762000d90565b600a54604080516001600160a01b038087168252336020830152918101899052606081018890526080810187905260a0810185905291811660c0830152821660e08201527f96bad7212f78975e386fa6d29bae4dba553cd46132da822e4e623edcdc541066906101000160405180910390a1505050505050565b600a54600160a01b900460ff161562000cd75760405162461bcd60e51b815260206004820152602d60248201527f5477697474657220636f6e747261637420616464726573732068617320616c7260448201526c1958591e481899595b881cd95d609a1b606482015260840162000562565b600a80546001600160a81b0319166001600160a01b0390921691909117600160a01b179055565b6001600160a01b03918216600090815260056020908152604080832093909416825291909152205460ff1690565b6000818152600260205260409020546001600160a01b031662000d8d5760405162461bcd60e51b8152602060048201526018602482015277115490cdcc8c4e881a5b9d985b1a59081d1bdad95b88125160421b604482015260640162000562565b50565b600081815260046020526040902080546001600160a01b0319166001600160a01b038416908117909155819062000dc782620006af565b6001600160a01b03167f8c5be1e5ebec7d5bd14f71427d1e84f3dd0314c0f7b2291e5b200ac8c7c3b92560405160405180910390a45050565b60008062000e0e83620006af565b9050806001600160a01b0316846001600160a01b0316148062000e38575062000e38818562000cfe565b8062000e5f5750836001600160a01b031662000e5484620004c2565b6001600160a01b0316145b949350505050565b826001600160a01b031662000e7c82620006af565b6001600160a01b03161462000ea55760405162461bcd60e51b8152600401620005629062001e0e565b6001600160a01b03821662000f095760405162461bcd60e51b8152602060048201526024808201527f4552433732313a207472616e7366657220746f20746865207a65726f206164646044820152637265737360e01b606482015260840162000562565b826001600160a01b031662000f1e82620006af565b6001600160a01b03161462000f475760405162461bcd60e51b8152600401620005629062001e0e565b600081815260046020908152604080832080546001600160a01b03199081169091556001600160a01b0387811680865260038552838620805460001901905590871680865283862080546001019055868652600290945282852080549092168417909155905184937fddf252ad1be2c89b69c2b068fc378daa952ba7f163c4a11628f55a4df523b3ef91a4505050565b816001600160a01b0316836001600160a01b0316036200103a5760405162461bcd60e51b815260206004820152601960248201527f4552433732313a20617070726f766520746f2063616c6c657200000000000000604482015260640162000562565b6001600160a01b03838116600081815260056020908152604080832094871680845294825291829020805460ff191686151590811790915591519182527f17307eab39ab6107e8899845ad3d59bd9653f200f220920489ca2b5937696c31910160405180910390a3505050565b620010b484848462000e67565b620010c28484848462001422565b620008f45760405162461bcd60e51b8152600401620005629062001e53565b6001600160a01b038216620011395760405162461bcd60e51b815260206004820181905260248201527f4552433732313a206d696e7420746f20746865207a65726f2061646472657373604482015260640162000562565b6000818152600260205260409020546001600160a01b031615620011a05760405162461bcd60e51b815260206004820152601c60248201527f4552433732313a20746f6b656e20616c7265616479206d696e74656400000000604482015260640162000562565b6000818152600260205260409020546001600160a01b031615620012075760405162461bcd60e51b815260206004820152601c60248201527f4552433732313a20746f6b656e20616c7265616479206d696e74656400000000604482015260640162000562565b6001600160a01b038216600081815260036020908152604080832080546001019055848352600290915280822080546001600160a01b0319168417905551839291907fddf252ad1be2c89b69c2b068fc378daa952ba7f163c4a11628f55a4df523b3ef908290a45050565b6000828152600260205260409020546001600160a01b0316620012ef5760405162461bcd60e51b815260206004820152602e60248201527f45524337323155524953746f726167653a2055524920736574206f66206e6f6e60448201526d32bc34b9ba32b73a103a37b5b2b760911b606482015260840162000562565b60008281526006602052604090206200060a828262001cb1565b6060620013168262000d2c565b60008281526006602052604081208054620013319062001bd6565b80601f01602080910402602001604051908101604052809291908181526020018280546200135f9062001bd6565b8015620013b05780601f106200138457610100808354040283529160200191620013b0565b820191906000526020600020905b8154815290600101906020018083116200139257829003601f168201915b505050505090506000620013cf60408051602081019091526000815290565b90508051600003620013e2575092915050565b81511562001417578082604051602001620013ff92919062001ea5565b60405160208183030381529060405292505050919050565b62000e5f8462001530565b60006001600160a01b0384163b156200152557604051630a85bd0160e11b81526001600160a01b0385169063150b7a02906200146990339089908890889060040162001ed8565b6020604051808303816000875af1925050508015620014a7575060408051601f3d908101601f19168201909252620014a49181019062001f17565b60015b6200150a573d808015620014d8576040519150601f19603f3d011682016040523d82523d6000602084013e620014dd565b606091505b508051600003620015025760405162461bcd60e51b8152600401620005629062001e53565b805181602001fd5b6001600160e01b031916630a85bd0160e11b14905062000e5f565b506001949350505050565b60606200153d8262000d2c565b60006200155560408051602081019091526000815290565b90506000815111620015775760405180602001604052806000815250620015a6565b806200158384620015ad565b6040516020016200159692919062001ea5565b6040516020818303038152906040525b9392505050565b60606000620015bc8362001647565b600101905060008167ffffffffffffffff811115620015df57620015df6200189c565b6040519080825280601f01601f1916602001820160405280156200160a576020820181803683370190505b5090508181016020015b600019016f181899199a1a9b1b9c1cb0b131b232b360811b600a86061a8153600a85049450846200161457509392505050565b60008072184f03e93ff9f4daa797ed6e38ed64bf6a1f0160401b8310620016875772184f03e93ff9f4daa797ed6e38ed64bf6a1f0160401b830492506040015b6d04ee2d6d415b85acef81000000008310620016b4576d04ee2d6d415b85acef8100000000830492506020015b662386f26fc100008310620016d357662386f26fc10000830492506010015b6305f5e1008310620016ec576305f5e100830492506008015b61271083106200170157612710830492506004015b6064831062001714576064830492506002015b600a8310620004225760010192915050565b610c388062001f3883390190565b6001600160e01b03198116811462000d8d57600080fd5b6000602082840312156200175e57600080fd5b8135620015a68162001734565b60005b83811015620017885781810151838201526020016200176e565b50506000910152565b60008151808452620017ab8160208601602086016200176b565b601f01601f19169290920160200192915050565b602081526000620015a6602083018462001791565b600060208284031215620017e757600080fd5b5035919050565b6001600160a01b038116811462000d8d57600080fd5b600080604083850312156200181857600080fd5b82356200182581620017ee565b946020939093013593505050565b6000806000606084860312156200184957600080fd5b83356200185681620017ee565b925060208401356200186881620017ee565b929592945050506040919091013590565b600080604083850312156200188d57600080fd5b50508035926020909101359150565b634e487b7160e01b600052604160045260246000fd5b600067ffffffffffffffff80841115620018d057620018d06200189c565b604051601f8501601f19908116603f01168101908282118183101715620018fb57620018fb6200189c565b816040528093508581528686860111156200191557600080fd5b858560208301376000602087830101525050509392505050565b600082601f8301126200194157600080fd5b620015a683833560208501620018b2565b6000602082840312156200196557600080fd5b813567ffffffffffffffff8111156200197d57600080fd5b62000e5f848285016200192f565b6000602082840312156200199e57600080fd5b8135620015a681620017ee565b60008060408385031215620019bf57600080fd5b8235620019cc81620017ee565b915060208301358015158114620019e257600080fd5b809150509250929050565b6020808252825182820181905260009190848201906040850190845b8181101562001a305783516001600160a01b03168352928401929184019160010162001a09565b50909695505050505050565b6000806000806080858703121562001a5357600080fd5b843562001a6081620017ee565b9350602085013562001a7281620017ee565b925060408501359150606085013567ffffffffffffffff81111562001a9657600080fd5b8501601f8101871362001aa857600080fd5b62001ab987823560208401620018b2565b91505092959194509250565b600080600080600060a0868803121562001ade57600080fd5b853562001aeb81620017ee565b945060208601359350604086013567ffffffffffffffff8082111562001b1057600080fd5b62001b1e89838a016200192f565b9450606088013591508082111562001b3557600080fd5b62001b4389838a016200192f565b9350608088013591508082111562001b5a57600080fd5b5062001b69888289016200192f565b9150509295509295909350565b60008060006060848603121562001b8c57600080fd5b505081359360208301359350604090920135919050565b6000806040838503121562001bb757600080fd5b823562001bc481620017ee565b91506020830135620019e281620017ee565b600181811c9082168062001beb57607f821691505b60208210810362001c0c57634e487b7160e01b600052602260045260246000fd5b50919050565b6020808252602d908201527f4552433732313a2063616c6c6572206973206e6f7420746f6b656e206f776e6560408201526c1c881bdc88185c1c1c9bdd9959609a1b606082015260800190565b601f8211156200060a57600081815260208120601f850160051c8101602086101562001c885750805b601f850160051c820191505b8181101562001ca95782815560010162001c94565b505050505050565b815167ffffffffffffffff81111562001cce5762001cce6200189c565b62001ce68162001cdf845462001bd6565b8462001c5f565b602080601f83116001811462001d1e576000841562001d055750858301515b600019600386901b1c1916600185901b17855562001ca9565b600085815260208120601f198616915b8281101562001d4f5788860151825594840194600190910190840162001d2e565b508582101562001d6e5787850151600019600388901b60f8161c191681555b5050505050600190811b01905550565b87815260018060a01b038716602082015285604082015260e06060820152600062001dad60e083018762001791565b828103608084015262001dc1818762001791565b905082810360a084015262001dd7818662001791565b9150508260c083015298975050505050505050565b808201808211156200042257634e487b7160e01b600052601160045260246000fd5b60208082526025908201527f4552433732313a207472616e736665722066726f6d20696e636f72726563742060408201526437bbb732b960d91b606082015260800190565b60208082526032908201527f4552433732313a207472616e7366657220746f206e6f6e20455243373231526560408201527131b2b4bb32b91034b6b83632b6b2b73a32b960711b606082015260800190565b6000835162001eb98184602088016200176b565b83519083019062001ecf8183602088016200176b565b01949350505050565b6001600160a01b038581168252841660208201526040810183905260806060820181905260009062001f0d9083018462001791565b9695505050505050565b60006020828403121562001f2a57600080fd5b8151620015a6816200173456fe6080604052600560045534801561001557600080fd5b50604051610c38380380610c38833981016040819052610034916100dc565b6001600055600280546001600160a01b03808a166001600160a01b03199283161790925560038054928916929091169190911790556007859055600884905561007d834261015b565b600955600680546001600160a01b039384166001600160a01b0319918216811790925560058054821690921790915560018054929093169116179055506101829350505050565b6001600160a01b03811681146100d957600080fd5b50565b600080600080600080600060e0888a0312156100f757600080fd5b8751610102816100c4565b6020890151909750610113816100c4565b8096505060408801519450606088015193506080880151925060a088015161013a816100c4565b60c089015190925061014b816100c4565b8091505092959891949750929550565b8082018082111561017c57634e487b7160e01b600052601160045260246000fd5b92915050565b610aa7806101916000396000f3fe6080604052600436106101135760003560e01c8063787c0a6c116100a0578063cebd31bc11610064578063cebd31bc146102a2578063d57bde79146102b7578063d6fbf202146102cd578063f1fffdcb146102e3578063fe67a54b1461030357600080fd5b8063787c0a6c146102215780638a71bb2d1461023657806391f901571461024c578063aae282e11461026c578063c6bc51821461028c57600080fd5b80631998aeef116100e75780631998aeef146101ad57806322f3e2d4146101b757806332761573146101cc5780634979440a146101ec5780634b449cba1461020b57600080fd5b80623495a41461011857806308551a531461014f5780630cc79a851461016f57806312fa6feb14610193575b600080fd5b34801561012457600080fd5b50600a546001600160a01b03165b6040516001600160a01b0390911681526020015b60405180910390f35b34801561015b57600080fd5b50600354610132906001600160a01b031681565b34801561017b57600080fd5b50600c5460ff165b6040519015158152602001610146565b34801561019f57600080fd5b50600c546101839060ff1681565b6101b5610318565b005b3480156101c357600080fd5b506101836105bb565b3480156101d857600080fd5b50600154610132906001600160a01b031681565b3480156101f857600080fd5b50600b545b604051908152602001610146565b34801561021757600080fd5b506101fd60095481565b34801561022d57600080fd5b506009546101fd565b34801561024257600080fd5b506101fd60045481565b34801561025857600080fd5b50600a54610132906001600160a01b031681565b34801561027857600080fd5b50600654610132906001600160a01b031681565b34801561029857600080fd5b506101fd60075481565b3480156102ae57600080fd5b506008546101fd565b3480156102c357600080fd5b506101fd600b5481565b3480156102d957600080fd5b506101fd60085481565b3480156102ef57600080fd5b50600254610132906001600160a01b031681565b34801561030f57600080fd5b506101b56105d8565b61032061099d565b6003546001600160a01b031633036103935760405162461bcd60e51b815260206004820152602b60248201527f5477656574206f776e65722063616e6e6f7420626964206f6e2074686569722060448201526a37bbb71030bab1ba34b7b760a91b60648201526084015b60405180910390fd5b6008543410156104005760405162461bcd60e51b815260206004820152603260248201527f4269642073686f756c6420626520657175616c206f722067726561746572207460448201527168616e207374617274696e6720707269636560701b606482015260840161038a565b600a546001600160a01b031633036104655760405162461bcd60e51b815260206004820152602260248201527f596f752061726520616c7265616479207468652068696768657374206269646460448201526132b960f11b606482015260840161038a565b600b5434116104d15760405162461bcd60e51b815260206004820152603260248201527f546865726520616c7265616479206973206120686967686572206269642c20696044820152711b98dc99585cd948189a5908185b5bdd5b9d60721b606482015260840161038a565b60095442111561051b5760405162461bcd60e51b8152602060048201526015602482015274105d58dd1a5bdb88185b1c9958591e48195b991959605a1b604482015260640161038a565b600b541561056157600a54600b546040516001600160a01b039092169181156108fc0291906000818181858888f1935050505015801561055f573d6000803e3d6000fd5b505b600a80546001600160a01b0319163390811790915534600b8190556040519081527ff4757a49b326036464bec6fe419a4ae38c8a02ce3e68bf0809674f6aab8ad3009060200160405180910390a26105b96001600055565b565b600c5460009060ff161580156105d357506009544211155b905090565b6105e061099d565b6003546001600160a01b0316331461063a5760405162461bcd60e51b815260206004820152601b60248201527f4f6e6c792073656c6c65722063616e20656e642061756374696f6e0000000000604482015260640161038a565b600c5460ff161561068d5760405162461bcd60e51b815260206004820152601f60248201527f41756374696f6e2068617320616c7265616479206265656e2063616c6c656400604482015260640161038a565b60006064600b5460056106a09190610a0c565b6106aa9190610a29565b905060006064600454600b546106c09190610a0c565b6106ca9190610a29565b905060008282600b546106dd9190610a4b565b6106e79190610a4b565b6003546002549192506001600160a01b039081169116036107b1576002546001600160a01b03166108fc61071b8484610a5e565b6040518115909202916000818181858888f19350505050158015610743573d6000803e3d6000fd5b50600160009054906101000a90046001600160a01b03166001600160a01b0316625c33e1846040518263ffffffff1660e01b81526004016000604051808303818588803b15801561079357600080fd5b505af11580156107a7573d6000803e3d6000fd5b5050505050610890565b6002546040516001600160a01b039091169083156108fc029084906000818181858888f193505050501580156107eb573d6000803e3d6000fd5b506003546040516001600160a01b039091169082156108fc029083906000818181858888f19350505050158015610826573d6000803e3d6000fd5b50600160009054906101000a90046001600160a01b03166001600160a01b0316625c33e1846040518263ffffffff1660e01b81526004016000604051808303818588803b15801561087657600080fd5b505af115801561088a573d6000803e3d6000fd5b50505050505b600854600b541061091457600554600354600a54600754604051632142170760e11b81526001600160a01b039384166004820152918316602483015260448201529116906342842e0e90606401600060405180830381600087803b1580156108f757600080fd5b505af115801561090b573d6000803e3d6000fd5b50505050610929565b5050600c805460ff1916600117905550610993565b600c805460ff19166001179055600a54600b5460408051918252602082018590528101859052606081018390526001600160a01b03909116907fcb6595eef05297e01772a36ee3cb82dfcb2a2f09283ea7680fcb215d7536f4409060800160405180910390a25050505b6105b96001600055565b6002600054036109ef5760405162461bcd60e51b815260206004820152601f60248201527f5265656e7472616e637947756172643a207265656e7472616e742063616c6c00604482015260640161038a565b6002600055565b634e487b7160e01b600052601160045260246000fd5b8082028115828204841417610a2357610a236109f6565b92915050565b600082610a4657634e487b7160e01b600052601260045260246000fd5b500490565b81810381811115610a2357610a236109f6565b80820180821115610a2357610a236109f656fea26469706673582212205d8681e1eb68807ec841c571a784d1051d1db9a86780dafa2d4ad8dee75bacd564736f6c63430008130033a26469706673582212207c52983ebcddd985ffd3829479aca3f974c05131788fac67192132645edf740e64736f6c63430008130033",
  "immutableReferences": {},
  "source": "// SPDX-License-Identifier: MIT\npragma solidity ^0.8.19;\n\nimport \"@openzeppelin/contracts/token/ERC721/ERC721.sol\";\nimport \"@openzeppelin/contracts/token/ERC721/extensions/ERC721URIStorage.sol\";\nimport \"@openzeppelin/contracts/utils/Counters.sol\";\nimport './Auction.sol';\n\ncontract TweetNFT is ERC721, ERC721URIStorage {\n\n    using Counters for Counters.Counter;\n    Counters.Counter private _nftIDs;\n    // Keep track of which tweets have already been minted\n    mapping(uint256 => bool) private _tweetMinted;\n    // Store the owner of each nft URI\n    mapping(uint256 => address) private _originalOwners;\n    // Twitter contract\n    address twitterContractAddress;\n    // Track if the Twitter contract address has been set\n    bool private twitterContractSet;\n    // Base URI for nft\n    string public baseURI;\n    // NFT auction address storage\n    mapping(uint256 => address[]) public nftAuctions;\n\n    constructor() ERC721(\"TweetNFT\", \"TWNFT\") {}\n    \n    event NFTMinted(uint256 nftId, address owner, uint256 tweetId, string fullUri, string imageURI, string htmlURI, uint256 timestamp);\n    event AuctionCreated(address originalOwner, address seller, uint256 nftId, uint256 startingPrice, uint256 auctionDuration, uint256 auctionEndTime, address twitterContract, address auctionAddress);\n\n    function isTweetMinted(uint256 nftId) public view returns (bool) {\n        return _tweetMinted[nftId];\n    }\n\n    function getOriginalOwner(uint256 nftId) public view returns (address) {\n        return _originalOwners[nftId];\n    }\n\n    function getTwitterContractAddress() public view returns (address) {\n        return twitterContractAddress;\n    }\n\n    function getAuctionAddresses(uint256 _nftId) external view returns (address[] memory) {\n        return nftAuctions[_nftId];\n    }\n\n    function setBaseURI(string memory _baseURI) external {\n        baseURI = _baseURI;\n    }\n\n    function _burn(uint256 tokenId) internal override(ERC721, ERC721URIStorage) {\n        super._burn(tokenId);\n        _burn(tokenId);\n    }\n\n    function tokenURI(uint256 tokenId) public view override(ERC721, ERC721URIStorage) returns (string memory) {\n        return super.tokenURI(tokenId);\n    }\n\n    function setTwitterContractAddress(address _twitterContractAddress) external {\n        require(!twitterContractSet, \"Twitter contract address has already been set\");\n        twitterContractAddress = _twitterContractAddress;\n        twitterContractSet = true;\n    }\n\n    function createAuction(uint256 _nftId, uint256 _startingPrice, uint256 _auctionDuration) external {\n        require(_exists(_nftId), \"NFT does not exist\");\n        require(ownerOf(_nftId) == msg.sender, \"Caller is not the owner of the NFT\");\n        address payable originalOwner = payable(_originalOwners[_nftId]);\n        uint256 auctionEndTime = block.timestamp + _auctionDuration;\n        Auction newAuction = new Auction(originalOwner, payable(msg.sender), _nftId, _startingPrice, _auctionDuration, address(this), twitterContractAddress);\n        nftAuctions[_nftId].push(address(newAuction));\n        _approve(address(newAuction), _nftId);\n\n        emit AuctionCreated(originalOwner, msg.sender, _nftId, _startingPrice, _auctionDuration, auctionEndTime, twitterContractAddress, address(newAuction));\n    }\n\n\n    function mintTweetNFT(address payable owner, uint256 tweetId, string memory metadataURI, string memory imageURI, string memory htmlURI) public returns (uint256) {\n        uint256 nftId = _nftIDs.current();\n\n        // Only 1 mint per tweet\n        require(!_tweetMinted[tweetId], \"Tweet has already been minted\");\n    \n        _mint(owner, nftId);\n\n        // Create the full tokenURI\n        _setTokenURI(nftId, metadataURI);\n\n        _tweetMinted[tweetId] = true;\n        _originalOwners[nftId] = owner;\n\n        _nftIDs.increment();\n\n        emit NFTMinted(nftId, owner, tweetId, metadataURI, imageURI, htmlURI, block.timestamp);\n\n        return nftId;\n    }\n}",
  "sourcePath": "/Users/jamesstorage/Repos/decentralized-twitter/src/contracts/TweetNFT.sol",
  "compiler": {
    "name": "solc",
    "version": "0.8.19+commit.7dd6d404.Emscripten.clang"
  },
  "schemaVersion": "3.4.13",
  "updatedAt": "2023-05-04T08:54:52.962Z",
  "networkType": "ethereum",
  "devdoc": {
    "events": {
      "Approval(address,address,uint256)": {
        "details": "Emitted when `owner` enables `approved` to manage the `tokenId` token."
      },
      "ApprovalForAll(address,address,bool)": {
        "details": "Emitted when `owner` enables or disables (`approved`) `operator` to manage all of its assets."
      },
      "Transfer(address,address,uint256)": {
        "details": "Emitted when `tokenId` token is transferred from `from` to `to`."
      }
    },
    "kind": "dev",
    "methods": {
      "approve(address,uint256)": {
        "details": "See {IERC721-approve}."
      },
      "balanceOf(address)": {
        "details": "See {IERC721-balanceOf}."
      },
      "getApproved(uint256)": {
        "details": "See {IERC721-getApproved}."
      },
      "isApprovedForAll(address,address)": {
        "details": "See {IERC721-isApprovedForAll}."
      },
      "name()": {
        "details": "See {IERC721Metadata-name}."
      },
      "ownerOf(uint256)": {
        "details": "See {IERC721-ownerOf}."
      },
      "safeTransferFrom(address,address,uint256)": {
        "details": "See {IERC721-safeTransferFrom}."
      },
      "safeTransferFrom(address,address,uint256,bytes)": {
        "details": "See {IERC721-safeTransferFrom}."
      },
      "setApprovalForAll(address,bool)": {
        "details": "See {IERC721-setApprovalForAll}."
      },
      "supportsInterface(bytes4)": {
        "details": "See {IERC165-supportsInterface}."
      },
      "symbol()": {
        "details": "See {IERC721Metadata-symbol}."
      },
      "transferFrom(address,address,uint256)": {
        "details": "See {IERC721-transferFrom}."
      }
    },
    "version": 1
  },
  "userdoc": {
    "kind": "user",
    "methods": {},
    "version": 1
  }
}