{
  "contractName": "TweetNFT",
  "abi": [
    {
      "inputs": [],
      "stateMutability": "nonpayable",
      "type": "constructor"
    },
    {
      "anonymous": false,
      "inputs": [
        {
          "indexed": true,
          "internalType": "address",
          "name": "owner",
          "type": "address"
        },
        {
          "indexed": true,
          "internalType": "address",
          "name": "approved",
          "type": "address"
        },
        {
          "indexed": true,
          "internalType": "uint256",
          "name": "tokenId",
          "type": "uint256"
        }
      ],
      "name": "Approval",
      "type": "event"
    },
    {
      "anonymous": false,
      "inputs": [
        {
          "indexed": true,
          "internalType": "address",
          "name": "owner",
          "type": "address"
        },
        {
          "indexed": true,
          "internalType": "address",
          "name": "operator",
          "type": "address"
        },
        {
          "indexed": false,
          "internalType": "bool",
          "name": "approved",
          "type": "bool"
        }
      ],
      "name": "ApprovalForAll",
      "type": "event"
    },
    {
      "anonymous": false,
      "inputs": [
        {
          "indexed": false,
          "internalType": "address",
          "name": "originalOwner",
          "type": "address"
        },
        {
          "indexed": false,
          "internalType": "address",
          "name": "seller",
          "type": "address"
        },
        {
          "indexed": false,
          "internalType": "uint256",
          "name": "nftId",
          "type": "uint256"
        },
        {
          "indexed": false,
          "internalType": "uint256",
          "name": "startingPrice",
          "type": "uint256"
        },
        {
          "indexed": false,
          "internalType": "uint256",
          "name": "auctionDuration",
          "type": "uint256"
        },
        {
          "indexed": false,
          "internalType": "uint256",
          "name": "auctionEndTime",
          "type": "uint256"
        },
        {
          "indexed": false,
          "internalType": "address",
          "name": "twitterContract",
          "type": "address"
        },
        {
          "indexed": false,
          "internalType": "address",
          "name": "auctionAddress",
          "type": "address"
        }
      ],
      "name": "AuctionCreated",
      "type": "event"
    },
    {
      "anonymous": false,
      "inputs": [
        {
          "indexed": false,
          "internalType": "uint256",
          "name": "nftId",
          "type": "uint256"
        },
        {
          "indexed": false,
          "internalType": "address",
          "name": "owner",
          "type": "address"
        },
        {
          "indexed": false,
          "internalType": "uint256",
          "name": "tweetId",
          "type": "uint256"
        },
        {
          "indexed": false,
          "internalType": "string",
          "name": "fullUri",
          "type": "string"
        },
        {
          "indexed": false,
          "internalType": "string",
          "name": "imageURI",
          "type": "string"
        },
        {
          "indexed": false,
          "internalType": "string",
          "name": "htmlURI",
          "type": "string"
        },
        {
          "indexed": false,
          "internalType": "uint256",
          "name": "timestamp",
          "type": "uint256"
        }
      ],
      "name": "NFTMinted",
      "type": "event"
    },
    {
      "anonymous": false,
      "inputs": [
        {
          "indexed": true,
          "internalType": "address",
          "name": "from",
          "type": "address"
        },
        {
          "indexed": true,
          "internalType": "address",
          "name": "to",
          "type": "address"
        },
        {
          "indexed": true,
          "internalType": "uint256",
          "name": "tokenId",
          "type": "uint256"
        }
      ],
      "name": "Transfer",
      "type": "event"
    },
    {
      "inputs": [
        {
          "internalType": "address",
          "name": "to",
          "type": "address"
        },
        {
          "internalType": "uint256",
          "name": "tokenId",
          "type": "uint256"
        }
      ],
      "name": "approve",
      "outputs": [],
      "stateMutability": "nonpayable",
      "type": "function"
    },
    {
      "inputs": [
        {
          "internalType": "address",
          "name": "owner",
          "type": "address"
        }
      ],
      "name": "balanceOf",
      "outputs": [
        {
          "internalType": "uint256",
          "name": "",
          "type": "uint256"
        }
      ],
      "stateMutability": "view",
      "type": "function",
      "constant": true
    },
    {
      "inputs": [],
      "name": "baseURI",
      "outputs": [
        {
          "internalType": "string",
          "name": "",
          "type": "string"
        }
      ],
      "stateMutability": "view",
      "type": "function",
      "constant": true
    },
    {
      "inputs": [
        {
          "internalType": "uint256",
          "name": "tokenId",
          "type": "uint256"
        }
      ],
      "name": "getApproved",
      "outputs": [
        {
          "internalType": "address",
          "name": "",
          "type": "address"
        }
      ],
      "stateMutability": "view",
      "type": "function",
      "constant": true
    },
    {
      "inputs": [
        {
          "internalType": "address",
          "name": "owner",
          "type": "address"
        },
        {
          "internalType": "address",
          "name": "operator",
          "type": "address"
        }
      ],
      "name": "isApprovedForAll",
      "outputs": [
        {
          "internalType": "bool",
          "name": "",
          "type": "bool"
        }
      ],
      "stateMutability": "view",
      "type": "function",
      "constant": true
    },
    {
      "inputs": [],
      "name": "name",
      "outputs": [
        {
          "internalType": "string",
          "name": "",
          "type": "string"
        }
      ],
      "stateMutability": "view",
      "type": "function",
      "constant": true
    },
    {
      "inputs": [
        {
          "internalType": "uint256",
          "name": "tokenId",
          "type": "uint256"
        }
      ],
      "name": "ownerOf",
      "outputs": [
        {
          "internalType": "address",
          "name": "",
          "type": "address"
        }
      ],
      "stateMutability": "view",
      "type": "function",
      "constant": true
    },
    {
      "inputs": [
        {
          "internalType": "address",
          "name": "from",
          "type": "address"
        },
        {
          "internalType": "address",
          "name": "to",
          "type": "address"
        },
        {
          "internalType": "uint256",
          "name": "tokenId",
          "type": "uint256"
        }
      ],
      "name": "safeTransferFrom",
      "outputs": [],
      "stateMutability": "nonpayable",
      "type": "function"
    },
    {
      "inputs": [
        {
          "internalType": "address",
          "name": "from",
          "type": "address"
        },
        {
          "internalType": "address",
          "name": "to",
          "type": "address"
        },
        {
          "internalType": "uint256",
          "name": "tokenId",
          "type": "uint256"
        },
        {
          "internalType": "bytes",
          "name": "data",
          "type": "bytes"
        }
      ],
      "name": "safeTransferFrom",
      "outputs": [],
      "stateMutability": "nonpayable",
      "type": "function"
    },
    {
      "inputs": [
        {
          "internalType": "address",
          "name": "operator",
          "type": "address"
        },
        {
          "internalType": "bool",
          "name": "approved",
          "type": "bool"
        }
      ],
      "name": "setApprovalForAll",
      "outputs": [],
      "stateMutability": "nonpayable",
      "type": "function"
    },
    {
      "inputs": [
        {
          "internalType": "bytes4",
          "name": "interfaceId",
          "type": "bytes4"
        }
      ],
      "name": "supportsInterface",
      "outputs": [
        {
          "internalType": "bool",
          "name": "",
          "type": "bool"
        }
      ],
      "stateMutability": "view",
      "type": "function",
      "constant": true
    },
    {
      "inputs": [],
      "name": "symbol",
      "outputs": [
        {
          "internalType": "string",
          "name": "",
          "type": "string"
        }
      ],
      "stateMutability": "view",
      "type": "function",
      "constant": true
    },
    {
      "inputs": [
        {
          "internalType": "address",
          "name": "from",
          "type": "address"
        },
        {
          "internalType": "address",
          "name": "to",
          "type": "address"
        },
        {
          "internalType": "uint256",
          "name": "tokenId",
          "type": "uint256"
        }
      ],
      "name": "transferFrom",
      "outputs": [],
      "stateMutability": "nonpayable",
      "type": "function"
    },
    {
      "inputs": [
        {
          "internalType": "uint256",
          "name": "nftId",
          "type": "uint256"
        }
      ],
      "name": "isTweetMinted",
      "outputs": [
        {
          "internalType": "bool",
          "name": "",
          "type": "bool"
        }
      ],
      "stateMutability": "view",
      "type": "function",
      "constant": true
    },
    {
      "inputs": [
        {
          "internalType": "uint256",
          "name": "nftId",
          "type": "uint256"
        }
      ],
      "name": "getOriginalOwner",
      "outputs": [
        {
          "internalType": "address",
          "name": "",
          "type": "address"
        }
      ],
      "stateMutability": "view",
      "type": "function",
      "constant": true
    },
    {
      "inputs": [],
      "name": "getTwitterContractAddress",
      "outputs": [
        {
          "internalType": "address",
          "name": "",
          "type": "address"
        }
      ],
      "stateMutability": "view",
      "type": "function",
      "constant": true
    },
    {
      "inputs": [
        {
          "internalType": "string",
          "name": "_baseURI",
          "type": "string"
        }
      ],
      "name": "setBaseURI",
      "outputs": [],
      "stateMutability": "nonpayable",
      "type": "function"
    },
    {
      "inputs": [
        {
          "internalType": "uint256",
          "name": "tokenId",
          "type": "uint256"
        }
      ],
      "name": "tokenURI",
      "outputs": [
        {
          "internalType": "string",
          "name": "",
          "type": "string"
        }
      ],
      "stateMutability": "view",
      "type": "function",
      "constant": true
    },
    {
      "inputs": [
        {
          "internalType": "address",
          "name": "_twitterContractAddress",
          "type": "address"
        }
      ],
      "name": "setTwitterContractAddress",
      "outputs": [],
      "stateMutability": "nonpayable",
      "type": "function"
    },
    {
      "inputs": [
        {
          "internalType": "uint256",
          "name": "_nftId",
          "type": "uint256"
        },
        {
          "internalType": "uint256",
          "name": "_startingPrice",
          "type": "uint256"
        },
        {
          "internalType": "uint256",
          "name": "_auctionDuration",
          "type": "uint256"
        }
      ],
      "name": "createAuction",
      "outputs": [],
      "stateMutability": "nonpayable",
      "type": "function"
    },
    {
      "inputs": [
        {
          "internalType": "address payable",
          "name": "owner",
          "type": "address"
        },
        {
          "internalType": "uint256",
          "name": "tweetId",
          "type": "uint256"
        },
        {
          "internalType": "string",
          "name": "metadataURI",
          "type": "string"
        },
        {
          "internalType": "string",
          "name": "imageURI",
          "type": "string"
        },
        {
          "internalType": "string",
          "name": "htmlURI",
          "type": "string"
        }
      ],
      "name": "mintTweetNFT",
      "outputs": [
        {
          "internalType": "uint256",
          "name": "",
          "type": "uint256"
        }
      ],
      "stateMutability": "nonpayable",
      "type": "function"
    }
  ],
  "bytecode": "0x60806040523480156200001157600080fd5b5060405180604001604052806008815260200167151dd9595d13919560c21b815250604051806040016040528060058152602001641515d3919560da1b81525081600090816200006291906200011f565b5060016200007182826200011f565b505050620001eb565b634e487b7160e01b600052604160045260246000fd5b600181811c90821680620000a557607f821691505b602082108103620000c657634e487b7160e01b600052602260045260246000fd5b50919050565b601f8211156200011a57600081815260208120601f850160051c81016020861015620000f55750805b601f850160051c820191505b81811015620001165782815560010162000101565b5050505b505050565b81516001600160401b038111156200013b576200013b6200007a565b62000153816200014c845462000090565b84620000cc565b602080601f8311600181146200018b5760008415620001725750858301515b600019600386901b1c1916600185901b17855562000116565b600085815260208120601f198616915b82811015620001bc578886015182559484019460019091019084016200019b565b5085821015620001db5787850151600019600388901b60f8161c191681555b5050505050600190811b01905550565b612a0d80620001fb6000396000f3fe60806040523480156200001157600080fd5b5060043610620001515760003560e01c80636352211e11620000c7578063b88d4fde1162000086578063b88d4fde14620002f5578063bbc22015146200030c578063c87b56dd1462000323578063cda4beef146200033a578063e86fb58a1462000351578063e985e9c5146200036857600080fd5b80636352211e146200028d5780636c0360eb14620002a457806370a0823114620002ae57806395d89b4114620002d4578063a22cb46514620002de57600080fd5b806342842e0e116200011457806342842e0e14620001fb57806345bfb0c814620002125780634eeba5be146200023857806355f804b314620002645780635a611107146200027b57600080fd5b806301ffc9a7146200015657806306fdde031462000182578063081812fc146200019b578063095ea7b314620001cb57806323b872dd14620001e4575b600080fd5b6200016d6200016736600462001618565b6200037f565b60405190151581526020015b60405180910390f35b6200018c620003d3565b6040516200017991906200168c565b620001b2620001ac366004620016a1565b6200046d565b6040516001600160a01b03909116815260200162000179565b620001e2620001dc366004620016d1565b62000496565b005b620001e2620001f536600462001700565b620005ba565b620001e26200020c36600462001700565b620005f2565b6200016d62000223366004620016a1565b60009081526008602052604090205460ff1690565b620001b262000249366004620016a1565b6000908152600960205260409020546001600160a01b031690565b620001e262000275366004620017fc565b6200060f565b600a546001600160a01b0316620001b2565b620001b26200029e366004620016a1565b62000621565b6200018c62000683565b620002c5620002bf36600462001835565b62000719565b60405190815260200162000179565b6200018c620007a1565b620001e2620002ef36600462001855565b620007b2565b620001e26200030636600462001897565b620007bf565b620002c56200031d36600462001920565b620007fe565b6200018c62000334366004620016a1565b62000926565b620001e26200034b366004620019d1565b62000933565b620001e26200036236600462001835565b62000b32565b6200016d62000379366004620019fe565b62000bcb565b60006001600160e01b031982166380ac58cd60e01b1480620003b157506001600160e01b03198216635b5e139f60e01b145b80620003cd57506301ffc9a760e01b6001600160e01b03198316145b92915050565b606060008054620003e49062001a31565b80601f0160208091040260200160405190810160405280929190818152602001828054620004129062001a31565b8015620004635780601f10620004375761010080835404028352916020019162000463565b820191906000526020600020905b8154815290600101906020018083116200044557829003601f168201915b5050505050905090565b60006200047a8262000bf9565b506000908152600460205260409020546001600160a01b031690565b6000620004a38262000621565b9050806001600160a01b0316836001600160a01b031603620005165760405162461bcd60e51b815260206004820152602160248201527f4552433732313a20617070726f76616c20746f2063757272656e74206f776e656044820152603960f91b60648201526084015b60405180910390fd5b336001600160a01b038216148062000535575062000535813362000bcb565b620005a95760405162461bcd60e51b815260206004820152603d60248201527f4552433732313a20617070726f76652063616c6c6572206973206e6f7420746f60448201527f6b656e206f776e6572206f7220617070726f76656420666f7220616c6c00000060648201526084016200050d565b620005b5838362000c5d565b505050565b620005c6338262000ccd565b620005e55760405162461bcd60e51b81526004016200050d9062001a6d565b620005b583838362000d34565b620005b583838360405180602001604052806000815250620007bf565b600b6200061d828262001b0c565b5050565b6000818152600260205260408120546001600160a01b031680620003cd5760405162461bcd60e51b8152602060048201526018602482015277115490cdcc8c4e881a5b9d985b1a59081d1bdad95b88125160421b60448201526064016200050d565b600b8054620006929062001a31565b80601f0160208091040260200160405190810160405280929190818152602001828054620006c09062001a31565b8015620007115780601f10620006e55761010080835404028352916020019162000711565b820191906000526020600020905b815481529060010190602001808311620006f357829003601f168201915b505050505081565b60006001600160a01b038216620007855760405162461bcd60e51b815260206004820152602960248201527f4552433732313a2061646472657373207a65726f206973206e6f7420612076616044820152683634b21037bbb732b960b91b60648201526084016200050d565b506001600160a01b031660009081526003602052604090205490565b606060018054620003e49062001a31565b6200061d33838362000ea4565b620007cb338362000ccd565b620007ea5760405162461bcd60e51b81526004016200050d9062001a6d565b620007f88484848462000f74565b50505050565b6000806200080b60075490565b60008781526008602052604090205490915060ff16156200086f5760405162461bcd60e51b815260206004820152601d60248201527f54776565742068617320616c7265616479206265656e206d696e74656400000060448201526064016200050d565b6200087b878262000fae565b6200088781866200113f565b6000868152600860209081526040808320805460ff191660011790558383526009909152902080546001600160a01b0389166001600160a01b0319909116179055620008d7600780546001019055565b7f4c56890966190adc39f6b2f57c84a525fd0d1749816f0b96cf398f10e7d4454d8188888888884260405162000914979695949392919062001bd9565b60405180910390a19695505050505050565b6060620003cd82620011d6565b6000838152600260205260409020546001600160a01b03166200098e5760405162461bcd60e51b815260206004820152601260248201527113919508191bd95cc81b9bdd08195e1a5cdd60721b60448201526064016200050d565b336200099a8462000621565b6001600160a01b031614620009fd5760405162461bcd60e51b815260206004820152602260248201527f43616c6c6572206973206e6f7420746865206f776e6572206f6620746865204e604482015261119560f21b60648201526084016200050d565b6000838152600960205260408120546001600160a01b03169062000a22834262001c47565b90506000823387878730600a60009054906101000a90046001600160a01b031660405162000a5090620015f3565b6001600160a01b0397881681529587166020870152604086019490945260608501929092526080840152831660a083015290911660c082015260e001604051809103906000f08015801562000aa9573d6000803e3d6000fd5b50905062000ab8818762000c5d565b600a54604080516001600160a01b038087168252336020830152918101899052606081018890526080810187905260a0810185905291811660c0830152821660e08201527f96bad7212f78975e386fa6d29bae4dba553cd46132da822e4e623edcdc541066906101000160405180910390a1505050505050565b600a54600160a01b900460ff161562000ba45760405162461bcd60e51b815260206004820152602d60248201527f5477697474657220636f6e747261637420616464726573732068617320616c7260448201526c1958591e481899595b881cd95d609a1b60648201526084016200050d565b600a80546001600160a81b0319166001600160a01b0390921691909117600160a01b179055565b6001600160a01b03918216600090815260056020908152604080832093909416825291909152205460ff1690565b6000818152600260205260409020546001600160a01b031662000c5a5760405162461bcd60e51b8152602060048201526018602482015277115490cdcc8c4e881a5b9d985b1a59081d1bdad95b88125160421b60448201526064016200050d565b50565b600081815260046020526040902080546001600160a01b0319166001600160a01b038416908117909155819062000c948262000621565b6001600160a01b03167f8c5be1e5ebec7d5bd14f71427d1e84f3dd0314c0f7b2291e5b200ac8c7c3b92560405160405180910390a45050565b60008062000cdb8362000621565b9050806001600160a01b0316846001600160a01b0316148062000d05575062000d05818562000bcb565b8062000d2c5750836001600160a01b031662000d21846200046d565b6001600160a01b0316145b949350505050565b826001600160a01b031662000d498262000621565b6001600160a01b03161462000d725760405162461bcd60e51b81526004016200050d9062001c69565b6001600160a01b03821662000dd65760405162461bcd60e51b8152602060048201526024808201527f4552433732313a207472616e7366657220746f20746865207a65726f206164646044820152637265737360e01b60648201526084016200050d565b826001600160a01b031662000deb8262000621565b6001600160a01b03161462000e145760405162461bcd60e51b81526004016200050d9062001c69565b600081815260046020908152604080832080546001600160a01b03199081169091556001600160a01b0387811680865260038552838620805460001901905590871680865283862080546001019055868652600290945282852080549092168417909155905184937fddf252ad1be2c89b69c2b068fc378daa952ba7f163c4a11628f55a4df523b3ef91a4505050565b816001600160a01b0316836001600160a01b03160362000f075760405162461bcd60e51b815260206004820152601960248201527f4552433732313a20617070726f766520746f2063616c6c65720000000000000060448201526064016200050d565b6001600160a01b03838116600081815260056020908152604080832094871680845294825291829020805460ff191686151590811790915591519182527f17307eab39ab6107e8899845ad3d59bd9653f200f220920489ca2b5937696c31910160405180910390a3505050565b62000f8184848462000d34565b62000f8f84848484620012ef565b620007f85760405162461bcd60e51b81526004016200050d9062001cae565b6001600160a01b038216620010065760405162461bcd60e51b815260206004820181905260248201527f4552433732313a206d696e7420746f20746865207a65726f206164647265737360448201526064016200050d565b6000818152600260205260409020546001600160a01b0316156200106d5760405162461bcd60e51b815260206004820152601c60248201527f4552433732313a20746f6b656e20616c7265616479206d696e7465640000000060448201526064016200050d565b6000818152600260205260409020546001600160a01b031615620010d45760405162461bcd60e51b815260206004820152601c60248201527f4552433732313a20746f6b656e20616c7265616479206d696e7465640000000060448201526064016200050d565b6001600160a01b038216600081815260036020908152604080832080546001019055848352600290915280822080546001600160a01b0319168417905551839291907fddf252ad1be2c89b69c2b068fc378daa952ba7f163c4a11628f55a4df523b3ef908290a45050565b6000828152600260205260409020546001600160a01b0316620011bc5760405162461bcd60e51b815260206004820152602e60248201527f45524337323155524953746f726167653a2055524920736574206f66206e6f6e60448201526d32bc34b9ba32b73a103a37b5b2b760911b60648201526084016200050d565b6000828152600660205260409020620005b5828262001b0c565b6060620011e38262000bf9565b60008281526006602052604081208054620011fe9062001a31565b80601f01602080910402602001604051908101604052809291908181526020018280546200122c9062001a31565b80156200127d5780601f1062001251576101008083540402835291602001916200127d565b820191906000526020600020905b8154815290600101906020018083116200125f57829003601f168201915b5050505050905060006200129c60408051602081019091526000815290565b90508051600003620012af575092915050565b815115620012e4578082604051602001620012cc92919062001d00565b60405160208183030381529060405292505050919050565b62000d2c84620013fd565b60006001600160a01b0384163b15620013f257604051630a85bd0160e11b81526001600160a01b0385169063150b7a02906200133690339089908890889060040162001d33565b6020604051808303816000875af192505050801562001374575060408051601f3d908101601f19168201909252620013719181019062001d72565b60015b620013d7573d808015620013a5576040519150601f19603f3d011682016040523d82523d6000602084013e620013aa565b606091505b508051600003620013cf5760405162461bcd60e51b81526004016200050d9062001cae565b805181602001fd5b6001600160e01b031916630a85bd0160e11b14905062000d2c565b506001949350505050565b60606200140a8262000bf9565b60006200142260408051602081019091526000815290565b9050600081511162001444576040518060200160405280600081525062001473565b8062001450846200147a565b6040516020016200146392919062001d00565b6040516020818303038152906040525b9392505050565b60606000620014898362001514565b600101905060008167ffffffffffffffff811115620014ac57620014ac62001746565b6040519080825280601f01601f191660200182016040528015620014d7576020820181803683370190505b5090508181016020015b600019016f181899199a1a9b1b9c1cb0b131b232b360811b600a86061a8153600a8504945084620014e157509392505050565b60008072184f03e93ff9f4daa797ed6e38ed64bf6a1f0160401b8310620015545772184f03e93ff9f4daa797ed6e38ed64bf6a1f0160401b830492506040015b6d04ee2d6d415b85acef8100000000831062001581576d04ee2d6d415b85acef8100000000830492506020015b662386f26fc100008310620015a057662386f26fc10000830492506010015b6305f5e1008310620015b9576305f5e100830492506008015b6127108310620015ce57612710830492506004015b60648310620015e1576064830492506002015b600a8310620003cd5760010192915050565b610c458062001d9383390190565b6001600160e01b03198116811462000c5a57600080fd5b6000602082840312156200162b57600080fd5b8135620014738162001601565b60005b83811015620016555781810151838201526020016200163b565b50506000910152565b600081518084526200167881602086016020860162001638565b601f01601f19169290920160200192915050565b6020815260006200147360208301846200165e565b600060208284031215620016b457600080fd5b5035919050565b6001600160a01b038116811462000c5a57600080fd5b60008060408385031215620016e557600080fd5b8235620016f281620016bb565b946020939093013593505050565b6000806000606084860312156200171657600080fd5b83356200172381620016bb565b925060208401356200173581620016bb565b929592945050506040919091013590565b634e487b7160e01b600052604160045260246000fd5b600067ffffffffffffffff808411156200177a576200177a62001746565b604051601f8501601f19908116603f01168101908282118183101715620017a557620017a562001746565b81604052809350858152868686011115620017bf57600080fd5b858560208301376000602087830101525050509392505050565b600082601f830112620017eb57600080fd5b62001473838335602085016200175c565b6000602082840312156200180f57600080fd5b813567ffffffffffffffff8111156200182757600080fd5b62000d2c84828501620017d9565b6000602082840312156200184857600080fd5b81356200147381620016bb565b600080604083850312156200186957600080fd5b82356200187681620016bb565b9150602083013580151581146200188c57600080fd5b809150509250929050565b60008060008060808587031215620018ae57600080fd5b8435620018bb81620016bb565b93506020850135620018cd81620016bb565b925060408501359150606085013567ffffffffffffffff811115620018f157600080fd5b8501601f810187136200190357600080fd5b62001914878235602084016200175c565b91505092959194509250565b600080600080600060a086880312156200193957600080fd5b85356200194681620016bb565b945060208601359350604086013567ffffffffffffffff808211156200196b57600080fd5b6200197989838a01620017d9565b945060608801359150808211156200199057600080fd5b6200199e89838a01620017d9565b93506080880135915080821115620019b557600080fd5b50620019c488828901620017d9565b9150509295509295909350565b600080600060608486031215620019e757600080fd5b505081359360208301359350604090920135919050565b6000806040838503121562001a1257600080fd5b823562001a1f81620016bb565b915060208301356200188c81620016bb565b600181811c9082168062001a4657607f821691505b60208210810362001a6757634e487b7160e01b600052602260045260246000fd5b50919050565b6020808252602d908201527f4552433732313a2063616c6c6572206973206e6f7420746f6b656e206f776e6560408201526c1c881bdc88185c1c1c9bdd9959609a1b606082015260800190565b601f821115620005b557600081815260208120601f850160051c8101602086101562001ae35750805b601f850160051c820191505b8181101562001b045782815560010162001aef565b505050505050565b815167ffffffffffffffff81111562001b295762001b2962001746565b62001b418162001b3a845462001a31565b8462001aba565b602080601f83116001811462001b79576000841562001b605750858301515b600019600386901b1c1916600185901b17855562001b04565b600085815260208120601f198616915b8281101562001baa5788860151825594840194600190910190840162001b89565b508582101562001bc95787850151600019600388901b60f8161c191681555b5050505050600190811b01905550565b87815260018060a01b038716602082015285604082015260e06060820152600062001c0860e08301876200165e565b828103608084015262001c1c81876200165e565b905082810360a084015262001c3281866200165e565b9150508260c083015298975050505050505050565b80820180821115620003cd57634e487b7160e01b600052601160045260246000fd5b60208082526025908201527f4552433732313a207472616e736665722066726f6d20696e636f72726563742060408201526437bbb732b960d91b606082015260800190565b60208082526032908201527f4552433732313a207472616e7366657220746f206e6f6e20455243373231526560408201527131b2b4bb32b91034b6b83632b6b2b73a32b960711b606082015260800190565b6000835162001d1481846020880162001638565b83519083019062001d2a81836020880162001638565b01949350505050565b6001600160a01b038581168252841660208201526040810183905260806060820181905260009062001d68908301846200165e565b9695505050505050565b60006020828403121562001d8557600080fd5b815162001473816200160156fe6080604052600560045534801561001557600080fd5b50604051610c45380380610c45833981016040819052610034916100dc565b6001600055600280546001600160a01b03808a166001600160a01b03199283161790925560038054928916929091169190911790556007859055600884905561007d834261015b565b600955600680546001600160a01b039384166001600160a01b0319918216811790925560058054821690921790915560018054929093169116179055506101829350505050565b6001600160a01b03811681146100d957600080fd5b50565b600080600080600080600060e0888a0312156100f757600080fd5b8751610102816100c4565b6020890151909750610113816100c4565b8096505060408801519450606088015193506080880151925060a088015161013a816100c4565b60c089015190925061014b816100c4565b8091505092959891949750929550565b8082018082111561017c57634e487b7160e01b600052601160045260246000fd5b92915050565b610ab4806101916000396000f3fe6080604052600436106101085760003560e01c80638a71bb2d11610095578063cebd31bc11610064578063cebd31bc14610282578063d57bde7914610297578063d6fbf202146102ad578063f1fffdcb146102c3578063fe67a54b146102e357600080fd5b80638a71bb2d1461021657806391f901571461022c578063aae282e11461024c578063c6bc51821461026c57600080fd5b80631998aeef116100dc5780631998aeef146101a257806332761573146101ac5780634979440a146101cc5780634b449cba146101eb578063787c0a6c1461020157600080fd5b80623495a41461010d57806308551a53146101445780630cc79a851461016457806312fa6feb14610188575b600080fd5b34801561011957600080fd5b50600a546001600160a01b03165b6040516001600160a01b0390911681526020015b60405180910390f35b34801561015057600080fd5b50600354610127906001600160a01b031681565b34801561017057600080fd5b50600c5460ff165b604051901515815260200161013b565b34801561019457600080fd5b50600c546101789060ff1681565b6101aa6102f8565b005b3480156101b857600080fd5b50600154610127906001600160a01b031681565b3480156101d857600080fd5b50600b545b60405190815260200161013b565b3480156101f757600080fd5b506101dd60095481565b34801561020d57600080fd5b506009546101dd565b34801561022257600080fd5b506101dd60045481565b34801561023857600080fd5b50600a54610127906001600160a01b031681565b34801561025857600080fd5b50600654610127906001600160a01b031681565b34801561027857600080fd5b506101dd60075481565b34801561028e57600080fd5b506008546101dd565b3480156102a357600080fd5b506101dd600b5481565b3480156102b957600080fd5b506101dd60085481565b3480156102cf57600080fd5b50600254610127906001600160a01b031681565b3480156102ef57600080fd5b506101aa61059b565b6103006109aa565b6003546001600160a01b031633036103735760405162461bcd60e51b815260206004820152602b60248201527f5477656574206f776e65722063616e6e6f7420626964206f6e2074686569722060448201526a37bbb71030bab1ba34b7b760a91b60648201526084015b60405180910390fd5b6008543410156103e05760405162461bcd60e51b815260206004820152603260248201527f4269642073686f756c6420626520657175616c206f722067726561746572207460448201527168616e207374617274696e6720707269636560701b606482015260840161036a565b600a546001600160a01b031633036104455760405162461bcd60e51b815260206004820152602260248201527f596f752061726520616c7265616479207468652068696768657374206269646460448201526132b960f11b606482015260840161036a565b600b5434116104b15760405162461bcd60e51b815260206004820152603260248201527f546865726520616c7265616479206973206120686967686572206269642c20696044820152711b98dc99585cd948189a5908185b5bdd5b9d60721b606482015260840161036a565b6009544211156104fb5760405162461bcd60e51b8152602060048201526015602482015274105d58dd1a5bdb88185b1c9958591e48195b991959605a1b604482015260640161036a565b600b541561054157600a54600b546040516001600160a01b039092169181156108fc0291906000818181858888f1935050505015801561053f573d6000803e3d6000fd5b505b600a80546001600160a01b0319163390811790915534600b8190556040519081527ff4757a49b326036464bec6fe419a4ae38c8a02ce3e68bf0809674f6aab8ad3009060200160405180910390a26105996001600055565b565b6105a36109aa565b6003546001600160a01b031633146105fd5760405162461bcd60e51b815260206004820152601b60248201527f4f6e6c792073656c6c65722063616e20656e642061756374696f6e0000000000604482015260640161036a565b6009544210156106475760405162461bcd60e51b8152602060048201526015602482015274105d58dd1a5bdb881a185cc81b9bdd08195b991959605a1b604482015260640161036a565b600c5460ff161561069a5760405162461bcd60e51b815260206004820152601f60248201527f41756374696f6e2068617320616c7265616479206265656e2063616c6c656400604482015260640161036a565b60006064600b5460056106ad9190610a19565b6106b79190610a36565b905060006064600454600b546106cd9190610a19565b6106d79190610a36565b905060008282600b546106ea9190610a58565b6106f49190610a58565b6003546002549192506001600160a01b039081169116036107be576002546001600160a01b03166108fc6107288484610a6b565b6040518115909202916000818181858888f19350505050158015610750573d6000803e3d6000fd5b50600160009054906101000a90046001600160a01b03166001600160a01b0316625c33e1846040518263ffffffff1660e01b81526004016000604051808303818588803b1580156107a057600080fd5b505af11580156107b4573d6000803e3d6000fd5b505050505061089d565b6002546040516001600160a01b039091169083156108fc029084906000818181858888f193505050501580156107f8573d6000803e3d6000fd5b506003546040516001600160a01b039091169082156108fc029083906000818181858888f19350505050158015610833573d6000803e3d6000fd5b50600160009054906101000a90046001600160a01b03166001600160a01b0316625c33e1846040518263ffffffff1660e01b81526004016000604051808303818588803b15801561088357600080fd5b505af1158015610897573d6000803e3d6000fd5b50505050505b600854600b541061092157600554600354600a54600754604051632142170760e11b81526001600160a01b039384166004820152918316602483015260448201529116906342842e0e90606401600060405180830381600087803b15801561090457600080fd5b505af1158015610918573d6000803e3d6000fd5b50505050610936565b5050600c805460ff19166001179055506109a0565b600c805460ff19166001179055600a54600b5460408051918252602082018590528101859052606081018390526001600160a01b03909116907fcb6595eef05297e01772a36ee3cb82dfcb2a2f09283ea7680fcb215d7536f4409060800160405180910390a25050505b6105996001600055565b6002600054036109fc5760405162461bcd60e51b815260206004820152601f60248201527f5265656e7472616e637947756172643a207265656e7472616e742063616c6c00604482015260640161036a565b6002600055565b634e487b7160e01b600052601160045260246000fd5b8082028115828204841417610a3057610a30610a03565b92915050565b600082610a5357634e487b7160e01b600052601260045260246000fd5b500490565b81810381811115610a3057610a30610a03565b80820180821115610a3057610a30610a0356fea2646970667358221220b87df6f3b1aa2ad75fe53e3d716177bc4e37dcbed54905d7685043ad0392984764736f6c63430008130033a2646970667358221220008a1175cbaed669ec18a3a3cd0d7d8ff47953d841604be434b3b5c9e94b004664736f6c63430008130033",
  "immutableReferences": {},
  "source": "// SPDX-License-Identifier: MIT\npragma solidity ^0.8.19;\n\nimport \"@openzeppelin/contracts/token/ERC721/ERC721.sol\";\nimport \"@openzeppelin/contracts/token/ERC721/extensions/ERC721URIStorage.sol\";\nimport \"@openzeppelin/contracts/utils/Counters.sol\";\nimport './Auction.sol';\n\ncontract TweetNFT is ERC721, ERC721URIStorage {\n\n    using Counters for Counters.Counter;\n    Counters.Counter private _nftIDs;\n    // Keep track of which tweets have already been minted\n    mapping(uint256 => bool) private _tweetMinted;\n    // Store the owner of each nft URI\n    mapping(uint256 => address) private _originalOwners;\n    // Twitter contract\n    address twitterContractAddress;\n    // Track if the Twitter contract address has been set\n    bool private twitterContractSet;\n    // Base URI for nft\n    string public baseURI;\n\n    constructor() ERC721(\"TweetNFT\", \"TWNFT\") {}\n    \n    event NFTMinted(uint256 nftId, address owner, uint256 tweetId, string fullUri, string imageURI, string htmlURI, uint256 timestamp);\n    event AuctionCreated(address originalOwner, address seller, uint256 nftId, uint256 startingPrice, uint256 auctionDuration, uint256 auctionEndTime, address twitterContract, address auctionAddress);\n\n    function isTweetMinted(uint256 nftId) public view returns (bool) {\n        return _tweetMinted[nftId];\n    }\n\n    function getOriginalOwner(uint256 nftId) public view returns (address) {\n        return _originalOwners[nftId];\n    }\n\n    function getTwitterContractAddress() public view returns (address) {\n        return twitterContractAddress;\n    }\n\n    function setBaseURI(string memory _baseURI) external {\n        baseURI = _baseURI;\n    }\n\n    function _burn(uint256 tokenId) internal override(ERC721, ERC721URIStorage) {\n        super._burn(tokenId);\n        _burn(tokenId);\n    }\n\n    function tokenURI(uint256 tokenId) public view override(ERC721, ERC721URIStorage) returns (string memory) {\n        return super.tokenURI(tokenId);\n    }\n\n    function setTwitterContractAddress(address _twitterContractAddress) external {\n        require(!twitterContractSet, \"Twitter contract address has already been set\");\n        twitterContractAddress = _twitterContractAddress;\n        twitterContractSet = true;\n    }\n\n    function createAuction(uint256 _nftId, uint256 _startingPrice, uint256 _auctionDuration) external {\n        require(_exists(_nftId), \"NFT does not exist\");\n        require(ownerOf(_nftId) == msg.sender, \"Caller is not the owner of the NFT\");\n        address payable originalOwner = payable(_originalOwners[_nftId]);\n        uint256 auctionEndTime = block.timestamp + _auctionDuration;\n        Auction newAuction = new Auction(originalOwner, payable(msg.sender), _nftId, _startingPrice, _auctionDuration, address(this), twitterContractAddress);\n        _approve(address(newAuction), _nftId);\n\n        emit AuctionCreated(originalOwner, msg.sender, _nftId, _startingPrice, _auctionDuration, auctionEndTime, twitterContractAddress, address(newAuction));\n    }\n\n\n    function mintTweetNFT(address payable owner, uint256 tweetId, string memory metadataURI, string memory imageURI, string memory htmlURI) public returns (uint256) {\n        uint256 nftId = _nftIDs.current();\n\n        // Only 1 mint per tweet\n        require(!_tweetMinted[tweetId], \"Tweet has already been minted\");\n    \n        _mint(owner, nftId);\n\n        // Create the full tokenURI\n        _setTokenURI(nftId, metadataURI);\n\n        _tweetMinted[tweetId] = true;\n        _originalOwners[nftId] = owner;\n\n        _nftIDs.increment();\n\n        emit NFTMinted(nftId, owner, tweetId, metadataURI, imageURI, htmlURI, block.timestamp);\n\n        return nftId;\n    }\n}",
  "sourcePath": "/Users/jamesstorage/Repos/decentralized-twitter/src/contracts/TweetNFT.sol",
  "compiler": {
    "name": "solc",
    "version": "0.8.19+commit.7dd6d404.Emscripten.clang"
  },
  "schemaVersion": "3.4.13",
  "updatedAt": "2023-04-29T12:37:42.586Z",
  "networkType": "ethereum",
  "devdoc": {
    "events": {
      "Approval(address,address,uint256)": {
        "details": "Emitted when `owner` enables `approved` to manage the `tokenId` token."
      },
      "ApprovalForAll(address,address,bool)": {
        "details": "Emitted when `owner` enables or disables (`approved`) `operator` to manage all of its assets."
      },
      "Transfer(address,address,uint256)": {
        "details": "Emitted when `tokenId` token is transferred from `from` to `to`."
      }
    },
    "kind": "dev",
    "methods": {
      "approve(address,uint256)": {
        "details": "See {IERC721-approve}."
      },
      "balanceOf(address)": {
        "details": "See {IERC721-balanceOf}."
      },
      "getApproved(uint256)": {
        "details": "See {IERC721-getApproved}."
      },
      "isApprovedForAll(address,address)": {
        "details": "See {IERC721-isApprovedForAll}."
      },
      "name()": {
        "details": "See {IERC721Metadata-name}."
      },
      "ownerOf(uint256)": {
        "details": "See {IERC721-ownerOf}."
      },
      "safeTransferFrom(address,address,uint256)": {
        "details": "See {IERC721-safeTransferFrom}."
      },
      "safeTransferFrom(address,address,uint256,bytes)": {
        "details": "See {IERC721-safeTransferFrom}."
      },
      "setApprovalForAll(address,bool)": {
        "details": "See {IERC721-setApprovalForAll}."
      },
      "supportsInterface(bytes4)": {
        "details": "See {IERC165-supportsInterface}."
      },
      "symbol()": {
        "details": "See {IERC721Metadata-symbol}."
      },
      "transferFrom(address,address,uint256)": {
        "details": "See {IERC721-transferFrom}."
      }
    },
    "version": 1
  },
  "userdoc": {
    "kind": "user",
    "methods": {},
    "version": 1
  }
}