{
  "contractName": "TweetToken",
  "abi": [
    {
      "inputs": [],
      "stateMutability": "nonpayable",
      "type": "constructor"
    },
    {
      "anonymous": false,
      "inputs": [
        {
          "indexed": true,
          "internalType": "address",
          "name": "owner",
          "type": "address"
        },
        {
          "indexed": true,
          "internalType": "address",
          "name": "spender",
          "type": "address"
        },
        {
          "indexed": false,
          "internalType": "uint256",
          "name": "value",
          "type": "uint256"
        }
      ],
      "name": "Approval",
      "type": "event"
    },
    {
      "anonymous": false,
      "inputs": [
        {
          "indexed": true,
          "internalType": "address",
          "name": "from",
          "type": "address"
        },
        {
          "indexed": true,
          "internalType": "address",
          "name": "to",
          "type": "address"
        },
        {
          "indexed": false,
          "internalType": "uint256",
          "name": "value",
          "type": "uint256"
        }
      ],
      "name": "Transfer",
      "type": "event"
    },
    {
      "inputs": [
        {
          "internalType": "address",
          "name": "",
          "type": "address"
        },
        {
          "internalType": "address",
          "name": "",
          "type": "address"
        }
      ],
      "name": "allowance",
      "outputs": [
        {
          "internalType": "uint256",
          "name": "",
          "type": "uint256"
        }
      ],
      "stateMutability": "view",
      "type": "function",
      "constant": true
    },
    {
      "inputs": [
        {
          "internalType": "address",
          "name": "",
          "type": "address"
        }
      ],
      "name": "balanceOf",
      "outputs": [
        {
          "internalType": "uint256",
          "name": "",
          "type": "uint256"
        }
      ],
      "stateMutability": "view",
      "type": "function",
      "constant": true
    },
    {
      "inputs": [],
      "name": "decimals",
      "outputs": [
        {
          "internalType": "uint256",
          "name": "",
          "type": "uint256"
        }
      ],
      "stateMutability": "view",
      "type": "function",
      "constant": true
    },
    {
      "inputs": [],
      "name": "name",
      "outputs": [
        {
          "internalType": "string",
          "name": "",
          "type": "string"
        }
      ],
      "stateMutability": "view",
      "type": "function",
      "constant": true
    },
    {
      "inputs": [],
      "name": "symbol",
      "outputs": [
        {
          "internalType": "string",
          "name": "",
          "type": "string"
        }
      ],
      "stateMutability": "view",
      "type": "function",
      "constant": true
    },
    {
      "inputs": [],
      "name": "totalSupply",
      "outputs": [
        {
          "internalType": "uint256",
          "name": "",
          "type": "uint256"
        }
      ],
      "stateMutability": "view",
      "type": "function",
      "constant": true
    },
    {
      "inputs": [],
      "name": "getName",
      "outputs": [
        {
          "internalType": "string",
          "name": "",
          "type": "string"
        }
      ],
      "stateMutability": "view",
      "type": "function",
      "constant": true
    },
    {
      "inputs": [],
      "name": "getSymbol",
      "outputs": [
        {
          "internalType": "string",
          "name": "",
          "type": "string"
        }
      ],
      "stateMutability": "view",
      "type": "function",
      "constant": true
    },
    {
      "inputs": [],
      "name": "getDecimals",
      "outputs": [
        {
          "internalType": "uint256",
          "name": "",
          "type": "uint256"
        }
      ],
      "stateMutability": "view",
      "type": "function",
      "constant": true
    },
    {
      "inputs": [],
      "name": "getTotalSupply",
      "outputs": [
        {
          "internalType": "uint256",
          "name": "",
          "type": "uint256"
        }
      ],
      "stateMutability": "view",
      "type": "function",
      "constant": true
    },
    {
      "inputs": [
        {
          "internalType": "address",
          "name": "_owner",
          "type": "address"
        }
      ],
      "name": "getBalanceOf",
      "outputs": [
        {
          "internalType": "uint256",
          "name": "balance",
          "type": "uint256"
        }
      ],
      "stateMutability": "view",
      "type": "function",
      "constant": true
    },
    {
      "inputs": [
        {
          "internalType": "address",
          "name": "owner",
          "type": "address"
        },
        {
          "internalType": "address",
          "name": "spender",
          "type": "address"
        }
      ],
      "name": "getAllowance",
      "outputs": [
        {
          "internalType": "uint256",
          "name": "",
          "type": "uint256"
        }
      ],
      "stateMutability": "view",
      "type": "function",
      "constant": true
    },
    {
      "inputs": [
        {
          "internalType": "address",
          "name": "_to",
          "type": "address"
        },
        {
          "internalType": "uint256",
          "name": "_value",
          "type": "uint256"
        }
      ],
      "name": "transfer",
      "outputs": [
        {
          "internalType": "bool",
          "name": "success",
          "type": "bool"
        }
      ],
      "stateMutability": "nonpayable",
      "type": "function"
    },
    {
      "inputs": [
        {
          "internalType": "address",
          "name": "_spender",
          "type": "address"
        },
        {
          "internalType": "uint256",
          "name": "_value",
          "type": "uint256"
        }
      ],
      "name": "approve",
      "outputs": [
        {
          "internalType": "bool",
          "name": "success",
          "type": "bool"
        }
      ],
      "stateMutability": "nonpayable",
      "type": "function"
    },
    {
      "inputs": [
        {
          "internalType": "address",
          "name": "_from",
          "type": "address"
        },
        {
          "internalType": "address",
          "name": "_to",
          "type": "address"
        },
        {
          "internalType": "uint256",
          "name": "_value",
          "type": "uint256"
        }
      ],
      "name": "transferFrom",
      "outputs": [
        {
          "internalType": "bool",
          "name": "success",
          "type": "bool"
        }
      ],
      "stateMutability": "nonpayable",
      "type": "function"
    }
  ],
  "bytecode": "0x60c0604052600b60809081526a2a3bb2b2ba102a37b5b2b760a91b60a05260009061002a908261012b565b506040805180820190915260058152641515d1515560da1b6020820152600190610054908261012b565b50601260025534801561006657600080fd5b5069d3c21bcecceda10000006003819055336000908152600460205260409020556101ea565b634e487b7160e01b600052604160045260246000fd5b600181811c908216806100b657607f821691505b6020821081036100d657634e487b7160e01b600052602260045260246000fd5b50919050565b601f82111561012657600081815260208120601f850160051c810160208610156101035750805b601f850160051c820191505b818110156101225782815560010161010f565b5050505b505050565b81516001600160401b038111156101445761014461008c565b6101588161015284546100a2565b846100dc565b602080601f83116001811461018d57600084156101755750858301515b600019600386901b1c1916600185901b178555610122565b600085815260208120601f198616915b828110156101bc5788860151825594840194600190910190840161019d565b50858210156101da5787850151600019600388901b60f8161c191681555b5050505050600190811b01905550565b61078b806101f96000396000f3fe608060405234801561001057600080fd5b50600436106100f55760003560e01c8063313ce56711610097578063a9059cbb11610066578063a9059cbb14610208578063c4e41b221461021b578063dd62ed3e14610223578063f0141d841461024e57600080fd5b8063313ce567146101ae57806370a08231146101b757806395d89b41146101d75780639b96eece146101df57600080fd5b806315070401116100d3578063150704011461018257806317d7de7c1461018a57806318160ddd1461019257806323b872dd1461019b57600080fd5b806306fdde03146100fa578063095ea7b3146101185780630af4187d1461013b575b600080fd5b610102610256565b60405161010f91906105ba565b60405180910390f35b61012b610126366004610624565b6102e4565b604051901515815260200161010f565b61017461014936600461064e565b6001600160a01b03918216600090815260056020908152604080832093909416825291909152205490565b60405190815260200161010f565b61010261035e565b6101026103f0565b61017460035481565b61012b6101a9366004610681565b6103ff565b61017460025481565b6101746101c53660046106bd565b60046020526000908152604090205481565b6101026104bc565b6101746101ed3660046106bd565b6001600160a01b031660009081526004602052604090205490565b61012b610216366004610624565b6104c9565b600354610174565b61017461023136600461064e565b600560209081526000928352604080842090915290825290205481565b600254610174565b60008054610263906106df565b80601f016020809104026020016040519081016040528092919081815260200182805461028f906106df565b80156102dc5780601f106102b1576101008083540402835291602001916102dc565b820191906000526020600020905b8154815290600101906020018083116102bf57829003601f168201915b505050505081565b60006001600160a01b0383166102f957600080fd5b3360008181526005602090815260408083206001600160a01b03881680855290835292819020869055518581529192917f8c5be1e5ebec7d5bd14f71427d1e84f3dd0314c0f7b2291e5b200ac8c7c3b925910160405180910390a35060015b92915050565b60606001805461036d906106df565b80601f0160208091040260200160405190810160405280929190818152602001828054610399906106df565b80156103e65780601f106103bb576101008083540402835291602001916103e6565b820191906000526020600020905b8154815290600101906020018083116103c957829003601f168201915b5050505050905090565b60606000805461036d906106df565b6001600160a01b03831660009081526004602052604081205482111561042457600080fd5b6001600160a01b038416600090815260056020908152604080832033845290915290205482111561045457600080fd5b6001600160a01b038416600090815260056020908152604080832033845290915290205461048390839061072f565b6001600160a01b03851660009081526005602090815260408083203384529091529020556104b28484846104f9565b5060019392505050565b60018054610263906106df565b336000908152600460205260408120548211156104e557600080fd5b6104f03384846104f9565b50600192915050565b6001600160a01b03821661050c57600080fd5b6001600160a01b0383166000908152600460205260408120805483929061053490849061072f565b90915550506001600160a01b03821660009081526004602052604081208054839290610561908490610742565b92505081905550816001600160a01b0316836001600160a01b03167fddf252ad1be2c89b69c2b068fc378daa952ba7f163c4a11628f55a4df523b3ef836040516105ad91815260200190565b60405180910390a3505050565b600060208083528351808285015260005b818110156105e7578581018301518582016040015282016105cb565b506000604082860101526040601f19601f8301168501019250505092915050565b80356001600160a01b038116811461061f57600080fd5b919050565b6000806040838503121561063757600080fd5b61064083610608565b946020939093013593505050565b6000806040838503121561066157600080fd5b61066a83610608565b915061067860208401610608565b90509250929050565b60008060006060848603121561069657600080fd5b61069f84610608565b92506106ad60208501610608565b9150604084013590509250925092565b6000602082840312156106cf57600080fd5b6106d882610608565b9392505050565b600181811c908216806106f357607f821691505b60208210810361071357634e487b7160e01b600052602260045260246000fd5b50919050565b634e487b7160e01b600052601160045260246000fd5b8181038181111561035857610358610719565b808201808211156103585761035861071956fea26469706673582212200caa8adcaceeec0c33dfe17d25c159ca1f1b82e0693932d3cde105b8a4ddd7de64736f6c63430008130033",
  "immutableReferences": {},
  "source": "// SPDX-License-Identifier: MIT\npragma solidity ^0.8.19;\n\ncontract TweetToken {\n\n    // Variables\n    string public name = \"Tweet Token\";\n    string public symbol = 'TWEET';\n    uint256 public decimals = 18;\n    uint256 public totalSupply;\n\n    // Track Balances\n    mapping(address => uint256) public balanceOf;\n    // deployer => exchange => allowance amount\n    mapping(address => mapping(address => uint256)) public allowance;\n    \n    // Events\n    event Transfer(address indexed from, address indexed to, uint256 value);\n    event Approval(address indexed owner, address indexed spender, uint256 value);\n\n\n    constructor() {\n        totalSupply = 1000000 * (10 ** 18);\n        balanceOf[msg.sender] = totalSupply;\n    }\n\n    function getName() public view returns (string memory) {\n        return name;\n    }\n\n    function getSymbol() public view returns (string memory) {\n        return symbol;\n    }\n\n    function getDecimals() public view returns (uint256) {\n        return decimals;\n    }\n\n    function getTotalSupply() public view returns (uint256) {\n        return totalSupply;\n    }\n\n    function getBalanceOf(address _owner) public view returns (uint256 balance) {\n        return balanceOf[_owner];\n    }\n\n    function getAllowance(address owner, address spender) public view returns (uint256) {\n        return allowance[owner][spender];\n    }\n\n\n    function transfer(address _to, uint256 _value) public returns (bool success) {\n        require(balanceOf[msg.sender] >= _value);\n        _transfer(msg.sender, _to, _value);\n        return true;\n    }\n\n    function _transfer(address _from, address _to, uint256 _value) internal {\n        require(_to != address(0));\n        balanceOf[_from] -= _value;\n        balanceOf[_to] += _value;\n        emit Transfer(_from, _to, _value);\n    }\n\n    function approve(address _spender, uint256 _value) public returns (bool success) {\n        require(_spender != address(0));\n        allowance[msg.sender][_spender] = _value;\n        emit Approval(msg.sender, _spender, _value);\n        return true;\n    }   \n\n    function transferFrom(address _from, address _to, uint256 _value) public returns (bool success) {\n        require(_value <= balanceOf[_from]);\n        require(_value <= allowance[_from][msg.sender]);\n        allowance[_from][msg.sender] = allowance[_from][msg.sender] - _value;\n        _transfer(_from, _to, _value);\n        return true;\n    }\n}",
  "sourcePath": "/Users/jamesstorage/Repos/decentralized-twitter/src/contracts/TweetToken.sol",
  "compiler": {
    "name": "solc",
    "version": "0.8.19+commit.7dd6d404.Emscripten.clang"
  },
  "schemaVersion": "3.4.13",
  "updatedAt": "2023-05-06T14:57:33.840Z",
  "networkType": "ethereum",
  "devdoc": {
    "kind": "dev",
    "methods": {},
    "version": 1
  },
  "userdoc": {
    "kind": "user",
    "methods": {},
    "version": 1
  }
}