{
  "contractName": "Twitter",
  "abi": [
    {
      "inputs": [
        {
          "internalType": "address payable",
          "name": "_owner",
          "type": "address"
        },
        {
          "internalType": "address",
          "name": "_tweetTokenAddress",
          "type": "address"
        },
        {
          "internalType": "address",
          "name": "_nftAddress",
          "type": "address"
        }
      ],
      "stateMutability": "nonpayable",
      "type": "constructor"
    },
    {
      "anonymous": false,
      "inputs": [
        {
          "indexed": false,
          "internalType": "address",
          "name": "userAddress",
          "type": "address"
        },
        {
          "indexed": false,
          "internalType": "uint256",
          "name": "id",
          "type": "uint256"
        },
        {
          "indexed": false,
          "internalType": "string",
          "name": "name",
          "type": "string"
        },
        {
          "indexed": false,
          "internalType": "string",
          "name": "bio",
          "type": "string"
        },
        {
          "indexed": false,
          "internalType": "string",
          "name": "profilePictureURL",
          "type": "string"
        },
        {
          "indexed": false,
          "internalType": "bool",
          "name": "exists",
          "type": "bool"
        }
      ],
      "name": "AccountCreated",
      "type": "event"
    },
    {
      "anonymous": false,
      "inputs": [
        {
          "indexed": false,
          "internalType": "string",
          "name": "name",
          "type": "string"
        },
        {
          "indexed": false,
          "internalType": "address",
          "name": "user",
          "type": "address"
        }
      ],
      "name": "AccountDeleted",
      "type": "event"
    },
    {
      "anonymous": false,
      "inputs": [
        {
          "indexed": true,
          "internalType": "address",
          "name": "user",
          "type": "address"
        },
        {
          "indexed": false,
          "internalType": "string",
          "name": "newBio",
          "type": "string"
        }
      ],
      "name": "BioUpdated",
      "type": "event"
    },
    {
      "anonymous": false,
      "inputs": [
        {
          "indexed": false,
          "internalType": "uint256",
          "name": "tweetId",
          "type": "uint256"
        },
        {
          "indexed": false,
          "internalType": "string",
          "name": "comment",
          "type": "string"
        },
        {
          "indexed": false,
          "internalType": "address",
          "name": "commenter",
          "type": "address"
        },
        {
          "indexed": false,
          "internalType": "string",
          "name": "commenterName",
          "type": "string"
        },
        {
          "indexed": false,
          "internalType": "string",
          "name": "profilePic",
          "type": "string"
        }
      ],
      "name": "CommentAdded",
      "type": "event"
    },
    {
      "anonymous": false,
      "inputs": [
        {
          "indexed": false,
          "internalType": "address",
          "name": "userAddress",
          "type": "address"
        },
        {
          "indexed": false,
          "internalType": "string",
          "name": "user",
          "type": "string"
        },
        {
          "indexed": false,
          "internalType": "string",
          "name": "follower",
          "type": "string"
        },
        {
          "indexed": false,
          "internalType": "address",
          "name": "followerAddress",
          "type": "address"
        }
      ],
      "name": "FollowerAdded",
      "type": "event"
    },
    {
      "anonymous": false,
      "inputs": [
        {
          "indexed": false,
          "internalType": "address",
          "name": "destinationWallet",
          "type": "address"
        },
        {
          "indexed": false,
          "internalType": "uint256",
          "name": "balance",
          "type": "uint256"
        }
      ],
      "name": "FundsWithdrawn",
      "type": "event"
    },
    {
      "anonymous": false,
      "inputs": [
        {
          "indexed": true,
          "internalType": "address",
          "name": "user",
          "type": "address"
        },
        {
          "indexed": false,
          "internalType": "string",
          "name": "newName",
          "type": "string"
        }
      ],
      "name": "NameUpdated",
      "type": "event"
    },
    {
      "anonymous": false,
      "inputs": [
        {
          "indexed": true,
          "internalType": "address",
          "name": "user",
          "type": "address"
        },
        {
          "indexed": false,
          "internalType": "string",
          "name": "url",
          "type": "string"
        }
      ],
      "name": "ProfilePictureUpdated",
      "type": "event"
    },
    {
      "anonymous": false,
      "inputs": [
        {
          "indexed": false,
          "internalType": "uint256",
          "name": "id",
          "type": "uint256"
        },
        {
          "indexed": false,
          "internalType": "address",
          "name": "creator",
          "type": "address"
        },
        {
          "indexed": false,
          "internalType": "string",
          "name": "name",
          "type": "string"
        },
        {
          "indexed": false,
          "internalType": "string",
          "name": "content",
          "type": "string"
        },
        {
          "indexed": false,
          "internalType": "string[]",
          "name": "comments",
          "type": "string[]"
        },
        {
          "indexed": false,
          "internalType": "address[]",
          "name": "likes",
          "type": "address[]"
        },
        {
          "indexed": false,
          "internalType": "uint256[]",
          "name": "tips",
          "type": "uint256[]"
        },
        {
          "indexed": false,
          "internalType": "bool",
          "name": "exists",
          "type": "bool"
        },
        {
          "indexed": false,
          "internalType": "string",
          "name": "imageUrl",
          "type": "string"
        },
        {
          "indexed": false,
          "internalType": "uint256",
          "name": "timestamp",
          "type": "uint256"
        }
      ],
      "name": "TweetCreated",
      "type": "event"
    },
    {
      "anonymous": false,
      "inputs": [
        {
          "indexed": false,
          "internalType": "uint256",
          "name": "tweetId",
          "type": "uint256"
        },
        {
          "indexed": false,
          "internalType": "address",
          "name": "liker",
          "type": "address"
        }
      ],
      "name": "TweetLiked",
      "type": "event"
    },
    {
      "anonymous": false,
      "inputs": [
        {
          "indexed": false,
          "internalType": "address",
          "name": "contractFrom",
          "type": "address"
        },
        {
          "indexed": false,
          "internalType": "uint256",
          "name": "contractFromAmount",
          "type": "uint256"
        }
      ],
      "name": "TwitterReceivedFunds",
      "type": "event"
    },
    {
      "anonymous": false,
      "inputs": [
        {
          "indexed": false,
          "internalType": "string",
          "name": "user",
          "type": "string"
        },
        {
          "indexed": false,
          "internalType": "string",
          "name": "follower",
          "type": "string"
        }
      ],
      "name": "Unfollowed",
      "type": "event"
    },
    {
      "anonymous": false,
      "inputs": [
        {
          "indexed": false,
          "internalType": "uint256",
          "name": "amount",
          "type": "uint256"
        },
        {
          "indexed": false,
          "internalType": "uint256",
          "name": "tweetId",
          "type": "uint256"
        },
        {
          "indexed": false,
          "internalType": "address",
          "name": "creator",
          "type": "address"
        },
        {
          "indexed": false,
          "internalType": "address",
          "name": "tipper",
          "type": "address"
        },
        {
          "indexed": false,
          "internalType": "string",
          "name": "tipperName",
          "type": "string"
        }
      ],
      "name": "UserTipped",
      "type": "event"
    },
    {
      "inputs": [],
      "name": "baseURI",
      "outputs": [
        {
          "internalType": "string",
          "name": "",
          "type": "string"
        }
      ],
      "stateMutability": "view",
      "type": "function",
      "constant": true
    },
    {
      "inputs": [
        {
          "internalType": "address",
          "name": "",
          "type": "address"
        },
        {
          "internalType": "uint256",
          "name": "",
          "type": "uint256"
        }
      ],
      "name": "followers",
      "outputs": [
        {
          "internalType": "address",
          "name": "",
          "type": "address"
        }
      ],
      "stateMutability": "view",
      "type": "function",
      "constant": true
    },
    {
      "inputs": [
        {
          "internalType": "address",
          "name": "",
          "type": "address"
        },
        {
          "internalType": "address",
          "name": "",
          "type": "address"
        }
      ],
      "name": "following",
      "outputs": [
        {
          "internalType": "bool",
          "name": "",
          "type": "bool"
        }
      ],
      "stateMutability": "view",
      "type": "function",
      "constant": true
    },
    {
      "inputs": [],
      "name": "owner",
      "outputs": [
        {
          "internalType": "address payable",
          "name": "",
          "type": "address"
        }
      ],
      "stateMutability": "view",
      "type": "function",
      "constant": true
    },
    {
      "inputs": [
        {
          "internalType": "uint256",
          "name": "",
          "type": "uint256"
        }
      ],
      "name": "tweetAuctions",
      "outputs": [
        {
          "internalType": "address",
          "name": "",
          "type": "address"
        }
      ],
      "stateMutability": "view",
      "type": "function",
      "constant": true
    },
    {
      "inputs": [],
      "name": "tweetNFT",
      "outputs": [
        {
          "internalType": "contract TweetNFT",
          "name": "",
          "type": "address"
        }
      ],
      "stateMutability": "view",
      "type": "function",
      "constant": true
    },
    {
      "inputs": [],
      "name": "tweetToken",
      "outputs": [
        {
          "internalType": "contract TweetToken",
          "name": "",
          "type": "address"
        }
      ],
      "stateMutability": "view",
      "type": "function",
      "constant": true
    },
    {
      "inputs": [
        {
          "internalType": "uint256",
          "name": "",
          "type": "uint256"
        }
      ],
      "name": "tweets",
      "outputs": [
        {
          "internalType": "uint256",
          "name": "id",
          "type": "uint256"
        },
        {
          "internalType": "address",
          "name": "creator",
          "type": "address"
        },
        {
          "internalType": "string",
          "name": "name",
          "type": "string"
        },
        {
          "internalType": "string",
          "name": "content",
          "type": "string"
        },
        {
          "internalType": "bool",
          "name": "exists",
          "type": "bool"
        },
        {
          "internalType": "string",
          "name": "imageUrl",
          "type": "string"
        },
        {
          "internalType": "uint256",
          "name": "timestamp",
          "type": "uint256"
        }
      ],
      "stateMutability": "view",
      "type": "function",
      "constant": true
    },
    {
      "inputs": [
        {
          "internalType": "address",
          "name": "",
          "type": "address"
        }
      ],
      "name": "users",
      "outputs": [
        {
          "internalType": "address",
          "name": "userAddress",
          "type": "address"
        },
        {
          "internalType": "uint256",
          "name": "id",
          "type": "uint256"
        },
        {
          "internalType": "string",
          "name": "name",
          "type": "string"
        },
        {
          "internalType": "string",
          "name": "bio",
          "type": "string"
        },
        {
          "internalType": "string",
          "name": "profilePictureURL",
          "type": "string"
        },
        {
          "internalType": "bool",
          "name": "exists",
          "type": "bool"
        }
      ],
      "stateMutability": "view",
      "type": "function",
      "constant": true
    },
    {
      "inputs": [
        {
          "internalType": "string",
          "name": "_name",
          "type": "string"
        },
        {
          "internalType": "string",
          "name": "_bio",
          "type": "string"
        },
        {
          "internalType": "string",
          "name": "_profilePictureURL",
          "type": "string"
        }
      ],
      "name": "createAccount",
      "outputs": [],
      "stateMutability": "nonpayable",
      "type": "function"
    },
    {
      "inputs": [
        {
          "internalType": "string",
          "name": "_name",
          "type": "string"
        }
      ],
      "name": "updateName",
      "outputs": [],
      "stateMutability": "nonpayable",
      "type": "function"
    },
    {
      "inputs": [
        {
          "internalType": "string",
          "name": "_bio",
          "type": "string"
        }
      ],
      "name": "updateBio",
      "outputs": [],
      "stateMutability": "nonpayable",
      "type": "function"
    },
    {
      "inputs": [
        {
          "internalType": "string",
          "name": "_url",
          "type": "string"
        }
      ],
      "name": "updateProfilePicture",
      "outputs": [],
      "stateMutability": "nonpayable",
      "type": "function"
    },
    {
      "inputs": [],
      "name": "removeUser",
      "outputs": [],
      "stateMutability": "nonpayable",
      "type": "function"
    },
    {
      "inputs": [
        {
          "internalType": "address",
          "name": "user",
          "type": "address"
        },
        {
          "internalType": "address",
          "name": "follower",
          "type": "address"
        }
      ],
      "name": "isFollowing",
      "outputs": [
        {
          "internalType": "bool",
          "name": "",
          "type": "bool"
        }
      ],
      "stateMutability": "view",
      "type": "function",
      "constant": true
    },
    {
      "inputs": [
        {
          "internalType": "address",
          "name": "user",
          "type": "address"
        },
        {
          "internalType": "address",
          "name": "follower",
          "type": "address"
        }
      ],
      "name": "getFollowerIndex",
      "outputs": [
        {
          "internalType": "uint256",
          "name": "",
          "type": "uint256"
        }
      ],
      "stateMutability": "view",
      "type": "function",
      "constant": true
    },
    {
      "inputs": [
        {
          "internalType": "address",
          "name": "user",
          "type": "address"
        },
        {
          "internalType": "address",
          "name": "follower",
          "type": "address"
        }
      ],
      "name": "becomeFollower",
      "outputs": [],
      "stateMutability": "nonpayable",
      "type": "function"
    },
    {
      "inputs": [
        {
          "internalType": "address",
          "name": "_user",
          "type": "address"
        },
        {
          "internalType": "address",
          "name": "_follower",
          "type": "address"
        }
      ],
      "name": "unfollow",
      "outputs": [],
      "stateMutability": "nonpayable",
      "type": "function"
    },
    {
      "inputs": [
        {
          "internalType": "address",
          "name": "user",
          "type": "address"
        }
      ],
      "name": "getFollowerAddresses",
      "outputs": [
        {
          "internalType": "address[]",
          "name": "",
          "type": "address[]"
        }
      ],
      "stateMutability": "view",
      "type": "function",
      "constant": true
    },
    {
      "inputs": [
        {
          "internalType": "uint256",
          "name": "id",
          "type": "uint256"
        }
      ],
      "name": "getTweet",
      "outputs": [
        {
          "components": [
            {
              "internalType": "uint256",
              "name": "id",
              "type": "uint256"
            },
            {
              "internalType": "address",
              "name": "creator",
              "type": "address"
            },
            {
              "internalType": "string",
              "name": "name",
              "type": "string"
            },
            {
              "internalType": "string",
              "name": "content",
              "type": "string"
            },
            {
              "internalType": "string[]",
              "name": "comments",
              "type": "string[]"
            },
            {
              "internalType": "address[]",
              "name": "likes",
              "type": "address[]"
            },
            {
              "internalType": "uint256[]",
              "name": "tips",
              "type": "uint256[]"
            },
            {
              "internalType": "bool",
              "name": "exists",
              "type": "bool"
            },
            {
              "internalType": "string",
              "name": "imageUrl",
              "type": "string"
            },
            {
              "internalType": "uint256",
              "name": "timestamp",
              "type": "uint256"
            }
          ],
          "internalType": "struct Twitter.Tweet",
          "name": "",
          "type": "tuple"
        }
      ],
      "stateMutability": "view",
      "type": "function",
      "constant": true
    },
    {
      "inputs": [
        {
          "internalType": "string",
          "name": "_content",
          "type": "string"
        },
        {
          "internalType": "string",
          "name": "_imageUrl",
          "type": "string"
        }
      ],
      "name": "createTweet",
      "outputs": [],
      "stateMutability": "nonpayable",
      "type": "function"
    },
    {
      "inputs": [
        {
          "internalType": "uint256",
          "name": "_tweetId",
          "type": "uint256"
        },
        {
          "internalType": "string",
          "name": "_comment",
          "type": "string"
        }
      ],
      "name": "createComment",
      "outputs": [],
      "stateMutability": "nonpayable",
      "type": "function"
    },
    {
      "inputs": [
        {
          "internalType": "uint256",
          "name": "_tweetId",
          "type": "uint256"
        }
      ],
      "name": "likeTweet",
      "outputs": [],
      "stateMutability": "nonpayable",
      "type": "function"
    },
    {
      "inputs": [
        {
          "internalType": "uint256",
          "name": "_tweetId",
          "type": "uint256"
        },
        {
          "internalType": "uint256",
          "name": "_amount",
          "type": "uint256"
        }
      ],
      "name": "tipUser",
      "outputs": [],
      "stateMutability": "nonpayable",
      "type": "function"
    },
    {
      "inputs": [],
      "name": "receiveFunds",
      "outputs": [],
      "stateMutability": "payable",
      "type": "function",
      "payable": true
    },
    {
      "inputs": [],
      "name": "withdraw",
      "outputs": [],
      "stateMutability": "nonpayable",
      "type": "function"
    }
  ],
  "bytecode": "0x608060405260016008553480156200001657600080fd5b5060405162002fa438038062002fa48339810160408190526200003991620000dc565b600080546001600160a01b038086166001600160a01b03199283161790925560018054858416908316179055600280549284169290911691909117905560408051808201909152601581527f68747470733a2f2f697066732e696f2f697066732f00000000000000000000006020820152600390620000b99082620001d5565b50505050620002a1565b6001600160a01b0381168114620000d957600080fd5b50565b600080600060608486031215620000f257600080fd5b8351620000ff81620000c3565b60208501519093506200011281620000c3565b60408501519092506200012581620000c3565b809150509250925092565b634e487b7160e01b600052604160045260246000fd5b600181811c908216806200015b57607f821691505b6020821081036200017c57634e487b7160e01b600052602260045260246000fd5b50919050565b601f821115620001d057600081815260208120601f850160051c81016020861015620001ab5750805b601f850160051c820191505b81811015620001cc57828155600101620001b7565b5050505b505050565b81516001600160401b03811115620001f157620001f162000130565b620002098162000202845462000146565b8462000182565b602080601f831160018114620002415760008415620002285750858301515b600019600386901b1c1916600185901b178555620001cc565b600085815260208120601f198616915b82811015620002725788860151825594840194600190910190840162000251565b5085821015620002915787850151600019600388901b60f8161c191681555b5050505050600190811b01905550565b612cf380620002b16000396000f3fe6080604052600436106101805760003560e01c80638cd14d30116100d1578063c9f4b84a1161008a578063e8d857b011610064578063e8d857b0146104d6578063ebd009d314610509578063f4b5ee4d14610529578063f944f4c71461055f57600080fd5b8063c9f4b84a1461045b578063ce9ae0011461047b578063dc23abf6146104b657600080fd5b80638cd14d30146103425780638da5cb5b1461036257806399ec3a4214610382578063a87430ba146103dc578063bc53c0c41461040e578063c3ad5ecb1461042e57600080fd5b80635802594f1161013e57806375de982e1161011857806375de982e146102b457806376487b38146102d4578063812dca54146102f457806384da92a71461032257600080fd5b80635802594f1461023a5780635ffc6ceb146102725780636c0360eb1461029257600080fd5b80625c33e1146101855780630d95272a1461018f578063164415ae146101c55780633ccfd60b146101e557806340a17985146101fa578063565a4dc31461021a575b600080fd5b61018d610574565b005b34801561019b57600080fd5b506101af6101aa36600461218f565b6105af565b6040516101bc91906121b1565b60405180910390f35b3480156101d157600080fd5b5061018d6101e03660046121fe565b61066a565b3480156101f157600080fd5b5061018d6107d9565b34801561020657600080fd5b5061018d6102153660046122c3565b6108ad565b34801561022657600080fd5b5061018d61023536600461230a565b6109b0565b34801561024657600080fd5b5060025461025a906001600160a01b031681565b6040516001600160a01b0390911681526020016101bc565b34801561027e57600080fd5b5061018d61028d366004612347565b610a44565b34801561029e57600080fd5b506102a7610b19565b6040516101bc91906123a6565b3480156102c057600080fd5b5060015461025a906001600160a01b031681565b3480156102e057600080fd5b5061018d6102ef36600461230a565b610ba7565b34801561030057600080fd5b5061031461030f3660046123b9565b610c2f565b6040519081526020016101bc565b34801561032e57600080fd5b5061018d61033d36600461230a565b610c5c565b34801561034e57600080fd5b5061018d61035d3660046123ec565b610ce4565b34801561036e57600080fd5b5060005461025a906001600160a01b031681565b34801561038e57600080fd5b506103cc61039d3660046123b9565b6001600160a01b0380821660009081526006602090815260408083209386168352929052205460ff1692915050565b60405190151581526020016101bc565b3480156103e857600080fd5b506103fc6103f736600461218f565b611015565b6040516101bc96959493929190612446565b34801561041a57600080fd5b5061018d6104293660046124a9565b6111ef565b34801561043a57600080fd5b5061044e610449366004612347565b611380565b6040516101bc91906125fa565b34801561046757600080fd5b5061018d6104763660046123b9565b611787565b34801561048757600080fd5b506103cc6104963660046123b9565b600660209081526000928352604080842090915290825290205460ff1681565b3480156104c257600080fd5b5061018d6104d13660046123b9565b611ac8565b3480156104e257600080fd5b506104f66104f1366004612347565b611d26565b6040516101bc97969594939291906126fd565b34801561051557600080fd5b5061025a61052436600461276a565b611f0c565b34801561053557600080fd5b5061025a610544366004612347565b600b602052600090815260409020546001600160a01b031681565b34801561056b57600080fd5b5061018d611f44565b604080513381523460208201527f873db5b09b82c3e95b44a29e65520b545f452255c7af9aec662dad62294a983591015b60405180910390a1565b6001600160a01b03811660009081526004602052604090206005015460609060ff166105f65760405162461bcd60e51b81526004016105ed90612794565b60405180910390fd5b6001600160a01b0382166000908152600560209081526040918290208054835181840281018401909452808452909183018282801561065e57602002820191906000526020600020905b81546001600160a01b03168152600190910190602001808311610640575b50505050509050919050565b600081116106ba5760405162461bcd60e51b815260206004820152601f60248201527f416d6f756e742073686f756c642062652067726561746572207468616e20300060448201526064016105ed565b60018054600084815260096020526040908190209092015491516323b872dd60e01b81523360048201526001600160a01b039283166024820152604481018490529116906323b872dd906064016020604051808303816000875af1158015610726573d6000803e3d6000fd5b505050506040513d601f19601f8201168201806040525081019061074a91906127c1565b61075357600080fd5b6000828152600960209081526040808320600681018054600181810183559186528486200186905501543380855260049093529281902090517f6098a8ae5ae7c421a371177a4fedd3db1a412b92765d57396e8bae7bc4bb029d936107cd93869388936001600160a01b039093169260029091019061289a565b60405180910390a15050565b6000546001600160a01b0316331461083d5760405162461bcd60e51b815260206004820152602160248201527f4f6e6c7920746865206f776e65722063616e2077697468647261772066756e646044820152607360f81b60648201526084016105ed565b600080546040516001600160a01b03909116914780156108fc02929091818181858888f19350505050158015610877573d6000803e3d6000fd5b50604080513381524760208201527feaff4b37086828766ad3268786972c0cd24259d4c87a80f9d3963a3c3d999b0d91016105a5565b3360009081526004602052604090206005015460ff166108df5760405162461bcd60e51b81526004016105ed90612794565b60008281526009602052604090206007015460ff166109375760405162461bcd60e51b8152602060048201526014602482015273151dd9595d08191bd95cc81b9bdd08195e1a5cdd60621b60448201526064016105ed565b600082815260096020908152604082206004018054600181018255908352912001610962828261292d565b503360008181526004602081905260409182902091517f01f6e784149b9c5e5541e3c8dfdb04ef064750d69ca7f4e04f85b7a312968648936107cd93879387936002830192909101906129ed565b3360009081526004602052604090206005015460ff166109e25760405162461bcd60e51b81526004016105ed90612794565b336000908152600460208190526040909120016109ff828261292d565b50336001600160a01b03167f6b397bb88467b92a1774b4b19bf728f2673bf763d0bd7a571d17714ba7bd8c6c82604051610a3991906123a6565b60405180910390a250565b336000908152600a6020908152604080832084845290915290205460ff1615610ab95760405162461bcd60e51b815260206004820152602160248201527f596f75206861766520616c7265616479206c696b6564207468697320747765656044820152601d60fa1b60648201526084016105ed565b336000818152600a60209081526040808320858452825291829020805460ff191660011790558151848152908101929092527f33b8f513b5466d89f2a96589e6e48f7682fddc5debd283e6bb921ed3bba52b78910160405180910390a150565b60038054610b26906127e3565b80601f0160208091040260200160405190810160405280929190818152602001828054610b52906127e3565b8015610b9f5780601f10610b7457610100808354040283529160200191610b9f565b820191906000526020600020905b815481529060010190602001808311610b8257829003601f168201915b505050505081565b3360009081526004602052604090206005015460ff16610bd95760405162461bcd60e51b81526004016105ed90612794565b336000908152600460205260409020600301610bf5828261292d565b50336001600160a01b03167f3f838a7d0889a59b2445af5389196b3948170278848eb90d8d256ab14aaf4cf082604051610a3991906123a6565b6001600160a01b038083166000908152600760209081526040808320938516835292905220545b92915050565b3360009081526004602052604090206005015460ff16610c8e5760405162461bcd60e51b81526004016105ed90612794565b336000908152600460205260409020600201610caa828261292d565b50336001600160a01b03167f74321da206c1b9fa34367f7ece59ca49371dcd13820b9a5c3767ae1ecceed51a82604051610a3991906123a6565b3360009081526004602052604090206005015460ff16610d165760405162461bcd60e51b81526004016105ed90612794565b600854604080516101408101825282815233602080830182905260009182526004905282902060020180549192830191610d4f906127e3565b80601f0160208091040260200160405190810160405280929190818152602001828054610d7b906127e3565b8015610dc85780601f10610d9d57610100808354040283529160200191610dc8565b820191906000526020600020905b815481529060010190602001808311610dab57829003601f168201915b50505091835250506020808201869052604080516000808252928101825292019190610e04565b6060815260200190600190039081610def5790505b5081526020016000604051908082528060200260200182016040528015610e35578160200160208202803683370190505b5081526020016000604051908082528060200260200182016040528015610e66578160200160208202803683370190505b50815260016020808301829052604080840187905242606090940193909352600085815260098252839020845181559084015191810180546001600160a01b0319166001600160a01b0390931692909217909155908201516002820190610ecd908261292d565b5060608201516003820190610ee2908261292d565b5060808201518051610efe916004840191602090910190612012565b5060a08201518051610f1a916005840191602090910190612068565b5060c08201518051610f369160068401916020909101906120c9565b5060e082015160078201805460ff19169115159190911790556101008201516008820190610f64908261292d565b506101209190910151600991820155600082815260208290526040908190208054600182015460078301549483015493517f3cdf52fd79ee382dbae2d15851951553d186e835ab4934815372f95dcb68937495610ff39593946001600160a01b03909316936002840193600381019360048201936005830193600684019360ff90921692600890920191612aba565b60405180910390a16008805490600061100b83612bc4565b9190505550505050565b6004602052600090815260409020805460018201546002830180546001600160a01b03909316939192611047906127e3565b80601f0160208091040260200160405190810160405280929190818152602001828054611073906127e3565b80156110c05780601f10611095576101008083540402835291602001916110c0565b820191906000526020600020905b8154815290600101906020018083116110a357829003601f168201915b5050505050908060030180546110d5906127e3565b80601f0160208091040260200160405190810160405280929190818152602001828054611101906127e3565b801561114e5780601f106111235761010080835404028352916020019161114e565b820191906000526020600020905b81548152906001019060200180831161113157829003601f168201915b505050505090806004018054611163906127e3565b80601f016020809104026020016040519081016040528092919081815260200182805461118f906127e3565b80156111dc5780601f106111b1576101008083540402835291602001916111dc565b820191906000526020600020905b8154815290600101906020018083116111bf57829003601f168201915b5050506005909301549192505060ff1686565b3360009081526004602052604090206005015460ff16156112485760405162461bcd60e51b81526020600482015260136024820152725573657220616c72656164792065786973747360681b60448201526064016105ed565b6000611253600c5490565b6040805160c0810182523380825260208083018581528385018a8152606085018a905260808501899052600160a086018190526000948552600490935294909220835181546001600160a01b0319166001600160a01b0390911617815591519082015591519293509160028201906112cb908261292d565b50606082015160038201906112e0908261292d565b50608082015160048201906112f5908261292d565b5060a091909101516005918201805460ff19169115159190911790553360008181526004602052604090819020600181015493015490517faa2585f21e6456ed4a8c9a8868301bdcbcfa7435429b0189e606aba6c1692fbe936113649392909189918991899160ff1690612446565b60405180910390a161137a600c80546001019055565b50505050565b6113e16040518061014001604052806000815260200160006001600160a01b03168152602001606081526020016060815260200160608152602001606081526020016060815260200160001515815260200160608152602001600081525090565b60008281526009602090815260408083208151610140810183528154815260018201546001600160a01b0316938101939093526002810180549192840191611428906127e3565b80601f0160208091040260200160405190810160405280929190818152602001828054611454906127e3565b80156114a15780601f10611476576101008083540402835291602001916114a1565b820191906000526020600020905b81548152906001019060200180831161148457829003601f168201915b505050505081526020016003820180546114ba906127e3565b80601f01602080910402602001604051908101604052809291908181526020018280546114e6906127e3565b80156115335780601f1061150857610100808354040283529160200191611533565b820191906000526020600020905b81548152906001019060200180831161151657829003601f168201915b5050505050815260200160048201805480602002602001604051908101604052809291908181526020016000905b8282101561160d578382906000526020600020018054611580906127e3565b80601f01602080910402602001604051908101604052809291908181526020018280546115ac906127e3565b80156115f95780601f106115ce576101008083540402835291602001916115f9565b820191906000526020600020905b8154815290600101906020018083116115dc57829003601f168201915b505050505081526020019060010190611561565b5050505081526020016005820180548060200260200160405190810160405280929190818152602001828054801561166e57602002820191906000526020600020905b81546001600160a01b03168152600190910190602001808311611650575b50505050508152602001600682018054806020026020016040519081016040528092919081815260200182805480156116c657602002820191906000526020600020905b8154815260200190600101908083116116b2575b5050509183525050600782015460ff16151560208201526008820180546040909201916116f2906127e3565b80601f016020809104026020016040519081016040528092919081815260200182805461171e906127e3565b801561176b5780601f106117405761010080835404028352916020019161176b565b820191906000526020600020905b81548152906001019060200180831161174e57829003601f168201915b5050509183525050600991909101546020909101529392505050565b336001600160a01b038216146117ef5760405162461bcd60e51b815260206004820152602760248201527f4f6e6c792074686520666f6c6c6f7765722063616e2072656d6f7665207468656044820152666d73656c76657360c81b60648201526084016105ed565b6001600160a01b0380821660009081526006602090815260408083209386168352929052205460ff166118545760405162461bcd60e51b815260206004820152600d60248201526c4e6f7420666f6c6c6f77696e6760981b60448201526064016105ed565b6001600160a01b038083166000818152600760209081526040808320948616835293815283822054928252600590529182205490919061189690600190612bdd565b6001600160a01b0385166000908152600560205260409020805491925090829081106118c4576118c4612bf0565b60009182526020808320909101546001600160a01b0387811684526005909252604090922080549190921691908490811061190157611901612bf0565b600091825260208083209190910180546001600160a01b0319166001600160a01b03948516179055918616815260078252604080822060059093528120805485939291908490811061195557611955612bf0565b60009182526020808320909101546001600160a01b039081168452838201949094526040928301822094909455918716825260059092522080548061199c5761199c612c06565b60008281526020808220830160001990810180546001600160a01b03191690559092019092556001600160a01b0385811680845260068084526040808620938a16808752938552808620805460ff19169055600785528086208387528552808620869055928552835281842090845290915290205460ff1615611a615760405162461bcd60e51b815260206004820152601d60248201527f4661696c656420746f2072656d6f76652074686520666f6c6c6f77657200000060448201526064016105ed565b6001600160a01b0380851660009081526004602052604080822092861682529081902090517f609a93f9eecec6c2f7c382d0a75e0dcd5422dfa2c9570ef2ea0d58c25ea968b992611aba92600291820192910190612c1c565b60405180910390a150505050565b336001600160a01b03821614611b205760405162461bcd60e51b815260206004820152601b60248201527f557365722043616e6e6f7420466f72636520466f6c6c6f77657273000000000060448201526064016105ed565b6001600160a01b03821660009081526004602052604090206005015460ff16611b5b5760405162461bcd60e51b81526004016105ed90612794565b6001600160a01b03811660009081526004602052604090206005015460ff16611bc65760405162461bcd60e51b815260206004820152601760248201527f466f6c6c6f77657220646f6573206e6f7420657869737400000000000000000060448201526064016105ed565b6001600160a01b0380821660009081526006602090815260408083209386168352929052205460ff1615611c2c5760405162461bcd60e51b815260206004820152600d60248201526c4e6f7420666f6c6c6f77696e6760981b60448201526064016105ed565b6001600160a01b03828116600081815260056020908152604082208054600180820183558285529284200180546001600160a01b031916958716959095179094559181529154611c7c9190612bdd565b6001600160a01b038084166000818152600660209081526040808320898616808552908352818420805460ff1916600117905560078352818420858552835281842087905583526004909152808220805493835291819020805491519596507f7f97986d1d7d68a2c79189da13a1968cb1e994a7864de2a4af34be8e5f941f6295611d199594851694600294850194929092019290911690612c4a565b60405180910390a1505050565b60096020526000908152604090208054600182015460028301805492936001600160a01b0390921692611d58906127e3565b80601f0160208091040260200160405190810160405280929190818152602001828054611d84906127e3565b8015611dd15780601f10611da657610100808354040283529160200191611dd1565b820191906000526020600020905b815481529060010190602001808311611db457829003601f168201915b505050505090806003018054611de6906127e3565b80601f0160208091040260200160405190810160405280929190818152602001828054611e12906127e3565b8015611e5f5780601f10611e3457610100808354040283529160200191611e5f565b820191906000526020600020905b815481529060010190602001808311611e4257829003601f168201915b5050506007840154600885018054949560ff909216949193509150611e83906127e3565b80601f0160208091040260200160405190810160405280929190818152602001828054611eaf906127e3565b8015611efc5780601f10611ed157610100808354040283529160200191611efc565b820191906000526020600020905b815481529060010190602001808311611edf57829003601f168201915b5050505050908060090154905087565b60056020528160005260406000208181548110611f2857600080fd5b6000918252602090912001546001600160a01b03169150829050565b3360009081526004602052604090206005015460ff16611f765760405162461bcd60e51b81526004016105ed90612794565b33600090815260046020526040812080546001600160a01b03191681556001810182905590611fa86002830182612104565b611fb6600383016000612104565b611fc4600483016000612104565b50600501805460ff19169055336000818152600460205260409081902090517f09c548a1a0ebbda4fe7f4ad39a7b6f70618bba50296b0b3aa871dce2b0dbea4c926105a59260020191612c93565b828054828255906000526020600020908101928215612058579160200282015b828111156120585782518290612048908261292d565b5091602001919060010190612032565b50612064929150612141565b5090565b8280548282559060005260206000209081019282156120bd579160200282015b828111156120bd57825182546001600160a01b0319166001600160a01b03909116178255602090920191600190910190612088565b5061206492915061215e565b8280548282559060005260206000209081019282156120bd579160200282015b828111156120bd5782518255916020019190600101906120e9565b508054612110906127e3565b6000825580601f10612120575050565b601f01602090049060005260206000209081019061213e919061215e565b50565b808211156120645760006121558282612104565b50600101612141565b5b80821115612064576000815560010161215f565b80356001600160a01b038116811461218a57600080fd5b919050565b6000602082840312156121a157600080fd5b6121aa82612173565b9392505050565b6020808252825182820181905260009190848201906040850190845b818110156121f25783516001600160a01b0316835292840192918401916001016121cd565b50909695505050505050565b6000806040838503121561221157600080fd5b50508035926020909101359150565b634e487b7160e01b600052604160045260246000fd5b600082601f83011261224757600080fd5b813567ffffffffffffffff8082111561226257612262612220565b604051601f8301601f19908116603f0116810190828211818310171561228a5761228a612220565b816040528381528660208588010111156122a357600080fd5b836020870160208301376000602085830101528094505050505092915050565b600080604083850312156122d657600080fd5b82359150602083013567ffffffffffffffff8111156122f457600080fd5b61230085828601612236565b9150509250929050565b60006020828403121561231c57600080fd5b813567ffffffffffffffff81111561233357600080fd5b61233f84828501612236565b949350505050565b60006020828403121561235957600080fd5b5035919050565b6000815180845260005b818110156123865760208185018101518683018201520161236a565b506000602082860101526020601f19601f83011685010191505092915050565b6020815260006121aa6020830184612360565b600080604083850312156123cc57600080fd5b6123d583612173565b91506123e360208401612173565b90509250929050565b600080604083850312156123ff57600080fd5b823567ffffffffffffffff8082111561241757600080fd5b61242386838701612236565b9350602085013591508082111561243957600080fd5b5061230085828601612236565b60018060a01b038716815285602082015260c06040820152600061246d60c0830187612360565b828103606084015261247f8187612360565b905082810360808401526124938186612360565b91505082151560a0830152979650505050505050565b6000806000606084860312156124be57600080fd5b833567ffffffffffffffff808211156124d657600080fd5b6124e287838801612236565b945060208601359150808211156124f857600080fd5b61250487838801612236565b9350604086013591508082111561251a57600080fd5b5061252786828701612236565b9150509250925092565b600081518084526020808501808196508360051b8101915082860160005b85811015612579578284038952612567848351612360565b9885019893509084019060010161254f565b5091979650505050505050565b600081518084526020808501945080840160005b838110156125bf5781516001600160a01b03168752958201959082019060010161259a565b509495945050505050565b600081518084526020808501945080840160005b838110156125bf578151875295820195908201906001016125de565b60208152815160208201526000602083015161262160408401826001600160a01b03169052565b50604083015161014080606085015261263e610160850183612360565b91506060850151601f198086850301608087015261265c8483612360565b935060808701519150808685030160a08701526126798483612531565b935060a08701519150808685030160c08701526126968483612586565b935060c08701519150808685030160e08701526126b384836125ca565b935060e087015191506101006126cc8188018415159052565b808801519250506101208187860301818801526126e98584612360565b970151959092019490945250929392505050565b8781526001600160a01b038716602082015260e06040820181905260009061272790830188612360565b82810360608401526127398188612360565b9050851515608084015282810360a08401526127558186612360565b9150508260c083015298975050505050505050565b6000806040838503121561277d57600080fd5b61278683612173565b946020939093013593505050565b602080825260139082015272155cd95c88191bd95cc81b9bdd08195e1a5cdd606a1b604082015260600190565b6000602082840312156127d357600080fd5b815180151581146121aa57600080fd5b600181811c908216806127f757607f821691505b60208210810361281757634e487b7160e01b600052602260045260246000fd5b50919050565b6000815461282a816127e3565b80855260206001838116801561284757600181146128615761288f565b60ff1985168884015283151560051b88018301955061288f565b866000528260002060005b858110156128875781548a820186015290830190840161286c565b890184019650505b505050505092915050565b858152602081018590526001600160a01b0384811660408301528316606082015260a0608082018190526000906128d39083018461281d565b979650505050505050565b601f82111561292857600081815260208120601f850160051c810160208610156129055750805b601f850160051c820191505b8181101561292457828155600101612911565b5050505b505050565b815167ffffffffffffffff81111561294757612947612220565b61295b8161295584546127e3565b846128de565b602080601f83116001811461299057600084156129785750858301515b600019600386901b1c1916600185901b178555612924565b600085815260208120601f198616915b828110156129bf578886015182559484019460019091019084016129a0565b50858210156129dd5787850151600019600388901b60f8161c191681555b5050505050600190811b01905550565b85815260a060208201526000612a0660a0830187612360565b6001600160a01b03861660408401528281036060840152612a27818661281d565b90508281036080840152612a3b818561281d565b98975050505050505050565b6000815480845260208085019450836000528060002060005b838110156125bf5781546001600160a01b031687529582019560019182019101612a60565b6000815480845260208085019450836000528060002060005b838110156125bf57815487529582019560019182019101612a9e565b60006101408c8352602060018060a01b038d1681850152816040850152612ae38285018d61281d565b91508382036060850152612af7828c61281d565b91508382036080850152818a548084528284019150828160051b8501018c6000528360002060005b83811015612b4c57868303601f19018552612b3a838361281d565b94860194925060019182019101612b1f565b505086810360a0880152612b60818d612a47565b94505050505082810360c0840152612b788188612a85565b86151560e08501529050828103610100840152612b95818661281d565b915050826101208301529b9a5050505050505050505050565b634e487b7160e01b600052601160045260246000fd5b600060018201612bd657612bd6612bae565b5060010190565b81810381811115610c5657610c56612bae565b634e487b7160e01b600052603260045260246000fd5b634e487b7160e01b600052603160045260246000fd5b604081526000612c2f604083018561281d565b8281036020840152612c41818561281d565b95945050505050565b600060018060a01b03808716835260806020840152612c6c608084018761281d565b8381036040850152612c7e818761281d565b92505080841660608401525095945050505050565b604081526000612ca6604083018561281d565b905060018060a01b0383166020830152939250505056fea264697066735822122082e331f50304c0b0bf5073ddcf157a50f646a3686051122d508f418f678c416a64736f6c63430008130033",
  "immutableReferences": {},
  "source": "// SPDX-License-Identifier: MIT\npragma solidity ^0.8.19;\n\nimport './TweetToken.sol';\nimport './TweetNFT.sol';\nimport './Auction.sol';\nimport \"@openzeppelin/contracts/utils/Counters.sol\";\n\ncontract Twitter {\n\n    // Contract owner address\n    address payable public owner;\n    // Tweet Token contract\n    TweetToken public tweetToken;\n    // Tweet NFT contract\n    TweetNFT public tweetNFT;\n    // Store baseURI for NFT (IPFS);\n    string public baseURI;\n    // Store users\n    mapping(address => User) public users; \n    // Store followers for each user\n    mapping(address => address[]) public followers; \n    // Store user's following relationships \n    mapping(address => mapping(address => bool)) public following; \n    // Store the index of the follower in the _followers array (user => (follower => index))\n    mapping(address => mapping(address => uint256)) private followerIndices; \n    // Tweet ID index counter\n    uint256 private nextTweetId = 1;\n    // Store tweets\n    mapping(uint256 => Tweet) public tweets;\n    // Store liked tweets\n    mapping(address => mapping(uint256 => bool)) private likedTweets;\n    // Store auction addresses\n    mapping(uint256 => address) public tweetAuctions;\n    // Store account IDs\n    using Counters for Counters.Counter;\n    Counters.Counter private accountIds;\n\n    constructor(address payable _owner, address _tweetTokenAddress, address _nftAddress) {\n        owner = _owner;\n        tweetToken = TweetToken(_tweetTokenAddress);\n        tweetNFT = TweetNFT(_nftAddress);\n        baseURI = \"https://ipfs.io/ipfs/\";\n    }\n\n    struct User {\n        address userAddress;\n        uint256 id;\n        string name;\n        string bio;\n        string profilePictureURL;\n        bool exists;\n    }\n\n    struct Tweet {\n        uint256 id;\n        address creator;\n        string name;\n        string content;\n        string[] comments;\n        address[] likes;\n        uint256[] tips;\n        bool exists;\n        string imageUrl;\n        uint256 timestamp;\n    }\n\n    event AccountCreated(address userAddress, uint256 id, string name, string bio, string profilePictureURL, bool exists);\n    event NameUpdated(address indexed user, string newName);\n    event BioUpdated(address indexed user, string newBio);\n    event ProfilePictureUpdated(address indexed user, string url);\n    event AccountDeleted(string name, address user);\n    event FollowerAdded(address userAddress, string user, string follower, address followerAddress);\n    event Unfollowed(string user, string follower);\n    event TweetCreated(uint256 id, address creator, string name, string content, string[] comments, address[] likes, uint256[] tips, bool exists, string imageUrl, uint256 timestamp);\n    event CommentAdded(uint256 tweetId, string comment, address commenter, string commenterName, string profilePic);\n    event TweetLiked(uint256 tweetId, address liker);\n    event UserTipped(uint256 amount, uint256 tweetId, address creator, address tipper, string tipperName);\n    event TwitterReceivedFunds(address contractFrom, uint256 contractFromAmount);\n    event FundsWithdrawn(address destinationWallet, uint256 balance);\n\n    function createAccount(string memory _name, string memory _bio, string memory _profilePictureURL) public {\n        // Check if user doesn't alreadty exist\n        require(!users[msg.sender].exists, \"User already exists\");\n\n        uint256 userId = accountIds.current();\n\n        // Create a new user and store it in the mapping\n        users[msg.sender] = User({\n            userAddress: msg.sender,\n            id: userId,\n            name: _name,\n            bio: _bio,\n            profilePictureURL: _profilePictureURL,\n            exists: true\n        });\n\n        emit AccountCreated(msg.sender, users[msg.sender].id, _name, _bio, _profilePictureURL, users[msg.sender].exists);\n        accountIds.increment();\n    }\n\n    function updateName(string memory _name) public {\n        require(users[msg.sender].exists, \"User does not exist\");\n        users[msg.sender].name = _name;\n\n        emit NameUpdated(msg.sender, _name);\n    }\n\n    function updateBio(string memory _bio) public {\n        require(users[msg.sender].exists, \"User does not exist\");\n        users[msg.sender].bio = _bio;\n\n        emit BioUpdated(msg.sender, _bio);\n    }\n\n    function updateProfilePicture(string memory _url) public {\n        require(users[msg.sender].exists, \"User does not exist\");\n        users[msg.sender].profilePictureURL = _url;\n\n        emit ProfilePictureUpdated(msg.sender, _url);\n    }\n\n    function removeUser() public {\n        require(users[msg.sender].exists, \"User does not exist\");\n        delete users[msg.sender];\n\n        emit AccountDeleted(users[msg.sender].name, msg.sender);\n    }\n\n    function isFollowing(address user, address follower) public view returns (bool) {\n        return following[follower][user];\n    }\n\n    function getFollowerIndex(address user, address follower) public view returns (uint) {\n        return followerIndices[user][follower];\n    }\n\n    function becomeFollower(address user, address follower) public {\n        require(msg.sender == follower, \"User Cannot Force Followers\");\n        require(users[user].exists, \"User does not exist\");\n        require(users[follower].exists, \"Follower does not exist\");\n        require(!following[follower][user], \"Not following\");\n\n        followers[user].push(follower); // add follower to followers array for that user\n        uint256 index = followers[user].length - 1; // get index for follower\n        following[follower][user] = true; // set following status to true\n        followerIndices[user][follower] = index; // store index for follower\n\n        emit FollowerAdded(users[user].userAddress, users[user].name, users[follower].name, users[follower].userAddress);\n    }\n\n    function unfollow(address _user, address _follower) public {\n        require(msg.sender == _follower, \"Only the follower can remove themselves\");\n        require(following[_follower][_user], \"Not following\");\n\n        uint256 index = followerIndices[_user][_follower];\n        uint256 lastIndex = followers[_user].length - 1;\n\n        // Move the last follower to the index of the follower being removed\n        followers[_user][index] = followers[_user][lastIndex];\n\n        // Update the index of the moved follower\n        followerIndices[_user][followers[_user][index]] = index;\n\n        // Remove the last follower and update the following mapping\n        followers[_user].pop();\n        following[_follower][_user] = false;\n        delete followerIndices[_user][_follower];\n\n        require(!following[_user][_follower], \"Failed to remove the follower\");\n\n\n        emit Unfollowed(users[_user].name, users[_follower].name);\n    }\n\n    function getFollowerAddresses(address user) public view returns (address[] memory) {\n        require(users[user].exists, \"User does not exist\");\n        return followers[user];\n    }\n\n    function getTweet(uint256 id) public view returns (Tweet memory) {\n        Tweet memory tweet = tweets[id];\n        return tweet;\n    }\n\n    function createTweet(string memory _content, string memory _imageUrl) public {\n        require(users[msg.sender].exists, \"User does not exist\");\n\n        uint256 _tweetId = nextTweetId;\n\n        tweets[_tweetId] = Tweet({\n            id: _tweetId,\n            name: users[msg.sender].name,\n            creator: msg.sender,\n            content: _content,\n            comments: new string[](0),\n            likes: new address[](0),                                    \n            tips: new uint256[](0),            \n            exists: true,\n            imageUrl: _imageUrl,\n            timestamp: block.timestamp\n        });\n\n        emit TweetCreated(\n            tweets[_tweetId].id, \n            tweets[_tweetId].creator, \n            tweets[_tweetId].name,\n            tweets[_tweetId].content, \n            tweets[_tweetId].comments,\n            tweets[_tweetId].likes,                               \n            tweets[_tweetId].tips,            \n            tweets[_tweetId].exists,\n            tweets[_tweetId].imageUrl,\n            tweets[_tweetId].timestamp\n        );\n\n        nextTweetId++;\n    }\n\n    function createComment(uint256 _tweetId, string memory _comment) public {\n        require(users[msg.sender].exists, \"User does not exist\");\n        require(tweets[_tweetId].exists, \"Tweet does not exist\");\n\n        tweets[_tweetId].comments.push(_comment);\n\n        emit CommentAdded(_tweetId, _comment, msg.sender, users[msg.sender].name, users[msg.sender].profilePictureURL);\n    }\n\n    function likeTweet(uint256 _tweetId) public {\n        require(!likedTweets[msg.sender][_tweetId], \"You have already liked this tweet\");\n                \n        likedTweets[msg.sender][_tweetId] = true;\n\n        emit TweetLiked(_tweetId, msg.sender);\n    }\n\n    function tipUser(uint256 _tweetId, uint256 _amount) public {\n        require(_amount > 0, \"Amount should be greater than 0\");\n        require(tweetToken.transferFrom(msg.sender, tweets[_tweetId].creator, _amount));\n        tweets[_tweetId].tips.push(_amount);\n\n        emit UserTipped(_amount, _tweetId, tweets[_tweetId].creator, msg.sender, users[msg.sender].name);\n    }\n\n    function receiveFunds() external payable {\n        // Funds will be received and stored in the contract\n        emit TwitterReceivedFunds(msg.sender, msg.value);\n    }\n\n    function withdraw() external {\n        require(msg.sender == owner, \"Only the owner can withdraw funds\");\n        owner.transfer(address(this).balance);\n\n        emit FundsWithdrawn(msg.sender, address(this).balance);\n    }\n}",
  "sourcePath": "/Users/jamesstorage/Repos/decentralized-twitter/src/contracts/Twitter.sol",
  "compiler": {
    "name": "solc",
    "version": "0.8.19+commit.7dd6d404.Emscripten.clang"
  },
  "schemaVersion": "3.4.13",
  "updatedAt": "2023-04-20T10:17:18.131Z",
  "networkType": "ethereum",
  "devdoc": {
    "kind": "dev",
    "methods": {},
    "version": 1
  },
  "userdoc": {
    "kind": "user",
    "methods": {},
    "version": 1
  }
}