{
  "contractName": "Twitter",
  "abi": [
    {
      "inputs": [
        {
          "internalType": "address payable",
          "name": "_owner",
          "type": "address"
        },
        {
          "internalType": "address",
          "name": "_tweetTokenAddress",
          "type": "address"
        },
        {
          "internalType": "address",
          "name": "_nftAddress",
          "type": "address"
        }
      ],
      "stateMutability": "nonpayable",
      "type": "constructor"
    },
    {
      "anonymous": false,
      "inputs": [
        {
          "indexed": false,
          "internalType": "address",
          "name": "userAddress",
          "type": "address"
        },
        {
          "indexed": false,
          "internalType": "uint256",
          "name": "id",
          "type": "uint256"
        },
        {
          "indexed": false,
          "internalType": "string",
          "name": "name",
          "type": "string"
        },
        {
          "indexed": false,
          "internalType": "string",
          "name": "bio",
          "type": "string"
        },
        {
          "indexed": false,
          "internalType": "string",
          "name": "profilePictureURL",
          "type": "string"
        },
        {
          "indexed": false,
          "internalType": "bool",
          "name": "exists",
          "type": "bool"
        }
      ],
      "name": "AccountCreated",
      "type": "event"
    },
    {
      "anonymous": false,
      "inputs": [
        {
          "indexed": false,
          "internalType": "string",
          "name": "name",
          "type": "string"
        },
        {
          "indexed": false,
          "internalType": "address",
          "name": "user",
          "type": "address"
        }
      ],
      "name": "AccountDeleted",
      "type": "event"
    },
    {
      "anonymous": false,
      "inputs": [
        {
          "indexed": true,
          "internalType": "address",
          "name": "user",
          "type": "address"
        },
        {
          "indexed": false,
          "internalType": "string",
          "name": "newBio",
          "type": "string"
        }
      ],
      "name": "BioUpdated",
      "type": "event"
    },
    {
      "anonymous": false,
      "inputs": [
        {
          "indexed": false,
          "internalType": "uint256",
          "name": "tweetId",
          "type": "uint256"
        },
        {
          "indexed": false,
          "internalType": "string",
          "name": "comment",
          "type": "string"
        },
        {
          "indexed": false,
          "internalType": "address",
          "name": "commenter",
          "type": "address"
        },
        {
          "indexed": false,
          "internalType": "uint256",
          "name": "commentCount",
          "type": "uint256"
        },
        {
          "indexed": false,
          "internalType": "string",
          "name": "commenterName",
          "type": "string"
        },
        {
          "indexed": false,
          "internalType": "string",
          "name": "profilePic",
          "type": "string"
        }
      ],
      "name": "CommentAdded",
      "type": "event"
    },
    {
      "anonymous": false,
      "inputs": [
        {
          "indexed": false,
          "internalType": "address",
          "name": "userAddress",
          "type": "address"
        },
        {
          "indexed": false,
          "internalType": "string",
          "name": "user",
          "type": "string"
        },
        {
          "indexed": false,
          "internalType": "string",
          "name": "follower",
          "type": "string"
        },
        {
          "indexed": false,
          "internalType": "address",
          "name": "followerAddress",
          "type": "address"
        }
      ],
      "name": "FollowerAdded",
      "type": "event"
    },
    {
      "anonymous": false,
      "inputs": [
        {
          "indexed": false,
          "internalType": "address",
          "name": "destinationWallet",
          "type": "address"
        },
        {
          "indexed": false,
          "internalType": "uint256",
          "name": "balance",
          "type": "uint256"
        }
      ],
      "name": "FundsWithdrawn",
      "type": "event"
    },
    {
      "anonymous": false,
      "inputs": [
        {
          "indexed": true,
          "internalType": "address",
          "name": "user",
          "type": "address"
        },
        {
          "indexed": false,
          "internalType": "string",
          "name": "newName",
          "type": "string"
        }
      ],
      "name": "NameUpdated",
      "type": "event"
    },
    {
      "anonymous": false,
      "inputs": [
        {
          "indexed": true,
          "internalType": "address",
          "name": "user",
          "type": "address"
        },
        {
          "indexed": false,
          "internalType": "string",
          "name": "url",
          "type": "string"
        }
      ],
      "name": "ProfilePictureUpdated",
      "type": "event"
    },
    {
      "anonymous": false,
      "inputs": [
        {
          "indexed": false,
          "internalType": "uint256",
          "name": "tweetId",
          "type": "uint256"
        },
        {
          "indexed": false,
          "internalType": "uint256",
          "name": "retweetCount",
          "type": "uint256"
        }
      ],
      "name": "ReTweeted",
      "type": "event"
    },
    {
      "anonymous": false,
      "inputs": [
        {
          "indexed": false,
          "internalType": "uint256",
          "name": "id",
          "type": "uint256"
        },
        {
          "indexed": false,
          "internalType": "address",
          "name": "creator",
          "type": "address"
        },
        {
          "indexed": false,
          "internalType": "string",
          "name": "name",
          "type": "string"
        },
        {
          "indexed": false,
          "internalType": "string",
          "name": "content",
          "type": "string"
        },
        {
          "indexed": false,
          "internalType": "string[]",
          "name": "comments",
          "type": "string[]"
        },
        {
          "indexed": false,
          "internalType": "uint256",
          "name": "commentCount",
          "type": "uint256"
        },
        {
          "indexed": false,
          "internalType": "uint256",
          "name": "likeCount",
          "type": "uint256"
        },
        {
          "indexed": false,
          "internalType": "uint256",
          "name": "retweetCount",
          "type": "uint256"
        },
        {
          "indexed": false,
          "internalType": "uint256[]",
          "name": "tips",
          "type": "uint256[]"
        },
        {
          "indexed": false,
          "internalType": "uint256",
          "name": "tipCount",
          "type": "uint256"
        },
        {
          "indexed": false,
          "internalType": "bool",
          "name": "exists",
          "type": "bool"
        },
        {
          "indexed": false,
          "internalType": "string",
          "name": "imageUrl",
          "type": "string"
        },
        {
          "indexed": false,
          "internalType": "uint256",
          "name": "timestamp",
          "type": "uint256"
        }
      ],
      "name": "TweetCreated",
      "type": "event"
    },
    {
      "anonymous": false,
      "inputs": [
        {
          "indexed": false,
          "internalType": "uint256",
          "name": "tweetId",
          "type": "uint256"
        },
        {
          "indexed": false,
          "internalType": "uint256",
          "name": "likeCount",
          "type": "uint256"
        }
      ],
      "name": "TweetLiked",
      "type": "event"
    },
    {
      "anonymous": false,
      "inputs": [
        {
          "indexed": false,
          "internalType": "address",
          "name": "contractFrom",
          "type": "address"
        },
        {
          "indexed": false,
          "internalType": "uint256",
          "name": "contractFromAmount",
          "type": "uint256"
        }
      ],
      "name": "TwitterReceivedFunds",
      "type": "event"
    },
    {
      "anonymous": false,
      "inputs": [
        {
          "indexed": false,
          "internalType": "string",
          "name": "user",
          "type": "string"
        },
        {
          "indexed": false,
          "internalType": "string",
          "name": "follower",
          "type": "string"
        }
      ],
      "name": "Unfollowed",
      "type": "event"
    },
    {
      "anonymous": false,
      "inputs": [
        {
          "indexed": false,
          "internalType": "uint256",
          "name": "amount",
          "type": "uint256"
        },
        {
          "indexed": false,
          "internalType": "uint256",
          "name": "tweetId",
          "type": "uint256"
        },
        {
          "indexed": false,
          "internalType": "address",
          "name": "creator",
          "type": "address"
        },
        {
          "indexed": false,
          "internalType": "address",
          "name": "tipper",
          "type": "address"
        },
        {
          "indexed": false,
          "internalType": "string",
          "name": "tipperName",
          "type": "string"
        },
        {
          "indexed": false,
          "internalType": "uint256",
          "name": "tipCount",
          "type": "uint256"
        }
      ],
      "name": "UserTipped",
      "type": "event"
    },
    {
      "inputs": [],
      "name": "baseURI",
      "outputs": [
        {
          "internalType": "string",
          "name": "",
          "type": "string"
        }
      ],
      "stateMutability": "view",
      "type": "function",
      "constant": true
    },
    {
      "inputs": [
        {
          "internalType": "address",
          "name": "",
          "type": "address"
        },
        {
          "internalType": "uint256",
          "name": "",
          "type": "uint256"
        }
      ],
      "name": "followers",
      "outputs": [
        {
          "internalType": "address",
          "name": "",
          "type": "address"
        }
      ],
      "stateMutability": "view",
      "type": "function",
      "constant": true
    },
    {
      "inputs": [
        {
          "internalType": "address",
          "name": "",
          "type": "address"
        },
        {
          "internalType": "address",
          "name": "",
          "type": "address"
        }
      ],
      "name": "following",
      "outputs": [
        {
          "internalType": "bool",
          "name": "",
          "type": "bool"
        }
      ],
      "stateMutability": "view",
      "type": "function",
      "constant": true
    },
    {
      "inputs": [],
      "name": "owner",
      "outputs": [
        {
          "internalType": "address payable",
          "name": "",
          "type": "address"
        }
      ],
      "stateMutability": "view",
      "type": "function",
      "constant": true
    },
    {
      "inputs": [
        {
          "internalType": "uint256",
          "name": "",
          "type": "uint256"
        }
      ],
      "name": "tweetAuctions",
      "outputs": [
        {
          "internalType": "address",
          "name": "",
          "type": "address"
        }
      ],
      "stateMutability": "view",
      "type": "function",
      "constant": true
    },
    {
      "inputs": [],
      "name": "tweetNFT",
      "outputs": [
        {
          "internalType": "contract TweetNFT",
          "name": "",
          "type": "address"
        }
      ],
      "stateMutability": "view",
      "type": "function",
      "constant": true
    },
    {
      "inputs": [],
      "name": "tweetToken",
      "outputs": [
        {
          "internalType": "contract TweetToken",
          "name": "",
          "type": "address"
        }
      ],
      "stateMutability": "view",
      "type": "function",
      "constant": true
    },
    {
      "inputs": [
        {
          "internalType": "uint256",
          "name": "",
          "type": "uint256"
        }
      ],
      "name": "tweets",
      "outputs": [
        {
          "internalType": "uint256",
          "name": "id",
          "type": "uint256"
        },
        {
          "internalType": "address",
          "name": "creator",
          "type": "address"
        },
        {
          "internalType": "string",
          "name": "name",
          "type": "string"
        },
        {
          "internalType": "string",
          "name": "content",
          "type": "string"
        },
        {
          "internalType": "uint256",
          "name": "commentCount",
          "type": "uint256"
        },
        {
          "internalType": "uint256",
          "name": "likeCount",
          "type": "uint256"
        },
        {
          "internalType": "uint256",
          "name": "retweetCount",
          "type": "uint256"
        },
        {
          "internalType": "uint256",
          "name": "tipCount",
          "type": "uint256"
        },
        {
          "internalType": "bool",
          "name": "exists",
          "type": "bool"
        },
        {
          "internalType": "string",
          "name": "imageUrl",
          "type": "string"
        },
        {
          "internalType": "uint256",
          "name": "timestamp",
          "type": "uint256"
        }
      ],
      "stateMutability": "view",
      "type": "function",
      "constant": true
    },
    {
      "inputs": [
        {
          "internalType": "address",
          "name": "",
          "type": "address"
        }
      ],
      "name": "users",
      "outputs": [
        {
          "internalType": "address",
          "name": "userAddress",
          "type": "address"
        },
        {
          "internalType": "uint256",
          "name": "id",
          "type": "uint256"
        },
        {
          "internalType": "string",
          "name": "name",
          "type": "string"
        },
        {
          "internalType": "string",
          "name": "bio",
          "type": "string"
        },
        {
          "internalType": "string",
          "name": "profilePictureURL",
          "type": "string"
        },
        {
          "internalType": "bool",
          "name": "exists",
          "type": "bool"
        }
      ],
      "stateMutability": "view",
      "type": "function",
      "constant": true
    },
    {
      "inputs": [
        {
          "internalType": "string",
          "name": "_name",
          "type": "string"
        },
        {
          "internalType": "string",
          "name": "_bio",
          "type": "string"
        },
        {
          "internalType": "string",
          "name": "_profilePictureURL",
          "type": "string"
        }
      ],
      "name": "createAccount",
      "outputs": [],
      "stateMutability": "nonpayable",
      "type": "function"
    },
    {
      "inputs": [
        {
          "internalType": "string",
          "name": "_name",
          "type": "string"
        }
      ],
      "name": "updateName",
      "outputs": [],
      "stateMutability": "nonpayable",
      "type": "function"
    },
    {
      "inputs": [
        {
          "internalType": "string",
          "name": "_bio",
          "type": "string"
        }
      ],
      "name": "updateBio",
      "outputs": [],
      "stateMutability": "nonpayable",
      "type": "function"
    },
    {
      "inputs": [
        {
          "internalType": "string",
          "name": "_url",
          "type": "string"
        }
      ],
      "name": "updateProfilePicture",
      "outputs": [],
      "stateMutability": "nonpayable",
      "type": "function"
    },
    {
      "inputs": [],
      "name": "removeUser",
      "outputs": [],
      "stateMutability": "nonpayable",
      "type": "function"
    },
    {
      "inputs": [
        {
          "internalType": "address",
          "name": "user",
          "type": "address"
        },
        {
          "internalType": "address",
          "name": "follower",
          "type": "address"
        }
      ],
      "name": "isFollowing",
      "outputs": [
        {
          "internalType": "bool",
          "name": "",
          "type": "bool"
        }
      ],
      "stateMutability": "view",
      "type": "function",
      "constant": true
    },
    {
      "inputs": [
        {
          "internalType": "address",
          "name": "user",
          "type": "address"
        },
        {
          "internalType": "address",
          "name": "follower",
          "type": "address"
        }
      ],
      "name": "getFollowerIndex",
      "outputs": [
        {
          "internalType": "uint256",
          "name": "",
          "type": "uint256"
        }
      ],
      "stateMutability": "view",
      "type": "function",
      "constant": true
    },
    {
      "inputs": [
        {
          "internalType": "address",
          "name": "user",
          "type": "address"
        },
        {
          "internalType": "address",
          "name": "follower",
          "type": "address"
        }
      ],
      "name": "becomeFollower",
      "outputs": [],
      "stateMutability": "nonpayable",
      "type": "function"
    },
    {
      "inputs": [
        {
          "internalType": "address",
          "name": "_user",
          "type": "address"
        },
        {
          "internalType": "address",
          "name": "_follower",
          "type": "address"
        }
      ],
      "name": "unfollow",
      "outputs": [],
      "stateMutability": "nonpayable",
      "type": "function"
    },
    {
      "inputs": [
        {
          "internalType": "address",
          "name": "user",
          "type": "address"
        }
      ],
      "name": "getFollowerAddresses",
      "outputs": [
        {
          "internalType": "address[]",
          "name": "",
          "type": "address[]"
        }
      ],
      "stateMutability": "view",
      "type": "function",
      "constant": true
    },
    {
      "inputs": [
        {
          "internalType": "uint256",
          "name": "id",
          "type": "uint256"
        }
      ],
      "name": "getTweet",
      "outputs": [
        {
          "components": [
            {
              "internalType": "uint256",
              "name": "id",
              "type": "uint256"
            },
            {
              "internalType": "address",
              "name": "creator",
              "type": "address"
            },
            {
              "internalType": "string",
              "name": "name",
              "type": "string"
            },
            {
              "internalType": "string",
              "name": "content",
              "type": "string"
            },
            {
              "internalType": "string[]",
              "name": "comments",
              "type": "string[]"
            },
            {
              "internalType": "uint256",
              "name": "commentCount",
              "type": "uint256"
            },
            {
              "internalType": "uint256",
              "name": "likeCount",
              "type": "uint256"
            },
            {
              "internalType": "uint256",
              "name": "retweetCount",
              "type": "uint256"
            },
            {
              "internalType": "uint256[]",
              "name": "tips",
              "type": "uint256[]"
            },
            {
              "internalType": "uint256",
              "name": "tipCount",
              "type": "uint256"
            },
            {
              "internalType": "bool",
              "name": "exists",
              "type": "bool"
            },
            {
              "internalType": "string",
              "name": "imageUrl",
              "type": "string"
            },
            {
              "internalType": "uint256",
              "name": "timestamp",
              "type": "uint256"
            }
          ],
          "internalType": "struct Twitter.Tweet",
          "name": "",
          "type": "tuple"
        }
      ],
      "stateMutability": "view",
      "type": "function",
      "constant": true
    },
    {
      "inputs": [
        {
          "internalType": "string",
          "name": "_content",
          "type": "string"
        },
        {
          "internalType": "string",
          "name": "_imageUrl",
          "type": "string"
        }
      ],
      "name": "createTweet",
      "outputs": [],
      "stateMutability": "nonpayable",
      "type": "function"
    },
    {
      "inputs": [
        {
          "internalType": "uint256",
          "name": "_tweetId",
          "type": "uint256"
        },
        {
          "internalType": "string",
          "name": "_comment",
          "type": "string"
        }
      ],
      "name": "createComment",
      "outputs": [],
      "stateMutability": "nonpayable",
      "type": "function"
    },
    {
      "inputs": [
        {
          "internalType": "uint256",
          "name": "_tweetId",
          "type": "uint256"
        }
      ],
      "name": "likeTweet",
      "outputs": [],
      "stateMutability": "nonpayable",
      "type": "function"
    },
    {
      "inputs": [
        {
          "internalType": "uint256",
          "name": "_tweetId",
          "type": "uint256"
        }
      ],
      "name": "retweet",
      "outputs": [],
      "stateMutability": "nonpayable",
      "type": "function"
    },
    {
      "inputs": [
        {
          "internalType": "uint256",
          "name": "_tweetId",
          "type": "uint256"
        },
        {
          "internalType": "uint256",
          "name": "_amount",
          "type": "uint256"
        }
      ],
      "name": "tipUser",
      "outputs": [],
      "stateMutability": "nonpayable",
      "type": "function"
    },
    {
      "inputs": [],
      "name": "receiveFunds",
      "outputs": [],
      "stateMutability": "payable",
      "type": "function",
      "payable": true
    },
    {
      "inputs": [],
      "name": "withdraw",
      "outputs": [],
      "stateMutability": "nonpayable",
      "type": "function"
    }
  ],
  "bytecode": "0x608060405260016008553480156200001657600080fd5b50604051620030c3380380620030c38339810160408190526200003991620000dc565b600080546001600160a01b038086166001600160a01b03199283161790925560018054858416908316179055600280549284169290911691909117905560408051808201909152601581527f68747470733a2f2f697066732e696f2f697066732f00000000000000000000006020820152600390620000b99082620001d5565b50505050620002a1565b6001600160a01b0381168114620000d957600080fd5b50565b600080600060608486031215620000f257600080fd5b8351620000ff81620000c3565b60208501519093506200011281620000c3565b60408501519092506200012581620000c3565b809150509250925092565b634e487b7160e01b600052604160045260246000fd5b600181811c908216806200015b57607f821691505b6020821081036200017c57634e487b7160e01b600052602260045260246000fd5b50919050565b601f821115620001d057600081815260208120601f850160051c81016020861015620001ab5750805b601f850160051c820191505b81811015620001cc57828155600101620001b7565b5050505b505050565b81516001600160401b03811115620001f157620001f162000130565b620002098162000202845462000146565b8462000182565b602080601f831160018114620002415760008415620002285750858301515b600019600386901b1c1916600185901b178555620001cc565b600085815260208120601f198616915b82811015620002725788860151825594840194600190910190840162000251565b5085821015620002915787850151600019600388901b60f8161c191681555b5050505050600190811b01905550565b612e1280620002b16000396000f3fe60806040526004361061019b5760003560e01c806384da92a7116100ec578063c9f4b84a1161008a578063e8d857b011610064578063e8d857b014610511578063ebd009d314610548578063f4b5ee4d14610568578063f944f4c71461059e57600080fd5b8063c9f4b84a14610496578063ce9ae001146104b6578063dc23abf6146104f157600080fd5b806399ec3a42116100c657806399ec3a42146103bd578063a87430ba14610417578063bc53c0c414610449578063c3ad5ecb1461046957600080fd5b806384da92a71461035d5780638cd14d301461037d5780638da5cb5b1461039d57600080fd5b8063565a4dc3116101595780636c0360eb116101335780636c0360eb146102cd57806375de982e146102ef57806376487b381461030f578063812dca541461032f57600080fd5b8063565a4dc3146102555780635802594f146102755780635ffc6ceb146102ad57600080fd5b80625c33e1146101a05780630d95272a146101aa578063164415ae146101e057806331b8ef87146102005780633ccfd60b1461022057806340a1798514610235575b600080fd5b6101a86105b3565b005b3480156101b657600080fd5b506101ca6101c53660046122c8565b6105ee565b6040516101d791906122ea565b60405180910390f35b3480156101ec57600080fd5b506101a86101fb366004612337565b6106a9565b34801561020c57600080fd5b506101a861021b366004612359565b61084b565b34801561022c57600080fd5b506101a86108ed565b34801561024157600080fd5b506101a8610250366004612415565b6109c1565b34801561026157600080fd5b506101a861027036600461245c565b610af9565b34801561028157600080fd5b50600254610295906001600160a01b031681565b6040516001600160a01b0390911681526020016101d7565b3480156102b957600080fd5b506101a86102c8366004612359565b610b8d565b3480156102d957600080fd5b506102e2610c86565b6040516101d791906124df565b3480156102fb57600080fd5b50600154610295906001600160a01b031681565b34801561031b57600080fd5b506101a861032a36600461245c565b610d14565b34801561033b57600080fd5b5061034f61034a3660046124f2565b610d9c565b6040519081526020016101d7565b34801561036957600080fd5b506101a861037836600461245c565b610dc9565b34801561038957600080fd5b506101a8610398366004612525565b610e51565b3480156103a957600080fd5b50600054610295906001600160a01b031681565b3480156103c957600080fd5b506104076103d83660046124f2565b6001600160a01b0380821660009081526006602090815260408083209386168352929052205460ff1692915050565b60405190151581526020016101d7565b34801561042357600080fd5b506104376104323660046122c8565b6111ac565b6040516101d79695949392919061257f565b34801561045557600080fd5b506101a86104643660046125e2565b611386565b34801561047557600080fd5b50610489610484366004612359565b611517565b6040516101d791906126fa565b3480156104a257600080fd5b506101a86104b13660046124f2565b6118f9565b3480156104c257600080fd5b506104076104d13660046124f2565b600660209081526000928352604080842090915290825290205460ff1681565b3480156104fd57600080fd5b506101a861050c3660046124f2565b611c3a565b34801561051d57600080fd5b5061053161052c366004612359565b611e98565b6040516101d79b9a99989796959493929190612812565b34801561055457600080fd5b506102956105633660046128a1565b61209a565b34801561057457600080fd5b50610295610583366004612359565b600b602052600090815260409020546001600160a01b031681565b3480156105aa57600080fd5b506101a86120d2565b604080513381523460208201527f873db5b09b82c3e95b44a29e65520b545f452255c7af9aec662dad62294a983591015b60405180910390a1565b6001600160a01b03811660009081526004602052604090206005015460609060ff166106355760405162461bcd60e51b815260040161062c906128cb565b60405180910390fd5b6001600160a01b0382166000908152600560209081526040918290208054835181840281018401909452808452909183018282801561069d57602002820191906000526020600020905b81546001600160a01b0316815260019091019060200180831161067f575b50505050509050919050565b600081116106f95760405162461bcd60e51b815260206004820152601f60248201527f416d6f756e742073686f756c642062652067726561746572207468616e203000604482015260640161062c565b60018054600084815260096020526040908190209092015491516323b872dd60e01b81523360048201526001600160a01b039283166024820152604481018490529116906323b872dd906064016020604051808303816000875af1158015610765573d6000803e3d6000fd5b505050506040513d601f19601f8201168201806040525081019061078991906128f8565b61079257600080fd5b60008281526009602081815260408320600881018054600181018255908552918420909101849055848352018054916107ca83612930565b9091555050600082815260096020818152604080842060018101543380875260048552838720968990529385905293015490517fd4c753f2e2d5ce7de230507bc1fac23c151622d7294db5ddd866185d7aeb40db9461083f94879489946001600160a01b039092169390926002019190612a00565b60405180910390a15050565b3360009081526004602052604090206005015460ff1661087d5760405162461bcd60e51b815260040161062c906128cb565b600081815260096020526040812060070180549161089a83612930565b9091555050600081815260096020908152604091829020600701548251848152918201527f12bda74f7c9bb58e412152c4eabc86ea072ef9435ca8aad724922ad6aa34804191015b60405180910390a150565b6000546001600160a01b031633146109515760405162461bcd60e51b815260206004820152602160248201527f4f6e6c7920746865206f776e65722063616e2077697468647261772066756e646044820152607360f81b606482015260840161062c565b600080546040516001600160a01b03909116914780156108fc02929091818181858888f1935050505015801561098b573d6000803e3d6000fd5b50604080513381524760208201527feaff4b37086828766ad3268786972c0cd24259d4c87a80f9d3963a3c3d999b0d91016105e4565b3360009081526004602052604090206005015460ff166109f35760405162461bcd60e51b815260040161062c906128cb565b6000828152600960205260409020600a015460ff16610a4b5760405162461bcd60e51b8152602060048201526014602482015273151dd9595d08191bd95cc81b9bdd08195e1a5cdd60621b604482015260640161062c565b600082815260096020908152604082206004018054600181018255908352912001610a768282612a9b565b506000828152600960205260408120600501805491610a9483612930565b9091555050600082815260096020908152604080832060050154338085526004938490529382902091517f95bbd2b7efe4dabbef6f8d47ed62dc17342d69b530b4d5f83789c28ef743148d9461083f9488948894929360028201929190910190612b5b565b3360009081526004602052604090206005015460ff16610b2b5760405162461bcd60e51b815260040161062c906128cb565b33600090815260046020819052604090912001610b488282612a9b565b50336001600160a01b03167f6b397bb88467b92a1774b4b19bf728f2673bf763d0bd7a571d17714ba7bd8c6c82604051610b8291906124df565b60405180910390a250565b336000908152600a6020908152604080832084845290915290205460ff1615610c025760405162461bcd60e51b815260206004820152602160248201527f596f75206861766520616c7265616479206c696b6564207468697320747765656044820152601d60fa1b606482015260840161062c565b6000818152600960205260408120600601805491610c1f83612930565b9091555050336000908152600a602090815260408083208484528252808320805460ff191660011790556009825291829020600601548251848152918201527f49aee041ac2bd73f2839e4f512ef08fc86986f573230e2ef14533d6a2b07a29e91016108e2565b60038054610c9390612949565b80601f0160208091040260200160405190810160405280929190818152602001828054610cbf90612949565b8015610d0c5780601f10610ce157610100808354040283529160200191610d0c565b820191906000526020600020905b815481529060010190602001808311610cef57829003601f168201915b505050505081565b3360009081526004602052604090206005015460ff16610d465760405162461bcd60e51b815260040161062c906128cb565b336000908152600460205260409020600301610d628282612a9b565b50336001600160a01b03167f3f838a7d0889a59b2445af5389196b3948170278848eb90d8d256ab14aaf4cf082604051610b8291906124df565b6001600160a01b038083166000908152600760209081526040808320938516835292905220545b92915050565b3360009081526004602052604090206005015460ff16610dfb5760405162461bcd60e51b815260040161062c906128cb565b336000908152600460205260409020600201610e178282612a9b565b50336001600160a01b03167f74321da206c1b9fa34367f7ece59ca49371dcd13820b9a5c3767ae1ecceed51a82604051610b8291906124df565b3360009081526004602052604090206005015460ff16610e835760405162461bcd60e51b815260040161062c906128cb565b600854604080516101a08101825282815233602080830182905260009182526004905282902060020180549192830191610ebc90612949565b80601f0160208091040260200160405190810160405280929190818152602001828054610ee890612949565b8015610f355780601f10610f0a57610100808354040283529160200191610f35565b820191906000526020600020905b815481529060010190602001808311610f1857829003601f168201915b50505091835250506020808201869052604080516000808252928101825292019190610f71565b6060815260200190600190039081610f5c5790505b508152602001600081526020016000815260200160008152602001600067ffffffffffffffff811115610fa657610fa6612372565b604051908082528060200260200182016040528015610fcf578160200160208202803683370190505b508152600060208083018290526001604080850182905260608501889052426080909501949094528583526009825291839020845181559084015191810180546001600160a01b0319166001600160a01b039093169290921790915590820151600282019061103e9082612a9b565b50606082015160038201906110539082612a9b565b506080820151805161106f9160048401916020909101906121a0565b5060a0820151600582015560c0820151600682015560e0820151600782015561010082015180516110aa9160088401916020909101906121f6565b506101208201516009820155610140820151600a8201805460ff1916911515919091179055610160820151600b8201906110e49082612a9b565b506101809190910151600c918201556000828152600960208190526040918290208054600182015460058301546006840154600785015495850154600a8601549886015497517f7bf583c21015774e15c0f7df5bfd76d37404f37a9036ec0687bfab10dc7ed0a99961118a9996986001600160a01b0390961697600281019760038201976004830197969590946008840194919360ff90921692600b9092019190612c3e565b60405180910390a1600880549060006111a283612930565b9190505550505050565b6004602052600090815260409020805460018201546002830180546001600160a01b039093169391926111de90612949565b80601f016020809104026020016040519081016040528092919081815260200182805461120a90612949565b80156112575780601f1061122c57610100808354040283529160200191611257565b820191906000526020600020905b81548152906001019060200180831161123a57829003601f168201915b50505050509080600301805461126c90612949565b80601f016020809104026020016040519081016040528092919081815260200182805461129890612949565b80156112e55780601f106112ba576101008083540402835291602001916112e5565b820191906000526020600020905b8154815290600101906020018083116112c857829003601f168201915b5050505050908060040180546112fa90612949565b80601f016020809104026020016040519081016040528092919081815260200182805461132690612949565b80156113735780601f1061134857610100808354040283529160200191611373565b820191906000526020600020905b81548152906001019060200180831161135657829003601f168201915b5050506005909301549192505060ff1686565b3360009081526004602052604090206005015460ff16156113df5760405162461bcd60e51b81526020600482015260136024820152725573657220616c72656164792065786973747360681b604482015260640161062c565b60006113ea600c5490565b6040805160c0810182523380825260208083018581528385018a8152606085018a905260808501899052600160a086018190526000948552600490935294909220835181546001600160a01b0319166001600160a01b0390911617815591519082015591519293509160028201906114629082612a9b565b50606082015160038201906114779082612a9b565b506080820151600482019061148c9082612a9b565b5060a091909101516005918201805460ff19169115159190911790553360008181526004602052604090819020600181015493015490517faa2585f21e6456ed4a8c9a8868301bdcbcfa7435429b0189e606aba6c1692fbe936114fb9392909189918991899160ff169061257f565b60405180910390a1611511600c80546001019055565b50505050565b61158d604051806101a001604052806000815260200160006001600160a01b03168152602001606081526020016060815260200160608152602001600081526020016000815260200160008152602001606081526020016000815260200160001515815260200160608152602001600081525090565b600082815260096020908152604080832081516101a0810183528154815260018201546001600160a01b03169381019390935260028101805491928401916115d490612949565b80601f016020809104026020016040519081016040528092919081815260200182805461160090612949565b801561164d5780601f106116225761010080835404028352916020019161164d565b820191906000526020600020905b81548152906001019060200180831161163057829003601f168201915b5050505050815260200160038201805461166690612949565b80601f016020809104026020016040519081016040528092919081815260200182805461169290612949565b80156116df5780601f106116b4576101008083540402835291602001916116df565b820191906000526020600020905b8154815290600101906020018083116116c257829003601f168201915b5050505050815260200160048201805480602002602001604051908101604052809291908181526020016000905b828210156117b957838290600052602060002001805461172c90612949565b80601f016020809104026020016040519081016040528092919081815260200182805461175890612949565b80156117a55780601f1061177a576101008083540402835291602001916117a5565b820191906000526020600020905b81548152906001019060200180831161178857829003601f168201915b50505050508152602001906001019061170d565b5050505081526020016005820154815260200160068201548152602001600782015481526020016008820180548060200260200160405190810160405280929190818152602001828054801561182e57602002820191906000526020600020905b81548152602001906001019080831161181a575b505050918352505060098201546020820152600a82015460ff1615156040820152600b8201805460609092019161186490612949565b80601f016020809104026020016040519081016040528092919081815260200182805461189090612949565b80156118dd5780601f106118b2576101008083540402835291602001916118dd565b820191906000526020600020905b8154815290600101906020018083116118c057829003601f168201915b5050509183525050600c91909101546020909101529392505050565b336001600160a01b038216146119615760405162461bcd60e51b815260206004820152602760248201527f4f6e6c792074686520666f6c6c6f7765722063616e2072656d6f7665207468656044820152666d73656c76657360c81b606482015260840161062c565b6001600160a01b0380821660009081526006602090815260408083209386168352929052205460ff166119c65760405162461bcd60e51b815260206004820152600d60248201526c4e6f7420666f6c6c6f77696e6760981b604482015260640161062c565b6001600160a01b0380831660008181526007602090815260408083209486168352938152838220549282526005905291822054909190611a0890600190612cfc565b6001600160a01b038516600090815260056020526040902080549192509082908110611a3657611a36612d0f565b60009182526020808320909101546001600160a01b03878116845260059092526040909220805491909216919084908110611a7357611a73612d0f565b600091825260208083209190910180546001600160a01b0319166001600160a01b039485161790559186168152600782526040808220600590935281208054859392919084908110611ac757611ac7612d0f565b60009182526020808320909101546001600160a01b0390811684528382019490945260409283018220949094559187168252600590925220805480611b0e57611b0e612d25565b60008281526020808220830160001990810180546001600160a01b03191690559092019092556001600160a01b0385811680845260068084526040808620938a16808752938552808620805460ff19169055600785528086208387528552808620869055928552835281842090845290915290205460ff1615611bd35760405162461bcd60e51b815260206004820152601d60248201527f4661696c656420746f2072656d6f76652074686520666f6c6c6f776572000000604482015260640161062c565b6001600160a01b0380851660009081526004602052604080822092861682529081902090517f609a93f9eecec6c2f7c382d0a75e0dcd5422dfa2c9570ef2ea0d58c25ea968b992611c2c92600291820192910190612d3b565b60405180910390a150505050565b336001600160a01b03821614611c925760405162461bcd60e51b815260206004820152601b60248201527f557365722043616e6e6f7420466f72636520466f6c6c6f776572730000000000604482015260640161062c565b6001600160a01b03821660009081526004602052604090206005015460ff16611ccd5760405162461bcd60e51b815260040161062c906128cb565b6001600160a01b03811660009081526004602052604090206005015460ff16611d385760405162461bcd60e51b815260206004820152601760248201527f466f6c6c6f77657220646f6573206e6f74206578697374000000000000000000604482015260640161062c565b6001600160a01b0380821660009081526006602090815260408083209386168352929052205460ff1615611d9e5760405162461bcd60e51b815260206004820152600d60248201526c4e6f7420666f6c6c6f77696e6760981b604482015260640161062c565b6001600160a01b03828116600081815260056020908152604082208054600180820183558285529284200180546001600160a01b031916958716959095179094559181529154611dee9190612cfc565b6001600160a01b038084166000818152600660209081526040808320898616808552908352818420805460ff1916600117905560078352818420858552835281842087905583526004909152808220805493835291819020805491519596507f7f97986d1d7d68a2c79189da13a1968cb1e994a7864de2a4af34be8e5f941f6295611e8b9594851694600294850194929092019290911690612d69565b60405180910390a1505050565b60096020526000908152604090208054600182015460028301805492936001600160a01b0390921692611eca90612949565b80601f0160208091040260200160405190810160405280929190818152602001828054611ef690612949565b8015611f435780601f10611f1857610100808354040283529160200191611f43565b820191906000526020600020905b815481529060010190602001808311611f2657829003601f168201915b505050505090806003018054611f5890612949565b80601f0160208091040260200160405190810160405280929190818152602001828054611f8490612949565b8015611fd15780601f10611fa657610100808354040283529160200191611fd1565b820191906000526020600020905b815481529060010190602001808311611fb457829003601f168201915b50505050509080600501549080600601549080600701549080600901549080600a0160009054906101000a900460ff169080600b01805461201190612949565b80601f016020809104026020016040519081016040528092919081815260200182805461203d90612949565b801561208a5780601f1061205f5761010080835404028352916020019161208a565b820191906000526020600020905b81548152906001019060200180831161206d57829003601f168201915b50505050509080600c015490508b565b600560205281600052604060002081815481106120b657600080fd5b6000918252602090912001546001600160a01b03169150829050565b3360009081526004602052604090206005015460ff166121045760405162461bcd60e51b815260040161062c906128cb565b33600090815260046020526040812080546001600160a01b03191681556001810182905590612136600283018261223d565b61214460038301600061223d565b61215260048301600061223d565b50600501805460ff19169055336000818152600460205260409081902090517f09c548a1a0ebbda4fe7f4ad39a7b6f70618bba50296b0b3aa871dce2b0dbea4c926105e49260020191612db2565b8280548282559060005260206000209081019282156121e6579160200282015b828111156121e657825182906121d69082612a9b565b50916020019190600101906121c0565b506121f292915061227a565b5090565b828054828255906000526020600020908101928215612231579160200282015b82811115612231578251825591602001919060010190612216565b506121f2929150612297565b50805461224990612949565b6000825580601f10612259575050565b601f0160209004906000526020600020908101906122779190612297565b50565b808211156121f257600061228e828261223d565b5060010161227a565b5b808211156121f25760008155600101612298565b80356001600160a01b03811681146122c357600080fd5b919050565b6000602082840312156122da57600080fd5b6122e3826122ac565b9392505050565b6020808252825182820181905260009190848201906040850190845b8181101561232b5783516001600160a01b031683529284019291840191600101612306565b50909695505050505050565b6000806040838503121561234a57600080fd5b50508035926020909101359150565b60006020828403121561236b57600080fd5b5035919050565b634e487b7160e01b600052604160045260246000fd5b600082601f83011261239957600080fd5b813567ffffffffffffffff808211156123b4576123b4612372565b604051601f8301601f19908116603f011681019082821181831017156123dc576123dc612372565b816040528381528660208588010111156123f557600080fd5b836020870160208301376000602085830101528094505050505092915050565b6000806040838503121561242857600080fd5b82359150602083013567ffffffffffffffff81111561244657600080fd5b61245285828601612388565b9150509250929050565b60006020828403121561246e57600080fd5b813567ffffffffffffffff81111561248557600080fd5b61249184828501612388565b949350505050565b6000815180845260005b818110156124bf576020818501810151868301820152016124a3565b506000602082860101526020601f19601f83011685010191505092915050565b6020815260006122e36020830184612499565b6000806040838503121561250557600080fd5b61250e836122ac565b915061251c602084016122ac565b90509250929050565b6000806040838503121561253857600080fd5b823567ffffffffffffffff8082111561255057600080fd5b61255c86838701612388565b9350602085013591508082111561257257600080fd5b5061245285828601612388565b60018060a01b038716815285602082015260c0604082015260006125a660c0830187612499565b82810360608401526125b88187612499565b905082810360808401526125cc8186612499565b91505082151560a0830152979650505050505050565b6000806000606084860312156125f757600080fd5b833567ffffffffffffffff8082111561260f57600080fd5b61261b87838801612388565b9450602086013591508082111561263157600080fd5b61263d87838801612388565b9350604086013591508082111561265357600080fd5b5061266086828701612388565b9150509250925092565b600081518084526020808501808196508360051b8101915082860160005b858110156126b25782840389526126a0848351612499565b98850198935090840190600101612688565b5091979650505050505050565b600081518084526020808501945080840160005b838110156126ef578151875295820195908201906001016126d3565b509495945050505050565b60208152815160208201526000602083015161272160408401826001600160a01b03169052565b5060408301516101a080606085015261273e6101c0850183612499565b91506060850151601f198086850301608087015261275c8483612499565b935060808701519150808685030160a0870152612779848361266a565b935060a087015160c087015260c087015160e087015260e087015191506101008281880152808801519250506101208187860301818801526127bb85846126bf565b908801516101408881019190915288015190945091506101606127e18188018415159052565b808801519250506101808187860301818801526127fe8584612499565b970151959092019490945250929392505050565b8b81526001600160a01b038b1660208201526101606040820181905260009061283d8382018d612499565b90508281036060840152612851818c612499565b90508960808401528860a08401528760c08401528660e08401528515156101008401528281036101208401526128878186612499565b915050826101408301529c9b505050505050505050505050565b600080604083850312156128b457600080fd5b6128bd836122ac565b946020939093013593505050565b602080825260139082015272155cd95c88191bd95cc81b9bdd08195e1a5cdd606a1b604082015260600190565b60006020828403121561290a57600080fd5b815180151581146122e357600080fd5b634e487b7160e01b600052601160045260246000fd5b6000600182016129425761294261291a565b5060010190565b600181811c9082168061295d57607f821691505b60208210810361297d57634e487b7160e01b600052602260045260246000fd5b50919050565b6000815461299081612949565b8085526020600183811680156129ad57600181146129c7576129f5565b60ff1985168884015283151560051b8801830195506129f5565b866000528260002060005b858110156129ed5781548a82018601529083019084016129d2565b890184019650505b505050505092915050565b868152602081018690526001600160a01b0385811660408301528416606082015260c060808201819052600090612a3990830185612983565b90508260a0830152979650505050505050565b601f821115612a9657600081815260208120601f850160051c81016020861015612a735750805b601f850160051c820191505b81811015612a9257828155600101612a7f565b5050505b505050565b815167ffffffffffffffff811115612ab557612ab5612372565b612ac981612ac38454612949565b84612a4c565b602080601f831160018114612afe5760008415612ae65750858301515b600019600386901b1c1916600185901b178555612a92565b600085815260208120601f198616915b82811015612b2d57888601518255948401946001909101908401612b0e565b5085821015612b4b5787850151600019600388901b60f8161c191681555b5050505050600190811b01905550565b86815260c060208201526000612b7460c0830188612499565b6001600160a01b0387166040840152606083018690528281036080840152612b9c8186612983565b905082810360a0840152612bb08185612983565b9998505050505050505050565b600081548084526020808501808196508360051b81019150856000528260002060005b858110156126b2578284038952612bf78483612983565b98850198935060019182019101612be0565b6000815480845260208085019450836000528060002060005b838110156126ef57815487529582019560019182019101612c22565b8d81526001600160a01b038d1660208201526101a060408201526000612c686101a083018e612983565b8281036060840152612c7a818e612983565b90508281036080840152612c8e818d612bbd565b90508a60a08401528960c08401528860e0840152828103610100840152612cb58189612c09565b905086610120840152612ccd61014084018715159052565b828103610160840152612ce08186612983565b915050826101808301529e9d5050505050505050505050505050565b81810381811115610dc357610dc361291a565b634e487b7160e01b600052603260045260246000fd5b634e487b7160e01b600052603160045260246000fd5b604081526000612d4e6040830185612983565b8281036020840152612d608185612983565b95945050505050565b600060018060a01b03808716835260806020840152612d8b6080840187612983565b8381036040850152612d9d8187612983565b92505080841660608401525095945050505050565b604081526000612dc56040830185612983565b905060018060a01b0383166020830152939250505056fea2646970667358221220c5b8c7922a02ed38a368c652f3a55aeb1c0b246c9e0f123b365c9400d41922d364736f6c63430008130033",
  "immutableReferences": {},
  "source": "// SPDX-License-Identifier: MIT\npragma solidity ^0.8.19;\n\nimport './TweetToken.sol';\nimport './TweetNFT.sol';\nimport './Auction.sol';\nimport \"@openzeppelin/contracts/utils/Counters.sol\";\n\ncontract Twitter {\n\n    // Contract owner address\n    address payable public owner;\n    // Tweet Token contract\n    TweetToken public tweetToken;\n    // Tweet NFT contract\n    TweetNFT public tweetNFT;\n    // Store baseURI for NFT (IPFS);\n    string public baseURI;\n    // Store users\n    mapping(address => User) public users; \n    // Store followers for each user\n    mapping(address => address[]) public followers; \n    // Store user's following relationships \n    mapping(address => mapping(address => bool)) public following; \n    // Store the index of the follower in the _followers array (user => (follower => index))\n    mapping(address => mapping(address => uint256)) private followerIndices; \n    // Tweet ID index counter\n    uint256 private nextTweetId = 1;\n    // Store tweets\n    mapping(uint256 => Tweet) public tweets;\n    // Store liked tweets\n    mapping(address => mapping(uint256 => bool)) private likedTweets;\n    // Store auction addresses\n    mapping(uint256 => address) public tweetAuctions;\n    // Store account IDs\n    using Counters for Counters.Counter;\n    Counters.Counter private accountIds;\n\n    constructor(address payable _owner, address _tweetTokenAddress, address _nftAddress) {\n        owner = _owner;\n        tweetToken = TweetToken(_tweetTokenAddress);\n        tweetNFT = TweetNFT(_nftAddress);\n        baseURI = \"https://ipfs.io/ipfs/\";\n    }\n\n    struct User {\n        address userAddress;\n        uint256 id;\n        string name;\n        string bio;\n        string profilePictureURL;\n        bool exists;\n    }\n\n    struct Tweet {\n        uint256 id;\n        address creator;\n        string name;\n        string content;\n        string[] comments;\n        uint256 commentCount;\n        uint256 likeCount;\n        uint256 retweetCount;\n        uint256[] tips;\n        uint256 tipCount;\n        bool exists;\n        string imageUrl;\n        uint256 timestamp;\n    }\n\n    event AccountCreated(address userAddress, uint256 id, string name, string bio, string profilePictureURL, bool exists);\n    event NameUpdated(address indexed user, string newName);\n    event BioUpdated(address indexed user, string newBio);\n    event ProfilePictureUpdated(address indexed user, string url);\n    event AccountDeleted(string name, address user);\n    event FollowerAdded(address userAddress, string user, string follower, address followerAddress);\n    event Unfollowed(string user, string follower);\n    event TweetCreated(uint256 id, address creator, string name, string content, string[] comments, uint256 commentCount, uint256 likeCount, uint256 retweetCount, uint256[] tips, uint256 tipCount, bool exists, string imageUrl, uint256 timestamp);\n    event CommentAdded(uint256 tweetId, string comment, address commenter, uint256 commentCount, string commenterName, string profilePic);\n    event TweetLiked(uint256 tweetId, uint256 likeCount);\n    event ReTweeted(uint256 tweetId, uint256 retweetCount);\n    event UserTipped(uint256 amount, uint256 tweetId, address creator, address tipper, string tipperName, uint256 tipCount);\n    event TwitterReceivedFunds(address contractFrom, uint256 contractFromAmount);\n    event FundsWithdrawn(address destinationWallet, uint256 balance);\n\n    function createAccount(string memory _name, string memory _bio, string memory _profilePictureURL) public {\n        // Check if user doesn't alreadty exist\n        require(!users[msg.sender].exists, \"User already exists\");\n\n        uint256 userId = accountIds.current();\n\n        // Create a new user and store it in the mapping\n        users[msg.sender] = User({\n            userAddress: msg.sender,\n            id: userId,\n            name: _name,\n            bio: _bio,\n            profilePictureURL: _profilePictureURL,\n            exists: true\n        });\n\n        emit AccountCreated(msg.sender, users[msg.sender].id, _name, _bio, _profilePictureURL, users[msg.sender].exists);\n        accountIds.increment();\n    }\n\n    function updateName(string memory _name) public {\n        require(users[msg.sender].exists, \"User does not exist\");\n        users[msg.sender].name = _name;\n\n        emit NameUpdated(msg.sender, _name);\n    }\n\n    function updateBio(string memory _bio) public {\n        require(users[msg.sender].exists, \"User does not exist\");\n        users[msg.sender].bio = _bio;\n\n        emit BioUpdated(msg.sender, _bio);\n    }\n\n    function updateProfilePicture(string memory _url) public {\n        require(users[msg.sender].exists, \"User does not exist\");\n        users[msg.sender].profilePictureURL = _url;\n\n        emit ProfilePictureUpdated(msg.sender, _url);\n    }\n\n    function removeUser() public {\n        require(users[msg.sender].exists, \"User does not exist\");\n        delete users[msg.sender];\n\n        emit AccountDeleted(users[msg.sender].name, msg.sender);\n    }\n\n    function isFollowing(address user, address follower) public view returns (bool) {\n        return following[follower][user];\n    }\n\n    function getFollowerIndex(address user, address follower) public view returns (uint) {\n        return followerIndices[user][follower];\n    }\n\n    function becomeFollower(address user, address follower) public {\n        require(msg.sender == follower, \"User Cannot Force Followers\");\n        require(users[user].exists, \"User does not exist\");\n        require(users[follower].exists, \"Follower does not exist\");\n        require(!following[follower][user], \"Not following\");\n\n        followers[user].push(follower); // add follower to followers array for that user\n        uint256 index = followers[user].length - 1; // get index for follower\n        following[follower][user] = true; // set following status to true\n        followerIndices[user][follower] = index; // store index for follower\n\n        emit FollowerAdded(users[user].userAddress, users[user].name, users[follower].name, users[follower].userAddress);\n    }\n\n    function unfollow(address _user, address _follower) public {\n        require(msg.sender == _follower, \"Only the follower can remove themselves\");\n        require(following[_follower][_user], \"Not following\");\n\n        uint256 index = followerIndices[_user][_follower];\n        uint256 lastIndex = followers[_user].length - 1;\n\n        // Move the last follower to the index of the follower being removed\n        followers[_user][index] = followers[_user][lastIndex];\n\n        // Update the index of the moved follower\n        followerIndices[_user][followers[_user][index]] = index;\n\n        // Remove the last follower and update the following mapping\n        followers[_user].pop();\n        following[_follower][_user] = false;\n        delete followerIndices[_user][_follower];\n\n        require(!following[_user][_follower], \"Failed to remove the follower\");\n\n\n        emit Unfollowed(users[_user].name, users[_follower].name);\n    }\n\n    function getFollowerAddresses(address user) public view returns (address[] memory) {\n        require(users[user].exists, \"User does not exist\");\n        return followers[user];\n    }\n\n    function getTweet(uint256 id) public view returns (Tweet memory) {\n        Tweet memory tweet = tweets[id];\n        return tweet;\n    }\n\n    function createTweet(string memory _content, string memory _imageUrl) public {\n        require(users[msg.sender].exists, \"User does not exist\");\n\n        uint256 _tweetId = nextTweetId;\n\n        tweets[_tweetId] = Tweet({\n            id: _tweetId,\n            name: users[msg.sender].name,\n            creator: msg.sender,\n            content: _content,\n            comments: new string[](0),\n            commentCount: 0,\n            likeCount: 0,\n            retweetCount: 0,\n            tips: new uint256[](0),\n            tipCount: 0,\n            exists: true,\n            imageUrl: _imageUrl,\n            timestamp: block.timestamp\n        });\n\n        emit TweetCreated(\n            tweets[_tweetId].id, \n            tweets[_tweetId].creator, \n            tweets[_tweetId].name,\n            tweets[_tweetId].content, \n            tweets[_tweetId].comments,\n            tweets[_tweetId].commentCount,\n            tweets[_tweetId].likeCount, \n            tweets[_tweetId].retweetCount, \n            tweets[_tweetId].tips,\n            tweets[_tweetId].tipCount, \n            tweets[_tweetId].exists,\n            tweets[_tweetId].imageUrl,\n            tweets[_tweetId].timestamp\n        );\n\n        nextTweetId++;\n    }\n\n    function createComment(uint256 _tweetId, string memory _comment) public {\n        require(users[msg.sender].exists, \"User does not exist\");\n        require(tweets[_tweetId].exists, \"Tweet does not exist\");\n\n        tweets[_tweetId].comments.push(_comment);\n        tweets[_tweetId].commentCount++;\n\n        emit CommentAdded(_tweetId, _comment, msg.sender, tweets[_tweetId].commentCount, users[msg.sender].name, users[msg.sender].profilePictureURL);\n    }\n\n    function likeTweet(uint256 _tweetId) public {\n        require(!likedTweets[msg.sender][_tweetId], \"You have already liked this tweet\");\n        \n        tweets[_tweetId].likeCount++;\n        likedTweets[msg.sender][_tweetId] = true;\n\n        emit TweetLiked(_tweetId, tweets[_tweetId].likeCount);\n    }\n\n    function retweet(uint256 _tweetId) public {\n        require(users[msg.sender].exists, \"User does not exist\");\n        tweets[_tweetId].retweetCount++;\n\n        emit ReTweeted(_tweetId, tweets[_tweetId].retweetCount);\n    }\n\n    function tipUser(uint256 _tweetId, uint256 _amount) public {\n        require(_amount > 0, \"Amount should be greater than 0\");\n        require(tweetToken.transferFrom(msg.sender, tweets[_tweetId].creator, _amount));\n        tweets[_tweetId].tips.push(_amount);\n        tweets[_tweetId].tipCount++;\n\n        emit UserTipped(_amount, _tweetId, tweets[_tweetId].creator, msg.sender, users[msg.sender].name, tweets[_tweetId].tipCount);\n    }\n\n    function receiveFunds() external payable {\n        // Funds will be received and stored in the contract\n        emit TwitterReceivedFunds(msg.sender, msg.value);\n    }\n\n    function withdraw() external {\n        require(msg.sender == owner, \"Only the owner can withdraw funds\");\n        owner.transfer(address(this).balance);\n\n        emit FundsWithdrawn(msg.sender, address(this).balance);\n    }\n}",
  "sourcePath": "/Users/jamesstorage/Repos/decentralized-twitter/src/contracts/Twitter.sol",
  "compiler": {
    "name": "solc",
    "version": "0.8.19+commit.7dd6d404.Emscripten.clang"
  },
  "schemaVersion": "3.4.13",
  "updatedAt": "2023-04-19T17:39:40.537Z",
  "networkType": "ethereum",
  "devdoc": {
    "kind": "dev",
    "methods": {},
    "version": 1
  },
  "userdoc": {
    "kind": "user",
    "methods": {},
    "version": 1
  }
}