{
  "contractName": "Twitter",
  "abi": [
    {
      "inputs": [
        {
          "internalType": "address payable",
          "name": "_owner",
          "type": "address"
        },
        {
          "internalType": "address",
          "name": "_tweetTokenAddress",
          "type": "address"
        },
        {
          "internalType": "address",
          "name": "_nftAddress",
          "type": "address"
        }
      ],
      "stateMutability": "nonpayable",
      "type": "constructor"
    },
    {
      "anonymous": false,
      "inputs": [
        {
          "indexed": false,
          "internalType": "address",
          "name": "userAddress",
          "type": "address"
        },
        {
          "indexed": false,
          "internalType": "uint256",
          "name": "id",
          "type": "uint256"
        },
        {
          "indexed": false,
          "internalType": "string",
          "name": "name",
          "type": "string"
        },
        {
          "indexed": false,
          "internalType": "string",
          "name": "bio",
          "type": "string"
        },
        {
          "indexed": false,
          "internalType": "string",
          "name": "profilePictureURL",
          "type": "string"
        },
        {
          "indexed": false,
          "internalType": "bool",
          "name": "exists",
          "type": "bool"
        }
      ],
      "name": "AccountCreated",
      "type": "event"
    },
    {
      "anonymous": false,
      "inputs": [
        {
          "indexed": false,
          "internalType": "string",
          "name": "name",
          "type": "string"
        },
        {
          "indexed": false,
          "internalType": "address",
          "name": "user",
          "type": "address"
        }
      ],
      "name": "AccountDeleted",
      "type": "event"
    },
    {
      "anonymous": false,
      "inputs": [
        {
          "indexed": true,
          "internalType": "address",
          "name": "user",
          "type": "address"
        },
        {
          "indexed": false,
          "internalType": "string",
          "name": "newBio",
          "type": "string"
        }
      ],
      "name": "BioUpdated",
      "type": "event"
    },
    {
      "anonymous": false,
      "inputs": [
        {
          "indexed": false,
          "internalType": "uint256",
          "name": "tweetId",
          "type": "uint256"
        },
        {
          "indexed": false,
          "internalType": "string",
          "name": "comment",
          "type": "string"
        },
        {
          "indexed": false,
          "internalType": "address",
          "name": "commenter",
          "type": "address"
        },
        {
          "indexed": false,
          "internalType": "string",
          "name": "commenterName",
          "type": "string"
        },
        {
          "indexed": false,
          "internalType": "string",
          "name": "profilePic",
          "type": "string"
        },
        {
          "indexed": false,
          "internalType": "uint256",
          "name": "timestamp",
          "type": "uint256"
        }
      ],
      "name": "CommentAdded",
      "type": "event"
    },
    {
      "anonymous": false,
      "inputs": [
        {
          "indexed": false,
          "internalType": "uint256",
          "name": "tokenAmount",
          "type": "uint256"
        },
        {
          "indexed": false,
          "internalType": "uint256",
          "name": "ethValue",
          "type": "uint256"
        },
        {
          "indexed": false,
          "internalType": "uint256",
          "name": "msgValue",
          "type": "uint256"
        }
      ],
      "name": "DebugValues",
      "type": "event"
    },
    {
      "anonymous": false,
      "inputs": [
        {
          "indexed": false,
          "internalType": "address",
          "name": "token",
          "type": "address"
        },
        {
          "indexed": false,
          "internalType": "address",
          "name": "user",
          "type": "address"
        },
        {
          "indexed": false,
          "internalType": "uint256",
          "name": "amount",
          "type": "uint256"
        },
        {
          "indexed": false,
          "internalType": "uint256",
          "name": "balance",
          "type": "uint256"
        }
      ],
      "name": "Deposit",
      "type": "event"
    },
    {
      "anonymous": false,
      "inputs": [
        {
          "indexed": false,
          "internalType": "address",
          "name": "userAddress",
          "type": "address"
        },
        {
          "indexed": false,
          "internalType": "string",
          "name": "user",
          "type": "string"
        },
        {
          "indexed": false,
          "internalType": "string",
          "name": "follower",
          "type": "string"
        },
        {
          "indexed": false,
          "internalType": "address",
          "name": "followerAddress",
          "type": "address"
        }
      ],
      "name": "FollowerAdded",
      "type": "event"
    },
    {
      "anonymous": false,
      "inputs": [
        {
          "indexed": false,
          "internalType": "address",
          "name": "destinationWallet",
          "type": "address"
        },
        {
          "indexed": false,
          "internalType": "uint256",
          "name": "balance",
          "type": "uint256"
        }
      ],
      "name": "FundsWithdrawn",
      "type": "event"
    },
    {
      "anonymous": false,
      "inputs": [
        {
          "indexed": true,
          "internalType": "address",
          "name": "user",
          "type": "address"
        },
        {
          "indexed": false,
          "internalType": "string",
          "name": "newName",
          "type": "string"
        }
      ],
      "name": "NameUpdated",
      "type": "event"
    },
    {
      "anonymous": false,
      "inputs": [
        {
          "indexed": true,
          "internalType": "address",
          "name": "user",
          "type": "address"
        },
        {
          "indexed": false,
          "internalType": "string",
          "name": "url",
          "type": "string"
        }
      ],
      "name": "ProfilePictureUpdated",
      "type": "event"
    },
    {
      "anonymous": false,
      "inputs": [
        {
          "indexed": false,
          "internalType": "uint256",
          "name": "id",
          "type": "uint256"
        },
        {
          "indexed": false,
          "internalType": "address",
          "name": "creator",
          "type": "address"
        },
        {
          "indexed": false,
          "internalType": "string",
          "name": "name",
          "type": "string"
        },
        {
          "indexed": false,
          "internalType": "string",
          "name": "content",
          "type": "string"
        },
        {
          "indexed": false,
          "internalType": "string[]",
          "name": "comments",
          "type": "string[]"
        },
        {
          "indexed": false,
          "internalType": "address[]",
          "name": "likes",
          "type": "address[]"
        },
        {
          "indexed": false,
          "internalType": "uint256[]",
          "name": "tips",
          "type": "uint256[]"
        },
        {
          "indexed": false,
          "internalType": "bool",
          "name": "exists",
          "type": "bool"
        },
        {
          "indexed": false,
          "internalType": "string",
          "name": "imageUrl",
          "type": "string"
        },
        {
          "indexed": false,
          "internalType": "uint256",
          "name": "timestamp",
          "type": "uint256"
        }
      ],
      "name": "TweetCreated",
      "type": "event"
    },
    {
      "anonymous": false,
      "inputs": [
        {
          "indexed": false,
          "internalType": "uint256",
          "name": "tweetId",
          "type": "uint256"
        },
        {
          "indexed": false,
          "internalType": "address",
          "name": "liker",
          "type": "address"
        }
      ],
      "name": "TweetLiked",
      "type": "event"
    },
    {
      "anonymous": false,
      "inputs": [
        {
          "indexed": false,
          "internalType": "uint256",
          "name": "tokenAmount",
          "type": "uint256"
        },
        {
          "indexed": false,
          "internalType": "uint256",
          "name": "ethValue",
          "type": "uint256"
        },
        {
          "indexed": false,
          "internalType": "address",
          "name": "buyersAddress",
          "type": "address"
        },
        {
          "indexed": false,
          "internalType": "uint256",
          "name": "buyersBalanceBefore",
          "type": "uint256"
        },
        {
          "indexed": false,
          "internalType": "uint256",
          "name": "buyersNewBalance",
          "type": "uint256"
        }
      ],
      "name": "TweetTokenBought",
      "type": "event"
    },
    {
      "anonymous": false,
      "inputs": [
        {
          "indexed": false,
          "internalType": "address",
          "name": "contractFrom",
          "type": "address"
        },
        {
          "indexed": false,
          "internalType": "uint256",
          "name": "contractFromAmount",
          "type": "uint256"
        }
      ],
      "name": "TwitterReceivedFunds",
      "type": "event"
    },
    {
      "anonymous": false,
      "inputs": [
        {
          "indexed": false,
          "internalType": "string",
          "name": "user",
          "type": "string"
        },
        {
          "indexed": false,
          "internalType": "string",
          "name": "follower",
          "type": "string"
        }
      ],
      "name": "Unfollowed",
      "type": "event"
    },
    {
      "anonymous": false,
      "inputs": [
        {
          "indexed": false,
          "internalType": "uint256",
          "name": "amount",
          "type": "uint256"
        },
        {
          "indexed": false,
          "internalType": "uint256",
          "name": "tweetId",
          "type": "uint256"
        },
        {
          "indexed": false,
          "internalType": "address",
          "name": "creator",
          "type": "address"
        },
        {
          "indexed": false,
          "internalType": "address",
          "name": "tipper",
          "type": "address"
        },
        {
          "indexed": false,
          "internalType": "string",
          "name": "tipperName",
          "type": "string"
        }
      ],
      "name": "UserTipped",
      "type": "event"
    },
    {
      "anonymous": false,
      "inputs": [
        {
          "indexed": false,
          "internalType": "address",
          "name": "token",
          "type": "address"
        },
        {
          "indexed": false,
          "internalType": "address",
          "name": "user",
          "type": "address"
        },
        {
          "indexed": false,
          "internalType": "uint256",
          "name": "amount",
          "type": "uint256"
        },
        {
          "indexed": false,
          "internalType": "uint256",
          "name": "balance",
          "type": "uint256"
        }
      ],
      "name": "Withdraw",
      "type": "event"
    },
    {
      "stateMutability": "nonpayable",
      "type": "fallback"
    },
    {
      "inputs": [
        {
          "internalType": "address",
          "name": "",
          "type": "address"
        },
        {
          "internalType": "address",
          "name": "",
          "type": "address"
        }
      ],
      "name": "balances",
      "outputs": [
        {
          "internalType": "uint256",
          "name": "",
          "type": "uint256"
        }
      ],
      "stateMutability": "view",
      "type": "function",
      "constant": true
    },
    {
      "inputs": [],
      "name": "baseURI",
      "outputs": [
        {
          "internalType": "string",
          "name": "",
          "type": "string"
        }
      ],
      "stateMutability": "view",
      "type": "function",
      "constant": true
    },
    {
      "inputs": [
        {
          "internalType": "address",
          "name": "",
          "type": "address"
        },
        {
          "internalType": "uint256",
          "name": "",
          "type": "uint256"
        }
      ],
      "name": "followers",
      "outputs": [
        {
          "internalType": "address",
          "name": "",
          "type": "address"
        }
      ],
      "stateMutability": "view",
      "type": "function",
      "constant": true
    },
    {
      "inputs": [
        {
          "internalType": "address",
          "name": "",
          "type": "address"
        },
        {
          "internalType": "address",
          "name": "",
          "type": "address"
        }
      ],
      "name": "following",
      "outputs": [
        {
          "internalType": "bool",
          "name": "",
          "type": "bool"
        }
      ],
      "stateMutability": "view",
      "type": "function",
      "constant": true
    },
    {
      "inputs": [],
      "name": "owner",
      "outputs": [
        {
          "internalType": "address payable",
          "name": "",
          "type": "address"
        }
      ],
      "stateMutability": "view",
      "type": "function",
      "constant": true
    },
    {
      "inputs": [
        {
          "internalType": "uint256",
          "name": "",
          "type": "uint256"
        }
      ],
      "name": "tweetAuctions",
      "outputs": [
        {
          "internalType": "address",
          "name": "",
          "type": "address"
        }
      ],
      "stateMutability": "view",
      "type": "function",
      "constant": true
    },
    {
      "inputs": [],
      "name": "tweetNFT",
      "outputs": [
        {
          "internalType": "contract TweetNFT",
          "name": "",
          "type": "address"
        }
      ],
      "stateMutability": "view",
      "type": "function",
      "constant": true
    },
    {
      "inputs": [],
      "name": "tweetToken",
      "outputs": [
        {
          "internalType": "contract TweetToken",
          "name": "",
          "type": "address"
        }
      ],
      "stateMutability": "view",
      "type": "function",
      "constant": true
    },
    {
      "inputs": [
        {
          "internalType": "uint256",
          "name": "",
          "type": "uint256"
        }
      ],
      "name": "tweets",
      "outputs": [
        {
          "internalType": "uint256",
          "name": "id",
          "type": "uint256"
        },
        {
          "internalType": "address",
          "name": "creator",
          "type": "address"
        },
        {
          "internalType": "string",
          "name": "name",
          "type": "string"
        },
        {
          "internalType": "string",
          "name": "content",
          "type": "string"
        },
        {
          "internalType": "bool",
          "name": "exists",
          "type": "bool"
        },
        {
          "internalType": "string",
          "name": "imageUrl",
          "type": "string"
        },
        {
          "internalType": "uint256",
          "name": "timestamp",
          "type": "uint256"
        }
      ],
      "stateMutability": "view",
      "type": "function",
      "constant": true
    },
    {
      "inputs": [
        {
          "internalType": "address",
          "name": "",
          "type": "address"
        }
      ],
      "name": "users",
      "outputs": [
        {
          "internalType": "address",
          "name": "userAddress",
          "type": "address"
        },
        {
          "internalType": "uint256",
          "name": "id",
          "type": "uint256"
        },
        {
          "internalType": "string",
          "name": "name",
          "type": "string"
        },
        {
          "internalType": "string",
          "name": "bio",
          "type": "string"
        },
        {
          "internalType": "string",
          "name": "profilePictureURL",
          "type": "string"
        },
        {
          "internalType": "bool",
          "name": "exists",
          "type": "bool"
        }
      ],
      "stateMutability": "view",
      "type": "function",
      "constant": true
    },
    {
      "inputs": [],
      "name": "depositETH",
      "outputs": [],
      "stateMutability": "payable",
      "type": "function",
      "payable": true
    },
    {
      "inputs": [
        {
          "internalType": "uint256",
          "name": "_amount",
          "type": "uint256"
        }
      ],
      "name": "withdrawETH",
      "outputs": [],
      "stateMutability": "nonpayable",
      "type": "function"
    },
    {
      "inputs": [
        {
          "internalType": "address",
          "name": "_token",
          "type": "address"
        },
        {
          "internalType": "uint256",
          "name": "_amount",
          "type": "uint256"
        }
      ],
      "name": "depositTweetToken",
      "outputs": [],
      "stateMutability": "nonpayable",
      "type": "function"
    },
    {
      "inputs": [
        {
          "internalType": "address",
          "name": "_token",
          "type": "address"
        },
        {
          "internalType": "uint256",
          "name": "_amount",
          "type": "uint256"
        }
      ],
      "name": "withdrawTweetToken",
      "outputs": [],
      "stateMutability": "nonpayable",
      "type": "function"
    },
    {
      "inputs": [
        {
          "internalType": "address",
          "name": "_token",
          "type": "address"
        },
        {
          "internalType": "address",
          "name": "_user",
          "type": "address"
        }
      ],
      "name": "balanceOf",
      "outputs": [
        {
          "internalType": "uint256",
          "name": "",
          "type": "uint256"
        }
      ],
      "stateMutability": "view",
      "type": "function",
      "constant": true
    },
    {
      "inputs": [
        {
          "internalType": "string",
          "name": "_name",
          "type": "string"
        },
        {
          "internalType": "string",
          "name": "_bio",
          "type": "string"
        },
        {
          "internalType": "string",
          "name": "_profilePictureURL",
          "type": "string"
        }
      ],
      "name": "createAccount",
      "outputs": [],
      "stateMutability": "nonpayable",
      "type": "function"
    },
    {
      "inputs": [
        {
          "internalType": "string",
          "name": "_name",
          "type": "string"
        }
      ],
      "name": "updateName",
      "outputs": [],
      "stateMutability": "nonpayable",
      "type": "function"
    },
    {
      "inputs": [
        {
          "internalType": "string",
          "name": "_bio",
          "type": "string"
        }
      ],
      "name": "updateBio",
      "outputs": [],
      "stateMutability": "nonpayable",
      "type": "function"
    },
    {
      "inputs": [
        {
          "internalType": "string",
          "name": "_url",
          "type": "string"
        }
      ],
      "name": "updateProfilePicture",
      "outputs": [],
      "stateMutability": "nonpayable",
      "type": "function"
    },
    {
      "inputs": [],
      "name": "removeUser",
      "outputs": [],
      "stateMutability": "nonpayable",
      "type": "function"
    },
    {
      "inputs": [
        {
          "internalType": "address",
          "name": "user",
          "type": "address"
        },
        {
          "internalType": "address",
          "name": "follower",
          "type": "address"
        }
      ],
      "name": "isFollowing",
      "outputs": [
        {
          "internalType": "bool",
          "name": "",
          "type": "bool"
        }
      ],
      "stateMutability": "view",
      "type": "function",
      "constant": true
    },
    {
      "inputs": [
        {
          "internalType": "address",
          "name": "user",
          "type": "address"
        },
        {
          "internalType": "address",
          "name": "follower",
          "type": "address"
        }
      ],
      "name": "getFollowerIndex",
      "outputs": [
        {
          "internalType": "uint256",
          "name": "",
          "type": "uint256"
        }
      ],
      "stateMutability": "view",
      "type": "function",
      "constant": true
    },
    {
      "inputs": [
        {
          "internalType": "address",
          "name": "user",
          "type": "address"
        },
        {
          "internalType": "address",
          "name": "follower",
          "type": "address"
        }
      ],
      "name": "becomeFollower",
      "outputs": [],
      "stateMutability": "nonpayable",
      "type": "function"
    },
    {
      "inputs": [
        {
          "internalType": "address",
          "name": "_user",
          "type": "address"
        },
        {
          "internalType": "address",
          "name": "_follower",
          "type": "address"
        }
      ],
      "name": "unfollow",
      "outputs": [],
      "stateMutability": "nonpayable",
      "type": "function"
    },
    {
      "inputs": [
        {
          "internalType": "address",
          "name": "user",
          "type": "address"
        }
      ],
      "name": "getFollowerAddresses",
      "outputs": [
        {
          "internalType": "address[]",
          "name": "",
          "type": "address[]"
        }
      ],
      "stateMutability": "view",
      "type": "function",
      "constant": true
    },
    {
      "inputs": [
        {
          "internalType": "uint256",
          "name": "id",
          "type": "uint256"
        }
      ],
      "name": "getTweet",
      "outputs": [
        {
          "components": [
            {
              "internalType": "uint256",
              "name": "id",
              "type": "uint256"
            },
            {
              "internalType": "address",
              "name": "creator",
              "type": "address"
            },
            {
              "internalType": "string",
              "name": "name",
              "type": "string"
            },
            {
              "internalType": "string",
              "name": "content",
              "type": "string"
            },
            {
              "internalType": "string[]",
              "name": "comments",
              "type": "string[]"
            },
            {
              "internalType": "address[]",
              "name": "likes",
              "type": "address[]"
            },
            {
              "internalType": "uint256[]",
              "name": "tips",
              "type": "uint256[]"
            },
            {
              "internalType": "bool",
              "name": "exists",
              "type": "bool"
            },
            {
              "internalType": "string",
              "name": "imageUrl",
              "type": "string"
            },
            {
              "internalType": "uint256",
              "name": "timestamp",
              "type": "uint256"
            }
          ],
          "internalType": "struct Twitter.Tweet",
          "name": "",
          "type": "tuple"
        }
      ],
      "stateMutability": "view",
      "type": "function",
      "constant": true
    },
    {
      "inputs": [
        {
          "internalType": "string",
          "name": "_content",
          "type": "string"
        },
        {
          "internalType": "string",
          "name": "_imageUrl",
          "type": "string"
        }
      ],
      "name": "createTweet",
      "outputs": [],
      "stateMutability": "nonpayable",
      "type": "function"
    },
    {
      "inputs": [
        {
          "internalType": "uint256",
          "name": "_tweetId",
          "type": "uint256"
        },
        {
          "internalType": "string",
          "name": "_comment",
          "type": "string"
        }
      ],
      "name": "createComment",
      "outputs": [],
      "stateMutability": "nonpayable",
      "type": "function"
    },
    {
      "inputs": [
        {
          "internalType": "uint256",
          "name": "_tweetId",
          "type": "uint256"
        }
      ],
      "name": "likeTweet",
      "outputs": [],
      "stateMutability": "nonpayable",
      "type": "function"
    },
    {
      "inputs": [
        {
          "internalType": "uint256",
          "name": "_tweetId",
          "type": "uint256"
        },
        {
          "internalType": "uint256",
          "name": "_amount",
          "type": "uint256"
        }
      ],
      "name": "tipUser",
      "outputs": [],
      "stateMutability": "nonpayable",
      "type": "function"
    },
    {
      "inputs": [],
      "name": "receiveFunds",
      "outputs": [],
      "stateMutability": "payable",
      "type": "function",
      "payable": true
    },
    {
      "inputs": [],
      "name": "withdraw",
      "outputs": [],
      "stateMutability": "nonpayable",
      "type": "function"
    },
    {
      "inputs": [
        {
          "internalType": "uint256",
          "name": "tokenAmount",
          "type": "uint256"
        }
      ],
      "name": "buyTweetTokens",
      "outputs": [],
      "stateMutability": "payable",
      "type": "function",
      "payable": true
    }
  ],
  "bytecode": "0x608060405260016009553480156200001657600080fd5b5060405162003913380380620039138339810160408190526200003991620000dc565b600080546001600160a01b038086166001600160a01b03199283161790925560018054858416908316179055600280549284169290911691909117905560408051808201909152601581527f68747470733a2f2f697066732e696f2f697066732f00000000000000000000006020820152600390620000b99082620001d5565b50505050620002a1565b6001600160a01b0381168114620000d957600080fd5b50565b600080600060608486031215620000f257600080fd5b8351620000ff81620000c3565b60208501519093506200011281620000c3565b60408501519092506200012581620000c3565b809150509250925092565b634e487b7160e01b600052604160045260246000fd5b600181811c908216806200015b57607f821691505b6020821081036200017c57634e487b7160e01b600052602260045260246000fd5b50919050565b601f821115620001d057600081815260208120601f850160051c81016020861015620001ab5750805b601f850160051c820191505b81811015620001cc57828155600101620001b7565b5050505b505050565b81516001600160401b03811115620001f157620001f162000130565b620002098162000202845462000146565b8462000182565b602080601f831160018114620002415760008415620002285750858301515b600019600386901b1c1916600185901b178555620001cc565b600085815260208120601f198616915b82811015620002725788860151825594840194600190910190840162000251565b5085821015620002915787850151600019600388901b60f8161c191681555b5050505050600190811b01905550565b61366280620002b16000396000f3fe6080604052600436106101ed5760003560e01c80638da5cb5b1161010d578063d30904c7116100a0578063f14210a61161006f578063f14210a61461062d578063f4b5ee4d1461064d578063f6326fb314610683578063f7888aec1461068b578063f944f4c7146106d1576101ed565b8063d30904c71461059a578063dc23abf6146105ba578063e8d857b0146105da578063ebd009d31461060d576101ed565b8063c23f001f116100dc578063c23f001f146104da578063c3ad5ecb14610512578063c9f4b84a1461053f578063ce9ae0011461055f576101ed565b80638da5cb5b1461040e57806399ec3a421461042e578063a87430ba14610488578063bc53c0c4146104ba576101ed565b80635802594f1161018557806376487b381161015457806376487b3814610380578063812dca54146103a057806384da92a7146103ce5780638cd14d30146103ee576101ed565b80635802594f146102e65780635ffc6ceb1461031e5780636c0360eb1461033e57806375de982e14610360576101ed565b80633ccfd60b116101c15780633ccfd60b1461027e57806340a17985146102935780634cf6258e146102b3578063565a4dc3146102c6576101ed565b80625c33e1146101fe5780630d95272a1461020857806312b3e19f1461023e578063164415ae1461025e575b3480156101f957600080fd5b600080fd5b6102066106e6565b005b34801561021457600080fd5b50610228610223366004612a62565b610721565b6040516102359190612a84565b60405180910390f35b34801561024a57600080fd5b50610206610259366004612ad1565b6107dc565b34801561026a57600080fd5b50610206610279366004612afb565b610936565b34801561028a57600080fd5b50610206610a91565b34801561029f57600080fd5b506102066102ae366004612bc0565b610b65565b6102066102c1366004612c07565b610c6a565b3480156102d257600080fd5b506102066102e1366004612c20565b610f89565b3480156102f257600080fd5b50600254610306906001600160a01b031681565b6040516001600160a01b039091168152602001610235565b34801561032a57600080fd5b50610206610339366004612c07565b61101d565b34801561034a57600080fd5b5061035361111e565b6040516102359190612ca3565b34801561036c57600080fd5b50600154610306906001600160a01b031681565b34801561038c57600080fd5b5061020661039b366004612c20565b6111ac565b3480156103ac57600080fd5b506103c06103bb366004612cb6565b611234565b604051908152602001610235565b3480156103da57600080fd5b506102066103e9366004612c20565b611261565b3480156103fa57600080fd5b50610206610409366004612ce9565b6112e9565b34801561041a57600080fd5b50600054610306906001600160a01b031681565b34801561043a57600080fd5b50610478610449366004612cb6565b6001600160a01b0380821660009081526007602090815260408083209386168352929052205460ff1692915050565b6040519015158152602001610235565b34801561049457600080fd5b506104a86104a3366004612a62565b61161a565b60405161023596959493929190612d43565b3480156104c657600080fd5b506102066104d5366004612da6565b6117f4565b3480156104e657600080fd5b506103c06104f5366004612cb6565b600560209081526000928352604080842090915290825290205481565b34801561051e57600080fd5b5061053261052d366004612c07565b611985565b6040516102359190612ef4565b34801561054b57600080fd5b5061020661055a366004612cb6565b611d8c565b34801561056b57600080fd5b5061047861057a366004612cb6565b600760209081526000928352604080842090915290825290205460ff1681565b3480156105a657600080fd5b506102066105b5366004612ad1565b6120bf565b3480156105c657600080fd5b506102066105d5366004612cb6565b6121e3565b3480156105e657600080fd5b506105fa6105f5366004612c07565b612441565b6040516102359796959493929190612ff7565b34801561061957600080fd5b50610306610628366004612ad1565b612627565b34801561063957600080fd5b50610206610648366004612c07565b61265f565b34801561065957600080fd5b50610306610668366004612c07565b600c602052600090815260409020546001600160a01b031681565b610206612795565b34801561069757600080fd5b506103c06106a6366004612cb6565b6001600160a01b03918216600090815260056020908152604080832093909416825291909152205490565b3480156106dd57600080fd5b50610206612817565b604080513381523460208201527f873db5b09b82c3e95b44a29e65520b545f452255c7af9aec662dad62294a983591015b60405180910390a1565b6001600160a01b03811660009081526004602052604090206005015460609060ff166107685760405162461bcd60e51b815260040161075f90613064565b60405180910390fd5b6001600160a01b038216600090815260066020908152604091829020805483518184028101840190945280845290918301828280156107d057602002820191906000526020600020905b81546001600160a01b031681526001909101906020018083116107b2575b50505050509050919050565b6001600160a01b0382166107ef57600080fd5b6001600160a01b038216600090815260056020908152604080832033845290915290205481111561081f57600080fd5b6001600160a01b0382166000908152600560209081526040808320338452909152812080548392906108529084906130a7565b909155505060405163a9059cbb60e01b8152336004820152602481018290526001600160a01b0383169063a9059cbb906044016020604051808303816000875af11580156108a4573d6000803e3d6000fd5b505050506040513d601f19601f820116820180604052508101906108c891906130ba565b6108d157600080fd5b6001600160a01b0382166000908152600560209081526040808320338085529252918290205491517ff341246adaac6f497bc2a656f546ab9e182111d630394f0c57c710a59a2cb5679261092a928692909186916130dc565b60405180910390a15050565b600081116109865760405162461bcd60e51b815260206004820152601f60248201527f416d6f756e742073686f756c642062652067726561746572207468616e203000604482015260640161075f565b600180546000848152600a6020526040908190209092015491516323b872dd60e01b81523360048201526001600160a01b039283166024820152604481018490529116906323b872dd906064016020604051808303816000875af11580156109f2573d6000803e3d6000fd5b505050506040513d601f19601f82011682018060405250810190610a1691906130ba565b506000828152600a60209081526040808320600681018054600181810183559186528486200186905501543380855260049093529281902090517f6098a8ae5ae7c421a371177a4fedd3db1a412b92765d57396e8bae7bc4bb029d9361092a93869388936001600160a01b03909316926002909101906131bc565b6000546001600160a01b03163314610af55760405162461bcd60e51b815260206004820152602160248201527f4f6e6c7920746865206f776e65722063616e2077697468647261772066756e646044820152607360f81b606482015260840161075f565b600080546040516001600160a01b03909116914780156108fc02929091818181858888f19350505050158015610b2f573d6000803e3d6000fd5b50604080513381524760208201527feaff4b37086828766ad3268786972c0cd24259d4c87a80f9d3963a3c3d999b0d9101610717565b3360009081526004602052604090206005015460ff16610b975760405162461bcd60e51b815260040161075f90613064565b6000828152600a602052604090206007015460ff16610bef5760405162461bcd60e51b8152602060048201526014602482015273151dd9595d08191bd95cc81b9bdd08195e1a5cdd60621b604482015260640161075f565b6000828152600a6020908152604082206004018054600181018255908352912001610c1a828261324f565b503360008181526004602081905260409182902091517f0318f5dec6e128a84b442e326c36cd7d6e74d429c209d952374dd57a4c2883529361092a9387938793600283019290910190429061330f565b6000610c786103e883613371565b6040805184815260208101839052348183015290519192507fe3c22503fc4a36c926cff7dff4211a99f1406b3745a9d5cfd9336e2ab00d0054919081900360600190a180341015610d175760405162461bcd60e51b8152602060048201526024808201527f596f75206d7573742073656e6420736f6d652045544820746f2062757920746f6044820152636b656e7360e01b606482015260840161075f565b6001546040516370a0823160e01b815230600482015283916001600160a01b0316906370a0823190602401602060405180830381865afa158015610d5f573d6000803e3d6000fd5b505050506040513d601f19601f82011682018060405250810190610d839190613393565b1015610ddd5760405162461bcd60e51b815260206004820152602360248201527f496e73756666696369656e7420547765657420546f6b656e7320617661696c61604482015262626c6560e81b606482015260840161075f565b6001546040516370a0823160e01b81523360048201526000916001600160a01b0316906370a0823190602401602060405180830381865afa158015610e26573d6000803e3d6000fd5b505050506040513d601f19601f82011682018060405250810190610e4a9190613393565b60015460405163a9059cbb60e01b8152336004820152602481018690529192506001600160a01b03169063a9059cbb906044016020604051808303816000875af1158015610e9c573d6000803e3d6000fd5b505050506040513d601f19601f82011682018060405250810190610ec091906130ba565b506001546040516370a0823160e01b81523360048201526000916001600160a01b0316906370a0823190602401602060405180830381865afa158015610f0a573d6000803e3d6000fd5b505050506040513d601f19601f82011682018060405250810190610f2e9190613393565b6040805186815260208101869052339181019190915260608101849052608081018290529091507fdb9902d3ee7f6c4b83a0d7d3f123afd4caddb8ee78d384ca5ab5848b09985dcf9060a0015b60405180910390a150505050565b3360009081526004602052604090206005015460ff16610fbb5760405162461bcd60e51b815260040161075f90613064565b33600090815260046020819052604090912001610fd8828261324f565b50336001600160a01b03167f6b397bb88467b92a1774b4b19bf728f2673bf763d0bd7a571d17714ba7bd8c6c826040516110129190612ca3565b60405180910390a250565b336000908152600b6020908152604080832084845290915290205460ff16156110925760405162461bcd60e51b815260206004820152602160248201527f596f75206861766520616c7265616479206c696b6564207468697320747765656044820152601d60fa1b606482015260840161075f565b336000818152600b602090815260408083208584528252808320805460ff19166001908117909155600a83528184206005018054918201815584529282902090920180546001600160a01b031916841790558151848152908101929092527f33b8f513b5466d89f2a96589e6e48f7682fddc5debd283e6bb921ed3bba52b78910160405180910390a150565b6003805461112b90613105565b80601f016020809104026020016040519081016040528092919081815260200182805461115790613105565b80156111a45780601f10611179576101008083540402835291602001916111a4565b820191906000526020600020905b81548152906001019060200180831161118757829003601f168201915b505050505081565b3360009081526004602052604090206005015460ff166111de5760405162461bcd60e51b815260040161075f90613064565b3360009081526004602052604090206003016111fa828261324f565b50336001600160a01b03167f3f838a7d0889a59b2445af5389196b3948170278848eb90d8d256ab14aaf4cf0826040516110129190612ca3565b6001600160a01b038083166000908152600860209081526040808320938516835292905220545b92915050565b3360009081526004602052604090206005015460ff166112935760405162461bcd60e51b815260040161075f90613064565b3360009081526004602052604090206002016112af828261324f565b50336001600160a01b03167f74321da206c1b9fa34367f7ece59ca49371dcd13820b9a5c3767ae1ecceed51a826040516110129190612ca3565b3360009081526004602052604090206005015460ff1661131b5760405162461bcd60e51b815260040161075f90613064565b60095460408051610140810182528281523360208083018290526000918252600490528290206002018054919283019161135490613105565b80601f016020809104026020016040519081016040528092919081815260200182805461138090613105565b80156113cd5780601f106113a2576101008083540402835291602001916113cd565b820191906000526020600020905b8154815290600101906020018083116113b057829003601f168201915b50505091835250506020808201869052604080516000808252928101825292019190611409565b60608152602001906001900390816113f45790505b508152602001600060405190808252806020026020018201604052801561143a578160200160208202803683370190505b508152602001600060405190808252806020026020018201604052801561146b578160200160208202803683370190505b508152600160208083018290526040808401879052426060909401939093526000858152600a8252839020845181559084015191810180546001600160a01b0319166001600160a01b03909316929092179091559082015160028201906114d2908261324f565b50606082015160038201906114e7908261324f565b50608082015180516115039160048401916020909101906128e5565b5060a0820151805161151f91600584019160209091019061293b565b5060c0820151805161153b91600684019160209091019061299c565b5060e082015160078201805460ff19169115159190911790556101008201516008820190611569908261324f565b5061012091909101516009918201556000828152600a6020526040908190208054600182015460078301549483015493517f3cdf52fd79ee382dbae2d15851951553d186e835ab4934815372f95dcb689374956115f89593946001600160a01b03909316936002840193600381019360048201936005830193600684019360ff9092169260089092019161341f565b60405180910390a16009805490600061161083613513565b9190505550505050565b6004602052600090815260409020805460018201546002830180546001600160a01b0390931693919261164c90613105565b80601f016020809104026020016040519081016040528092919081815260200182805461167890613105565b80156116c55780601f1061169a576101008083540402835291602001916116c5565b820191906000526020600020905b8154815290600101906020018083116116a857829003601f168201915b5050505050908060030180546116da90613105565b80601f016020809104026020016040519081016040528092919081815260200182805461170690613105565b80156117535780601f1061172857610100808354040283529160200191611753565b820191906000526020600020905b81548152906001019060200180831161173657829003601f168201915b50505050509080600401805461176890613105565b80601f016020809104026020016040519081016040528092919081815260200182805461179490613105565b80156117e15780601f106117b6576101008083540402835291602001916117e1565b820191906000526020600020905b8154815290600101906020018083116117c457829003601f168201915b5050506005909301549192505060ff1686565b3360009081526004602052604090206005015460ff161561184d5760405162461bcd60e51b81526020600482015260136024820152725573657220616c72656164792065786973747360681b604482015260640161075f565b6000611858600d5490565b6040805160c0810182523380825260208083018581528385018a8152606085018a905260808501899052600160a086018190526000948552600490935294909220835181546001600160a01b0319166001600160a01b0390911617815591519082015591519293509160028201906118d0908261324f565b50606082015160038201906118e5908261324f565b50608082015160048201906118fa908261324f565b5060a091909101516005918201805460ff19169115159190911790553360008181526004602052604090819020600181015493015490517faa2585f21e6456ed4a8c9a8868301bdcbcfa7435429b0189e606aba6c1692fbe936119699392909189918991899160ff1690612d43565b60405180910390a161197f600d80546001019055565b50505050565b6119e66040518061014001604052806000815260200160006001600160a01b03168152602001606081526020016060815260200160608152602001606081526020016060815260200160001515815260200160608152602001600081525090565b6000828152600a602090815260408083208151610140810183528154815260018201546001600160a01b0316938101939093526002810180549192840191611a2d90613105565b80601f0160208091040260200160405190810160405280929190818152602001828054611a5990613105565b8015611aa65780601f10611a7b57610100808354040283529160200191611aa6565b820191906000526020600020905b815481529060010190602001808311611a8957829003601f168201915b50505050508152602001600382018054611abf90613105565b80601f0160208091040260200160405190810160405280929190818152602001828054611aeb90613105565b8015611b385780601f10611b0d57610100808354040283529160200191611b38565b820191906000526020600020905b815481529060010190602001808311611b1b57829003601f168201915b5050505050815260200160048201805480602002602001604051908101604052809291908181526020016000905b82821015611c12578382906000526020600020018054611b8590613105565b80601f0160208091040260200160405190810160405280929190818152602001828054611bb190613105565b8015611bfe5780601f10611bd357610100808354040283529160200191611bfe565b820191906000526020600020905b815481529060010190602001808311611be157829003601f168201915b505050505081526020019060010190611b66565b50505050815260200160058201805480602002602001604051908101604052809291908181526020018280548015611c7357602002820191906000526020600020905b81546001600160a01b03168152600190910190602001808311611c55575b5050505050815260200160068201805480602002602001604051908101604052809291908181526020018280548015611ccb57602002820191906000526020600020905b815481526020019060010190808311611cb7575b5050509183525050600782015460ff1615156020820152600882018054604090920191611cf790613105565b80601f0160208091040260200160405190810160405280929190818152602001828054611d2390613105565b8015611d705780601f10611d4557610100808354040283529160200191611d70565b820191906000526020600020905b815481529060010190602001808311611d5357829003601f168201915b5050509183525050600991909101546020909101529392505050565b336001600160a01b03821614611df45760405162461bcd60e51b815260206004820152602760248201527f4f6e6c792074686520666f6c6c6f7765722063616e2072656d6f7665207468656044820152666d73656c76657360c81b606482015260840161075f565b6001600160a01b0380821660009081526007602090815260408083209386168352929052205460ff16611e595760405162461bcd60e51b815260206004820152600d60248201526c4e6f7420666f6c6c6f77696e6760981b604482015260640161075f565b6001600160a01b0380831660008181526008602090815260408083209486168352938152838220549282526006905291822054909190611e9b906001906130a7565b6001600160a01b038516600090815260066020526040902080549192509082908110611ec957611ec961352c565b60009182526020808320909101546001600160a01b03878116845260069092526040909220805491909216919084908110611f0657611f0661352c565b600091825260208083209190910180546001600160a01b0319166001600160a01b039485161790559186168152600882526040808220600690935281208054859392919084908110611f5a57611f5a61352c565b60009182526020808320909101546001600160a01b0390811684528382019490945260409283018220949094559187168252600690925220805480611fa157611fa1613542565b60008281526020808220830160001990810180546001600160a01b03191690559092019092556001600160a01b0385811680845260078084526040808620938a16808752938552808620805460ff19169055600885528086208387528552808620869055928552835281842090845290915290205460ff16156120665760405162461bcd60e51b815260206004820152601d60248201527f4661696c656420746f2072656d6f76652074686520666f6c6c6f776572000000604482015260640161075f565b6001600160a01b0380851660009081526004602052604080822092861682529081902090517f609a93f9eecec6c2f7c382d0a75e0dcd5422dfa2c9570ef2ea0d58c25ea968b992610f7b92600291820192910190613558565b6001600160a01b0382166120d257600080fd5b6040516323b872dd60e01b8152336004820152306024820152604481018290526001600160a01b038316906323b872dd906064016020604051808303816000875af1158015612125573d6000803e3d6000fd5b505050506040513d601f19601f8201168201806040525081019061214991906130ba565b61215257600080fd5b6001600160a01b038216600090815260056020908152604080832033845290915281208054839290612185908490613586565b90915550506001600160a01b0382166000908152600560209081526040808320338085529252918290205491517fdcbc1c05240f31ff3ad067ef1ee35ce4997762752e3a095284754544f4c709d79261092a928692909186916130dc565b336001600160a01b0382161461223b5760405162461bcd60e51b815260206004820152601b60248201527f557365722043616e6e6f7420466f72636520466f6c6c6f776572730000000000604482015260640161075f565b6001600160a01b03821660009081526004602052604090206005015460ff166122765760405162461bcd60e51b815260040161075f90613064565b6001600160a01b03811660009081526004602052604090206005015460ff166122e15760405162461bcd60e51b815260206004820152601760248201527f466f6c6c6f77657220646f6573206e6f74206578697374000000000000000000604482015260640161075f565b6001600160a01b0380821660009081526007602090815260408083209386168352929052205460ff16156123475760405162461bcd60e51b815260206004820152600d60248201526c4e6f7420666f6c6c6f77696e6760981b604482015260640161075f565b6001600160a01b03828116600081815260066020908152604082208054600180820183558285529284200180546001600160a01b03191695871695909517909455918152915461239791906130a7565b6001600160a01b038084166000818152600760209081526040808320898616808552908352818420805460ff1916600117905560088352818420858552835281842087905583526004909152808220805493835291819020805491519596507f7f97986d1d7d68a2c79189da13a1968cb1e994a7864de2a4af34be8e5f941f62956124349594851694600294850194929092019290911690613599565b60405180910390a1505050565b600a6020526000908152604090208054600182015460028301805492936001600160a01b039092169261247390613105565b80601f016020809104026020016040519081016040528092919081815260200182805461249f90613105565b80156124ec5780601f106124c1576101008083540402835291602001916124ec565b820191906000526020600020905b8154815290600101906020018083116124cf57829003601f168201915b50505050509080600301805461250190613105565b80601f016020809104026020016040519081016040528092919081815260200182805461252d90613105565b801561257a5780601f1061254f5761010080835404028352916020019161257a565b820191906000526020600020905b81548152906001019060200180831161255d57829003601f168201915b5050506007840154600885018054949560ff90921694919350915061259e90613105565b80601f01602080910402602001604051908101604052809291908181526020018280546125ca90613105565b80156126175780601f106125ec57610100808354040283529160200191612617565b820191906000526020600020905b8154815290600101906020018083116125fa57829003601f168201915b5050505050908060090154905087565b6006602052816000526040600020818154811061264357600080fd5b6000918252602090912001546001600160a01b03169150829050565b33600090815260008051602061360d833981519152602052604090205481111561268857600080fd5b33600090815260008051602061360d8339815191526020526040812080548392906126b49084906130a7565b9091555050604051600090339083908381818185875af1925050503d80600081146126fb576040519150601f19603f3d011682016040523d82523d6000602084013e612700565b606091505b50509050806127445760405162461bcd60e51b815260206004820152601060248201526f2a3930b739b332b9103330b4b632b21760811b604482015260640161075f565b33600081815260008051602061360d83398151915260205260408082205490517ff341246adaac6f497bc2a656f546ab9e182111d630394f0c57c710a59a2cb5679361092a939290918791906130dc565b33600090815260008051602061360d8339815191526020526040812080543492906127c1908490613586565b909155505033600081815260008051602061360d83398151915260205260408082205490517fdcbc1c05240f31ff3ad067ef1ee35ce4997762752e3a095284754544f4c709d793610717939290913491906130dc565b3360009081526004602052604090206005015460ff166128495760405162461bcd60e51b815260040161075f90613064565b33600090815260046020526040812080546001600160a01b0319168155600181018290559061287b60028301826129d7565b6128896003830160006129d7565b6128976004830160006129d7565b50600501805460ff19169055336000818152600460205260409081902090517f09c548a1a0ebbda4fe7f4ad39a7b6f70618bba50296b0b3aa871dce2b0dbea4c9261071792600201916135e2565b82805482825590600052602060002090810192821561292b579160200282015b8281111561292b578251829061291b908261324f565b5091602001919060010190612905565b50612937929150612a14565b5090565b828054828255906000526020600020908101928215612990579160200282015b8281111561299057825182546001600160a01b0319166001600160a01b0390911617825560209092019160019091019061295b565b50612937929150612a31565b828054828255906000526020600020908101928215612990579160200282015b828111156129905782518255916020019190600101906129bc565b5080546129e390613105565b6000825580601f106129f3575050565b601f016020900490600052602060002090810190612a119190612a31565b50565b80821115612937576000612a2882826129d7565b50600101612a14565b5b808211156129375760008155600101612a32565b80356001600160a01b0381168114612a5d57600080fd5b919050565b600060208284031215612a7457600080fd5b612a7d82612a46565b9392505050565b6020808252825182820181905260009190848201906040850190845b81811015612ac55783516001600160a01b031683529284019291840191600101612aa0565b50909695505050505050565b60008060408385031215612ae457600080fd5b612aed83612a46565b946020939093013593505050565b60008060408385031215612b0e57600080fd5b50508035926020909101359150565b634e487b7160e01b600052604160045260246000fd5b600082601f830112612b4457600080fd5b813567ffffffffffffffff80821115612b5f57612b5f612b1d565b604051601f8301601f19908116603f01168101908282118183101715612b8757612b87612b1d565b81604052838152866020858801011115612ba057600080fd5b836020870160208301376000602085830101528094505050505092915050565b60008060408385031215612bd357600080fd5b82359150602083013567ffffffffffffffff811115612bf157600080fd5b612bfd85828601612b33565b9150509250929050565b600060208284031215612c1957600080fd5b5035919050565b600060208284031215612c3257600080fd5b813567ffffffffffffffff811115612c4957600080fd5b612c5584828501612b33565b949350505050565b6000815180845260005b81811015612c8357602081850181015186830182015201612c67565b506000602082860101526020601f19601f83011685010191505092915050565b602081526000612a7d6020830184612c5d565b60008060408385031215612cc957600080fd5b612cd283612a46565b9150612ce060208401612a46565b90509250929050565b60008060408385031215612cfc57600080fd5b823567ffffffffffffffff80821115612d1457600080fd5b612d2086838701612b33565b93506020850135915080821115612d3657600080fd5b50612bfd85828601612b33565b60018060a01b038716815285602082015260c060408201526000612d6a60c0830187612c5d565b8281036060840152612d7c8187612c5d565b90508281036080840152612d908186612c5d565b91505082151560a0830152979650505050505050565b600080600060608486031215612dbb57600080fd5b833567ffffffffffffffff80821115612dd357600080fd5b612ddf87838801612b33565b94506020860135915080821115612df557600080fd5b612e0187838801612b33565b93506040860135915080821115612e1757600080fd5b50612e2486828701612b33565b9150509250925092565b6000815180845260208085019450848260051b860182860160005b85811015612e73578383038952612e61838351612c5d565b98850198925090840190600101612e49565b5090979650505050505050565b600081518084526020808501945080840160005b83811015612eb95781516001600160a01b031687529582019590820190600101612e94565b509495945050505050565b600081518084526020808501945080840160005b83811015612eb957815187529582019590820190600101612ed8565b602081528151602082015260006020830151612f1b60408401826001600160a01b03169052565b506040830151610140806060850152612f38610160850183612c5d565b91506060850151601f1980868503016080870152612f568483612c5d565b935060808701519150808685030160a0870152612f738483612e2e565b935060a08701519150808685030160c0870152612f908483612e80565b935060c08701519150808685030160e0870152612fad8483612ec4565b935060e08701519150610100612fc68188018415159052565b80880151925050610120818786030181880152612fe38584612c5d565b970151959092019490945250929392505050565b8781526001600160a01b038716602082015260e06040820181905260009061302190830188612c5d565b82810360608401526130338188612c5d565b9050851515608084015282810360a084015261304f8186612c5d565b9150508260c083015298975050505050505050565b602080825260139082015272155cd95c88191bd95cc81b9bdd08195e1a5cdd606a1b604082015260600190565b634e487b7160e01b600052601160045260246000fd5b8181038181111561125b5761125b613091565b6000602082840312156130cc57600080fd5b81518015158114612a7d57600080fd5b6001600160a01b0394851681529290931660208301526040820152606081019190915260800190565b600181811c9082168061311957607f821691505b60208210810361313957634e487b7160e01b600052602260045260246000fd5b50919050565b6000815461314c81613105565b8085526020600183811680156131695760018114613183576131b1565b60ff1985168884015283151560051b8801830195506131b1565b866000528260002060005b858110156131a95781548a820186015290830190840161318e565b890184019650505b505050505092915050565b858152602081018590526001600160a01b0384811660408301528316606082015260a0608082018190526000906131f59083018461313f565b979650505050505050565b601f82111561324a57600081815260208120601f850160051c810160208610156132275750805b601f850160051c820191505b8181101561324657828155600101613233565b5050505b505050565b815167ffffffffffffffff81111561326957613269612b1d565b61327d816132778454613105565b84613200565b602080601f8311600181146132b2576000841561329a5750858301515b600019600386901b1c1916600185901b178555613246565b600085815260208120601f198616915b828110156132e1578886015182559484019460019091019084016132c2565b50858210156132ff5787850151600019600388901b60f8161c191681555b5050505050600190811b01905550565b86815260c06020820152600061332860c0830188612c5d565b6001600160a01b03871660408401528281036060840152613349818761313f565b9050828103608084015261335d818661313f565b9150508260a0830152979650505050505050565b60008261338e57634e487b7160e01b600052601260045260246000fd5b500490565b6000602082840312156133a557600080fd5b5051919050565b6000815480845260208085019450836000528060002060005b83811015612eb95781546001600160a01b0316875295820195600191820191016133c5565b6000815480845260208085019450836000528060002060005b83811015612eb957815487529582019560019182019101613403565b60006101408c8352602060018060a01b038d16818501528160408501526134488285018d61313f565b9150838203606085015261345c828c61313f565b91508382036080850152818a548084528284019150828160051b8501018c6000528360002060005b838110156134b157868303601f1901855261349f838361313f565b94860194925060019182019101613484565b505086810360a08801526134c5818d6133ac565b94505050505082810360c08401526134dd81886133ea565b86151560e085015290508281036101008401526134fa818661313f565b915050826101208301529b9a5050505050505050505050565b60006001820161352557613525613091565b5060010190565b634e487b7160e01b600052603260045260246000fd5b634e487b7160e01b600052603160045260246000fd5b60408152600061356b604083018561313f565b828103602084015261357d818561313f565b95945050505050565b8082018082111561125b5761125b613091565b600060018060a01b038087168352608060208401526135bb608084018761313f565b83810360408501526135cd818761313f565b92505080841660608401525095945050505050565b6040815260006135f5604083018561313f565b905060018060a01b0383166020830152939250505056fe05b8ccbb9d4d8fb16ea74ce3c29a41f1b461fbdaff4714a0d9a8eb05499746bca2646970667358221220d9cf646a0752cf475769de00702b4c49e05c7966ef3d4c254a333d7d1f554e3364736f6c63430008130033",
  "immutableReferences": {},
  "source": "// SPDX-License-Identifier: MIT\npragma solidity ^0.8.19;\n\nimport './TweetToken.sol';\nimport './TweetNFT.sol';\nimport './Auction.sol';\nimport \"@openzeppelin/contracts/utils/Counters.sol\";\n\ncontract Twitter {\n\n    address constant ETH = address(0);    \n    address payable public owner;    \n    TweetToken public tweetToken;    \n    uint256 private constant conversionRate = 1000; // 1 ETH = 1000 TWEET\n    TweetNFT public tweetNFT;    \n    string public baseURI;    \n    mapping(address => User) public users;    \n    mapping(address => mapping(address => uint256)) public balances; \n    mapping(address => address[]) public followers;     \n    mapping(address => mapping(address => bool)) public following;     \n    mapping(address => mapping(address => uint256)) private followerIndices;     \n    uint256 private nextTweetId = 1;    \n    mapping(uint256 => Tweet) public tweets;    \n    mapping(address => mapping(uint256 => bool)) private likedTweets;    \n    mapping(uint256 => address) public tweetAuctions;    \n\n    using Counters for Counters.Counter;\n    Counters.Counter private accountIds;\n\n    constructor(address payable _owner, address _tweetTokenAddress, address _nftAddress) {\n        owner = _owner;\n        tweetToken = TweetToken(_tweetTokenAddress);\n        tweetNFT = TweetNFT(_nftAddress);\n        baseURI = \"https://ipfs.io/ipfs/\";\n    }\n    \n    modifier onlyOwner {\n        require(msg.sender == owner, \"Caller is not the owner\");\n        _;\n    }\n\n    fallback() external {\n        revert();\n    }\n\n    struct User {\n        address userAddress;\n        uint256 id;\n        string name;\n        string bio;\n        string profilePictureURL;\n        bool exists;\n    }\n\n    struct Tweet {\n        uint256 id;\n        address creator;\n        string name;\n        string content;\n        string[] comments;\n        address[] likes;\n        uint256[] tips;\n        bool exists;\n        string imageUrl;\n        uint256 timestamp;\n    }\n\n    event Deposit(address token, address user, uint256 amount, uint256 balance);\n    event Withdraw(address token, address user, uint256 amount, uint256 balance);\n    event AccountCreated(address userAddress, uint256 id, string name, string bio, string profilePictureURL, bool exists);\n    event NameUpdated(address indexed user, string newName);\n    event BioUpdated(address indexed user, string newBio);\n    event ProfilePictureUpdated(address indexed user, string url);\n    event AccountDeleted(string name, address user);\n    event FollowerAdded(address userAddress, string user, string follower, address followerAddress);\n    event Unfollowed(string user, string follower);\n    event TweetCreated(uint256 id, address creator, string name, string content, string[] comments, address[] likes, uint256[] tips, bool exists, string imageUrl, uint256 timestamp);\n    event CommentAdded(uint256 tweetId, string comment, address commenter, string commenterName, string profilePic, uint256 timestamp);\n    event TweetLiked(uint256 tweetId, address liker);\n    event UserTipped(uint256 amount, uint256 tweetId, address creator, address tipper, string tipperName);\n    event TwitterReceivedFunds(address contractFrom, uint256 contractFromAmount);\n    event FundsWithdrawn(address destinationWallet, uint256 balance);\n    event TweetTokenBought(uint256 tokenAmount, uint256 ethValue, address buyersAddress, uint256 buyersBalanceBefore, uint256 buyersNewBalance);\n    event DebugValues(uint256 tokenAmount, uint256 ethValue, uint256 msgValue);\n\n\n    function depositETH() payable public {\n        balances[ETH][msg.sender] += msg.value;\n        emit Deposit(ETH, msg.sender, msg.value, balances[ETH][msg.sender]);\n    }\n\n    function withdrawETH(uint _amount) public {\n        require(balances[ETH][msg.sender] >= _amount);\n        balances[ETH][msg.sender] -= _amount;\n        (bool success, ) = msg.sender.call{value: _amount}(\"\");\n        require(success, \"Transfer failed.\");\n        emit Withdraw(ETH, msg.sender, _amount, balances[ETH][msg.sender]);\n    }\n\n    function depositTweetToken(address _token, uint256 _amount) public {\n        require(_token != ETH);\n        require(TweetToken(_token).transferFrom(msg.sender, address(this), _amount));\n        balances[_token][msg.sender] += _amount; \n        emit Deposit(_token, msg.sender, _amount, balances[_token][msg.sender]);\n    }\n\n    function withdrawTweetToken(address _token, uint256 _amount) public {\n        require(_token != address(0));\n        require(balances[_token][msg.sender] >= _amount);\n        balances[_token][msg.sender] -= _amount;\n        require(TweetToken(_token).transfer(msg.sender, _amount));\n        emit Withdraw(_token, msg.sender, _amount, balances[_token][msg.sender]);\n    }\n\n    function balanceOf(address _token, address _user) public view returns (uint256) {\n        return balances[_token][_user];\n    }\n\n    function createAccount(string memory _name, string memory _bio, string memory _profilePictureURL) public {\n        // Check if user doesn't alreadty exist\n        require(!users[msg.sender].exists, \"User already exists\");\n\n        uint256 userId = accountIds.current();\n\n        // Create a new user and store it in the mapping\n        users[msg.sender] = User({\n            userAddress: msg.sender,\n            id: userId,\n            name: _name,\n            bio: _bio,\n            profilePictureURL: _profilePictureURL,\n            exists: true\n        });\n\n        emit AccountCreated(msg.sender, users[msg.sender].id, _name, _bio, _profilePictureURL, users[msg.sender].exists);\n        accountIds.increment();\n    }\n\n    function updateName(string memory _name) public {\n        require(users[msg.sender].exists, \"User does not exist\");\n        users[msg.sender].name = _name;\n\n        emit NameUpdated(msg.sender, _name);\n    }\n\n    function updateBio(string memory _bio) public {\n        require(users[msg.sender].exists, \"User does not exist\");\n        users[msg.sender].bio = _bio;\n\n        emit BioUpdated(msg.sender, _bio);\n    }\n\n    function updateProfilePicture(string memory _url) public {\n        require(users[msg.sender].exists, \"User does not exist\");\n        users[msg.sender].profilePictureURL = _url;\n\n        emit ProfilePictureUpdated(msg.sender, _url);\n    }\n\n    function removeUser() public {\n        require(users[msg.sender].exists, \"User does not exist\");\n        delete users[msg.sender];\n\n        emit AccountDeleted(users[msg.sender].name, msg.sender);\n    }\n\n    function isFollowing(address user, address follower) public view returns (bool) {\n        return following[follower][user];\n    }\n\n    function getFollowerIndex(address user, address follower) public view returns (uint) {\n        return followerIndices[user][follower];\n    }\n\n    function becomeFollower(address user, address follower) public {\n        require(msg.sender == follower, \"User Cannot Force Followers\");\n        require(users[user].exists, \"User does not exist\");\n        require(users[follower].exists, \"Follower does not exist\");\n        require(!following[follower][user], \"Not following\");\n\n        followers[user].push(follower); // add follower to followers array for that user\n        uint256 index = followers[user].length - 1; // get index for follower\n        following[follower][user] = true; // set following status to true\n        followerIndices[user][follower] = index; // store index for follower\n\n        emit FollowerAdded(users[user].userAddress, users[user].name, users[follower].name, users[follower].userAddress);\n    }\n\n    function unfollow(address _user, address _follower) public {\n        require(msg.sender == _follower, \"Only the follower can remove themselves\");\n        require(following[_follower][_user], \"Not following\");\n\n        uint256 index = followerIndices[_user][_follower];\n        uint256 lastIndex = followers[_user].length - 1;\n\n        // Move the last follower to the index of the follower being removed\n        followers[_user][index] = followers[_user][lastIndex];\n\n        // Update the index of the moved follower\n        followerIndices[_user][followers[_user][index]] = index;\n\n        // Remove the last follower and update the following mapping\n        followers[_user].pop();\n        following[_follower][_user] = false;\n        delete followerIndices[_user][_follower];\n\n        require(!following[_user][_follower], \"Failed to remove the follower\");\n\n\n        emit Unfollowed(users[_user].name, users[_follower].name);\n    }\n\n    function getFollowerAddresses(address user) public view returns (address[] memory) {\n        require(users[user].exists, \"User does not exist\");\n        return followers[user];\n    }\n\n    function getTweet(uint256 id) public view returns (Tweet memory) {\n        Tweet memory tweet = tweets[id];\n        return tweet;\n    }\n\n    function createTweet(string memory _content, string memory _imageUrl) public {\n        require(users[msg.sender].exists, \"User does not exist\");\n\n        uint256 _tweetId = nextTweetId;\n\n        tweets[_tweetId] = Tweet({\n            id: _tweetId,\n            name: users[msg.sender].name,\n            creator: msg.sender,\n            content: _content,\n            comments: new string[](0),\n            likes: new address[](0),                                    \n            tips: new uint256[](0),            \n            exists: true,\n            imageUrl: _imageUrl,\n            timestamp: block.timestamp\n        });\n\n        emit TweetCreated(\n            tweets[_tweetId].id, \n            tweets[_tweetId].creator, \n            tweets[_tweetId].name,\n            tweets[_tweetId].content, \n            tweets[_tweetId].comments,\n            tweets[_tweetId].likes,                               \n            tweets[_tweetId].tips,            \n            tweets[_tweetId].exists,\n            tweets[_tweetId].imageUrl,\n            tweets[_tweetId].timestamp\n        );\n\n        nextTweetId++;\n    }\n\n    function createComment(uint256 _tweetId, string memory _comment) public {\n        require(users[msg.sender].exists, \"User does not exist\");\n        require(tweets[_tweetId].exists, \"Tweet does not exist\");\n\n        tweets[_tweetId].comments.push(_comment);\n\n        emit CommentAdded(_tweetId, _comment, msg.sender, users[msg.sender].name, users[msg.sender].profilePictureURL, block.timestamp);\n    }\n\n    function likeTweet(uint256 _tweetId) public {\n        require(!likedTweets[msg.sender][_tweetId], \"You have already liked this tweet\");\n                \n        likedTweets[msg.sender][_tweetId] = true;\n        tweets[_tweetId].likes.push(msg.sender);\n\n        emit TweetLiked(_tweetId, msg.sender);\n    }\n\n    function tipUser(uint256 _tweetId, uint256 _amount) public {\n        require(_amount > 0, \"Amount should be greater than 0\");\n        tweetToken.transferFrom(msg.sender, tweets[_tweetId].creator, _amount);\n        tweets[_tweetId].tips.push(_amount);\n\n        emit UserTipped(_amount, _tweetId, tweets[_tweetId].creator, msg.sender, users[msg.sender].name);\n    }\n\n    function receiveFunds() external payable {\n        // Funds will be received and stored in the contract\n        emit TwitterReceivedFunds(msg.sender, msg.value);\n    }\n\n    function withdraw() external {\n        require(msg.sender == owner, \"Only the owner can withdraw funds\");\n        payable(owner).transfer(address(this).balance);\n\n        emit FundsWithdrawn(msg.sender, address(this).balance);\n    }\n\n    function buyTweetTokens(uint256 tokenAmount) external payable {\n        uint256 ethValue = tokenAmount / conversionRate;\n\n        emit DebugValues(tokenAmount, ethValue, msg.value);\n        require(msg.value >= ethValue, \"You must send some ETH to buy tokens\");\n\n        require(tweetToken.balanceOf(address(this)) >= tokenAmount, \"Insufficient Tweet Tokens available\");\n\n        uint256 buyersBalanceBefore = tweetToken.balanceOf(msg.sender);\n        tweetToken.transfer(msg.sender, tokenAmount);\n        uint256 buyersNewBalance = tweetToken.balanceOf(msg.sender);\n\n        emit TweetTokenBought(tokenAmount, ethValue, msg.sender, buyersBalanceBefore, buyersNewBalance);\n    }\n}",
  "sourcePath": "/Users/jamesstorage/Repos/decentralized-twitter/src/contracts/Twitter.sol",
  "compiler": {
    "name": "solc",
    "version": "0.8.19+commit.7dd6d404.Emscripten.clang"
  },
  "schemaVersion": "3.4.13",
  "updatedAt": "2023-05-07T10:20:01.164Z",
  "networkType": "ethereum",
  "devdoc": {
    "kind": "dev",
    "methods": {},
    "version": 1
  },
  "userdoc": {
    "kind": "user",
    "methods": {},
    "version": 1
  }
}