{
  "contractName": "Twitter",
  "abi": [
    {
      "inputs": [
        {
          "internalType": "address payable",
          "name": "_owner",
          "type": "address"
        },
        {
          "internalType": "address",
          "name": "_tweetTokenAddress",
          "type": "address"
        },
        {
          "internalType": "address",
          "name": "_nftAddress",
          "type": "address"
        }
      ],
      "stateMutability": "nonpayable",
      "type": "constructor"
    },
    {
      "anonymous": false,
      "inputs": [
        {
          "indexed": false,
          "internalType": "address",
          "name": "userAddress",
          "type": "address"
        },
        {
          "indexed": false,
          "internalType": "uint256",
          "name": "id",
          "type": "uint256"
        },
        {
          "indexed": false,
          "internalType": "string",
          "name": "name",
          "type": "string"
        },
        {
          "indexed": false,
          "internalType": "string",
          "name": "bio",
          "type": "string"
        },
        {
          "indexed": false,
          "internalType": "string",
          "name": "profilePictureURL",
          "type": "string"
        },
        {
          "indexed": false,
          "internalType": "bool",
          "name": "exists",
          "type": "bool"
        }
      ],
      "name": "AccountCreated",
      "type": "event"
    },
    {
      "anonymous": false,
      "inputs": [
        {
          "indexed": false,
          "internalType": "string",
          "name": "name",
          "type": "string"
        },
        {
          "indexed": false,
          "internalType": "address",
          "name": "user",
          "type": "address"
        }
      ],
      "name": "AccountDeleted",
      "type": "event"
    },
    {
      "anonymous": false,
      "inputs": [
        {
          "indexed": true,
          "internalType": "address",
          "name": "user",
          "type": "address"
        },
        {
          "indexed": false,
          "internalType": "string",
          "name": "newBio",
          "type": "string"
        }
      ],
      "name": "BioUpdated",
      "type": "event"
    },
    {
      "anonymous": false,
      "inputs": [
        {
          "indexed": false,
          "internalType": "address",
          "name": "userAddress",
          "type": "address"
        },
        {
          "indexed": false,
          "internalType": "string",
          "name": "user",
          "type": "string"
        },
        {
          "indexed": false,
          "internalType": "string",
          "name": "follower",
          "type": "string"
        },
        {
          "indexed": false,
          "internalType": "address",
          "name": "followerAddress",
          "type": "address"
        }
      ],
      "name": "FollowerAdded",
      "type": "event"
    },
    {
      "anonymous": false,
      "inputs": [
        {
          "indexed": false,
          "internalType": "address",
          "name": "destinationWallet",
          "type": "address"
        },
        {
          "indexed": false,
          "internalType": "uint256",
          "name": "balance",
          "type": "uint256"
        }
      ],
      "name": "FundsWithdrawn",
      "type": "event"
    },
    {
      "anonymous": false,
      "inputs": [
        {
          "indexed": true,
          "internalType": "address",
          "name": "user",
          "type": "address"
        },
        {
          "indexed": false,
          "internalType": "string",
          "name": "newName",
          "type": "string"
        }
      ],
      "name": "NameUpdated",
      "type": "event"
    },
    {
      "anonymous": false,
      "inputs": [
        {
          "indexed": true,
          "internalType": "address",
          "name": "user",
          "type": "address"
        },
        {
          "indexed": false,
          "internalType": "string",
          "name": "url",
          "type": "string"
        }
      ],
      "name": "ProfilePictureUpdated",
      "type": "event"
    },
    {
      "anonymous": false,
      "inputs": [
        {
          "indexed": false,
          "internalType": "uint256",
          "name": "tweetId",
          "type": "uint256"
        },
        {
          "indexed": false,
          "internalType": "uint256",
          "name": "retweetCount",
          "type": "uint256"
        }
      ],
      "name": "ReTweeted",
      "type": "event"
    },
    {
      "anonymous": false,
      "inputs": [
        {
          "indexed": false,
          "internalType": "uint256",
          "name": "id",
          "type": "uint256"
        },
        {
          "indexed": false,
          "internalType": "address",
          "name": "creator",
          "type": "address"
        },
        {
          "indexed": false,
          "internalType": "string",
          "name": "content",
          "type": "string"
        },
        {
          "indexed": false,
          "internalType": "uint256",
          "name": "likeCount",
          "type": "uint256"
        },
        {
          "indexed": false,
          "internalType": "uint256",
          "name": "retweetCount",
          "type": "uint256"
        },
        {
          "indexed": false,
          "internalType": "uint256[]",
          "name": "tips",
          "type": "uint256[]"
        },
        {
          "indexed": false,
          "internalType": "uint256",
          "name": "tipCount",
          "type": "uint256"
        },
        {
          "indexed": false,
          "internalType": "bool",
          "name": "exists",
          "type": "bool"
        },
        {
          "indexed": false,
          "internalType": "string",
          "name": "imageUrl",
          "type": "string"
        }
      ],
      "name": "TweetCreated",
      "type": "event"
    },
    {
      "anonymous": false,
      "inputs": [
        {
          "indexed": false,
          "internalType": "uint256",
          "name": "tweetId",
          "type": "uint256"
        },
        {
          "indexed": false,
          "internalType": "uint256",
          "name": "likeCount",
          "type": "uint256"
        }
      ],
      "name": "TweetLiked",
      "type": "event"
    },
    {
      "anonymous": false,
      "inputs": [
        {
          "indexed": false,
          "internalType": "address",
          "name": "contractFrom",
          "type": "address"
        },
        {
          "indexed": false,
          "internalType": "uint256",
          "name": "contractFromAmount",
          "type": "uint256"
        }
      ],
      "name": "TwitterReceivedFunds",
      "type": "event"
    },
    {
      "anonymous": false,
      "inputs": [
        {
          "indexed": false,
          "internalType": "string",
          "name": "user",
          "type": "string"
        },
        {
          "indexed": false,
          "internalType": "string",
          "name": "follower",
          "type": "string"
        }
      ],
      "name": "Unfollowed",
      "type": "event"
    },
    {
      "anonymous": false,
      "inputs": [
        {
          "indexed": false,
          "internalType": "uint256",
          "name": "amount",
          "type": "uint256"
        },
        {
          "indexed": false,
          "internalType": "uint256",
          "name": "tweetId",
          "type": "uint256"
        },
        {
          "indexed": false,
          "internalType": "address",
          "name": "creator",
          "type": "address"
        },
        {
          "indexed": false,
          "internalType": "address",
          "name": "tipper",
          "type": "address"
        },
        {
          "indexed": false,
          "internalType": "string",
          "name": "tipperName",
          "type": "string"
        },
        {
          "indexed": false,
          "internalType": "uint256",
          "name": "tipCount",
          "type": "uint256"
        }
      ],
      "name": "UserTipped",
      "type": "event"
    },
    {
      "inputs": [],
      "name": "baseURI",
      "outputs": [
        {
          "internalType": "string",
          "name": "",
          "type": "string"
        }
      ],
      "stateMutability": "view",
      "type": "function",
      "constant": true
    },
    {
      "inputs": [
        {
          "internalType": "address",
          "name": "",
          "type": "address"
        },
        {
          "internalType": "uint256",
          "name": "",
          "type": "uint256"
        }
      ],
      "name": "followers",
      "outputs": [
        {
          "internalType": "address",
          "name": "",
          "type": "address"
        }
      ],
      "stateMutability": "view",
      "type": "function",
      "constant": true
    },
    {
      "inputs": [
        {
          "internalType": "address",
          "name": "",
          "type": "address"
        },
        {
          "internalType": "address",
          "name": "",
          "type": "address"
        }
      ],
      "name": "following",
      "outputs": [
        {
          "internalType": "bool",
          "name": "",
          "type": "bool"
        }
      ],
      "stateMutability": "view",
      "type": "function",
      "constant": true
    },
    {
      "inputs": [],
      "name": "owner",
      "outputs": [
        {
          "internalType": "address payable",
          "name": "",
          "type": "address"
        }
      ],
      "stateMutability": "view",
      "type": "function",
      "constant": true
    },
    {
      "inputs": [
        {
          "internalType": "uint256",
          "name": "",
          "type": "uint256"
        }
      ],
      "name": "tweetAuctions",
      "outputs": [
        {
          "internalType": "address",
          "name": "",
          "type": "address"
        }
      ],
      "stateMutability": "view",
      "type": "function",
      "constant": true
    },
    {
      "inputs": [],
      "name": "tweetNFT",
      "outputs": [
        {
          "internalType": "contract TweetNFT",
          "name": "",
          "type": "address"
        }
      ],
      "stateMutability": "view",
      "type": "function",
      "constant": true
    },
    {
      "inputs": [],
      "name": "tweetToken",
      "outputs": [
        {
          "internalType": "contract TweetToken",
          "name": "",
          "type": "address"
        }
      ],
      "stateMutability": "view",
      "type": "function",
      "constant": true
    },
    {
      "inputs": [
        {
          "internalType": "uint256",
          "name": "",
          "type": "uint256"
        }
      ],
      "name": "tweets",
      "outputs": [
        {
          "internalType": "uint256",
          "name": "id",
          "type": "uint256"
        },
        {
          "internalType": "address",
          "name": "creator",
          "type": "address"
        },
        {
          "internalType": "string",
          "name": "content",
          "type": "string"
        },
        {
          "internalType": "uint256",
          "name": "likeCount",
          "type": "uint256"
        },
        {
          "internalType": "uint256",
          "name": "retweetCount",
          "type": "uint256"
        },
        {
          "internalType": "uint256",
          "name": "tipCount",
          "type": "uint256"
        },
        {
          "internalType": "bool",
          "name": "exists",
          "type": "bool"
        },
        {
          "internalType": "string",
          "name": "imageUrl",
          "type": "string"
        }
      ],
      "stateMutability": "view",
      "type": "function",
      "constant": true
    },
    {
      "inputs": [
        {
          "internalType": "address",
          "name": "",
          "type": "address"
        }
      ],
      "name": "users",
      "outputs": [
        {
          "internalType": "address",
          "name": "userAddress",
          "type": "address"
        },
        {
          "internalType": "uint256",
          "name": "id",
          "type": "uint256"
        },
        {
          "internalType": "string",
          "name": "name",
          "type": "string"
        },
        {
          "internalType": "string",
          "name": "bio",
          "type": "string"
        },
        {
          "internalType": "string",
          "name": "profilePictureURL",
          "type": "string"
        },
        {
          "internalType": "bool",
          "name": "exists",
          "type": "bool"
        }
      ],
      "stateMutability": "view",
      "type": "function",
      "constant": true
    },
    {
      "inputs": [
        {
          "internalType": "string",
          "name": "_name",
          "type": "string"
        },
        {
          "internalType": "string",
          "name": "_bio",
          "type": "string"
        },
        {
          "internalType": "string",
          "name": "_profilePictureURL",
          "type": "string"
        }
      ],
      "name": "createAccount",
      "outputs": [],
      "stateMutability": "nonpayable",
      "type": "function"
    },
    {
      "inputs": [
        {
          "internalType": "string",
          "name": "_name",
          "type": "string"
        }
      ],
      "name": "updateName",
      "outputs": [],
      "stateMutability": "nonpayable",
      "type": "function"
    },
    {
      "inputs": [
        {
          "internalType": "string",
          "name": "_bio",
          "type": "string"
        }
      ],
      "name": "updateBio",
      "outputs": [],
      "stateMutability": "nonpayable",
      "type": "function"
    },
    {
      "inputs": [
        {
          "internalType": "string",
          "name": "_url",
          "type": "string"
        }
      ],
      "name": "updateProfilePicture",
      "outputs": [],
      "stateMutability": "nonpayable",
      "type": "function"
    },
    {
      "inputs": [],
      "name": "removeUser",
      "outputs": [],
      "stateMutability": "nonpayable",
      "type": "function"
    },
    {
      "inputs": [
        {
          "internalType": "address",
          "name": "user",
          "type": "address"
        },
        {
          "internalType": "address",
          "name": "follower",
          "type": "address"
        }
      ],
      "name": "isFollowing",
      "outputs": [
        {
          "internalType": "bool",
          "name": "",
          "type": "bool"
        }
      ],
      "stateMutability": "view",
      "type": "function",
      "constant": true
    },
    {
      "inputs": [
        {
          "internalType": "address",
          "name": "user",
          "type": "address"
        },
        {
          "internalType": "address",
          "name": "follower",
          "type": "address"
        }
      ],
      "name": "getFollowerIndex",
      "outputs": [
        {
          "internalType": "uint256",
          "name": "",
          "type": "uint256"
        }
      ],
      "stateMutability": "view",
      "type": "function",
      "constant": true
    },
    {
      "inputs": [
        {
          "internalType": "address",
          "name": "user",
          "type": "address"
        },
        {
          "internalType": "address",
          "name": "follower",
          "type": "address"
        }
      ],
      "name": "becomeFollower",
      "outputs": [],
      "stateMutability": "nonpayable",
      "type": "function"
    },
    {
      "inputs": [
        {
          "internalType": "address",
          "name": "_user",
          "type": "address"
        },
        {
          "internalType": "address",
          "name": "_follower",
          "type": "address"
        }
      ],
      "name": "unfollow",
      "outputs": [],
      "stateMutability": "nonpayable",
      "type": "function"
    },
    {
      "inputs": [
        {
          "internalType": "address",
          "name": "user",
          "type": "address"
        }
      ],
      "name": "getFollowerAddresses",
      "outputs": [
        {
          "internalType": "address[]",
          "name": "",
          "type": "address[]"
        }
      ],
      "stateMutability": "view",
      "type": "function",
      "constant": true
    },
    {
      "inputs": [
        {
          "internalType": "uint256",
          "name": "id",
          "type": "uint256"
        }
      ],
      "name": "getTweet",
      "outputs": [
        {
          "components": [
            {
              "internalType": "uint256",
              "name": "id",
              "type": "uint256"
            },
            {
              "internalType": "address",
              "name": "creator",
              "type": "address"
            },
            {
              "internalType": "string",
              "name": "content",
              "type": "string"
            },
            {
              "internalType": "uint256",
              "name": "likeCount",
              "type": "uint256"
            },
            {
              "internalType": "uint256",
              "name": "retweetCount",
              "type": "uint256"
            },
            {
              "internalType": "uint256[]",
              "name": "tips",
              "type": "uint256[]"
            },
            {
              "internalType": "uint256",
              "name": "tipCount",
              "type": "uint256"
            },
            {
              "internalType": "bool",
              "name": "exists",
              "type": "bool"
            },
            {
              "internalType": "string",
              "name": "imageUrl",
              "type": "string"
            }
          ],
          "internalType": "struct Twitter.Tweet",
          "name": "",
          "type": "tuple"
        }
      ],
      "stateMutability": "view",
      "type": "function",
      "constant": true
    },
    {
      "inputs": [
        {
          "internalType": "string",
          "name": "_content",
          "type": "string"
        },
        {
          "internalType": "string",
          "name": "_imageUrl",
          "type": "string"
        }
      ],
      "name": "createTweet",
      "outputs": [],
      "stateMutability": "nonpayable",
      "type": "function"
    },
    {
      "inputs": [
        {
          "internalType": "uint256",
          "name": "_tweetId",
          "type": "uint256"
        }
      ],
      "name": "likeTweet",
      "outputs": [],
      "stateMutability": "nonpayable",
      "type": "function"
    },
    {
      "inputs": [
        {
          "internalType": "uint256",
          "name": "_tweetId",
          "type": "uint256"
        }
      ],
      "name": "retweet",
      "outputs": [],
      "stateMutability": "nonpayable",
      "type": "function"
    },
    {
      "inputs": [
        {
          "internalType": "uint256",
          "name": "_tweetId",
          "type": "uint256"
        },
        {
          "internalType": "uint256",
          "name": "_amount",
          "type": "uint256"
        }
      ],
      "name": "tipUser",
      "outputs": [],
      "stateMutability": "nonpayable",
      "type": "function"
    },
    {
      "inputs": [],
      "name": "receiveFunds",
      "outputs": [],
      "stateMutability": "payable",
      "type": "function",
      "payable": true
    },
    {
      "inputs": [],
      "name": "withdraw",
      "outputs": [],
      "stateMutability": "nonpayable",
      "type": "function"
    }
  ],
  "bytecode": "0x608060405260016008553480156200001657600080fd5b506040516200296e3803806200296e8339810160408190526200003991620000dc565b600080546001600160a01b038086166001600160a01b03199283161790925560018054858416908316179055600280549284169290911691909117905560408051808201909152601581527f68747470733a2f2f697066732e696f2f697066732f00000000000000000000006020820152600390620000b99082620001d5565b50505050620002a1565b6001600160a01b0381168114620000d957600080fd5b50565b600080600060608486031215620000f257600080fd5b8351620000ff81620000c3565b60208501519093506200011281620000c3565b60408501519092506200012581620000c3565b809150509250925092565b634e487b7160e01b600052604160045260246000fd5b600181811c908216806200015b57607f821691505b6020821081036200017c57634e487b7160e01b600052602260045260246000fd5b50919050565b601f821115620001d057600081815260208120601f850160051c81016020861015620001ab5750805b601f850160051c820191505b81811015620001cc57828155600101620001b7565b5050505b505050565b81516001600160401b03811115620001f157620001f162000130565b620002098162000202845462000146565b8462000182565b602080601f831160018114620002415760008415620002285750858301515b600019600386901b1c1916600185901b178555620001cc565b600085815260208120601f198616915b82811015620002725788860151825594840194600190910190840162000251565b5085821015620002915787850151600019600388901b60f8161c191681555b5050505050600190811b01905550565b6126bd80620002b16000396000f3fe6080604052600436106101805760003560e01c80638cd14d30116100d1578063c9f4b84a1161008a578063e8d857b011610064578063e8d857b0146104d6578063ebd009d31461050a578063f4b5ee4d1461052a578063f944f4c71461056057600080fd5b8063c9f4b84a1461045b578063ce9ae0011461047b578063dc23abf6146104b657600080fd5b80638cd14d30146103425780638da5cb5b1461036257806399ec3a4214610382578063a87430ba146103dc578063bc53c0c41461040e578063c3ad5ecb1461042e57600080fd5b80635802594f1161013e57806375de982e1161011857806375de982e146102b457806376487b38146102d4578063812dca54146102f457806384da92a71461032257600080fd5b80635802594f1461023a5780635ffc6ceb146102725780636c0360eb1461029257600080fd5b80625c33e1146101855780630d95272a1461018f578063164415ae146101c557806331b8ef87146101e55780633ccfd60b14610205578063565a4dc31461021a575b600080fd5b61018d610575565b005b34801561019b57600080fd5b506101af6101aa366004611d7f565b6105b0565b6040516101bc9190611da1565b60405180910390f35b3480156101d157600080fd5b5061018d6101e0366004611dee565b61066b565b3480156101f157600080fd5b5061018d610200366004611e10565b610844565b34801561021157600080fd5b5061018d6108e6565b34801561022657600080fd5b5061018d610235366004611ecc565b6109ba565b34801561024657600080fd5b5060025461025a906001600160a01b031681565b6040516001600160a01b0390911681526020016101bc565b34801561027e57600080fd5b5061018d61028d366004611e10565b610a4e565b34801561029e57600080fd5b506102a7610b47565b6040516101bc9190611f4f565b3480156102c057600080fd5b5060015461025a906001600160a01b031681565b3480156102e057600080fd5b5061018d6102ef366004611ecc565b610bd5565b34801561030057600080fd5b5061031461030f366004611f62565b610c5d565b6040519081526020016101bc565b34801561032e57600080fd5b5061018d61033d366004611ecc565b610c8a565b34801561034e57600080fd5b5061018d61035d366004611f95565b610d12565b34801561036e57600080fd5b5060005461025a906001600160a01b031681565b34801561038e57600080fd5b506103cc61039d366004611f62565b6001600160a01b0380821660009081526006602090815260408083209386168352929052205460ff1692915050565b60405190151581526020016101bc565b3480156103e857600080fd5b506103fc6103f7366004611d7f565b610f0c565b6040516101bc96959493929190611ff9565b34801561041a57600080fd5b5061018d61042936600461205c565b6110e6565b34801561043a57600080fd5b5061044e610449366004611e10565b611277565b6040516101bc919061211f565b34801561046757600080fd5b5061018d610476366004611f62565b6114be565b34801561048757600080fd5b506103cc610496366004611f62565b600660209081526000928352604080842090915290825290205460ff1681565b3480156104c257600080fd5b5061018d6104d1366004611f62565b6117ff565b3480156104e257600080fd5b506104f66104f1366004611e10565b611a5d565b6040516101bc9897969594939291906121db565b34801561051657600080fd5b5061025a610525366004612243565b611bc0565b34801561053657600080fd5b5061025a610545366004611e10565b600b602052600090815260409020546001600160a01b031681565b34801561056c57600080fd5b5061018d611bf8565b604080513381523460208201527f873db5b09b82c3e95b44a29e65520b545f452255c7af9aec662dad62294a983591015b60405180910390a1565b6001600160a01b03811660009081526004602052604090206005015460609060ff166105f75760405162461bcd60e51b81526004016105ee9061226d565b60405180910390fd5b6001600160a01b0382166000908152600560209081526040918290208054835181840281018401909452808452909183018282801561065f57602002820191906000526020600020905b81546001600160a01b03168152600190910190602001808311610641575b50505050509050919050565b600081116106bb5760405162461bcd60e51b815260206004820152601f60248201527f416d6f756e742073686f756c642062652067726561746572207468616e20300060448201526064016105ee565b60018054600084815260096020526040908190209092015491516323b872dd60e01b81523360048201526001600160a01b039283166024820152604481018490529116906323b872dd906064016020604051808303816000875af1158015610727573d6000803e3d6000fd5b505050506040513d601f19601f8201168201806040525081019061074b919061229a565b6107895760405162461bcd60e51b815260206004820152600f60248201526e151c985b9cd9995c8819985a5b1959608a1b60448201526064016105ee565b600082815260096020908152604082206005810180546001810182559084529183209091018390558382526006018054916107c3836122d2565b909155505060008281526009602081815260408084206001810154338087526004855283872096899052949093526006015490517fd4c753f2e2d5ce7de230507bc1fac23c151622d7294db5ddd866185d7aeb40db9461083894879489946001600160a01b03909116939192600201916123a2565b60405180910390a15050565b3360009081526004602052604090206005015460ff166108765760405162461bcd60e51b81526004016105ee9061226d565b6000818152600960205260408120600401805491610893836122d2565b9091555050600081815260096020908152604091829020600401548251848152918201527f12bda74f7c9bb58e412152c4eabc86ea072ef9435ca8aad724922ad6aa34804191015b60405180910390a150565b6000546001600160a01b0316331461094a5760405162461bcd60e51b815260206004820152602160248201527f4f6e6c7920746865206f776e65722063616e2077697468647261772066756e646044820152607360f81b60648201526084016105ee565b600080546040516001600160a01b03909116914780156108fc02929091818181858888f19350505050158015610984573d6000803e3d6000fd5b50604080513381524760208201527feaff4b37086828766ad3268786972c0cd24259d4c87a80f9d3963a3c3d999b0d91016105a6565b3360009081526004602052604090206005015460ff166109ec5760405162461bcd60e51b81526004016105ee9061226d565b33600090815260046020819052604090912001610a09828261243d565b50336001600160a01b03167f6b397bb88467b92a1774b4b19bf728f2673bf763d0bd7a571d17714ba7bd8c6c82604051610a439190611f4f565b60405180910390a250565b336000908152600a6020908152604080832084845290915290205460ff1615610ac35760405162461bcd60e51b815260206004820152602160248201527f596f75206861766520616c7265616479206c696b6564207468697320747765656044820152601d60fa1b60648201526084016105ee565b6000818152600960205260408120600301805491610ae0836122d2565b9091555050336000908152600a602090815260408083208484528252808320805460ff191660011790556009825291829020600301548251848152918201527f49aee041ac2bd73f2839e4f512ef08fc86986f573230e2ef14533d6a2b07a29e91016108db565b60038054610b54906122eb565b80601f0160208091040260200160405190810160405280929190818152602001828054610b80906122eb565b8015610bcd5780601f10610ba257610100808354040283529160200191610bcd565b820191906000526020600020905b815481529060010190602001808311610bb057829003601f168201915b505050505081565b3360009081526004602052604090206005015460ff16610c075760405162461bcd60e51b81526004016105ee9061226d565b336000908152600460205260409020600301610c23828261243d565b50336001600160a01b03167f3f838a7d0889a59b2445af5389196b3948170278848eb90d8d256ab14aaf4cf082604051610a439190611f4f565b6001600160a01b038083166000908152600760209081526040808320938516835292905220545b92915050565b3360009081526004602052604090206005015460ff16610cbc5760405162461bcd60e51b81526004016105ee9061226d565b336000908152600460205260409020600201610cd8828261243d565b50336001600160a01b03167f74321da206c1b9fa34367f7ece59ca49371dcd13820b9a5c3767ae1ecceed51a82604051610a439190611f4f565b3360009081526004602052604090206005015460ff16610d445760405162461bcd60e51b81526004016105ee9061226d565b60085460408051610120810182528281523360208201529081018490526000606082018190526080820181905260a0820190604051908082528060200260200182016040528015610d9f578160200160208202803683370190505b508152600060208083018290526001604080850182905260609094018790528583526009825291839020845181559084015191810180546001600160a01b0319166001600160a01b0390931692909217909155908201516002820190610e05908261243d565b50606082015160038201556080820151600482015560a08201518051610e35916005840191602090910190611cc6565b5060c0820151600682015560e082015160078201805460ff19169115159190911790556101008201516008820190610e6d908261243d565b5050506000818152600960205260409081902080546001820154600383015460048401546006850154600786015496517f6489302193cbf23afae4850b20a291b6d3ba62002f1c36c7a6a273510c4e641397610eea976001600160a01b0390961695600281019594936005820193909260ff1691600801906124fd565b60405180910390a160088054906000610f02836122d2565b9190505550505050565b6004602052600090815260409020805460018201546002830180546001600160a01b03909316939192610f3e906122eb565b80601f0160208091040260200160405190810160405280929190818152602001828054610f6a906122eb565b8015610fb75780601f10610f8c57610100808354040283529160200191610fb7565b820191906000526020600020905b815481529060010190602001808311610f9a57829003601f168201915b505050505090806003018054610fcc906122eb565b80601f0160208091040260200160405190810160405280929190818152602001828054610ff8906122eb565b80156110455780601f1061101a57610100808354040283529160200191611045565b820191906000526020600020905b81548152906001019060200180831161102857829003601f168201915b50505050509080600401805461105a906122eb565b80601f0160208091040260200160405190810160405280929190818152602001828054611086906122eb565b80156110d35780601f106110a8576101008083540402835291602001916110d3565b820191906000526020600020905b8154815290600101906020018083116110b657829003601f168201915b5050506005909301549192505060ff1686565b3360009081526004602052604090206005015460ff161561113f5760405162461bcd60e51b81526020600482015260136024820152725573657220616c72656164792065786973747360681b60448201526064016105ee565b600061114a600c5490565b6040805160c0810182523380825260208083018581528385018a8152606085018a905260808501899052600160a086018190526000948552600490935294909220835181546001600160a01b0319166001600160a01b0390911617815591519082015591519293509160028201906111c2908261243d565b50606082015160038201906111d7908261243d565b50608082015160048201906111ec908261243d565b5060a091909101516005918201805460ff19169115159190911790553360008181526004602052604090819020600181015493015490517faa2585f21e6456ed4a8c9a8868301bdcbcfa7435429b0189e606aba6c1692fbe9361125b9392909189918991899160ff1690611ff9565b60405180910390a1611271600c80546001019055565b50505050565b6112d16040518061012001604052806000815260200160006001600160a01b031681526020016060815260200160008152602001600081526020016060815260200160008152602001600015158152602001606081525090565b60008281526009602090815260408083208151610120810183528154815260018201546001600160a01b0316938101939093526002810180549192840191611318906122eb565b80601f0160208091040260200160405190810160405280929190818152602001828054611344906122eb565b80156113915780601f1061136657610100808354040283529160200191611391565b820191906000526020600020905b81548152906001019060200180831161137457829003601f168201915b505050505081526020016003820154815260200160048201548152602001600582018054806020026020016040519081016040528092919081815260200182805480156113fd57602002820191906000526020600020905b8154815260200190600101908083116113e9575b505050918352505060068201546020820152600782015460ff1615156040820152600882018054606090920191611433906122eb565b80601f016020809104026020016040519081016040528092919081815260200182805461145f906122eb565b80156114ac5780601f10611481576101008083540402835291602001916114ac565b820191906000526020600020905b81548152906001019060200180831161148f57829003601f168201915b50505091909252509195945050505050565b336001600160a01b038216146115265760405162461bcd60e51b815260206004820152602760248201527f4f6e6c792074686520666f6c6c6f7765722063616e2072656d6f7665207468656044820152666d73656c76657360c81b60648201526084016105ee565b6001600160a01b0380821660009081526006602090815260408083209386168352929052205460ff1661158b5760405162461bcd60e51b815260206004820152600d60248201526c4e6f7420666f6c6c6f77696e6760981b60448201526064016105ee565b6001600160a01b03808316600081815260076020908152604080832094861683529381528382205492825260059052918220549091906115cd906001906125a7565b6001600160a01b0385166000908152600560205260409020805491925090829081106115fb576115fb6125ba565b60009182526020808320909101546001600160a01b03878116845260059092526040909220805491909216919084908110611638576116386125ba565b600091825260208083209190910180546001600160a01b0319166001600160a01b03948516179055918616815260078252604080822060059093528120805485939291908490811061168c5761168c6125ba565b60009182526020808320909101546001600160a01b03908116845283820194909452604092830182209490945591871682526005909252208054806116d3576116d36125d0565b60008281526020808220830160001990810180546001600160a01b03191690559092019092556001600160a01b0385811680845260068084526040808620938a16808752938552808620805460ff19169055600785528086208387528552808620869055928552835281842090845290915290205460ff16156117985760405162461bcd60e51b815260206004820152601d60248201527f4661696c656420746f2072656d6f76652074686520666f6c6c6f77657200000060448201526064016105ee565b6001600160a01b0380851660009081526004602052604080822092861682529081902090517f609a93f9eecec6c2f7c382d0a75e0dcd5422dfa2c9570ef2ea0d58c25ea968b9926117f1926002918201929101906125e6565b60405180910390a150505050565b336001600160a01b038216146118575760405162461bcd60e51b815260206004820152601b60248201527f557365722043616e6e6f7420466f72636520466f6c6c6f77657273000000000060448201526064016105ee565b6001600160a01b03821660009081526004602052604090206005015460ff166118925760405162461bcd60e51b81526004016105ee9061226d565b6001600160a01b03811660009081526004602052604090206005015460ff166118fd5760405162461bcd60e51b815260206004820152601760248201527f466f6c6c6f77657220646f6573206e6f7420657869737400000000000000000060448201526064016105ee565b6001600160a01b0380821660009081526006602090815260408083209386168352929052205460ff16156119635760405162461bcd60e51b815260206004820152600d60248201526c4e6f7420666f6c6c6f77696e6760981b60448201526064016105ee565b6001600160a01b03828116600081815260056020908152604082208054600180820183558285529284200180546001600160a01b0319169587169590951790945591815291546119b391906125a7565b6001600160a01b038084166000818152600660209081526040808320898616808552908352818420805460ff1916600117905560078352818420858552835281842087905583526004909152808220805493835291819020805491519596507f7f97986d1d7d68a2c79189da13a1968cb1e994a7864de2a4af34be8e5f941f6295611a509594851694600294850194929092019290911690612614565b60405180910390a1505050565b60096020526000908152604090208054600182015460028301805492936001600160a01b0390921692611a8f906122eb565b80601f0160208091040260200160405190810160405280929190818152602001828054611abb906122eb565b8015611b085780601f10611add57610100808354040283529160200191611b08565b820191906000526020600020905b815481529060010190602001808311611aeb57829003601f168201915b50505060038401546004850154600686015460078701546008880180549798949793965091945060ff169291611b3d906122eb565b80601f0160208091040260200160405190810160405280929190818152602001828054611b69906122eb565b8015611bb65780601f10611b8b57610100808354040283529160200191611bb6565b820191906000526020600020905b815481529060010190602001808311611b9957829003601f168201915b5050505050905088565b60056020528160005260406000208181548110611bdc57600080fd5b6000918252602090912001546001600160a01b03169150829050565b3360009081526004602052604090206005015460ff16611c2a5760405162461bcd60e51b81526004016105ee9061226d565b33600090815260046020526040812080546001600160a01b03191681556001810182905590611c5c6002830182611d11565b611c6a600383016000611d11565b611c78600483016000611d11565b50600501805460ff19169055336000818152600460205260409081902090517f09c548a1a0ebbda4fe7f4ad39a7b6f70618bba50296b0b3aa871dce2b0dbea4c926105a6926002019161265d565b828054828255906000526020600020908101928215611d01579160200282015b82811115611d01578251825591602001919060010190611ce6565b50611d0d929150611d4e565b5090565b508054611d1d906122eb565b6000825580601f10611d2d575050565b601f016020900490600052602060002090810190611d4b9190611d4e565b50565b5b80821115611d0d5760008155600101611d4f565b80356001600160a01b0381168114611d7a57600080fd5b919050565b600060208284031215611d9157600080fd5b611d9a82611d63565b9392505050565b6020808252825182820181905260009190848201906040850190845b81811015611de25783516001600160a01b031683529284019291840191600101611dbd565b50909695505050505050565b60008060408385031215611e0157600080fd5b50508035926020909101359150565b600060208284031215611e2257600080fd5b5035919050565b634e487b7160e01b600052604160045260246000fd5b600082601f830112611e5057600080fd5b813567ffffffffffffffff80821115611e6b57611e6b611e29565b604051601f8301601f19908116603f01168101908282118183101715611e9357611e93611e29565b81604052838152866020858801011115611eac57600080fd5b836020870160208301376000602085830101528094505050505092915050565b600060208284031215611ede57600080fd5b813567ffffffffffffffff811115611ef557600080fd5b611f0184828501611e3f565b949350505050565b6000815180845260005b81811015611f2f57602081850181015186830182015201611f13565b506000602082860101526020601f19601f83011685010191505092915050565b602081526000611d9a6020830184611f09565b60008060408385031215611f7557600080fd5b611f7e83611d63565b9150611f8c60208401611d63565b90509250929050565b60008060408385031215611fa857600080fd5b823567ffffffffffffffff80821115611fc057600080fd5b611fcc86838701611e3f565b93506020850135915080821115611fe257600080fd5b50611fef85828601611e3f565b9150509250929050565b60018060a01b038716815285602082015260c06040820152600061202060c0830187611f09565b82810360608401526120328187611f09565b905082810360808401526120468186611f09565b91505082151560a0830152979650505050505050565b60008060006060848603121561207157600080fd5b833567ffffffffffffffff8082111561208957600080fd5b61209587838801611e3f565b945060208601359150808211156120ab57600080fd5b6120b787838801611e3f565b935060408601359150808211156120cd57600080fd5b506120da86828701611e3f565b9150509250925092565b600081518084526020808501945080840160005b83811015612114578151875295820195908201906001016120f8565b509495945050505050565b60208152815160208201526000602083015161214660408401826001600160a01b03169052565b506040830151610120806060850152612163610140850183611f09565b915060608501516080850152608085015160a085015260a0850151601f19808685030160c087015261219584836120e4565b935060c087015160e087015260e087015191506101006121b88188018415159052565b8701518685039091018387015290506121d18382611f09565b9695505050505050565b8881526001600160a01b0388166020820152610100604082018190526000906122068382018a611f09565b90508760608401528660808401528560a084015284151560c084015282810360e08401526122348185611f09565b9b9a5050505050505050505050565b6000806040838503121561225657600080fd5b61225f83611d63565b946020939093013593505050565b602080825260139082015272155cd95c88191bd95cc81b9bdd08195e1a5cdd606a1b604082015260600190565b6000602082840312156122ac57600080fd5b81518015158114611d9a57600080fd5b634e487b7160e01b600052601160045260246000fd5b6000600182016122e4576122e46122bc565b5060010190565b600181811c908216806122ff57607f821691505b60208210810361231f57634e487b7160e01b600052602260045260246000fd5b50919050565b60008154612332816122eb565b80855260206001838116801561234f576001811461236957612397565b60ff1985168884015283151560051b880183019550612397565b866000528260002060005b8581101561238f5781548a8201860152908301908401612374565b890184019650505b505050505092915050565b868152602081018690526001600160a01b0385811660408301528416606082015260c0608082018190526000906123db90830185612325565b90508260a0830152979650505050505050565b601f82111561243857600081815260208120601f850160051c810160208610156124155750805b601f850160051c820191505b8181101561243457828155600101612421565b5050505b505050565b815167ffffffffffffffff81111561245757612457611e29565b61246b8161246584546122eb565b846123ee565b602080601f8311600181146124a057600084156124885750858301515b600019600386901b1c1916600185901b178555612434565b600085815260208120601f198616915b828110156124cf578886015182559484019460019091019084016124b0565b50858210156124ed5787850151600019600388901b60f8161c191681555b5050505050600190811b01905550565b60006101208b8352602060018060a01b038c16818501528160408501526125268285018c612325565b606085018b9052608085018a905284810360a0860152885480825260008a81528381209450918301915b8181101561256c57845483526001948501949284019201612550565b50508760c086015261258260e086018815159052565b8481036101008601526125958187612325565b9e9d5050505050505050505050505050565b81810381811115610c8457610c846122bc565b634e487b7160e01b600052603260045260246000fd5b634e487b7160e01b600052603160045260246000fd5b6040815260006125f96040830185612325565b828103602084015261260b8185612325565b95945050505050565b600060018060a01b038087168352608060208401526126366080840187612325565b83810360408501526126488187612325565b92505080841660608401525095945050505050565b6040815260006126706040830185612325565b905060018060a01b0383166020830152939250505056fea2646970667358221220f1ec87cd018cf1d9c69bbb01efc963540233b18c6fba4436977b476a55235a7f64736f6c63430008130033",
  "immutableReferences": {},
  "source": "// SPDX-License-Identifier: MIT\npragma solidity ^0.8.19;\n\nimport './TweetToken.sol';\nimport './TweetNFT.sol';\nimport './Auction.sol';\nimport \"@openzeppelin/contracts/utils/Counters.sol\";\n\ncontract Twitter {\n\n    // Contract owner address\n    address payable public owner;\n    // Tweet Token contract\n    TweetToken public tweetToken;\n    // Tweet NFT contract\n    TweetNFT public tweetNFT;\n    // Store baseURI for NFT (IPFS);\n    string public baseURI;\n    // Store users\n    mapping(address => User) public users; \n    // Store followers for each user\n    mapping(address => address[]) public followers; \n    // Store user's following relationships \n    mapping(address => mapping(address => bool)) public following; \n    // Store the index of the follower in the _followers array (user => (follower => index))\n    mapping(address => mapping(address => uint256)) private followerIndices; \n    // Tweet ID index counter\n    uint256 private nextTweetId = 1;\n    // Store tweets\n    mapping(uint256 => Tweet) public tweets;\n    // Store liked tweets\n    mapping(address => mapping(uint256 => bool)) private likedTweets;\n    // Store auction addresses\n    mapping(uint256 => address) public tweetAuctions;\n    // Store account IDs\n    using Counters for Counters.Counter;\n    Counters.Counter private accountIds;\n\n    constructor(address payable _owner, address _tweetTokenAddress, address _nftAddress) {\n        owner = _owner;\n        tweetToken = TweetToken(_tweetTokenAddress);\n        tweetNFT = TweetNFT(_nftAddress);\n        baseURI = \"https://ipfs.io/ipfs/\";\n    }\n\n    struct User {\n        address userAddress;\n        uint256 id;\n        string name;\n        string bio;\n        string profilePictureURL;\n        bool exists;\n    }\n\n    struct Tweet {\n        uint256 id;\n        address creator;\n        string content;\n        uint256 likeCount;\n        uint256 retweetCount;\n        uint256[] tips;\n        uint256 tipCount;\n        bool exists;\n        string imageUrl;\n    }\n\n    event AccountCreated(address userAddress, uint256 id, string name, string bio, string profilePictureURL, bool exists);\n    event NameUpdated(address indexed user, string newName);\n    event BioUpdated(address indexed user, string newBio);\n    event ProfilePictureUpdated(address indexed user, string url);\n    event AccountDeleted(string name, address user);\n    event FollowerAdded(address userAddress, string user, string follower, address followerAddress);\n    event Unfollowed(string user, string follower);\n    event TweetCreated(uint256 id, address creator, string content, uint256 likeCount, uint256 retweetCount, uint256[] tips, uint256 tipCount, bool exists, string imageUrl);\n    event TweetLiked(uint256 tweetId, uint256 likeCount);\n    event ReTweeted(uint256 tweetId, uint256 retweetCount);\n    event UserTipped(uint256 amount, uint256 tweetId, address creator, address tipper, string tipperName, uint256 tipCount);\n    event TwitterReceivedFunds(address contractFrom, uint256 contractFromAmount);\n    event FundsWithdrawn(address destinationWallet, uint256 balance);\n\n    function createAccount(string memory _name, string memory _bio, string memory _profilePictureURL) public {\n        // Check if user doesn't alreadty exist\n        require(!users[msg.sender].exists, \"User already exists\");\n\n        uint256 userId = accountIds.current();\n\n        // Create a new user and store it in the mapping\n        users[msg.sender] = User({\n            userAddress: msg.sender,\n            id: userId,\n            name: _name,\n            bio: _bio,\n            profilePictureURL: _profilePictureURL,\n            exists: true\n        });\n\n        emit AccountCreated(msg.sender, users[msg.sender].id, _name, _bio, _profilePictureURL, users[msg.sender].exists);\n        accountIds.increment();\n    }\n\n    function updateName(string memory _name) public {\n        require(users[msg.sender].exists, \"User does not exist\");\n        users[msg.sender].name = _name;\n\n        emit NameUpdated(msg.sender, _name);\n    }\n\n    function updateBio(string memory _bio) public {\n        require(users[msg.sender].exists, \"User does not exist\");\n        users[msg.sender].bio = _bio;\n\n        emit BioUpdated(msg.sender, _bio);\n    }\n\n    function updateProfilePicture(string memory _url) public {\n        require(users[msg.sender].exists, \"User does not exist\");\n        users[msg.sender].profilePictureURL = _url;\n\n        emit ProfilePictureUpdated(msg.sender, _url);\n    }\n\n    function removeUser() public {\n        require(users[msg.sender].exists, \"User does not exist\");\n        delete users[msg.sender];\n\n        emit AccountDeleted(users[msg.sender].name, msg.sender);\n    }\n\n    function isFollowing(address user, address follower) public view returns (bool) {\n        return following[follower][user];\n    }\n\n    function getFollowerIndex(address user, address follower) public view returns (uint) {\n        return followerIndices[user][follower];\n    }\n\n    function becomeFollower(address user, address follower) public {\n        require(msg.sender == follower, \"User Cannot Force Followers\");\n        require(users[user].exists, \"User does not exist\");\n        require(users[follower].exists, \"Follower does not exist\");\n        require(!following[follower][user], \"Not following\");\n\n        followers[user].push(follower); // add follower to followers array for that user\n        uint256 index = followers[user].length - 1; // get index for follower\n        following[follower][user] = true; // set following status to true\n        followerIndices[user][follower] = index; // store index for follower\n\n        emit FollowerAdded(users[user].userAddress, users[user].name, users[follower].name, users[follower].userAddress);\n    }\n\n    function unfollow(address _user, address _follower) public {\n        require(msg.sender == _follower, \"Only the follower can remove themselves\");\n        require(following[_follower][_user], \"Not following\");\n\n        uint256 index = followerIndices[_user][_follower];\n        uint256 lastIndex = followers[_user].length - 1;\n\n        // Move the last follower to the index of the follower being removed\n        followers[_user][index] = followers[_user][lastIndex];\n\n        // Update the index of the moved follower\n        followerIndices[_user][followers[_user][index]] = index;\n\n        // Remove the last follower and update the following mapping\n        followers[_user].pop();\n        following[_follower][_user] = false;\n        delete followerIndices[_user][_follower];\n\n        require(!following[_user][_follower], \"Failed to remove the follower\");\n\n\n        emit Unfollowed(users[_user].name, users[_follower].name);\n    }\n\n    function getFollowerAddresses(address user) public view returns (address[] memory) {\n        require(users[user].exists, \"User does not exist\");\n        return followers[user];\n    }\n\n    function getTweet(uint256 id) public view returns (Tweet memory) {\n        Tweet memory tweet = tweets[id];\n        return tweet;\n    }\n\n    function createTweet(string memory _content, string memory _imageUrl) public {\n        require(users[msg.sender].exists, \"User does not exist\");\n\n        uint256 _tweetId = nextTweetId;\n\n        tweets[_tweetId] = Tweet({\n            id: _tweetId,\n            creator: msg.sender,\n            content: _content,\n            likeCount: 0,\n            retweetCount: 0,\n            tips: new uint256[](0),\n            tipCount: 0,\n            exists: true,\n            imageUrl: _imageUrl\n        });\n\n        emit TweetCreated(\n            tweets[_tweetId].id, \n            tweets[_tweetId].creator, \n            tweets[_tweetId].content, \n            tweets[_tweetId].likeCount, \n            tweets[_tweetId].retweetCount, \n            tweets[_tweetId].tips,\n            tweets[_tweetId].tipCount, \n            tweets[_tweetId].exists,\n            tweets[_tweetId].imageUrl\n        );\n\n        nextTweetId++;\n    }\n\n    function likeTweet(uint256 _tweetId) public {\n        require(!likedTweets[msg.sender][_tweetId], \"You have already liked this tweet\");\n        \n        tweets[_tweetId].likeCount++;\n        likedTweets[msg.sender][_tweetId] = true;\n\n        emit TweetLiked(_tweetId, tweets[_tweetId].likeCount);\n    }\n\n    function retweet(uint256 _tweetId) public {\n        require(users[msg.sender].exists, \"User does not exist\");\n        tweets[_tweetId].retweetCount++;\n\n        emit ReTweeted(_tweetId, tweets[_tweetId].retweetCount);\n    }\n\n    function tipUser(uint256 _tweetId, uint256 _amount) public {\n        require(_amount > 0, \"Amount should be greater than 0\");\n        require(tweetToken.transferFrom(msg.sender, tweets[_tweetId].creator, _amount), \"Transfer failed\");\n        tweets[_tweetId].tips.push(_amount);\n        tweets[_tweetId].tipCount++;\n\n        emit UserTipped(_amount, _tweetId, tweets[_tweetId].creator, msg.sender, users[msg.sender].name, tweets[_tweetId].tipCount);\n    }\n\n    function receiveFunds() external payable {\n        // Funds will be received and stored in the contract\n        emit TwitterReceivedFunds(msg.sender, msg.value);\n    }\n\n    function withdraw() external {\n        require(msg.sender == owner, \"Only the owner can withdraw funds\");\n        owner.transfer(address(this).balance);\n\n        emit FundsWithdrawn(msg.sender, address(this).balance);\n    }\n}",
  "sourcePath": "/Users/jamesstorage/Repos/decentralized-twitter/src/contracts/Twitter.sol",
  "compiler": {
    "name": "solc",
    "version": "0.8.19+commit.7dd6d404.Emscripten.clang"
  },
  "schemaVersion": "3.4.13",
  "updatedAt": "2023-04-08T18:38:52.982Z",
  "networkType": "ethereum",
  "devdoc": {
    "kind": "dev",
    "methods": {},
    "version": 1
  },
  "userdoc": {
    "kind": "user",
    "methods": {},
    "version": 1
  }
}