{
  "contractName": "Twitter",
  "abi": [
    {
      "inputs": [
        {
          "internalType": "address payable",
          "name": "_owner",
          "type": "address"
        },
        {
          "internalType": "address",
          "name": "_tweetTokenAddress",
          "type": "address"
        },
        {
          "internalType": "address",
          "name": "_nftAddress",
          "type": "address"
        }
      ],
      "stateMutability": "nonpayable",
      "type": "constructor"
    },
    {
      "anonymous": false,
      "inputs": [
        {
          "indexed": false,
          "internalType": "address",
          "name": "userAddress",
          "type": "address"
        },
        {
          "indexed": false,
          "internalType": "uint256",
          "name": "id",
          "type": "uint256"
        },
        {
          "indexed": false,
          "internalType": "string",
          "name": "name",
          "type": "string"
        },
        {
          "indexed": false,
          "internalType": "string",
          "name": "bio",
          "type": "string"
        },
        {
          "indexed": false,
          "internalType": "string",
          "name": "profilePictureURL",
          "type": "string"
        },
        {
          "indexed": false,
          "internalType": "bool",
          "name": "exists",
          "type": "bool"
        }
      ],
      "name": "AccountCreated",
      "type": "event"
    },
    {
      "anonymous": false,
      "inputs": [
        {
          "indexed": false,
          "internalType": "string",
          "name": "name",
          "type": "string"
        },
        {
          "indexed": false,
          "internalType": "address",
          "name": "user",
          "type": "address"
        }
      ],
      "name": "AccountDeleted",
      "type": "event"
    },
    {
      "anonymous": false,
      "inputs": [
        {
          "indexed": true,
          "internalType": "address",
          "name": "user",
          "type": "address"
        },
        {
          "indexed": false,
          "internalType": "string",
          "name": "newBio",
          "type": "string"
        }
      ],
      "name": "BioUpdated",
      "type": "event"
    },
    {
      "anonymous": false,
      "inputs": [
        {
          "indexed": false,
          "internalType": "uint256",
          "name": "tweetId",
          "type": "uint256"
        },
        {
          "indexed": false,
          "internalType": "string",
          "name": "comment",
          "type": "string"
        },
        {
          "indexed": false,
          "internalType": "address",
          "name": "commenter",
          "type": "address"
        },
        {
          "indexed": false,
          "internalType": "string",
          "name": "commenterName",
          "type": "string"
        },
        {
          "indexed": false,
          "internalType": "string",
          "name": "profilePic",
          "type": "string"
        },
        {
          "indexed": false,
          "internalType": "uint256",
          "name": "timestamp",
          "type": "uint256"
        }
      ],
      "name": "CommentAdded",
      "type": "event"
    },
    {
      "anonymous": false,
      "inputs": [
        {
          "indexed": false,
          "internalType": "address",
          "name": "token",
          "type": "address"
        },
        {
          "indexed": false,
          "internalType": "address",
          "name": "user",
          "type": "address"
        },
        {
          "indexed": false,
          "internalType": "uint256",
          "name": "amount",
          "type": "uint256"
        },
        {
          "indexed": false,
          "internalType": "uint256",
          "name": "balance",
          "type": "uint256"
        }
      ],
      "name": "Deposit",
      "type": "event"
    },
    {
      "anonymous": false,
      "inputs": [
        {
          "indexed": false,
          "internalType": "address",
          "name": "userAddress",
          "type": "address"
        },
        {
          "indexed": false,
          "internalType": "string",
          "name": "user",
          "type": "string"
        },
        {
          "indexed": false,
          "internalType": "string",
          "name": "follower",
          "type": "string"
        },
        {
          "indexed": false,
          "internalType": "address",
          "name": "followerAddress",
          "type": "address"
        }
      ],
      "name": "FollowerAdded",
      "type": "event"
    },
    {
      "anonymous": false,
      "inputs": [
        {
          "indexed": false,
          "internalType": "address",
          "name": "destinationWallet",
          "type": "address"
        },
        {
          "indexed": false,
          "internalType": "uint256",
          "name": "balance",
          "type": "uint256"
        }
      ],
      "name": "FundsWithdrawn",
      "type": "event"
    },
    {
      "anonymous": false,
      "inputs": [
        {
          "indexed": true,
          "internalType": "address",
          "name": "user",
          "type": "address"
        },
        {
          "indexed": false,
          "internalType": "string",
          "name": "newName",
          "type": "string"
        }
      ],
      "name": "NameUpdated",
      "type": "event"
    },
    {
      "anonymous": false,
      "inputs": [
        {
          "indexed": true,
          "internalType": "address",
          "name": "user",
          "type": "address"
        },
        {
          "indexed": false,
          "internalType": "string",
          "name": "url",
          "type": "string"
        }
      ],
      "name": "ProfilePictureUpdated",
      "type": "event"
    },
    {
      "anonymous": false,
      "inputs": [
        {
          "indexed": false,
          "internalType": "uint256",
          "name": "id",
          "type": "uint256"
        },
        {
          "indexed": false,
          "internalType": "address",
          "name": "creator",
          "type": "address"
        },
        {
          "indexed": false,
          "internalType": "string",
          "name": "name",
          "type": "string"
        },
        {
          "indexed": false,
          "internalType": "string",
          "name": "content",
          "type": "string"
        },
        {
          "indexed": false,
          "internalType": "string[]",
          "name": "comments",
          "type": "string[]"
        },
        {
          "indexed": false,
          "internalType": "address[]",
          "name": "likes",
          "type": "address[]"
        },
        {
          "indexed": false,
          "internalType": "uint256[]",
          "name": "tips",
          "type": "uint256[]"
        },
        {
          "indexed": false,
          "internalType": "bool",
          "name": "exists",
          "type": "bool"
        },
        {
          "indexed": false,
          "internalType": "string",
          "name": "imageUrl",
          "type": "string"
        },
        {
          "indexed": false,
          "internalType": "uint256",
          "name": "timestamp",
          "type": "uint256"
        }
      ],
      "name": "TweetCreated",
      "type": "event"
    },
    {
      "anonymous": false,
      "inputs": [
        {
          "indexed": false,
          "internalType": "uint256",
          "name": "tweetId",
          "type": "uint256"
        },
        {
          "indexed": false,
          "internalType": "address",
          "name": "liker",
          "type": "address"
        }
      ],
      "name": "TweetLiked",
      "type": "event"
    },
    {
      "anonymous": false,
      "inputs": [
        {
          "indexed": false,
          "internalType": "address",
          "name": "contractFrom",
          "type": "address"
        },
        {
          "indexed": false,
          "internalType": "uint256",
          "name": "contractFromAmount",
          "type": "uint256"
        }
      ],
      "name": "TwitterReceivedFunds",
      "type": "event"
    },
    {
      "anonymous": false,
      "inputs": [
        {
          "indexed": false,
          "internalType": "string",
          "name": "user",
          "type": "string"
        },
        {
          "indexed": false,
          "internalType": "string",
          "name": "follower",
          "type": "string"
        }
      ],
      "name": "Unfollowed",
      "type": "event"
    },
    {
      "anonymous": false,
      "inputs": [
        {
          "indexed": false,
          "internalType": "uint256",
          "name": "amount",
          "type": "uint256"
        },
        {
          "indexed": false,
          "internalType": "uint256",
          "name": "tweetId",
          "type": "uint256"
        },
        {
          "indexed": false,
          "internalType": "address",
          "name": "creator",
          "type": "address"
        },
        {
          "indexed": false,
          "internalType": "address",
          "name": "tipper",
          "type": "address"
        },
        {
          "indexed": false,
          "internalType": "string",
          "name": "tipperName",
          "type": "string"
        }
      ],
      "name": "UserTipped",
      "type": "event"
    },
    {
      "anonymous": false,
      "inputs": [
        {
          "indexed": false,
          "internalType": "address",
          "name": "token",
          "type": "address"
        },
        {
          "indexed": false,
          "internalType": "address",
          "name": "user",
          "type": "address"
        },
        {
          "indexed": false,
          "internalType": "uint256",
          "name": "amount",
          "type": "uint256"
        },
        {
          "indexed": false,
          "internalType": "uint256",
          "name": "balance",
          "type": "uint256"
        }
      ],
      "name": "Withdraw",
      "type": "event"
    },
    {
      "stateMutability": "nonpayable",
      "type": "fallback"
    },
    {
      "inputs": [
        {
          "internalType": "address",
          "name": "",
          "type": "address"
        },
        {
          "internalType": "address",
          "name": "",
          "type": "address"
        }
      ],
      "name": "balances",
      "outputs": [
        {
          "internalType": "uint256",
          "name": "",
          "type": "uint256"
        }
      ],
      "stateMutability": "view",
      "type": "function",
      "constant": true
    },
    {
      "inputs": [],
      "name": "baseURI",
      "outputs": [
        {
          "internalType": "string",
          "name": "",
          "type": "string"
        }
      ],
      "stateMutability": "view",
      "type": "function",
      "constant": true
    },
    {
      "inputs": [
        {
          "internalType": "address",
          "name": "",
          "type": "address"
        },
        {
          "internalType": "uint256",
          "name": "",
          "type": "uint256"
        }
      ],
      "name": "followers",
      "outputs": [
        {
          "internalType": "address",
          "name": "",
          "type": "address"
        }
      ],
      "stateMutability": "view",
      "type": "function",
      "constant": true
    },
    {
      "inputs": [
        {
          "internalType": "address",
          "name": "",
          "type": "address"
        },
        {
          "internalType": "address",
          "name": "",
          "type": "address"
        }
      ],
      "name": "following",
      "outputs": [
        {
          "internalType": "bool",
          "name": "",
          "type": "bool"
        }
      ],
      "stateMutability": "view",
      "type": "function",
      "constant": true
    },
    {
      "inputs": [],
      "name": "owner",
      "outputs": [
        {
          "internalType": "address payable",
          "name": "",
          "type": "address"
        }
      ],
      "stateMutability": "view",
      "type": "function",
      "constant": true
    },
    {
      "inputs": [
        {
          "internalType": "uint256",
          "name": "",
          "type": "uint256"
        }
      ],
      "name": "tweetAuctions",
      "outputs": [
        {
          "internalType": "address",
          "name": "",
          "type": "address"
        }
      ],
      "stateMutability": "view",
      "type": "function",
      "constant": true
    },
    {
      "inputs": [],
      "name": "tweetNFT",
      "outputs": [
        {
          "internalType": "contract TweetNFT",
          "name": "",
          "type": "address"
        }
      ],
      "stateMutability": "view",
      "type": "function",
      "constant": true
    },
    {
      "inputs": [],
      "name": "tweetToken",
      "outputs": [
        {
          "internalType": "contract TweetToken",
          "name": "",
          "type": "address"
        }
      ],
      "stateMutability": "view",
      "type": "function",
      "constant": true
    },
    {
      "inputs": [
        {
          "internalType": "uint256",
          "name": "",
          "type": "uint256"
        }
      ],
      "name": "tweets",
      "outputs": [
        {
          "internalType": "uint256",
          "name": "id",
          "type": "uint256"
        },
        {
          "internalType": "address",
          "name": "creator",
          "type": "address"
        },
        {
          "internalType": "string",
          "name": "name",
          "type": "string"
        },
        {
          "internalType": "string",
          "name": "content",
          "type": "string"
        },
        {
          "internalType": "bool",
          "name": "exists",
          "type": "bool"
        },
        {
          "internalType": "string",
          "name": "imageUrl",
          "type": "string"
        },
        {
          "internalType": "uint256",
          "name": "timestamp",
          "type": "uint256"
        }
      ],
      "stateMutability": "view",
      "type": "function",
      "constant": true
    },
    {
      "inputs": [
        {
          "internalType": "address",
          "name": "",
          "type": "address"
        }
      ],
      "name": "users",
      "outputs": [
        {
          "internalType": "address",
          "name": "userAddress",
          "type": "address"
        },
        {
          "internalType": "uint256",
          "name": "id",
          "type": "uint256"
        },
        {
          "internalType": "string",
          "name": "name",
          "type": "string"
        },
        {
          "internalType": "string",
          "name": "bio",
          "type": "string"
        },
        {
          "internalType": "string",
          "name": "profilePictureURL",
          "type": "string"
        },
        {
          "internalType": "bool",
          "name": "exists",
          "type": "bool"
        }
      ],
      "stateMutability": "view",
      "type": "function",
      "constant": true
    },
    {
      "inputs": [],
      "name": "depositMatic",
      "outputs": [],
      "stateMutability": "payable",
      "type": "function",
      "payable": true
    },
    {
      "inputs": [
        {
          "internalType": "uint256",
          "name": "_amount",
          "type": "uint256"
        }
      ],
      "name": "withdrawMatic",
      "outputs": [],
      "stateMutability": "nonpayable",
      "type": "function"
    },
    {
      "inputs": [
        {
          "internalType": "address",
          "name": "_token",
          "type": "address"
        },
        {
          "internalType": "uint256",
          "name": "_amount",
          "type": "uint256"
        }
      ],
      "name": "depositTweetToken",
      "outputs": [],
      "stateMutability": "nonpayable",
      "type": "function"
    },
    {
      "inputs": [
        {
          "internalType": "address",
          "name": "_token",
          "type": "address"
        },
        {
          "internalType": "uint256",
          "name": "_amount",
          "type": "uint256"
        }
      ],
      "name": "withdrawTweetToken",
      "outputs": [],
      "stateMutability": "nonpayable",
      "type": "function"
    },
    {
      "inputs": [
        {
          "internalType": "address",
          "name": "_token",
          "type": "address"
        },
        {
          "internalType": "address",
          "name": "_user",
          "type": "address"
        }
      ],
      "name": "balanceOf",
      "outputs": [
        {
          "internalType": "uint256",
          "name": "",
          "type": "uint256"
        }
      ],
      "stateMutability": "view",
      "type": "function",
      "constant": true
    },
    {
      "inputs": [
        {
          "internalType": "string",
          "name": "_name",
          "type": "string"
        },
        {
          "internalType": "string",
          "name": "_bio",
          "type": "string"
        },
        {
          "internalType": "string",
          "name": "_profilePictureURL",
          "type": "string"
        }
      ],
      "name": "createAccount",
      "outputs": [],
      "stateMutability": "nonpayable",
      "type": "function"
    },
    {
      "inputs": [
        {
          "internalType": "string",
          "name": "_name",
          "type": "string"
        }
      ],
      "name": "updateName",
      "outputs": [],
      "stateMutability": "nonpayable",
      "type": "function"
    },
    {
      "inputs": [
        {
          "internalType": "string",
          "name": "_bio",
          "type": "string"
        }
      ],
      "name": "updateBio",
      "outputs": [],
      "stateMutability": "nonpayable",
      "type": "function"
    },
    {
      "inputs": [
        {
          "internalType": "string",
          "name": "_url",
          "type": "string"
        }
      ],
      "name": "updateProfilePicture",
      "outputs": [],
      "stateMutability": "nonpayable",
      "type": "function"
    },
    {
      "inputs": [],
      "name": "removeUser",
      "outputs": [],
      "stateMutability": "nonpayable",
      "type": "function"
    },
    {
      "inputs": [
        {
          "internalType": "address",
          "name": "user",
          "type": "address"
        },
        {
          "internalType": "address",
          "name": "follower",
          "type": "address"
        }
      ],
      "name": "isFollowing",
      "outputs": [
        {
          "internalType": "bool",
          "name": "",
          "type": "bool"
        }
      ],
      "stateMutability": "view",
      "type": "function",
      "constant": true
    },
    {
      "inputs": [
        {
          "internalType": "address",
          "name": "user",
          "type": "address"
        },
        {
          "internalType": "address",
          "name": "follower",
          "type": "address"
        }
      ],
      "name": "getFollowerIndex",
      "outputs": [
        {
          "internalType": "uint256",
          "name": "",
          "type": "uint256"
        }
      ],
      "stateMutability": "view",
      "type": "function",
      "constant": true
    },
    {
      "inputs": [
        {
          "internalType": "address",
          "name": "user",
          "type": "address"
        },
        {
          "internalType": "address",
          "name": "follower",
          "type": "address"
        }
      ],
      "name": "becomeFollower",
      "outputs": [],
      "stateMutability": "nonpayable",
      "type": "function"
    },
    {
      "inputs": [
        {
          "internalType": "address",
          "name": "_user",
          "type": "address"
        },
        {
          "internalType": "address",
          "name": "_follower",
          "type": "address"
        }
      ],
      "name": "unfollow",
      "outputs": [],
      "stateMutability": "nonpayable",
      "type": "function"
    },
    {
      "inputs": [
        {
          "internalType": "address",
          "name": "user",
          "type": "address"
        }
      ],
      "name": "getFollowerAddresses",
      "outputs": [
        {
          "internalType": "address[]",
          "name": "",
          "type": "address[]"
        }
      ],
      "stateMutability": "view",
      "type": "function",
      "constant": true
    },
    {
      "inputs": [
        {
          "internalType": "uint256",
          "name": "id",
          "type": "uint256"
        }
      ],
      "name": "getTweet",
      "outputs": [
        {
          "components": [
            {
              "internalType": "uint256",
              "name": "id",
              "type": "uint256"
            },
            {
              "internalType": "address",
              "name": "creator",
              "type": "address"
            },
            {
              "internalType": "string",
              "name": "name",
              "type": "string"
            },
            {
              "internalType": "string",
              "name": "content",
              "type": "string"
            },
            {
              "internalType": "string[]",
              "name": "comments",
              "type": "string[]"
            },
            {
              "internalType": "address[]",
              "name": "likes",
              "type": "address[]"
            },
            {
              "internalType": "uint256[]",
              "name": "tips",
              "type": "uint256[]"
            },
            {
              "internalType": "bool",
              "name": "exists",
              "type": "bool"
            },
            {
              "internalType": "string",
              "name": "imageUrl",
              "type": "string"
            },
            {
              "internalType": "uint256",
              "name": "timestamp",
              "type": "uint256"
            }
          ],
          "internalType": "struct Twitter.Tweet",
          "name": "",
          "type": "tuple"
        }
      ],
      "stateMutability": "view",
      "type": "function",
      "constant": true
    },
    {
      "inputs": [
        {
          "internalType": "string",
          "name": "_content",
          "type": "string"
        },
        {
          "internalType": "string",
          "name": "_imageUrl",
          "type": "string"
        }
      ],
      "name": "createTweet",
      "outputs": [],
      "stateMutability": "nonpayable",
      "type": "function"
    },
    {
      "inputs": [
        {
          "internalType": "uint256",
          "name": "_tweetId",
          "type": "uint256"
        },
        {
          "internalType": "string",
          "name": "_comment",
          "type": "string"
        }
      ],
      "name": "createComment",
      "outputs": [],
      "stateMutability": "nonpayable",
      "type": "function"
    },
    {
      "inputs": [
        {
          "internalType": "uint256",
          "name": "_tweetId",
          "type": "uint256"
        }
      ],
      "name": "likeTweet",
      "outputs": [],
      "stateMutability": "nonpayable",
      "type": "function"
    },
    {
      "inputs": [
        {
          "internalType": "uint256",
          "name": "_tweetId",
          "type": "uint256"
        },
        {
          "internalType": "uint256",
          "name": "_amount",
          "type": "uint256"
        }
      ],
      "name": "tipUser",
      "outputs": [],
      "stateMutability": "nonpayable",
      "type": "function"
    },
    {
      "inputs": [],
      "name": "receiveFunds",
      "outputs": [],
      "stateMutability": "payable",
      "type": "function",
      "payable": true
    },
    {
      "inputs": [],
      "name": "withdraw",
      "outputs": [],
      "stateMutability": "nonpayable",
      "type": "function"
    },
    {
      "inputs": [],
      "name": "buyTweetTokens",
      "outputs": [],
      "stateMutability": "payable",
      "type": "function",
      "payable": true
    }
  ],
  "bytecode": "0x608060405260016009553480156200001657600080fd5b50604051620037a8380380620037a88339810160408190526200003991620000dc565b600080546001600160a01b038086166001600160a01b03199283161790925560018054858416908316179055600280549284169290911691909117905560408051808201909152601581527f68747470733a2f2f697066732e696f2f697066732f00000000000000000000006020820152600390620000b99082620001d5565b50505050620002a1565b6001600160a01b0381168114620000d957600080fd5b50565b600080600060608486031215620000f257600080fd5b8351620000ff81620000c3565b60208501519093506200011281620000c3565b60408501519092506200012581620000c3565b809150509250925092565b634e487b7160e01b600052604160045260246000fd5b600181811c908216806200015b57607f821691505b6020821081036200017c57634e487b7160e01b600052602260045260246000fd5b50919050565b601f821115620001d057600081815260208120601f850160051c81016020861015620001ab5750805b601f850160051c820191505b81811015620001cc57828155600101620001b7565b5050505b505050565b81516001600160401b03811115620001f157620001f162000130565b620002098162000202845462000146565b8462000182565b602080601f831160018114620002415760008415620002285750858301515b600019600386901b1c1916600185901b178555620001cc565b600085815260208120601f198616915b82811015620002725788860151825594840194600190910190840162000251565b5085821015620002915787850151600019600388901b60f8161c191681555b5050505050600190811b01905550565b6134f780620002b16000396000f3fe6080604052600436106101ed5760003560e01c80638cd14d301161010d578063ce9ae001116100a0578063e8d857b01161006f578063e8d857b0146105f7578063ebd009d31461062a578063f4b5ee4d1461064a578063f7888aec14610680578063f944f4c7146106c6576101ed565b8063ce9ae0011461055c578063d30904c714610597578063dc23abf6146105b7578063e8a379b2146105d7576101ed565b8063bc53c0c4116100dc578063bc53c0c4146104b7578063c23f001f146104d7578063c3ad5ecb1461050f578063c9f4b84a1461053c576101ed565b80638cd14d30146103eb5780638da5cb5b1461040b57806399ec3a421461042b578063a87430ba14610485576101ed565b8063565a4dc31161018557806375de982e1161015457806375de982e1461035d57806376487b381461037d578063812dca541461039d57806384da92a7146103cb576101ed565b8063565a4dc3146102c35780635802594f146102e35780635ffc6ceb1461031b5780636c0360eb1461033b576101ed565b806312b3e19f116101c157806312b3e19f1461024e578063164415ae1461026e5780633ccfd60b1461028e57806340a17985146102a3576101ed565b80625c33e1146101fe57806306369945146102085780630d95272a14610210578063101e4cf314610246575b3480156101f957600080fd5b600080fd5b6102066106db565b005b610206610716565b34801561021c57600080fd5b5061023061022b3660046128ff565b610798565b60405161023d9190612921565b60405180910390f35b610206610853565b34801561025a57600080fd5b5061020661026936600461296e565b610a04565b34801561027a57600080fd5b50610206610289366004612998565b610b5e565b34801561029a57600080fd5b50610206610cc1565b3480156102af57600080fd5b506102066102be366004612a5d565b610d95565b3480156102cf57600080fd5b506102066102de366004612aa4565b610e9a565b3480156102ef57600080fd5b50600254610303906001600160a01b031681565b6040516001600160a01b03909116815260200161023d565b34801561032757600080fd5b50610206610336366004612ae1565b610f2e565b34801561034757600080fd5b5061035061102f565b60405161023d9190612b40565b34801561036957600080fd5b50600154610303906001600160a01b031681565b34801561038957600080fd5b50610206610398366004612aa4565b6110bd565b3480156103a957600080fd5b506103bd6103b8366004612b53565b611145565b60405190815260200161023d565b3480156103d757600080fd5b506102066103e6366004612aa4565b611172565b3480156103f757600080fd5b50610206610406366004612b86565b6111fa565b34801561041757600080fd5b50600054610303906001600160a01b031681565b34801561043757600080fd5b50610475610446366004612b53565b6001600160a01b0380821660009081526007602090815260408083209386168352929052205460ff1692915050565b604051901515815260200161023d565b34801561049157600080fd5b506104a56104a03660046128ff565b61152b565b60405161023d96959493929190612be0565b3480156104c357600080fd5b506102066104d2366004612c43565b611705565b3480156104e357600080fd5b506103bd6104f2366004612b53565b600560209081526000928352604080842090915290825290205481565b34801561051b57600080fd5b5061052f61052a366004612ae1565b611896565b60405161023d9190612d94565b34801561054857600080fd5b50610206610557366004612b53565b611c9d565b34801561056857600080fd5b50610475610577366004612b53565b600760209081526000928352604080842090915290825290205460ff1681565b3480156105a357600080fd5b506102066105b236600461296e565b611fde565b3480156105c357600080fd5b506102066105d2366004612b53565b612102565b3480156105e357600080fd5b506102066105f2366004612ae1565b612360565b34801561060357600080fd5b50610617610612366004612ae1565b612496565b60405161023d9796959493929190612e97565b34801561063657600080fd5b5061030361064536600461296e565b61267c565b34801561065657600080fd5b50610303610665366004612ae1565b600c602052600090815260409020546001600160a01b031681565b34801561068c57600080fd5b506103bd61069b366004612b53565b6001600160a01b03918216600090815260056020908152604080832093909416825291909152205490565b3480156106d257600080fd5b506102066126b4565b604080513381523460208201527f873db5b09b82c3e95b44a29e65520b545f452255c7af9aec662dad62294a983591015b60405180910390a1565b3360009081526000805160206134a2833981519152602052604081208054349290610742908490612f1a565b90915550503360008181526000805160206134a283398151915260205260408082205490517fdcbc1c05240f31ff3ad067ef1ee35ce4997762752e3a095284754544f4c709d79361070c93929091349190612f2d565b6001600160a01b03811660009081526004602052604090206005015460609060ff166107df5760405162461bcd60e51b81526004016107d690612f56565b60405180910390fd5b6001600160a01b0382166000908152600660209081526040918290208054835181840281018401909452808452909183018282801561084757602002820191906000526020600020905b81546001600160a01b03168152600190910190602001808311610829575b50505050509050919050565b600034116108b25760405162461bcd60e51b815260206004820152602660248201527f596f75206d7573742073656e6420736f6d65204d4154494320746f2062757920604482015265746f6b656e7360d01b60648201526084016107d6565b60006108c06103e834612f83565b6001546040516370a0823160e01b815230600482015291925082916001600160a01b03909116906370a0823190602401602060405180830381865afa15801561090d573d6000803e3d6000fd5b505050506040513d601f19601f820116820180604052508101906109319190612f9a565b101561098b5760405162461bcd60e51b815260206004820152602360248201527f496e73756666696369656e7420547765657420546f6b656e7320617661696c61604482015262626c6560e81b60648201526084016107d6565b60015460405163a9059cbb60e01b8152336004820152602481018390526001600160a01b039091169063a9059cbb906044016020604051808303816000875af11580156109dc573d6000803e3d6000fd5b505050506040513d601f19601f82011682018060405250810190610a009190612fb3565b5050565b6001600160a01b038216610a1757600080fd5b6001600160a01b0382166000908152600560209081526040808320338452909152902054811115610a4757600080fd5b6001600160a01b038216600090815260056020908152604080832033845290915281208054839290610a7a908490612fd5565b909155505060405163a9059cbb60e01b8152336004820152602481018290526001600160a01b0383169063a9059cbb906044016020604051808303816000875af1158015610acc573d6000803e3d6000fd5b505050506040513d601f19601f82011682018060405250810190610af09190612fb3565b610af957600080fd5b6001600160a01b0382166000908152600560209081526040808320338085529252918290205491517ff341246adaac6f497bc2a656f546ab9e182111d630394f0c57c710a59a2cb56792610b5292869290918691612f2d565b60405180910390a15050565b60008111610bae5760405162461bcd60e51b815260206004820152601f60248201527f416d6f756e742073686f756c642062652067726561746572207468616e20300060448201526064016107d6565b600180546000848152600a6020526040908190209092015491516323b872dd60e01b81523360048201526001600160a01b039283166024820152604481018490529116906323b872dd906064016020604051808303816000875af1158015610c1a573d6000803e3d6000fd5b505050506040513d601f19601f82011682018060405250810190610c3e9190612fb3565b610c4757600080fd5b6000828152600a60209081526040808320600681018054600181810183559186528486200186905501543380855260049093529281902090517f6098a8ae5ae7c421a371177a4fedd3db1a412b92765d57396e8bae7bc4bb029d93610b5293869388936001600160a01b039093169260029091019061309f565b6000546001600160a01b03163314610d255760405162461bcd60e51b815260206004820152602160248201527f4f6e6c7920746865206f776e65722063616e2077697468647261772066756e646044820152607360f81b60648201526084016107d6565b600080546040516001600160a01b03909116914780156108fc02929091818181858888f19350505050158015610d5f573d6000803e3d6000fd5b50604080513381524760208201527feaff4b37086828766ad3268786972c0cd24259d4c87a80f9d3963a3c3d999b0d910161070c565b3360009081526004602052604090206005015460ff16610dc75760405162461bcd60e51b81526004016107d690612f56565b6000828152600a602052604090206007015460ff16610e1f5760405162461bcd60e51b8152602060048201526014602482015273151dd9595d08191bd95cc81b9bdd08195e1a5cdd60621b60448201526064016107d6565b6000828152600a6020908152604082206004018054600181018255908352912001610e4a8282613132565b503360008181526004602081905260409182902091517f0318f5dec6e128a84b442e326c36cd7d6e74d429c209d952374dd57a4c28835293610b52938793879360028301929091019042906131f2565b3360009081526004602052604090206005015460ff16610ecc5760405162461bcd60e51b81526004016107d690612f56565b33600090815260046020819052604090912001610ee98282613132565b50336001600160a01b03167f6b397bb88467b92a1774b4b19bf728f2673bf763d0bd7a571d17714ba7bd8c6c82604051610f239190612b40565b60405180910390a250565b336000908152600b6020908152604080832084845290915290205460ff1615610fa35760405162461bcd60e51b815260206004820152602160248201527f596f75206861766520616c7265616479206c696b6564207468697320747765656044820152601d60fa1b60648201526084016107d6565b336000818152600b602090815260408083208584528252808320805460ff19166001908117909155600a83528184206005018054918201815584529282902090920180546001600160a01b031916841790558151848152908101929092527f33b8f513b5466d89f2a96589e6e48f7682fddc5debd283e6bb921ed3bba52b78910160405180910390a150565b6003805461103c90612fe8565b80601f016020809104026020016040519081016040528092919081815260200182805461106890612fe8565b80156110b55780601f1061108a576101008083540402835291602001916110b5565b820191906000526020600020905b81548152906001019060200180831161109857829003601f168201915b505050505081565b3360009081526004602052604090206005015460ff166110ef5760405162461bcd60e51b81526004016107d690612f56565b33600090815260046020526040902060030161110b8282613132565b50336001600160a01b03167f3f838a7d0889a59b2445af5389196b3948170278848eb90d8d256ab14aaf4cf082604051610f239190612b40565b6001600160a01b038083166000908152600860209081526040808320938516835292905220545b92915050565b3360009081526004602052604090206005015460ff166111a45760405162461bcd60e51b81526004016107d690612f56565b3360009081526004602052604090206002016111c08282613132565b50336001600160a01b03167f74321da206c1b9fa34367f7ece59ca49371dcd13820b9a5c3767ae1ecceed51a82604051610f239190612b40565b3360009081526004602052604090206005015460ff1661122c5760405162461bcd60e51b81526004016107d690612f56565b60095460408051610140810182528281523360208083018290526000918252600490528290206002018054919283019161126590612fe8565b80601f016020809104026020016040519081016040528092919081815260200182805461129190612fe8565b80156112de5780601f106112b3576101008083540402835291602001916112de565b820191906000526020600020905b8154815290600101906020018083116112c157829003601f168201915b5050509183525050602080820186905260408051600080825292810182529201919061131a565b60608152602001906001900390816113055790505b508152602001600060405190808252806020026020018201604052801561134b578160200160208202803683370190505b508152602001600060405190808252806020026020018201604052801561137c578160200160208202803683370190505b508152600160208083018290526040808401879052426060909401939093526000858152600a8252839020845181559084015191810180546001600160a01b0319166001600160a01b03909316929092179091559082015160028201906113e39082613132565b50606082015160038201906113f89082613132565b5060808201518051611414916004840191602090910190612782565b5060a082015180516114309160058401916020909101906127d8565b5060c0820151805161144c916006840191602090910190612839565b5060e082015160078201805460ff1916911515919091179055610100820151600882019061147a9082613132565b5061012091909101516009918201556000828152600a6020526040908190208054600182015460078301549483015493517f3cdf52fd79ee382dbae2d15851951553d186e835ab4934815372f95dcb689374956115099593946001600160a01b03909316936002840193600381019360048201936005830193600684019360ff909216926008909201916132c7565b60405180910390a160098054906000611521836133bb565b9190505550505050565b6004602052600090815260409020805460018201546002830180546001600160a01b0390931693919261155d90612fe8565b80601f016020809104026020016040519081016040528092919081815260200182805461158990612fe8565b80156115d65780601f106115ab576101008083540402835291602001916115d6565b820191906000526020600020905b8154815290600101906020018083116115b957829003601f168201915b5050505050908060030180546115eb90612fe8565b80601f016020809104026020016040519081016040528092919081815260200182805461161790612fe8565b80156116645780601f1061163957610100808354040283529160200191611664565b820191906000526020600020905b81548152906001019060200180831161164757829003601f168201915b50505050509080600401805461167990612fe8565b80601f01602080910402602001604051908101604052809291908181526020018280546116a590612fe8565b80156116f25780601f106116c7576101008083540402835291602001916116f2565b820191906000526020600020905b8154815290600101906020018083116116d557829003601f168201915b5050506005909301549192505060ff1686565b3360009081526004602052604090206005015460ff161561175e5760405162461bcd60e51b81526020600482015260136024820152725573657220616c72656164792065786973747360681b60448201526064016107d6565b6000611769600d5490565b6040805160c0810182523380825260208083018581528385018a8152606085018a905260808501899052600160a086018190526000948552600490935294909220835181546001600160a01b0319166001600160a01b0390911617815591519082015591519293509160028201906117e19082613132565b50606082015160038201906117f69082613132565b506080820151600482019061180b9082613132565b5060a091909101516005918201805460ff19169115159190911790553360008181526004602052604090819020600181015493015490517faa2585f21e6456ed4a8c9a8868301bdcbcfa7435429b0189e606aba6c1692fbe9361187a9392909189918991899160ff1690612be0565b60405180910390a1611890600d80546001019055565b50505050565b6118f76040518061014001604052806000815260200160006001600160a01b03168152602001606081526020016060815260200160608152602001606081526020016060815260200160001515815260200160608152602001600081525090565b6000828152600a602090815260408083208151610140810183528154815260018201546001600160a01b031693810193909352600281018054919284019161193e90612fe8565b80601f016020809104026020016040519081016040528092919081815260200182805461196a90612fe8565b80156119b75780601f1061198c576101008083540402835291602001916119b7565b820191906000526020600020905b81548152906001019060200180831161199a57829003601f168201915b505050505081526020016003820180546119d090612fe8565b80601f01602080910402602001604051908101604052809291908181526020018280546119fc90612fe8565b8015611a495780601f10611a1e57610100808354040283529160200191611a49565b820191906000526020600020905b815481529060010190602001808311611a2c57829003601f168201915b5050505050815260200160048201805480602002602001604051908101604052809291908181526020016000905b82821015611b23578382906000526020600020018054611a9690612fe8565b80601f0160208091040260200160405190810160405280929190818152602001828054611ac290612fe8565b8015611b0f5780601f10611ae457610100808354040283529160200191611b0f565b820191906000526020600020905b815481529060010190602001808311611af257829003601f168201915b505050505081526020019060010190611a77565b50505050815260200160058201805480602002602001604051908101604052809291908181526020018280548015611b8457602002820191906000526020600020905b81546001600160a01b03168152600190910190602001808311611b66575b5050505050815260200160068201805480602002602001604051908101604052809291908181526020018280548015611bdc57602002820191906000526020600020905b815481526020019060010190808311611bc8575b5050509183525050600782015460ff1615156020820152600882018054604090920191611c0890612fe8565b80601f0160208091040260200160405190810160405280929190818152602001828054611c3490612fe8565b8015611c815780601f10611c5657610100808354040283529160200191611c81565b820191906000526020600020905b815481529060010190602001808311611c6457829003601f168201915b5050509183525050600991909101546020909101529392505050565b336001600160a01b03821614611d055760405162461bcd60e51b815260206004820152602760248201527f4f6e6c792074686520666f6c6c6f7765722063616e2072656d6f7665207468656044820152666d73656c76657360c81b60648201526084016107d6565b6001600160a01b0380821660009081526007602090815260408083209386168352929052205460ff16611d6a5760405162461bcd60e51b815260206004820152600d60248201526c4e6f7420666f6c6c6f77696e6760981b60448201526064016107d6565b6001600160a01b0380831660008181526008602090815260408083209486168352938152838220549282526006905291822054909190611dac90600190612fd5565b6001600160a01b038516600090815260066020526040902080549192509082908110611dda57611dda6133d4565b60009182526020808320909101546001600160a01b03878116845260069092526040909220805491909216919084908110611e1757611e176133d4565b600091825260208083209190910180546001600160a01b0319166001600160a01b039485161790559186168152600882526040808220600690935281208054859392919084908110611e6b57611e6b6133d4565b60009182526020808320909101546001600160a01b0390811684528382019490945260409283018220949094559187168252600690925220805480611eb257611eb26133ea565b60008281526020808220830160001990810180546001600160a01b03191690559092019092556001600160a01b0385811680845260078084526040808620938a16808752938552808620805460ff19169055600885528086208387528552808620869055928552835281842090845290915290205460ff1615611f775760405162461bcd60e51b815260206004820152601d60248201527f4661696c656420746f2072656d6f76652074686520666f6c6c6f77657200000060448201526064016107d6565b6001600160a01b0380851660009081526004602052604080822092861682529081902090517f609a93f9eecec6c2f7c382d0a75e0dcd5422dfa2c9570ef2ea0d58c25ea968b992611fd092600291820192910190613400565b60405180910390a150505050565b6001600160a01b038216611ff157600080fd5b6040516323b872dd60e01b8152336004820152306024820152604481018290526001600160a01b038316906323b872dd906064016020604051808303816000875af1158015612044573d6000803e3d6000fd5b505050506040513d601f19601f820116820180604052508101906120689190612fb3565b61207157600080fd5b6001600160a01b0382166000908152600560209081526040808320338452909152812080548392906120a4908490612f1a565b90915550506001600160a01b0382166000908152600560209081526040808320338085529252918290205491517fdcbc1c05240f31ff3ad067ef1ee35ce4997762752e3a095284754544f4c709d792610b5292869290918691612f2d565b336001600160a01b0382161461215a5760405162461bcd60e51b815260206004820152601b60248201527f557365722043616e6e6f7420466f72636520466f6c6c6f77657273000000000060448201526064016107d6565b6001600160a01b03821660009081526004602052604090206005015460ff166121955760405162461bcd60e51b81526004016107d690612f56565b6001600160a01b03811660009081526004602052604090206005015460ff166122005760405162461bcd60e51b815260206004820152601760248201527f466f6c6c6f77657220646f6573206e6f7420657869737400000000000000000060448201526064016107d6565b6001600160a01b0380821660009081526007602090815260408083209386168352929052205460ff16156122665760405162461bcd60e51b815260206004820152600d60248201526c4e6f7420666f6c6c6f77696e6760981b60448201526064016107d6565b6001600160a01b03828116600081815260066020908152604082208054600180820183558285529284200180546001600160a01b0319169587169590951790945591815291546122b69190612fd5565b6001600160a01b038084166000818152600760209081526040808320898616808552908352818420805460ff1916600117905560088352818420858552835281842087905583526004909152808220805493835291819020805491519596507f7f97986d1d7d68a2c79189da13a1968cb1e994a7864de2a4af34be8e5f941f6295612353959485169460029485019492909201929091169061342e565b60405180910390a1505050565b3360009081526000805160206134a2833981519152602052604090205481111561238957600080fd5b3360009081526000805160206134a28339815191526020526040812080548392906123b5908490612fd5565b9091555050604051600090339083908381818185875af1925050503d80600081146123fc576040519150601f19603f3d011682016040523d82523d6000602084013e612401565b606091505b50509050806124455760405162461bcd60e51b815260206004820152601060248201526f2a3930b739b332b9103330b4b632b21760811b60448201526064016107d6565b3360008181526000805160206134a283398151915260205260408082205490517ff341246adaac6f497bc2a656f546ab9e182111d630394f0c57c710a59a2cb56793610b5293929091879190612f2d565b600a6020526000908152604090208054600182015460028301805492936001600160a01b03909216926124c890612fe8565b80601f01602080910402602001604051908101604052809291908181526020018280546124f490612fe8565b80156125415780601f1061251657610100808354040283529160200191612541565b820191906000526020600020905b81548152906001019060200180831161252457829003601f168201915b50505050509080600301805461255690612fe8565b80601f016020809104026020016040519081016040528092919081815260200182805461258290612fe8565b80156125cf5780601f106125a4576101008083540402835291602001916125cf565b820191906000526020600020905b8154815290600101906020018083116125b257829003601f168201915b5050506007840154600885018054949560ff9092169491935091506125f390612fe8565b80601f016020809104026020016040519081016040528092919081815260200182805461261f90612fe8565b801561266c5780601f106126415761010080835404028352916020019161266c565b820191906000526020600020905b81548152906001019060200180831161264f57829003601f168201915b5050505050908060090154905087565b6006602052816000526040600020818154811061269857600080fd5b6000918252602090912001546001600160a01b03169150829050565b3360009081526004602052604090206005015460ff166126e65760405162461bcd60e51b81526004016107d690612f56565b33600090815260046020526040812080546001600160a01b031916815560018101829055906127186002830182612874565b612726600383016000612874565b612734600483016000612874565b50600501805460ff19169055336000818152600460205260409081902090517f09c548a1a0ebbda4fe7f4ad39a7b6f70618bba50296b0b3aa871dce2b0dbea4c9261070c9260020191613477565b8280548282559060005260206000209081019282156127c8579160200282015b828111156127c857825182906127b89082613132565b50916020019190600101906127a2565b506127d49291506128b1565b5090565b82805482825590600052602060002090810192821561282d579160200282015b8281111561282d57825182546001600160a01b0319166001600160a01b039091161782556020909201916001909101906127f8565b506127d49291506128ce565b82805482825590600052602060002090810192821561282d579160200282015b8281111561282d578251825591602001919060010190612859565b50805461288090612fe8565b6000825580601f10612890575050565b601f0160209004906000526020600020908101906128ae91906128ce565b50565b808211156127d45760006128c58282612874565b506001016128b1565b5b808211156127d457600081556001016128cf565b80356001600160a01b03811681146128fa57600080fd5b919050565b60006020828403121561291157600080fd5b61291a826128e3565b9392505050565b6020808252825182820181905260009190848201906040850190845b818110156129625783516001600160a01b03168352928401929184019160010161293d565b50909695505050505050565b6000806040838503121561298157600080fd5b61298a836128e3565b946020939093013593505050565b600080604083850312156129ab57600080fd5b50508035926020909101359150565b634e487b7160e01b600052604160045260246000fd5b600082601f8301126129e157600080fd5b813567ffffffffffffffff808211156129fc576129fc6129ba565b604051601f8301601f19908116603f01168101908282118183101715612a2457612a246129ba565b81604052838152866020858801011115612a3d57600080fd5b836020870160208301376000602085830101528094505050505092915050565b60008060408385031215612a7057600080fd5b82359150602083013567ffffffffffffffff811115612a8e57600080fd5b612a9a858286016129d0565b9150509250929050565b600060208284031215612ab657600080fd5b813567ffffffffffffffff811115612acd57600080fd5b612ad9848285016129d0565b949350505050565b600060208284031215612af357600080fd5b5035919050565b6000815180845260005b81811015612b2057602081850181015186830182015201612b04565b506000602082860101526020601f19601f83011685010191505092915050565b60208152600061291a6020830184612afa565b60008060408385031215612b6657600080fd5b612b6f836128e3565b9150612b7d602084016128e3565b90509250929050565b60008060408385031215612b9957600080fd5b823567ffffffffffffffff80821115612bb157600080fd5b612bbd868387016129d0565b93506020850135915080821115612bd357600080fd5b50612a9a858286016129d0565b60018060a01b038716815285602082015260c060408201526000612c0760c0830187612afa565b8281036060840152612c198187612afa565b90508281036080840152612c2d8186612afa565b91505082151560a0830152979650505050505050565b600080600060608486031215612c5857600080fd5b833567ffffffffffffffff80821115612c7057600080fd5b612c7c878388016129d0565b94506020860135915080821115612c9257600080fd5b612c9e878388016129d0565b93506040860135915080821115612cb457600080fd5b50612cc1868287016129d0565b9150509250925092565b600081518084526020808501808196508360051b8101915082860160005b85811015612d13578284038952612d01848351612afa565b98850198935090840190600101612ce9565b5091979650505050505050565b600081518084526020808501945080840160005b83811015612d595781516001600160a01b031687529582019590820190600101612d34565b509495945050505050565b600081518084526020808501945080840160005b83811015612d5957815187529582019590820190600101612d78565b602081528151602082015260006020830151612dbb60408401826001600160a01b03169052565b506040830151610140806060850152612dd8610160850183612afa565b91506060850151601f1980868503016080870152612df68483612afa565b935060808701519150808685030160a0870152612e138483612ccb565b935060a08701519150808685030160c0870152612e308483612d20565b935060c08701519150808685030160e0870152612e4d8483612d64565b935060e08701519150610100612e668188018415159052565b80880151925050610120818786030181880152612e838584612afa565b970151959092019490945250929392505050565b8781526001600160a01b038716602082015260e060408201819052600090612ec190830188612afa565b8281036060840152612ed38188612afa565b9050851515608084015282810360a0840152612eef8186612afa565b9150508260c083015298975050505050505050565b634e487b7160e01b600052601160045260246000fd5b8082018082111561116c5761116c612f04565b6001600160a01b0394851681529290931660208301526040820152606081019190915260800190565b602080825260139082015272155cd95c88191bd95cc81b9bdd08195e1a5cdd606a1b604082015260600190565b808202811582820484141761116c5761116c612f04565b600060208284031215612fac57600080fd5b5051919050565b600060208284031215612fc557600080fd5b8151801515811461291a57600080fd5b8181038181111561116c5761116c612f04565b600181811c90821680612ffc57607f821691505b60208210810361301c57634e487b7160e01b600052602260045260246000fd5b50919050565b6000815461302f81612fe8565b80855260206001838116801561304c576001811461306657613094565b60ff1985168884015283151560051b880183019550613094565b866000528260002060005b8581101561308c5781548a8201860152908301908401613071565b890184019650505b505050505092915050565b858152602081018590526001600160a01b0384811660408301528316606082015260a0608082018190526000906130d890830184613022565b979650505050505050565b601f82111561312d57600081815260208120601f850160051c8101602086101561310a5750805b601f850160051c820191505b8181101561312957828155600101613116565b5050505b505050565b815167ffffffffffffffff81111561314c5761314c6129ba565b6131608161315a8454612fe8565b846130e3565b602080601f831160018114613195576000841561317d5750858301515b600019600386901b1c1916600185901b178555613129565b600085815260208120601f198616915b828110156131c4578886015182559484019460019091019084016131a5565b50858210156131e25787850151600019600388901b60f8161c191681555b5050505050600190811b01905550565b86815260c06020820152600061320b60c0830188612afa565b6001600160a01b0387166040840152828103606084015261322c8187613022565b905082810360808401526132408186613022565b9150508260a0830152979650505050505050565b6000815480845260208085019450836000528060002060005b83811015612d595781546001600160a01b03168752958201956001918201910161326d565b6000815480845260208085019450836000528060002060005b83811015612d59578154875295820195600191820191016132ab565b60006101408c8352602060018060a01b038d16818501528160408501526132f08285018d613022565b91508382036060850152613304828c613022565b91508382036080850152818a548084528284019150828160051b8501018c6000528360002060005b8381101561335957868303601f190185526133478383613022565b9486019492506001918201910161332c565b505086810360a088015261336d818d613254565b94505050505082810360c08401526133858188613292565b86151560e085015290508281036101008401526133a28186613022565b915050826101208301529b9a5050505050505050505050565b6000600182016133cd576133cd612f04565b5060010190565b634e487b7160e01b600052603260045260246000fd5b634e487b7160e01b600052603160045260246000fd5b6040815260006134136040830185613022565b82810360208401526134258185613022565b95945050505050565b600060018060a01b038087168352608060208401526134506080840187613022565b83810360408501526134628187613022565b92505080841660608401525095945050505050565b60408152600061348a6040830185613022565b905060018060a01b0383166020830152939250505056fe05b8ccbb9d4d8fb16ea74ce3c29a41f1b461fbdaff4714a0d9a8eb05499746bca2646970667358221220eb76d48e1e89abdac928fcc887ee6568d6183beb5908b338f2d06ded32e9bec564736f6c63430008130033",
  "immutableReferences": {},
  "source": "// SPDX-License-Identifier: MIT\npragma solidity ^0.8.19;\n\nimport './TweetToken.sol';\nimport './TweetNFT.sol';\nimport './Auction.sol';\nimport \"@openzeppelin/contracts/utils/Counters.sol\";\n\ncontract Twitter {\n\n    address constant MATIC = address(0);    \n    address payable public owner;    \n    TweetToken public tweetToken;    \n    uint256 private constant conversionRate = 1000; // 1 MATIC = 1000 TWEET\n    TweetNFT public tweetNFT;    \n    string public baseURI;    \n    mapping(address => User) public users;    \n    mapping(address => mapping(address => uint256)) public balances; \n    mapping(address => address[]) public followers;     \n    mapping(address => mapping(address => bool)) public following;     \n    mapping(address => mapping(address => uint256)) private followerIndices;     \n    uint256 private nextTweetId = 1;    \n    mapping(uint256 => Tweet) public tweets;    \n    mapping(address => mapping(uint256 => bool)) private likedTweets;    \n    mapping(uint256 => address) public tweetAuctions;    \n\n    using Counters for Counters.Counter;\n    Counters.Counter private accountIds;\n\n    constructor(address payable _owner, address _tweetTokenAddress, address _nftAddress) {\n        owner = _owner;\n        tweetToken = TweetToken(_tweetTokenAddress);\n        tweetNFT = TweetNFT(_nftAddress);\n        baseURI = \"https://ipfs.io/ipfs/\";\n    }\n    \n    modifier onlyOwner {\n        require(msg.sender == owner, \"Caller is not the owner\");\n        _;\n    }\n\n    fallback() external {\n        revert();\n    }\n\n    struct User {\n        address userAddress;\n        uint256 id;\n        string name;\n        string bio;\n        string profilePictureURL;\n        bool exists;\n    }\n\n    struct Tweet {\n        uint256 id;\n        address creator;\n        string name;\n        string content;\n        string[] comments;\n        address[] likes;\n        uint256[] tips;\n        bool exists;\n        string imageUrl;\n        uint256 timestamp;\n    }\n\n    event Deposit(address token, address user, uint256 amount, uint256 balance);\n    event Withdraw(address token, address user, uint256 amount, uint256 balance);\n    event AccountCreated(address userAddress, uint256 id, string name, string bio, string profilePictureURL, bool exists);\n    event NameUpdated(address indexed user, string newName);\n    event BioUpdated(address indexed user, string newBio);\n    event ProfilePictureUpdated(address indexed user, string url);\n    event AccountDeleted(string name, address user);\n    event FollowerAdded(address userAddress, string user, string follower, address followerAddress);\n    event Unfollowed(string user, string follower);\n    event TweetCreated(uint256 id, address creator, string name, string content, string[] comments, address[] likes, uint256[] tips, bool exists, string imageUrl, uint256 timestamp);\n    event CommentAdded(uint256 tweetId, string comment, address commenter, string commenterName, string profilePic, uint256 timestamp);\n    event TweetLiked(uint256 tweetId, address liker);\n    event UserTipped(uint256 amount, uint256 tweetId, address creator, address tipper, string tipperName);\n    event TwitterReceivedFunds(address contractFrom, uint256 contractFromAmount);\n    event FundsWithdrawn(address destinationWallet, uint256 balance);\n\n    function depositMatic() payable public {\n        balances[MATIC][msg.sender] += msg.value;\n        emit Deposit(MATIC, msg.sender, msg.value, balances[MATIC][msg.sender]);\n    }\n\n    function withdrawMatic(uint _amount) public {\n        require(balances[MATIC][msg.sender] >= _amount);\n        balances[MATIC][msg.sender] -= _amount;\n        (bool success, ) = msg.sender.call{value: _amount}(\"\");\n        require(success, \"Transfer failed.\");\n        emit Withdraw(MATIC, msg.sender, _amount, balances[MATIC][msg.sender]);\n    }\n\n    function depositTweetToken(address _token, uint256 _amount) public {\n        require(_token != MATIC);\n        require(TweetToken(_token).transferFrom(msg.sender, address(this), _amount));\n        balances[_token][msg.sender] += _amount; \n        emit Deposit(_token, msg.sender, _amount, balances[_token][msg.sender]);\n    }\n\n    function withdrawTweetToken(address _token, uint256 _amount) public {\n        require(_token != address(0));\n        require(balances[_token][msg.sender] >= _amount);\n        balances[_token][msg.sender] -= _amount;\n        require(TweetToken(_token).transfer(msg.sender, _amount));\n        emit Withdraw(_token, msg.sender, _amount, balances[_token][msg.sender]);\n    }\n\n    function balanceOf(address _token, address _user) public view returns (uint256) {\n        return balances[_token][_user];\n    }\n\n    function createAccount(string memory _name, string memory _bio, string memory _profilePictureURL) public {\n        // Check if user doesn't alreadty exist\n        require(!users[msg.sender].exists, \"User already exists\");\n\n        uint256 userId = accountIds.current();\n\n        // Create a new user and store it in the mapping\n        users[msg.sender] = User({\n            userAddress: msg.sender,\n            id: userId,\n            name: _name,\n            bio: _bio,\n            profilePictureURL: _profilePictureURL,\n            exists: true\n        });\n\n        emit AccountCreated(msg.sender, users[msg.sender].id, _name, _bio, _profilePictureURL, users[msg.sender].exists);\n        accountIds.increment();\n    }\n\n    function updateName(string memory _name) public {\n        require(users[msg.sender].exists, \"User does not exist\");\n        users[msg.sender].name = _name;\n\n        emit NameUpdated(msg.sender, _name);\n    }\n\n    function updateBio(string memory _bio) public {\n        require(users[msg.sender].exists, \"User does not exist\");\n        users[msg.sender].bio = _bio;\n\n        emit BioUpdated(msg.sender, _bio);\n    }\n\n    function updateProfilePicture(string memory _url) public {\n        require(users[msg.sender].exists, \"User does not exist\");\n        users[msg.sender].profilePictureURL = _url;\n\n        emit ProfilePictureUpdated(msg.sender, _url);\n    }\n\n    function removeUser() public {\n        require(users[msg.sender].exists, \"User does not exist\");\n        delete users[msg.sender];\n\n        emit AccountDeleted(users[msg.sender].name, msg.sender);\n    }\n\n    function isFollowing(address user, address follower) public view returns (bool) {\n        return following[follower][user];\n    }\n\n    function getFollowerIndex(address user, address follower) public view returns (uint) {\n        return followerIndices[user][follower];\n    }\n\n    function becomeFollower(address user, address follower) public {\n        require(msg.sender == follower, \"User Cannot Force Followers\");\n        require(users[user].exists, \"User does not exist\");\n        require(users[follower].exists, \"Follower does not exist\");\n        require(!following[follower][user], \"Not following\");\n\n        followers[user].push(follower); // add follower to followers array for that user\n        uint256 index = followers[user].length - 1; // get index for follower\n        following[follower][user] = true; // set following status to true\n        followerIndices[user][follower] = index; // store index for follower\n\n        emit FollowerAdded(users[user].userAddress, users[user].name, users[follower].name, users[follower].userAddress);\n    }\n\n    function unfollow(address _user, address _follower) public {\n        require(msg.sender == _follower, \"Only the follower can remove themselves\");\n        require(following[_follower][_user], \"Not following\");\n\n        uint256 index = followerIndices[_user][_follower];\n        uint256 lastIndex = followers[_user].length - 1;\n\n        // Move the last follower to the index of the follower being removed\n        followers[_user][index] = followers[_user][lastIndex];\n\n        // Update the index of the moved follower\n        followerIndices[_user][followers[_user][index]] = index;\n\n        // Remove the last follower and update the following mapping\n        followers[_user].pop();\n        following[_follower][_user] = false;\n        delete followerIndices[_user][_follower];\n\n        require(!following[_user][_follower], \"Failed to remove the follower\");\n\n\n        emit Unfollowed(users[_user].name, users[_follower].name);\n    }\n\n    function getFollowerAddresses(address user) public view returns (address[] memory) {\n        require(users[user].exists, \"User does not exist\");\n        return followers[user];\n    }\n\n    function getTweet(uint256 id) public view returns (Tweet memory) {\n        Tweet memory tweet = tweets[id];\n        return tweet;\n    }\n\n    function createTweet(string memory _content, string memory _imageUrl) public {\n        require(users[msg.sender].exists, \"User does not exist\");\n\n        uint256 _tweetId = nextTweetId;\n\n        tweets[_tweetId] = Tweet({\n            id: _tweetId,\n            name: users[msg.sender].name,\n            creator: msg.sender,\n            content: _content,\n            comments: new string[](0),\n            likes: new address[](0),                                    \n            tips: new uint256[](0),            \n            exists: true,\n            imageUrl: _imageUrl,\n            timestamp: block.timestamp\n        });\n\n        emit TweetCreated(\n            tweets[_tweetId].id, \n            tweets[_tweetId].creator, \n            tweets[_tweetId].name,\n            tweets[_tweetId].content, \n            tweets[_tweetId].comments,\n            tweets[_tweetId].likes,                               \n            tweets[_tweetId].tips,            \n            tweets[_tweetId].exists,\n            tweets[_tweetId].imageUrl,\n            tweets[_tweetId].timestamp\n        );\n\n        nextTweetId++;\n    }\n\n    function createComment(uint256 _tweetId, string memory _comment) public {\n        require(users[msg.sender].exists, \"User does not exist\");\n        require(tweets[_tweetId].exists, \"Tweet does not exist\");\n\n        tweets[_tweetId].comments.push(_comment);\n\n        emit CommentAdded(_tweetId, _comment, msg.sender, users[msg.sender].name, users[msg.sender].profilePictureURL, block.timestamp);\n    }\n\n    function likeTweet(uint256 _tweetId) public {\n        require(!likedTweets[msg.sender][_tweetId], \"You have already liked this tweet\");\n                \n        likedTweets[msg.sender][_tweetId] = true;\n        tweets[_tweetId].likes.push(msg.sender);\n\n        emit TweetLiked(_tweetId, msg.sender);\n    }\n\n    function tipUser(uint256 _tweetId, uint256 _amount) public {\n        require(_amount > 0, \"Amount should be greater than 0\");\n        require(tweetToken.transferFrom(msg.sender, tweets[_tweetId].creator, _amount));\n        tweets[_tweetId].tips.push(_amount);\n\n        emit UserTipped(_amount, _tweetId, tweets[_tweetId].creator, msg.sender, users[msg.sender].name);\n    }\n\n    function receiveFunds() external payable {\n        // Funds will be received and stored in the contract\n        emit TwitterReceivedFunds(msg.sender, msg.value);\n    }\n\n    function withdraw() external {\n        require(msg.sender == owner, \"Only the owner can withdraw funds\");\n        payable(owner).transfer(address(this).balance);\n\n        emit FundsWithdrawn(msg.sender, address(this).balance);\n    }\n\n    function buyTweetTokens() external payable {\n        require(msg.value > 0, \"You must send some MATIC to buy tokens\");\n\n        uint256 tokenGet = msg.value * conversionRate;\n        require(tweetToken.balanceOf(address(this)) >= tokenGet, \"Insufficient Tweet Tokens available\");\n\n        tweetToken.transfer(msg.sender, tokenGet);\n    }\n}",
  "sourcePath": "/Users/jamesstorage/Repos/decentralized-twitter/src/contracts/Twitter.sol",
  "compiler": {
    "name": "solc",
    "version": "0.8.19+commit.7dd6d404.Emscripten.clang"
  },
  "schemaVersion": "3.4.13",
  "updatedAt": "2023-05-04T08:54:52.936Z",
  "networkType": "ethereum",
  "devdoc": {
    "kind": "dev",
    "methods": {},
    "version": 1
  },
  "userdoc": {
    "kind": "user",
    "methods": {},
    "version": 1
  }
}