{
  "contractName": "Twitter",
  "abi": [
    {
      "inputs": [
        {
          "internalType": "address payable",
          "name": "_owner",
          "type": "address"
        },
        {
          "internalType": "address",
          "name": "_tweetTokenAddress",
          "type": "address"
        },
        {
          "internalType": "address",
          "name": "_nftAddress",
          "type": "address"
        }
      ],
      "stateMutability": "nonpayable",
      "type": "constructor"
    },
    {
      "anonymous": false,
      "inputs": [
        {
          "indexed": false,
          "internalType": "address",
          "name": "userAddress",
          "type": "address"
        },
        {
          "indexed": false,
          "internalType": "uint256",
          "name": "id",
          "type": "uint256"
        },
        {
          "indexed": false,
          "internalType": "string",
          "name": "name",
          "type": "string"
        },
        {
          "indexed": false,
          "internalType": "string",
          "name": "bio",
          "type": "string"
        },
        {
          "indexed": false,
          "internalType": "string",
          "name": "profilePictureURL",
          "type": "string"
        },
        {
          "indexed": false,
          "internalType": "bool",
          "name": "exists",
          "type": "bool"
        }
      ],
      "name": "AccountCreated",
      "type": "event"
    },
    {
      "anonymous": false,
      "inputs": [
        {
          "indexed": false,
          "internalType": "string",
          "name": "name",
          "type": "string"
        },
        {
          "indexed": false,
          "internalType": "address",
          "name": "user",
          "type": "address"
        }
      ],
      "name": "AccountDeleted",
      "type": "event"
    },
    {
      "anonymous": false,
      "inputs": [
        {
          "indexed": true,
          "internalType": "address",
          "name": "user",
          "type": "address"
        },
        {
          "indexed": false,
          "internalType": "string",
          "name": "newBio",
          "type": "string"
        }
      ],
      "name": "BioUpdated",
      "type": "event"
    },
    {
      "anonymous": false,
      "inputs": [
        {
          "indexed": false,
          "internalType": "address",
          "name": "userAddress",
          "type": "address"
        },
        {
          "indexed": false,
          "internalType": "string",
          "name": "user",
          "type": "string"
        },
        {
          "indexed": false,
          "internalType": "string",
          "name": "follower",
          "type": "string"
        },
        {
          "indexed": false,
          "internalType": "address",
          "name": "followerAddress",
          "type": "address"
        }
      ],
      "name": "FollowerAdded",
      "type": "event"
    },
    {
      "anonymous": false,
      "inputs": [
        {
          "indexed": false,
          "internalType": "address",
          "name": "destinationWallet",
          "type": "address"
        },
        {
          "indexed": false,
          "internalType": "uint256",
          "name": "balance",
          "type": "uint256"
        }
      ],
      "name": "FundsWithdrawn",
      "type": "event"
    },
    {
      "anonymous": false,
      "inputs": [
        {
          "indexed": true,
          "internalType": "address",
          "name": "user",
          "type": "address"
        },
        {
          "indexed": false,
          "internalType": "string",
          "name": "newName",
          "type": "string"
        }
      ],
      "name": "NameUpdated",
      "type": "event"
    },
    {
      "anonymous": false,
      "inputs": [
        {
          "indexed": true,
          "internalType": "address",
          "name": "user",
          "type": "address"
        },
        {
          "indexed": false,
          "internalType": "string",
          "name": "url",
          "type": "string"
        }
      ],
      "name": "ProfilePictureUpdated",
      "type": "event"
    },
    {
      "anonymous": false,
      "inputs": [
        {
          "indexed": false,
          "internalType": "uint256",
          "name": "tweetId",
          "type": "uint256"
        },
        {
          "indexed": false,
          "internalType": "uint256",
          "name": "retweetCount",
          "type": "uint256"
        }
      ],
      "name": "ReTweeted",
      "type": "event"
    },
    {
      "anonymous": false,
      "inputs": [
        {
          "indexed": false,
          "internalType": "uint256",
          "name": "id",
          "type": "uint256"
        },
        {
          "indexed": false,
          "internalType": "address",
          "name": "creator",
          "type": "address"
        },
        {
          "indexed": false,
          "internalType": "string",
          "name": "name",
          "type": "string"
        },
        {
          "indexed": false,
          "internalType": "string",
          "name": "content",
          "type": "string"
        },
        {
          "indexed": false,
          "internalType": "uint256",
          "name": "likeCount",
          "type": "uint256"
        },
        {
          "indexed": false,
          "internalType": "uint256",
          "name": "retweetCount",
          "type": "uint256"
        },
        {
          "indexed": false,
          "internalType": "uint256[]",
          "name": "tips",
          "type": "uint256[]"
        },
        {
          "indexed": false,
          "internalType": "uint256",
          "name": "tipCount",
          "type": "uint256"
        },
        {
          "indexed": false,
          "internalType": "bool",
          "name": "exists",
          "type": "bool"
        },
        {
          "indexed": false,
          "internalType": "string",
          "name": "imageUrl",
          "type": "string"
        },
        {
          "indexed": false,
          "internalType": "uint256",
          "name": "timestamp",
          "type": "uint256"
        }
      ],
      "name": "TweetCreated",
      "type": "event"
    },
    {
      "anonymous": false,
      "inputs": [
        {
          "indexed": false,
          "internalType": "uint256",
          "name": "tweetId",
          "type": "uint256"
        },
        {
          "indexed": false,
          "internalType": "uint256",
          "name": "likeCount",
          "type": "uint256"
        }
      ],
      "name": "TweetLiked",
      "type": "event"
    },
    {
      "anonymous": false,
      "inputs": [
        {
          "indexed": false,
          "internalType": "address",
          "name": "contractFrom",
          "type": "address"
        },
        {
          "indexed": false,
          "internalType": "uint256",
          "name": "contractFromAmount",
          "type": "uint256"
        }
      ],
      "name": "TwitterReceivedFunds",
      "type": "event"
    },
    {
      "anonymous": false,
      "inputs": [
        {
          "indexed": false,
          "internalType": "string",
          "name": "user",
          "type": "string"
        },
        {
          "indexed": false,
          "internalType": "string",
          "name": "follower",
          "type": "string"
        }
      ],
      "name": "Unfollowed",
      "type": "event"
    },
    {
      "anonymous": false,
      "inputs": [
        {
          "indexed": false,
          "internalType": "uint256",
          "name": "amount",
          "type": "uint256"
        },
        {
          "indexed": false,
          "internalType": "uint256",
          "name": "tweetId",
          "type": "uint256"
        },
        {
          "indexed": false,
          "internalType": "address",
          "name": "creator",
          "type": "address"
        },
        {
          "indexed": false,
          "internalType": "address",
          "name": "tipper",
          "type": "address"
        },
        {
          "indexed": false,
          "internalType": "string",
          "name": "tipperName",
          "type": "string"
        },
        {
          "indexed": false,
          "internalType": "uint256",
          "name": "tipCount",
          "type": "uint256"
        }
      ],
      "name": "UserTipped",
      "type": "event"
    },
    {
      "inputs": [],
      "name": "baseURI",
      "outputs": [
        {
          "internalType": "string",
          "name": "",
          "type": "string"
        }
      ],
      "stateMutability": "view",
      "type": "function",
      "constant": true
    },
    {
      "inputs": [
        {
          "internalType": "address",
          "name": "",
          "type": "address"
        },
        {
          "internalType": "uint256",
          "name": "",
          "type": "uint256"
        }
      ],
      "name": "followers",
      "outputs": [
        {
          "internalType": "address",
          "name": "",
          "type": "address"
        }
      ],
      "stateMutability": "view",
      "type": "function",
      "constant": true
    },
    {
      "inputs": [
        {
          "internalType": "address",
          "name": "",
          "type": "address"
        },
        {
          "internalType": "address",
          "name": "",
          "type": "address"
        }
      ],
      "name": "following",
      "outputs": [
        {
          "internalType": "bool",
          "name": "",
          "type": "bool"
        }
      ],
      "stateMutability": "view",
      "type": "function",
      "constant": true
    },
    {
      "inputs": [],
      "name": "owner",
      "outputs": [
        {
          "internalType": "address payable",
          "name": "",
          "type": "address"
        }
      ],
      "stateMutability": "view",
      "type": "function",
      "constant": true
    },
    {
      "inputs": [
        {
          "internalType": "uint256",
          "name": "",
          "type": "uint256"
        }
      ],
      "name": "tweetAuctions",
      "outputs": [
        {
          "internalType": "address",
          "name": "",
          "type": "address"
        }
      ],
      "stateMutability": "view",
      "type": "function",
      "constant": true
    },
    {
      "inputs": [],
      "name": "tweetNFT",
      "outputs": [
        {
          "internalType": "contract TweetNFT",
          "name": "",
          "type": "address"
        }
      ],
      "stateMutability": "view",
      "type": "function",
      "constant": true
    },
    {
      "inputs": [],
      "name": "tweetToken",
      "outputs": [
        {
          "internalType": "contract TweetToken",
          "name": "",
          "type": "address"
        }
      ],
      "stateMutability": "view",
      "type": "function",
      "constant": true
    },
    {
      "inputs": [
        {
          "internalType": "uint256",
          "name": "",
          "type": "uint256"
        }
      ],
      "name": "tweets",
      "outputs": [
        {
          "internalType": "uint256",
          "name": "id",
          "type": "uint256"
        },
        {
          "internalType": "address",
          "name": "creator",
          "type": "address"
        },
        {
          "internalType": "string",
          "name": "name",
          "type": "string"
        },
        {
          "internalType": "string",
          "name": "content",
          "type": "string"
        },
        {
          "internalType": "uint256",
          "name": "likeCount",
          "type": "uint256"
        },
        {
          "internalType": "uint256",
          "name": "retweetCount",
          "type": "uint256"
        },
        {
          "internalType": "uint256",
          "name": "tipCount",
          "type": "uint256"
        },
        {
          "internalType": "bool",
          "name": "exists",
          "type": "bool"
        },
        {
          "internalType": "string",
          "name": "imageUrl",
          "type": "string"
        },
        {
          "internalType": "uint256",
          "name": "timestamp",
          "type": "uint256"
        }
      ],
      "stateMutability": "view",
      "type": "function",
      "constant": true
    },
    {
      "inputs": [
        {
          "internalType": "address",
          "name": "",
          "type": "address"
        }
      ],
      "name": "users",
      "outputs": [
        {
          "internalType": "address",
          "name": "userAddress",
          "type": "address"
        },
        {
          "internalType": "uint256",
          "name": "id",
          "type": "uint256"
        },
        {
          "internalType": "string",
          "name": "name",
          "type": "string"
        },
        {
          "internalType": "string",
          "name": "bio",
          "type": "string"
        },
        {
          "internalType": "string",
          "name": "profilePictureURL",
          "type": "string"
        },
        {
          "internalType": "bool",
          "name": "exists",
          "type": "bool"
        }
      ],
      "stateMutability": "view",
      "type": "function",
      "constant": true
    },
    {
      "inputs": [
        {
          "internalType": "string",
          "name": "_name",
          "type": "string"
        },
        {
          "internalType": "string",
          "name": "_bio",
          "type": "string"
        },
        {
          "internalType": "string",
          "name": "_profilePictureURL",
          "type": "string"
        }
      ],
      "name": "createAccount",
      "outputs": [],
      "stateMutability": "nonpayable",
      "type": "function"
    },
    {
      "inputs": [
        {
          "internalType": "string",
          "name": "_name",
          "type": "string"
        }
      ],
      "name": "updateName",
      "outputs": [],
      "stateMutability": "nonpayable",
      "type": "function"
    },
    {
      "inputs": [
        {
          "internalType": "string",
          "name": "_bio",
          "type": "string"
        }
      ],
      "name": "updateBio",
      "outputs": [],
      "stateMutability": "nonpayable",
      "type": "function"
    },
    {
      "inputs": [
        {
          "internalType": "string",
          "name": "_url",
          "type": "string"
        }
      ],
      "name": "updateProfilePicture",
      "outputs": [],
      "stateMutability": "nonpayable",
      "type": "function"
    },
    {
      "inputs": [],
      "name": "removeUser",
      "outputs": [],
      "stateMutability": "nonpayable",
      "type": "function"
    },
    {
      "inputs": [
        {
          "internalType": "address",
          "name": "user",
          "type": "address"
        },
        {
          "internalType": "address",
          "name": "follower",
          "type": "address"
        }
      ],
      "name": "isFollowing",
      "outputs": [
        {
          "internalType": "bool",
          "name": "",
          "type": "bool"
        }
      ],
      "stateMutability": "view",
      "type": "function",
      "constant": true
    },
    {
      "inputs": [
        {
          "internalType": "address",
          "name": "user",
          "type": "address"
        },
        {
          "internalType": "address",
          "name": "follower",
          "type": "address"
        }
      ],
      "name": "getFollowerIndex",
      "outputs": [
        {
          "internalType": "uint256",
          "name": "",
          "type": "uint256"
        }
      ],
      "stateMutability": "view",
      "type": "function",
      "constant": true
    },
    {
      "inputs": [
        {
          "internalType": "address",
          "name": "user",
          "type": "address"
        },
        {
          "internalType": "address",
          "name": "follower",
          "type": "address"
        }
      ],
      "name": "becomeFollower",
      "outputs": [],
      "stateMutability": "nonpayable",
      "type": "function"
    },
    {
      "inputs": [
        {
          "internalType": "address",
          "name": "_user",
          "type": "address"
        },
        {
          "internalType": "address",
          "name": "_follower",
          "type": "address"
        }
      ],
      "name": "unfollow",
      "outputs": [],
      "stateMutability": "nonpayable",
      "type": "function"
    },
    {
      "inputs": [
        {
          "internalType": "address",
          "name": "user",
          "type": "address"
        }
      ],
      "name": "getFollowerAddresses",
      "outputs": [
        {
          "internalType": "address[]",
          "name": "",
          "type": "address[]"
        }
      ],
      "stateMutability": "view",
      "type": "function",
      "constant": true
    },
    {
      "inputs": [
        {
          "internalType": "uint256",
          "name": "id",
          "type": "uint256"
        }
      ],
      "name": "getTweet",
      "outputs": [
        {
          "components": [
            {
              "internalType": "uint256",
              "name": "id",
              "type": "uint256"
            },
            {
              "internalType": "address",
              "name": "creator",
              "type": "address"
            },
            {
              "internalType": "string",
              "name": "name",
              "type": "string"
            },
            {
              "internalType": "string",
              "name": "content",
              "type": "string"
            },
            {
              "internalType": "uint256",
              "name": "likeCount",
              "type": "uint256"
            },
            {
              "internalType": "uint256",
              "name": "retweetCount",
              "type": "uint256"
            },
            {
              "internalType": "uint256[]",
              "name": "tips",
              "type": "uint256[]"
            },
            {
              "internalType": "uint256",
              "name": "tipCount",
              "type": "uint256"
            },
            {
              "internalType": "bool",
              "name": "exists",
              "type": "bool"
            },
            {
              "internalType": "string",
              "name": "imageUrl",
              "type": "string"
            },
            {
              "internalType": "uint256",
              "name": "timestamp",
              "type": "uint256"
            }
          ],
          "internalType": "struct Twitter.Tweet",
          "name": "",
          "type": "tuple"
        }
      ],
      "stateMutability": "view",
      "type": "function",
      "constant": true
    },
    {
      "inputs": [
        {
          "internalType": "string",
          "name": "_content",
          "type": "string"
        },
        {
          "internalType": "string",
          "name": "_imageUrl",
          "type": "string"
        }
      ],
      "name": "createTweet",
      "outputs": [],
      "stateMutability": "nonpayable",
      "type": "function"
    },
    {
      "inputs": [
        {
          "internalType": "uint256",
          "name": "_tweetId",
          "type": "uint256"
        }
      ],
      "name": "likeTweet",
      "outputs": [],
      "stateMutability": "nonpayable",
      "type": "function"
    },
    {
      "inputs": [
        {
          "internalType": "uint256",
          "name": "_tweetId",
          "type": "uint256"
        }
      ],
      "name": "retweet",
      "outputs": [],
      "stateMutability": "nonpayable",
      "type": "function"
    },
    {
      "inputs": [
        {
          "internalType": "uint256",
          "name": "_tweetId",
          "type": "uint256"
        },
        {
          "internalType": "uint256",
          "name": "_amount",
          "type": "uint256"
        }
      ],
      "name": "tipUser",
      "outputs": [],
      "stateMutability": "nonpayable",
      "type": "function"
    },
    {
      "inputs": [],
      "name": "receiveFunds",
      "outputs": [],
      "stateMutability": "payable",
      "type": "function",
      "payable": true
    },
    {
      "inputs": [],
      "name": "withdraw",
      "outputs": [],
      "stateMutability": "nonpayable",
      "type": "function"
    }
  ],
  "bytecode": "0x608060405260016008553480156200001657600080fd5b5060405162002c0938038062002c098339810160408190526200003991620000dc565b600080546001600160a01b038086166001600160a01b03199283161790925560018054858416908316179055600280549284169290911691909117905560408051808201909152601581527f68747470733a2f2f697066732e696f2f697066732f00000000000000000000006020820152600390620000b99082620001d5565b50505050620002a1565b6001600160a01b0381168114620000d957600080fd5b50565b600080600060608486031215620000f257600080fd5b8351620000ff81620000c3565b60208501519093506200011281620000c3565b60408501519092506200012581620000c3565b809150509250925092565b634e487b7160e01b600052604160045260246000fd5b600181811c908216806200015b57607f821691505b6020821081036200017c57634e487b7160e01b600052602260045260246000fd5b50919050565b601f821115620001d057600081815260208120601f850160051c81016020861015620001ab5750805b601f850160051c820191505b81811015620001cc57828155600101620001b7565b5050505b505050565b81516001600160401b03811115620001f157620001f162000130565b620002098162000202845462000146565b8462000182565b602080601f831160018114620002415760008415620002285750858301515b600019600386901b1c1916600185901b178555620001cc565b600085815260208120601f198616915b82811015620002725788860151825594840194600190910190840162000251565b5085821015620002915787850151600019600388901b60f8161c191681555b5050505050600190811b01905550565b61295880620002b16000396000f3fe6080604052600436106101805760003560e01c80638cd14d30116100d1578063c9f4b84a1161008a578063e8d857b011610064578063e8d857b0146104d6578063ebd009d31461050c578063f4b5ee4d1461052c578063f944f4c71461056257600080fd5b8063c9f4b84a1461045b578063ce9ae0011461047b578063dc23abf6146104b657600080fd5b80638cd14d30146103425780638da5cb5b1461036257806399ec3a4214610382578063a87430ba146103dc578063bc53c0c41461040e578063c3ad5ecb1461042e57600080fd5b80635802594f1161013e57806375de982e1161011857806375de982e146102b457806376487b38146102d4578063812dca54146102f457806384da92a71461032257600080fd5b80635802594f1461023a5780635ffc6ceb146102725780636c0360eb1461029257600080fd5b80625c33e1146101855780630d95272a1461018f578063164415ae146101c557806331b8ef87146101e55780633ccfd60b14610205578063565a4dc31461021a575b600080fd5b61018d610577565b005b34801561019b57600080fd5b506101af6101aa366004611fad565b6105b2565b6040516101bc9190611fcf565b60405180910390f35b3480156101d157600080fd5b5061018d6101e036600461201c565b61066d565b3480156101f157600080fd5b5061018d61020036600461203e565b610846565b34801561021157600080fd5b5061018d6108e8565b34801561022657600080fd5b5061018d6102353660046120fa565b6109bc565b34801561024657600080fd5b5060025461025a906001600160a01b031681565b6040516001600160a01b0390911681526020016101bc565b34801561027e57600080fd5b5061018d61028d36600461203e565b610a50565b34801561029e57600080fd5b506102a7610b49565b6040516101bc919061217d565b3480156102c057600080fd5b5060015461025a906001600160a01b031681565b3480156102e057600080fd5b5061018d6102ef3660046120fa565b610bd7565b34801561030057600080fd5b5061031461030f366004612190565b610c5f565b6040519081526020016101bc565b34801561032e57600080fd5b5061018d61033d3660046120fa565b610c8c565b34801561034e57600080fd5b5061018d61035d3660046121c3565b610d14565b34801561036e57600080fd5b5060005461025a906001600160a01b031681565b34801561038e57600080fd5b506103cc61039d366004612190565b6001600160a01b0380821660009081526006602090815260408083209386168352929052205460ff1692915050565b60405190151581526020016101bc565b3480156103e857600080fd5b506103fc6103f7366004611fad565b610ffc565b6040516101bc96959493929190612227565b34801561041a57600080fd5b5061018d61042936600461228a565b6111d6565b34801561043a57600080fd5b5061044e61044936600461203e565b611367565b6040516101bc919061234d565b34801561046757600080fd5b5061018d610476366004612190565b611658565b34801561048757600080fd5b506103cc610496366004612190565b600660209081526000928352604080842090915290825290205460ff1681565b3480156104c257600080fd5b5061018d6104d1366004612190565b611999565b3480156104e257600080fd5b506104f66104f136600461203e565b611bf7565b6040516101bc9a99989796959493929190612438565b34801561051857600080fd5b5061025a6105273660046124bf565b611dee565b34801561053857600080fd5b5061025a61054736600461203e565b600b602052600090815260409020546001600160a01b031681565b34801561056e57600080fd5b5061018d611e26565b604080513381523460208201527f873db5b09b82c3e95b44a29e65520b545f452255c7af9aec662dad62294a983591015b60405180910390a1565b6001600160a01b03811660009081526004602052604090206005015460609060ff166105f95760405162461bcd60e51b81526004016105f0906124e9565b60405180910390fd5b6001600160a01b0382166000908152600560209081526040918290208054835181840281018401909452808452909183018282801561066157602002820191906000526020600020905b81546001600160a01b03168152600190910190602001808311610643575b50505050509050919050565b600081116106bd5760405162461bcd60e51b815260206004820152601f60248201527f416d6f756e742073686f756c642062652067726561746572207468616e20300060448201526064016105f0565b60018054600084815260096020526040908190209092015491516323b872dd60e01b81523360048201526001600160a01b039283166024820152604481018490529116906323b872dd906064016020604051808303816000875af1158015610729573d6000803e3d6000fd5b505050506040513d601f19601f8201168201806040525081019061074d9190612516565b61078b5760405162461bcd60e51b815260206004820152600f60248201526e151c985b9cd9995c8819985a5b1959608a1b60448201526064016105f0565b600082815260096020908152604082206006810180546001810182559084529183209091018390558382526007018054916107c58361254e565b909155505060008281526009602081815260408084206001810154338087526004855283872096899052949093526007015490517fd4c753f2e2d5ce7de230507bc1fac23c151622d7294db5ddd866185d7aeb40db9461083a94879489946001600160a01b039091169391926002019161261e565b60405180910390a15050565b3360009081526004602052604090206005015460ff166108785760405162461bcd60e51b81526004016105f0906124e9565b60008181526009602052604081206005018054916108958361254e565b9091555050600081815260096020908152604091829020600501548251848152918201527f12bda74f7c9bb58e412152c4eabc86ea072ef9435ca8aad724922ad6aa34804191015b60405180910390a150565b6000546001600160a01b0316331461094c5760405162461bcd60e51b815260206004820152602160248201527f4f6e6c7920746865206f776e65722063616e2077697468647261772066756e646044820152607360f81b60648201526084016105f0565b600080546040516001600160a01b03909116914780156108fc02929091818181858888f19350505050158015610986573d6000803e3d6000fd5b50604080513381524760208201527feaff4b37086828766ad3268786972c0cd24259d4c87a80f9d3963a3c3d999b0d91016105a8565b3360009081526004602052604090206005015460ff166109ee5760405162461bcd60e51b81526004016105f0906124e9565b33600090815260046020819052604090912001610a0b82826126b9565b50336001600160a01b03167f6b397bb88467b92a1774b4b19bf728f2673bf763d0bd7a571d17714ba7bd8c6c82604051610a45919061217d565b60405180910390a250565b336000908152600a6020908152604080832084845290915290205460ff1615610ac55760405162461bcd60e51b815260206004820152602160248201527f596f75206861766520616c7265616479206c696b6564207468697320747765656044820152601d60fa1b60648201526084016105f0565b6000818152600960205260408120600401805491610ae28361254e565b9091555050336000908152600a602090815260408083208484528252808320805460ff191660011790556009825291829020600401548251848152918201527f49aee041ac2bd73f2839e4f512ef08fc86986f573230e2ef14533d6a2b07a29e91016108dd565b60038054610b5690612567565b80601f0160208091040260200160405190810160405280929190818152602001828054610b8290612567565b8015610bcf5780601f10610ba457610100808354040283529160200191610bcf565b820191906000526020600020905b815481529060010190602001808311610bb257829003601f168201915b505050505081565b3360009081526004602052604090206005015460ff16610c095760405162461bcd60e51b81526004016105f0906124e9565b336000908152600460205260409020600301610c2582826126b9565b50336001600160a01b03167f3f838a7d0889a59b2445af5389196b3948170278848eb90d8d256ab14aaf4cf082604051610a45919061217d565b6001600160a01b038083166000908152600760209081526040808320938516835292905220545b92915050565b3360009081526004602052604090206005015460ff16610cbe5760405162461bcd60e51b81526004016105f0906124e9565b336000908152600460205260409020600201610cda82826126b9565b50336001600160a01b03167f74321da206c1b9fa34367f7ece59ca49371dcd13820b9a5c3767ae1ecceed51a82604051610a45919061217d565b3360009081526004602052604090206005015460ff16610d465760405162461bcd60e51b81526004016105f0906124e9565b600854604080516101608101825282815233602080830182905260009182526004905282902060020180549192830191610d7f90612567565b80601f0160208091040260200160405190810160405280929190818152602001828054610dab90612567565b8015610df85780601f10610dcd57610100808354040283529160200191610df8565b820191906000526020600020905b815481529060010190602001808311610ddb57829003601f168201915b505050505081526020018481526020016000815260200160008152602001600067ffffffffffffffff811115610e3057610e30612057565b604051908082528060200260200182016040528015610e59578160200160208202803683370190505b508152600060208083018290526001604080850182905260608501889052426080909501949094528583526009825291839020845181559084015191810180546001600160a01b0319166001600160a01b0390931692909217909155908201516002820190610ec890826126b9565b5060608201516003820190610edd90826126b9565b506080820151600482015560a0820151600582015560c08201518051610f0d916006840191602090910190611ef4565b5060e0820151600782015561010082015160088201805460ff19169115159190911790556101208201516009820190610f4690826126b9565b506101409190910151600a918201556000828152600960208190526040918290208054600182015460048301546005840154600785015460088601549886015497517fa878c3e0710ffbeb54c2829e208e1764d73dc501a1146a43b2ee7c792a00bcad99610fda9996986001600160a01b03909616976002810197600382019760068301959460ff90941693920191612779565b60405180910390a160088054906000610ff28361254e565b9190505550505050565b6004602052600090815260409020805460018201546002830180546001600160a01b0390931693919261102e90612567565b80601f016020809104026020016040519081016040528092919081815260200182805461105a90612567565b80156110a75780601f1061107c576101008083540402835291602001916110a7565b820191906000526020600020905b81548152906001019060200180831161108a57829003601f168201915b5050505050908060030180546110bc90612567565b80601f01602080910402602001604051908101604052809291908181526020018280546110e890612567565b80156111355780601f1061110a57610100808354040283529160200191611135565b820191906000526020600020905b81548152906001019060200180831161111857829003601f168201915b50505050509080600401805461114a90612567565b80601f016020809104026020016040519081016040528092919081815260200182805461117690612567565b80156111c35780601f10611198576101008083540402835291602001916111c3565b820191906000526020600020905b8154815290600101906020018083116111a657829003601f168201915b5050506005909301549192505060ff1686565b3360009081526004602052604090206005015460ff161561122f5760405162461bcd60e51b81526020600482015260136024820152725573657220616c72656164792065786973747360681b60448201526064016105f0565b600061123a600c5490565b6040805160c0810182523380825260208083018581528385018a8152606085018a905260808501899052600160a086018190526000948552600490935294909220835181546001600160a01b0319166001600160a01b0390911617815591519082015591519293509160028201906112b290826126b9565b50606082015160038201906112c790826126b9565b50608082015160048201906112dc90826126b9565b5060a091909101516005918201805460ff19169115159190911790553360008181526004602052604090819020600181015493015490517faa2585f21e6456ed4a8c9a8868301bdcbcfa7435429b0189e606aba6c1692fbe9361134b9392909189918991899160ff1690612227565b60405180910390a1611361600c80546001019055565b50505050565b6113cf6040518061016001604052806000815260200160006001600160a01b0316815260200160608152602001606081526020016000815260200160008152602001606081526020016000815260200160001515815260200160608152602001600081525090565b60008281526009602090815260408083208151610160810183528154815260018201546001600160a01b031693810193909352600281018054919284019161141690612567565b80601f016020809104026020016040519081016040528092919081815260200182805461144290612567565b801561148f5780601f106114645761010080835404028352916020019161148f565b820191906000526020600020905b81548152906001019060200180831161147257829003601f168201915b505050505081526020016003820180546114a890612567565b80601f01602080910402602001604051908101604052809291908181526020018280546114d490612567565b80156115215780601f106114f657610100808354040283529160200191611521565b820191906000526020600020905b81548152906001019060200180831161150457829003601f168201915b5050505050815260200160048201548152602001600582015481526020016006820180548060200260200160405190810160405280929190818152602001828054801561158d57602002820191906000526020600020905b815481526020019060010190808311611579575b505050918352505060078201546020820152600882015460ff16151560408201526009820180546060909201916115c390612567565b80601f01602080910402602001604051908101604052809291908181526020018280546115ef90612567565b801561163c5780601f106116115761010080835404028352916020019161163c565b820191906000526020600020905b81548152906001019060200180831161161f57829003601f168201915b5050509183525050600a91909101546020909101529392505050565b336001600160a01b038216146116c05760405162461bcd60e51b815260206004820152602760248201527f4f6e6c792074686520666f6c6c6f7765722063616e2072656d6f7665207468656044820152666d73656c76657360c81b60648201526084016105f0565b6001600160a01b0380821660009081526006602090815260408083209386168352929052205460ff166117255760405162461bcd60e51b815260206004820152600d60248201526c4e6f7420666f6c6c6f77696e6760981b60448201526064016105f0565b6001600160a01b038083166000818152600760209081526040808320948616835293815283822054928252600590529182205490919061176790600190612842565b6001600160a01b03851660009081526005602052604090208054919250908290811061179557611795612855565b60009182526020808320909101546001600160a01b038781168452600590925260409092208054919092169190849081106117d2576117d2612855565b600091825260208083209190910180546001600160a01b0319166001600160a01b03948516179055918616815260078252604080822060059093528120805485939291908490811061182657611826612855565b60009182526020808320909101546001600160a01b039081168452838201949094526040928301822094909455918716825260059092522080548061186d5761186d61286b565b60008281526020808220830160001990810180546001600160a01b03191690559092019092556001600160a01b0385811680845260068084526040808620938a16808752938552808620805460ff19169055600785528086208387528552808620869055928552835281842090845290915290205460ff16156119325760405162461bcd60e51b815260206004820152601d60248201527f4661696c656420746f2072656d6f76652074686520666f6c6c6f77657200000060448201526064016105f0565b6001600160a01b0380851660009081526004602052604080822092861682529081902090517f609a93f9eecec6c2f7c382d0a75e0dcd5422dfa2c9570ef2ea0d58c25ea968b99261198b92600291820192910190612881565b60405180910390a150505050565b336001600160a01b038216146119f15760405162461bcd60e51b815260206004820152601b60248201527f557365722043616e6e6f7420466f72636520466f6c6c6f77657273000000000060448201526064016105f0565b6001600160a01b03821660009081526004602052604090206005015460ff16611a2c5760405162461bcd60e51b81526004016105f0906124e9565b6001600160a01b03811660009081526004602052604090206005015460ff16611a975760405162461bcd60e51b815260206004820152601760248201527f466f6c6c6f77657220646f6573206e6f7420657869737400000000000000000060448201526064016105f0565b6001600160a01b0380821660009081526006602090815260408083209386168352929052205460ff1615611afd5760405162461bcd60e51b815260206004820152600d60248201526c4e6f7420666f6c6c6f77696e6760981b60448201526064016105f0565b6001600160a01b03828116600081815260056020908152604082208054600180820183558285529284200180546001600160a01b031916958716959095179094559181529154611b4d9190612842565b6001600160a01b038084166000818152600660209081526040808320898616808552908352818420805460ff1916600117905560078352818420858552835281842087905583526004909152808220805493835291819020805491519596507f7f97986d1d7d68a2c79189da13a1968cb1e994a7864de2a4af34be8e5f941f6295611bea95948516946002948501949290920192909116906128af565b60405180910390a1505050565b60096020526000908152604090208054600182015460028301805492936001600160a01b0390921692611c2990612567565b80601f0160208091040260200160405190810160405280929190818152602001828054611c5590612567565b8015611ca25780601f10611c7757610100808354040283529160200191611ca2565b820191906000526020600020905b815481529060010190602001808311611c8557829003601f168201915b505050505090806003018054611cb790612567565b80601f0160208091040260200160405190810160405280929190818152602001828054611ce390612567565b8015611d305780601f10611d0557610100808354040283529160200191611d30565b820191906000526020600020905b815481529060010190602001808311611d1357829003601f168201915b50505060048401546005850154600786015460088701546009880180549798949793965091945060ff169291611d6590612567565b80601f0160208091040260200160405190810160405280929190818152602001828054611d9190612567565b8015611dde5780601f10611db357610100808354040283529160200191611dde565b820191906000526020600020905b815481529060010190602001808311611dc157829003601f168201915b50505050509080600a015490508a565b60056020528160005260406000208181548110611e0a57600080fd5b6000918252602090912001546001600160a01b03169150829050565b3360009081526004602052604090206005015460ff16611e585760405162461bcd60e51b81526004016105f0906124e9565b33600090815260046020526040812080546001600160a01b03191681556001810182905590611e8a6002830182611f3f565b611e98600383016000611f3f565b611ea6600483016000611f3f565b50600501805460ff19169055336000818152600460205260409081902090517f09c548a1a0ebbda4fe7f4ad39a7b6f70618bba50296b0b3aa871dce2b0dbea4c926105a892600201916128f8565b828054828255906000526020600020908101928215611f2f579160200282015b82811115611f2f578251825591602001919060010190611f14565b50611f3b929150611f7c565b5090565b508054611f4b90612567565b6000825580601f10611f5b575050565b601f016020900490600052602060002090810190611f799190611f7c565b50565b5b80821115611f3b5760008155600101611f7d565b80356001600160a01b0381168114611fa857600080fd5b919050565b600060208284031215611fbf57600080fd5b611fc882611f91565b9392505050565b6020808252825182820181905260009190848201906040850190845b818110156120105783516001600160a01b031683529284019291840191600101611feb565b50909695505050505050565b6000806040838503121561202f57600080fd5b50508035926020909101359150565b60006020828403121561205057600080fd5b5035919050565b634e487b7160e01b600052604160045260246000fd5b600082601f83011261207e57600080fd5b813567ffffffffffffffff8082111561209957612099612057565b604051601f8301601f19908116603f011681019082821181831017156120c1576120c1612057565b816040528381528660208588010111156120da57600080fd5b836020870160208301376000602085830101528094505050505092915050565b60006020828403121561210c57600080fd5b813567ffffffffffffffff81111561212357600080fd5b61212f8482850161206d565b949350505050565b6000815180845260005b8181101561215d57602081850181015186830182015201612141565b506000602082860101526020601f19601f83011685010191505092915050565b602081526000611fc86020830184612137565b600080604083850312156121a357600080fd5b6121ac83611f91565b91506121ba60208401611f91565b90509250929050565b600080604083850312156121d657600080fd5b823567ffffffffffffffff808211156121ee57600080fd5b6121fa8683870161206d565b9350602085013591508082111561221057600080fd5b5061221d8582860161206d565b9150509250929050565b60018060a01b038716815285602082015260c06040820152600061224e60c0830187612137565b82810360608401526122608187612137565b905082810360808401526122748186612137565b91505082151560a0830152979650505050505050565b60008060006060848603121561229f57600080fd5b833567ffffffffffffffff808211156122b757600080fd5b6122c38783880161206d565b945060208601359150808211156122d957600080fd5b6122e58783880161206d565b935060408601359150808211156122fb57600080fd5b506123088682870161206d565b9150509250925092565b600081518084526020808501945080840160005b8381101561234257815187529582019590820190600101612326565b509495945050505050565b60208152815160208201526000602083015161237460408401826001600160a01b03169052565b506040830151610160806060850152612391610180850183612137565b91506060850151601f19808685030160808701526123af8483612137565b9350608087015160a087015260a087015160c087015260c08701519150808685030160e08701526123e08483612312565b60e08801516101008881019190915288015190945091506101206124078188018415159052565b808801519250506101408187860301818801526124248584612137565b970151959092019490945250929392505050565b8a81526001600160a01b038a166020820152610140604082018190526000906124638382018c612137565b90508281036060840152612477818b612137565b90508860808401528760a08401528660c084015285151560e08401528281036101008401526124a68186612137565b915050826101208301529b9a5050505050505050505050565b600080604083850312156124d257600080fd5b6124db83611f91565b946020939093013593505050565b602080825260139082015272155cd95c88191bd95cc81b9bdd08195e1a5cdd606a1b604082015260600190565b60006020828403121561252857600080fd5b81518015158114611fc857600080fd5b634e487b7160e01b600052601160045260246000fd5b60006001820161256057612560612538565b5060010190565b600181811c9082168061257b57607f821691505b60208210810361259b57634e487b7160e01b600052602260045260246000fd5b50919050565b600081546125ae81612567565b8085526020600183811680156125cb57600181146125e557612613565b60ff1985168884015283151560051b880183019550612613565b866000528260002060005b8581101561260b5781548a82018601529083019084016125f0565b890184019650505b505050505092915050565b868152602081018690526001600160a01b0385811660408301528416606082015260c060808201819052600090612657908301856125a1565b90508260a0830152979650505050505050565b601f8211156126b457600081815260208120601f850160051c810160208610156126915750805b601f850160051c820191505b818110156126b05782815560010161269d565b5050505b505050565b815167ffffffffffffffff8111156126d3576126d3612057565b6126e7816126e18454612567565b8461266a565b602080601f83116001811461271c57600084156127045750858301515b600019600386901b1c1916600185901b1785556126b0565b600085815260208120601f198616915b8281101561274b5788860151825594840194600190910190840161272c565b50858210156127695787850151600019600388901b60f8161c191681555b5050505050600190811b01905550565b60006101608d8352602060018060a01b038e16818501528160408501526127a28285018e6125a1565b915083820360608501526127b6828d6125a1565b608085018c905260a085018b905284810360c0860152895480825260008b81528381209450918301915b818110156127fc578454835260019485019492840192016127e0565b50508860e086015261281361010086018915159052565b84810361012086015261282681886125a1565b9350505050826101408301529c9b505050505050505050505050565b81810381811115610c8657610c86612538565b634e487b7160e01b600052603260045260246000fd5b634e487b7160e01b600052603160045260246000fd5b60408152600061289460408301856125a1565b82810360208401526128a681856125a1565b95945050505050565b600060018060a01b038087168352608060208401526128d160808401876125a1565b83810360408501526128e381876125a1565b92505080841660608401525095945050505050565b60408152600061290b60408301856125a1565b905060018060a01b0383166020830152939250505056fea264697066735822122067049643b1b125d5ab1cf4ab988b05abcb89d4de8014e1c9cd0dab61869c0a3864736f6c63430008130033",
  "immutableReferences": {},
  "source": "// SPDX-License-Identifier: MIT\npragma solidity ^0.8.19;\n\nimport './TweetToken.sol';\nimport './TweetNFT.sol';\nimport './Auction.sol';\nimport \"@openzeppelin/contracts/utils/Counters.sol\";\n\ncontract Twitter {\n\n    // Contract owner address\n    address payable public owner;\n    // Tweet Token contract\n    TweetToken public tweetToken;\n    // Tweet NFT contract\n    TweetNFT public tweetNFT;\n    // Store baseURI for NFT (IPFS);\n    string public baseURI;\n    // Store users\n    mapping(address => User) public users; \n    // Store followers for each user\n    mapping(address => address[]) public followers; \n    // Store user's following relationships \n    mapping(address => mapping(address => bool)) public following; \n    // Store the index of the follower in the _followers array (user => (follower => index))\n    mapping(address => mapping(address => uint256)) private followerIndices; \n    // Tweet ID index counter\n    uint256 private nextTweetId = 1;\n    // Store tweets\n    mapping(uint256 => Tweet) public tweets;\n    // Store liked tweets\n    mapping(address => mapping(uint256 => bool)) private likedTweets;\n    // Store auction addresses\n    mapping(uint256 => address) public tweetAuctions;\n    // Store account IDs\n    using Counters for Counters.Counter;\n    Counters.Counter private accountIds;\n\n    constructor(address payable _owner, address _tweetTokenAddress, address _nftAddress) {\n        owner = _owner;\n        tweetToken = TweetToken(_tweetTokenAddress);\n        tweetNFT = TweetNFT(_nftAddress);\n        baseURI = \"https://ipfs.io/ipfs/\";\n    }\n\n    struct User {\n        address userAddress;\n        uint256 id;\n        string name;\n        string bio;\n        string profilePictureURL;\n        bool exists;\n    }\n\n    struct Tweet {\n        uint256 id;\n        address creator;\n        string name;\n        string content;\n        uint256 likeCount;\n        uint256 retweetCount;\n        uint256[] tips;\n        uint256 tipCount;\n        bool exists;\n        string imageUrl;\n        uint256 timestamp;\n    }\n\n    event AccountCreated(address userAddress, uint256 id, string name, string bio, string profilePictureURL, bool exists);\n    event NameUpdated(address indexed user, string newName);\n    event BioUpdated(address indexed user, string newBio);\n    event ProfilePictureUpdated(address indexed user, string url);\n    event AccountDeleted(string name, address user);\n    event FollowerAdded(address userAddress, string user, string follower, address followerAddress);\n    event Unfollowed(string user, string follower);\n    event TweetCreated(uint256 id, address creator, string name, string content, uint256 likeCount, uint256 retweetCount, uint256[] tips, uint256 tipCount, bool exists, string imageUrl, uint256 timestamp);\n    event TweetLiked(uint256 tweetId, uint256 likeCount);\n    event ReTweeted(uint256 tweetId, uint256 retweetCount);\n    event UserTipped(uint256 amount, uint256 tweetId, address creator, address tipper, string tipperName, uint256 tipCount);\n    event TwitterReceivedFunds(address contractFrom, uint256 contractFromAmount);\n    event FundsWithdrawn(address destinationWallet, uint256 balance);\n\n    function createAccount(string memory _name, string memory _bio, string memory _profilePictureURL) public {\n        // Check if user doesn't alreadty exist\n        require(!users[msg.sender].exists, \"User already exists\");\n\n        uint256 userId = accountIds.current();\n\n        // Create a new user and store it in the mapping\n        users[msg.sender] = User({\n            userAddress: msg.sender,\n            id: userId,\n            name: _name,\n            bio: _bio,\n            profilePictureURL: _profilePictureURL,\n            exists: true\n        });\n\n        emit AccountCreated(msg.sender, users[msg.sender].id, _name, _bio, _profilePictureURL, users[msg.sender].exists);\n        accountIds.increment();\n    }\n\n    function updateName(string memory _name) public {\n        require(users[msg.sender].exists, \"User does not exist\");\n        users[msg.sender].name = _name;\n\n        emit NameUpdated(msg.sender, _name);\n    }\n\n    function updateBio(string memory _bio) public {\n        require(users[msg.sender].exists, \"User does not exist\");\n        users[msg.sender].bio = _bio;\n\n        emit BioUpdated(msg.sender, _bio);\n    }\n\n    function updateProfilePicture(string memory _url) public {\n        require(users[msg.sender].exists, \"User does not exist\");\n        users[msg.sender].profilePictureURL = _url;\n\n        emit ProfilePictureUpdated(msg.sender, _url);\n    }\n\n    function removeUser() public {\n        require(users[msg.sender].exists, \"User does not exist\");\n        delete users[msg.sender];\n\n        emit AccountDeleted(users[msg.sender].name, msg.sender);\n    }\n\n    function isFollowing(address user, address follower) public view returns (bool) {\n        return following[follower][user];\n    }\n\n    function getFollowerIndex(address user, address follower) public view returns (uint) {\n        return followerIndices[user][follower];\n    }\n\n    function becomeFollower(address user, address follower) public {\n        require(msg.sender == follower, \"User Cannot Force Followers\");\n        require(users[user].exists, \"User does not exist\");\n        require(users[follower].exists, \"Follower does not exist\");\n        require(!following[follower][user], \"Not following\");\n\n        followers[user].push(follower); // add follower to followers array for that user\n        uint256 index = followers[user].length - 1; // get index for follower\n        following[follower][user] = true; // set following status to true\n        followerIndices[user][follower] = index; // store index for follower\n\n        emit FollowerAdded(users[user].userAddress, users[user].name, users[follower].name, users[follower].userAddress);\n    }\n\n    function unfollow(address _user, address _follower) public {\n        require(msg.sender == _follower, \"Only the follower can remove themselves\");\n        require(following[_follower][_user], \"Not following\");\n\n        uint256 index = followerIndices[_user][_follower];\n        uint256 lastIndex = followers[_user].length - 1;\n\n        // Move the last follower to the index of the follower being removed\n        followers[_user][index] = followers[_user][lastIndex];\n\n        // Update the index of the moved follower\n        followerIndices[_user][followers[_user][index]] = index;\n\n        // Remove the last follower and update the following mapping\n        followers[_user].pop();\n        following[_follower][_user] = false;\n        delete followerIndices[_user][_follower];\n\n        require(!following[_user][_follower], \"Failed to remove the follower\");\n\n\n        emit Unfollowed(users[_user].name, users[_follower].name);\n    }\n\n    function getFollowerAddresses(address user) public view returns (address[] memory) {\n        require(users[user].exists, \"User does not exist\");\n        return followers[user];\n    }\n\n    function getTweet(uint256 id) public view returns (Tweet memory) {\n        Tweet memory tweet = tweets[id];\n        return tweet;\n    }\n\n    function createTweet(string memory _content, string memory _imageUrl) public {\n        require(users[msg.sender].exists, \"User does not exist\");\n\n        uint256 _tweetId = nextTweetId;\n\n        tweets[_tweetId] = Tweet({\n            id: _tweetId,\n            name: users[msg.sender].name,\n            creator: msg.sender,\n            content: _content,\n            likeCount: 0,\n            retweetCount: 0,\n            tips: new uint256[](0),\n            tipCount: 0,\n            exists: true,\n            imageUrl: _imageUrl,\n            timestamp: block.timestamp\n        });\n\n        emit TweetCreated(\n            tweets[_tweetId].id, \n            tweets[_tweetId].creator, \n            tweets[_tweetId].name,\n            tweets[_tweetId].content, \n            tweets[_tweetId].likeCount, \n            tweets[_tweetId].retweetCount, \n            tweets[_tweetId].tips,\n            tweets[_tweetId].tipCount, \n            tweets[_tweetId].exists,\n            tweets[_tweetId].imageUrl,\n            tweets[_tweetId].timestamp\n        );\n\n        nextTweetId++;\n    }\n\n    function likeTweet(uint256 _tweetId) public {\n        require(!likedTweets[msg.sender][_tweetId], \"You have already liked this tweet\");\n        \n        tweets[_tweetId].likeCount++;\n        likedTweets[msg.sender][_tweetId] = true;\n\n        emit TweetLiked(_tweetId, tweets[_tweetId].likeCount);\n    }\n\n    function retweet(uint256 _tweetId) public {\n        require(users[msg.sender].exists, \"User does not exist\");\n        tweets[_tweetId].retweetCount++;\n\n        emit ReTweeted(_tweetId, tweets[_tweetId].retweetCount);\n    }\n\n    function tipUser(uint256 _tweetId, uint256 _amount) public {\n        require(_amount > 0, \"Amount should be greater than 0\");\n        require(tweetToken.transferFrom(msg.sender, tweets[_tweetId].creator, _amount), \"Transfer failed\");\n        tweets[_tweetId].tips.push(_amount);\n        tweets[_tweetId].tipCount++;\n\n        emit UserTipped(_amount, _tweetId, tweets[_tweetId].creator, msg.sender, users[msg.sender].name, tweets[_tweetId].tipCount);\n    }\n\n    function receiveFunds() external payable {\n        // Funds will be received and stored in the contract\n        emit TwitterReceivedFunds(msg.sender, msg.value);\n    }\n\n    function withdraw() external {\n        require(msg.sender == owner, \"Only the owner can withdraw funds\");\n        owner.transfer(address(this).balance);\n\n        emit FundsWithdrawn(msg.sender, address(this).balance);\n    }\n}",
  "sourcePath": "/Users/jamesstorage/Repos/decentralized-twitter/src/contracts/Twitter.sol",
  "compiler": {
    "name": "solc",
    "version": "0.8.19+commit.7dd6d404.Emscripten.clang"
  },
  "schemaVersion": "3.4.13",
  "updatedAt": "2023-04-13T14:31:22.155Z",
  "networkType": "ethereum",
  "devdoc": {
    "kind": "dev",
    "methods": {},
    "version": 1
  },
  "userdoc": {
    "kind": "user",
    "methods": {},
    "version": 1
  }
}