{
    "contractName": "Twitter",
    "abi": [
        {
            "inputs": [
                {
                    "internalType": "address payable",
                    "name": "_owner",
                    "type": "address"
                },
                {
                    "internalType": "address",
                    "name": "_tweetTokenAddress",
                    "type": "address"
                },
                {
                    "internalType": "address",
                    "name": "_nftAddress",
                    "type": "address"
                }
            ],
            "stateMutability": "nonpayable",
            "type": "constructor"
        },
        {
            "anonymous": false,
            "inputs": [
                {
                    "indexed": false,
                    "internalType": "address",
                    "name": "userAddress",
                    "type": "address"
                },
                {
                    "indexed": false,
                    "internalType": "uint256",
                    "name": "id",
                    "type": "uint256"
                },
                {
                    "indexed": false,
                    "internalType": "string",
                    "name": "name",
                    "type": "string"
                },
                {
                    "indexed": false,
                    "internalType": "string",
                    "name": "bio",
                    "type": "string"
                },
                {
                    "indexed": false,
                    "internalType": "string",
                    "name": "profilePictureURL",
                    "type": "string"
                },
                {
                    "indexed": false,
                    "internalType": "bool",
                    "name": "exists",
                    "type": "bool"
                }
            ],
            "name": "AccountCreated",
            "type": "event"
        },
        {
            "anonymous": false,
            "inputs": [
                {
                    "indexed": false,
                    "internalType": "string",
                    "name": "name",
                    "type": "string"
                },
                {
                    "indexed": false,
                    "internalType": "address",
                    "name": "user",
                    "type": "address"
                }
            ],
            "name": "AccountDeleted",
            "type": "event"
        },
        {
            "anonymous": false,
            "inputs": [
                {
                    "indexed": true,
                    "internalType": "address",
                    "name": "user",
                    "type": "address"
                },
                {
                    "indexed": false,
                    "internalType": "string",
                    "name": "newBio",
                    "type": "string"
                }
            ],
            "name": "BioUpdated",
            "type": "event"
        },
        {
            "anonymous": false,
            "inputs": [
                {
                    "indexed": false,
                    "internalType": "address",
                    "name": "userAddress",
                    "type": "address"
                },
                {
                    "indexed": false,
                    "internalType": "string",
                    "name": "user",
                    "type": "string"
                },
                {
                    "indexed": false,
                    "internalType": "string",
                    "name": "follower",
                    "type": "string"
                },
                {
                    "indexed": false,
                    "internalType": "address",
                    "name": "followerAddress",
                    "type": "address"
                }
            ],
            "name": "FollowerAdded",
            "type": "event"
        },
        {
            "anonymous": false,
            "inputs": [
                {
                    "indexed": false,
                    "internalType": "address",
                    "name": "destinationWallet",
                    "type": "address"
                },
                {
                    "indexed": false,
                    "internalType": "uint256",
                    "name": "balance",
                    "type": "uint256"
                }
            ],
            "name": "FundsWithdrawn",
            "type": "event"
        },
        {
            "anonymous": false,
            "inputs": [
                {
                    "indexed": true,
                    "internalType": "address",
                    "name": "user",
                    "type": "address"
                },
                {
                    "indexed": false,
                    "internalType": "string",
                    "name": "newName",
                    "type": "string"
                }
            ],
            "name": "NameUpdated",
            "type": "event"
        },
        {
            "anonymous": false,
            "inputs": [
                {
                    "indexed": true,
                    "internalType": "address",
                    "name": "user",
                    "type": "address"
                },
                {
                    "indexed": false,
                    "internalType": "string",
                    "name": "url",
                    "type": "string"
                }
            ],
            "name": "ProfilePictureUpdated",
            "type": "event"
        },
        {
            "anonymous": false,
            "inputs": [
                {
                    "indexed": false,
                    "internalType": "uint256",
                    "name": "tweetId",
                    "type": "uint256"
                },
                {
                    "indexed": false,
                    "internalType": "uint256",
                    "name": "retweetCount",
                    "type": "uint256"
                }
            ],
            "name": "ReTweeted",
            "type": "event"
        },
        {
            "anonymous": false,
            "inputs": [
                {
                    "indexed": false,
                    "internalType": "uint256",
                    "name": "id",
                    "type": "uint256"
                },
                {
                    "indexed": false,
                    "internalType": "address",
                    "name": "creator",
                    "type": "address"
                },
                {
                    "indexed": false,
                    "internalType": "string",
                    "name": "content",
                    "type": "string"
                },
                {
                    "indexed": false,
                    "internalType": "uint256",
                    "name": "likeCount",
                    "type": "uint256"
                },
                {
                    "indexed": false,
                    "internalType": "uint256",
                    "name": "retweetCount",
                    "type": "uint256"
                },
                {
                    "indexed": false,
                    "internalType": "uint256[]",
                    "name": "tips",
                    "type": "uint256[]"
                },
                {
                    "indexed": false,
                    "internalType": "uint256",
                    "name": "tipCount",
                    "type": "uint256"
                },
                {
                    "indexed": false,
                    "internalType": "bool",
                    "name": "exists",
                    "type": "bool"
                },
                {
                    "indexed": false,
                    "internalType": "string",
                    "name": "imageUrl",
                    "type": "string"
                }
            ],
            "name": "TweetCreated",
            "type": "event"
        },
        {
            "anonymous": false,
            "inputs": [
                {
                    "indexed": false,
                    "internalType": "uint256",
                    "name": "tweetId",
                    "type": "uint256"
                },
                {
                    "indexed": false,
                    "internalType": "uint256",
                    "name": "likeCount",
                    "type": "uint256"
                }
            ],
            "name": "TweetLiked",
            "type": "event"
        },
        {
            "anonymous": false,
            "inputs": [
                {
                    "indexed": false,
                    "internalType": "address",
                    "name": "contractFrom",
                    "type": "address"
                },
                {
                    "indexed": false,
                    "internalType": "uint256",
                    "name": "contractFromAmount",
                    "type": "uint256"
                }
            ],
            "name": "TwitterReceivedFunds",
            "type": "event"
        },
        {
            "anonymous": false,
            "inputs": [
                {
                    "indexed": false,
                    "internalType": "string",
                    "name": "user",
                    "type": "string"
                },
                {
                    "indexed": false,
                    "internalType": "string",
                    "name": "follower",
                    "type": "string"
                }
            ],
            "name": "Unfollowed",
            "type": "event"
        },
        {
            "anonymous": false,
            "inputs": [
                {
                    "indexed": false,
                    "internalType": "uint256",
                    "name": "amount",
                    "type": "uint256"
                },
                {
                    "indexed": false,
                    "internalType": "uint256",
                    "name": "tweetId",
                    "type": "uint256"
                },
                {
                    "indexed": false,
                    "internalType": "address",
                    "name": "creator",
                    "type": "address"
                },
                {
                    "indexed": false,
                    "internalType": "address",
                    "name": "tipper",
                    "type": "address"
                },
                {
                    "indexed": false,
                    "internalType": "string",
                    "name": "tipperName",
                    "type": "string"
                },
                {
                    "indexed": false,
                    "internalType": "uint256",
                    "name": "tipCount",
                    "type": "uint256"
                }
            ],
            "name": "UserTipped",
            "type": "event"
        },
        {
            "inputs": [],
            "name": "baseURI",
            "outputs": [
                {
                    "internalType": "string",
                    "name": "",
                    "type": "string"
                }
            ],
            "stateMutability": "view",
            "type": "function"
        },
        {
            "inputs": [
                {
                    "internalType": "address",
                    "name": "user",
                    "type": "address"
                },
                {
                    "internalType": "address",
                    "name": "follower",
                    "type": "address"
                }
            ],
            "name": "becomeFollower",
            "outputs": [],
            "stateMutability": "nonpayable",
            "type": "function"
        },
        {
            "inputs": [
                {
                    "internalType": "string",
                    "name": "_name",
                    "type": "string"
                },
                {
                    "internalType": "string",
                    "name": "_bio",
                    "type": "string"
                },
                {
                    "internalType": "string",
                    "name": "_profilePictureURL",
                    "type": "string"
                }
            ],
            "name": "createAccount",
            "outputs": [],
            "stateMutability": "nonpayable",
            "type": "function"
        },
        {
            "inputs": [
                {
                    "internalType": "string",
                    "name": "_content",
                    "type": "string"
                },
                {
                    "internalType": "string",
                    "name": "_imageUrl",
                    "type": "string"
                }
            ],
            "name": "createTweet",
            "outputs": [],
            "stateMutability": "nonpayable",
            "type": "function"
        },
        {
            "inputs": [
                {
                    "internalType": "address",
                    "name": "",
                    "type": "address"
                },
                {
                    "internalType": "uint256",
                    "name": "",
                    "type": "uint256"
                }
            ],
            "name": "followers",
            "outputs": [
                {
                    "internalType": "address",
                    "name": "",
                    "type": "address"
                }
            ],
            "stateMutability": "view",
            "type": "function"
        },
        {
            "inputs": [
                {
                    "internalType": "address",
                    "name": "",
                    "type": "address"
                },
                {
                    "internalType": "address",
                    "name": "",
                    "type": "address"
                }
            ],
            "name": "following",
            "outputs": [
                {
                    "internalType": "bool",
                    "name": "",
                    "type": "bool"
                }
            ],
            "stateMutability": "view",
            "type": "function"
        },
        {
            "inputs": [
                {
                    "internalType": "address",
                    "name": "user",
                    "type": "address"
                }
            ],
            "name": "getFollowerAddresses",
            "outputs": [
                {
                    "internalType": "address[]",
                    "name": "",
                    "type": "address[]"
                }
            ],
            "stateMutability": "view",
            "type": "function"
        },
        {
            "inputs": [
                {
                    "internalType": "address",
                    "name": "user",
                    "type": "address"
                },
                {
                    "internalType": "address",
                    "name": "follower",
                    "type": "address"
                }
            ],
            "name": "getFollowerIndex",
            "outputs": [
                {
                    "internalType": "uint256",
                    "name": "",
                    "type": "uint256"
                }
            ],
            "stateMutability": "view",
            "type": "function"
        },
        {
            "inputs": [
                {
                    "internalType": "address",
                    "name": "user",
                    "type": "address"
                },
                {
                    "internalType": "address",
                    "name": "follower",
                    "type": "address"
                }
            ],
            "name": "isFollowing",
            "outputs": [
                {
                    "internalType": "bool",
                    "name": "",
                    "type": "bool"
                }
            ],
            "stateMutability": "view",
            "type": "function"
        },
        {
            "inputs": [
                {
                    "internalType": "uint256",
                    "name": "_tweetId",
                    "type": "uint256"
                }
            ],
            "name": "likeTweet",
            "outputs": [],
            "stateMutability": "nonpayable",
            "type": "function"
        },
        {
            "inputs": [],
            "name": "owner",
            "outputs": [
                {
                    "internalType": "address payable",
                    "name": "",
                    "type": "address"
                }
            ],
            "stateMutability": "view",
            "type": "function"
        },
        {
            "inputs": [],
            "name": "receiveFunds",
            "outputs": [],
            "stateMutability": "payable",
            "type": "function"
        },
        {
            "inputs": [],
            "name": "removeUser",
            "outputs": [],
            "stateMutability": "nonpayable",
            "type": "function"
        },
        {
            "inputs": [
                {
                    "internalType": "uint256",
                    "name": "_tweetId",
                    "type": "uint256"
                }
            ],
            "name": "retweet",
            "outputs": [],
            "stateMutability": "nonpayable",
            "type": "function"
        },
        {
            "inputs": [
                {
                    "internalType": "uint256",
                    "name": "_tweetId",
                    "type": "uint256"
                },
                {
                    "internalType": "uint256",
                    "name": "_amount",
                    "type": "uint256"
                }
            ],
            "name": "tipUser",
            "outputs": [],
            "stateMutability": "nonpayable",
            "type": "function"
        },
        {
            "inputs": [
                {
                    "internalType": "uint256",
                    "name": "",
                    "type": "uint256"
                }
            ],
            "name": "tweetAuctions",
            "outputs": [
                {
                    "internalType": "address",
                    "name": "",
                    "type": "address"
                }
            ],
            "stateMutability": "view",
            "type": "function"
        },
        {
            "inputs": [],
            "name": "tweetNFT",
            "outputs": [
                {
                    "internalType": "contract TweetNFT",
                    "name": "",
                    "type": "address"
                }
            ],
            "stateMutability": "view",
            "type": "function"
        },
        {
            "inputs": [],
            "name": "tweetToken",
            "outputs": [
                {
                    "internalType": "contract TweetToken",
                    "name": "",
                    "type": "address"
                }
            ],
            "stateMutability": "view",
            "type": "function"
        },
        {
            "inputs": [
                {
                    "internalType": "uint256",
                    "name": "",
                    "type": "uint256"
                }
            ],
            "name": "tweets",
            "outputs": [
                {
                    "internalType": "uint256",
                    "name": "id",
                    "type": "uint256"
                },
                {
                    "internalType": "address",
                    "name": "creator",
                    "type": "address"
                },
                {
                    "internalType": "string",
                    "name": "content",
                    "type": "string"
                },
                {
                    "internalType": "uint256",
                    "name": "likeCount",
                    "type": "uint256"
                },
                {
                    "internalType": "uint256",
                    "name": "retweetCount",
                    "type": "uint256"
                },
                {
                    "internalType": "uint256",
                    "name": "tipCount",
                    "type": "uint256"
                },
                {
                    "internalType": "bool",
                    "name": "exists",
                    "type": "bool"
                },
                {
                    "internalType": "string",
                    "name": "imageUrl",
                    "type": "string"
                }
            ],
            "stateMutability": "view",
            "type": "function"
        },
        {
            "inputs": [
                {
                    "internalType": "address",
                    "name": "_user",
                    "type": "address"
                },
                {
                    "internalType": "address",
                    "name": "_follower",
                    "type": "address"
                }
            ],
            "name": "unfollow",
            "outputs": [],
            "stateMutability": "nonpayable",
            "type": "function"
        },
        {
            "inputs": [
                {
                    "internalType": "string",
                    "name": "_bio",
                    "type": "string"
                }
            ],
            "name": "updateBio",
            "outputs": [],
            "stateMutability": "nonpayable",
            "type": "function"
        },
        {
            "inputs": [
                {
                    "internalType": "string",
                    "name": "_name",
                    "type": "string"
                }
            ],
            "name": "updateName",
            "outputs": [],
            "stateMutability": "nonpayable",
            "type": "function"
        },
        {
            "inputs": [
                {
                    "internalType": "string",
                    "name": "_url",
                    "type": "string"
                }
            ],
            "name": "updateProfilePicture",
            "outputs": [],
            "stateMutability": "nonpayable",
            "type": "function"
        },
        {
            "inputs": [
                {
                    "internalType": "address",
                    "name": "",
                    "type": "address"
                }
            ],
            "name": "users",
            "outputs": [
                {
                    "internalType": "address",
                    "name": "userAddress",
                    "type": "address"
                },
                {
                    "internalType": "uint256",
                    "name": "id",
                    "type": "uint256"
                },
                {
                    "internalType": "string",
                    "name": "name",
                    "type": "string"
                },
                {
                    "internalType": "string",
                    "name": "bio",
                    "type": "string"
                },
                {
                    "internalType": "string",
                    "name": "profilePictureURL",
                    "type": "string"
                },
                {
                    "internalType": "bool",
                    "name": "exists",
                    "type": "bool"
                }
            ],
            "stateMutability": "view",
            "type": "function"
        },
        {
            "inputs": [],
            "name": "withdraw",
            "outputs": [],
            "stateMutability": "nonpayable",
            "type": "function"
        }
    ],
    "bytecode": "608060405260016008553480156200001657600080fd5b50604051620024d6380380620024d68339810160408190526200003991620000dc565b600080546001600160a01b038086166001600160a01b03199283161790925560018054858416908316179055600280549284169290911691909117905560408051808201909152601581527f68747470733a2f2f697066732e696f2f697066732f00000000000000000000006020820152600390620000b99082620001d5565b50505050620002a1565b6001600160a01b0381168114620000d957600080fd5b50565b600080600060608486031215620000f257600080fd5b8351620000ff81620000c3565b60208501519093506200011281620000c3565b60408501519092506200012581620000c3565b809150509250925092565b634e487b7160e01b600052604160045260246000fd5b600181811c908216806200015b57607f821691505b6020821081036200017c57634e487b7160e01b600052602260045260246000fd5b50919050565b601f821115620001d057600081815260208120601f850160051c81016020861015620001ab5750805b601f850160051c820191505b81811015620001cc57828155600101620001b7565b5050505b505050565b81516001600160401b03811115620001f157620001f162000130565b620002098162000202845462000146565b8462000182565b602080601f831160018114620002415760008415620002285750858301515b600019600386901b1c1916600185901b178555620001cc565b600085815260208120601f198616915b82811015620002725788860151825594840194600190910190840162000251565b5085821015620002915787850151600019600388901b60f8161c191681555b5050505050600190811b01905550565b61222580620002b16000396000f3fe6080604052600436106101655760003560e01c806384da92a7116100d1578063c9f4b84a1161008a578063e8d857b011610064578063e8d857b01461048e578063ebd009d3146104c2578063f4b5ee4d146104e2578063f944f4c71461051857600080fd5b8063c9f4b84a14610413578063ce9ae00114610433578063dc23abf61461046e57600080fd5b806384da92a7146103075780638cd14d30146103275780638da5cb5b1461034757806399ec3a4214610367578063a87430ba146103c1578063bc53c0c4146103f357600080fd5b80635802594f116101235780635802594f1461021f5780635ffc6ceb146102575780636c0360eb1461027757806375de982e1461029957806376487b38146102b9578063812dca54146102d957600080fd5b80625c33e11461016a5780630d95272a14610174578063164415ae146101aa57806331b8ef87146101ca5780633ccfd60b146101ea578063565a4dc3146101ff575b600080fd5b61017261052d565b005b34801561018057600080fd5b5061019461018f3660046119de565b610568565b6040516101a19190611a00565b60405180910390f35b3480156101b657600080fd5b506101726101c5366004611a4d565b610623565b3480156101d657600080fd5b506101726101e5366004611a6f565b6107ac565b3480156101f657600080fd5b5061017261081c565b34801561020b57600080fd5b5061017261021a366004611b2b565b6108f0565b34801561022b57600080fd5b5060025461023f906001600160a01b031681565b6040516001600160a01b0390911681526020016101a1565b34801561026357600080fd5b50610172610272366004611a6f565b610984565b34801561028357600080fd5b5061028c6109ed565b6040516101a19190611bae565b3480156102a557600080fd5b5060015461023f906001600160a01b031681565b3480156102c557600080fd5b506101726102d4366004611b2b565b610a7b565b3480156102e557600080fd5b506102f96102f4366004611bc1565b610b03565b6040519081526020016101a1565b34801561031357600080fd5b50610172610322366004611b2b565b610b30565b34801561033357600080fd5b50610172610342366004611bf4565b610bb8565b34801561035357600080fd5b5060005461023f906001600160a01b031681565b34801561037357600080fd5b506103b1610382366004611bc1565b6001600160a01b0380821660009081526006602090815260408083209386168352929052205460ff1692915050565b60405190151581526020016101a1565b3480156103cd57600080fd5b506103e16103dc3660046119de565b610db2565b6040516101a196959493929190611c58565b3480156103ff57600080fd5b5061017261040e366004611cbb565b610f8c565b34801561041f57600080fd5b5061017261042e366004611bc1565b61111d565b34801561043f57600080fd5b506103b161044e366004611bc1565b600660209081526000928352604080842090915290825290205460ff1681565b34801561047a57600080fd5b50610172610489366004611bc1565b61145e565b34801561049a57600080fd5b506104ae6104a9366004611a6f565b6116bc565b6040516101a1989796959493929190611d43565b3480156104ce57600080fd5b5061023f6104dd366004611dab565b61181f565b3480156104ee57600080fd5b5061023f6104fd366004611a6f565b600a602052600090815260409020546001600160a01b031681565b34801561052457600080fd5b50610172611857565b604080513381523460208201527f873db5b09b82c3e95b44a29e65520b545f452255c7af9aec662dad62294a983591015b60405180910390a1565b6001600160a01b03811660009081526004602052604090206005015460609060ff166105af5760405162461bcd60e51b81526004016105a690611dd5565b60405180910390fd5b6001600160a01b0382166000908152600560209081526040918290208054835181840281018401909452808452909183018282801561061757602002820191906000526020600020905b81546001600160a01b031681526001909101906020018083116105f9575b50505050509050919050565b60018054600084815260096020526040908190209092015491516323b872dd60e01b81523360048201526001600160a01b039283166024820152604481018490529116906323b872dd906064016020604051808303816000875af115801561068f573d6000803e3d6000fd5b505050506040513d601f19601f820116820180604052508101906106b39190611e02565b6106f15760405162461bcd60e51b815260206004820152600f60248201526e151c985b9cd9995c8819985a5b1959608a1b60448201526064016105a6565b6000828152600960209081526040822060058101805460018101825590845291832090910183905583825260060180549161072b83611e3a565b909155505060008281526009602081815260408084206001810154338087526004855283872096899052949093526006015490517fd4c753f2e2d5ce7de230507bc1fac23c151622d7294db5ddd866185d7aeb40db946107a094879489946001600160a01b0390911693919260020191611f0a565b60405180910390a15050565b60008181526009602052604081206004018054916107c983611e3a565b9091555050600081815260096020908152604091829020600401548251848152918201527f12bda74f7c9bb58e412152c4eabc86ea072ef9435ca8aad724922ad6aa34804191015b60405180910390a150565b6000546001600160a01b031633146108805760405162461bcd60e51b815260206004820152602160248201527f4f6e6c7920746865206f776e65722063616e2077697468647261772066756e646044820152607360f81b60648201526084016105a6565b600080546040516001600160a01b03909116914780156108fc02929091818181858888f193505050501580156108ba573d6000803e3d6000fd5b50604080513381524760208201527feaff4b37086828766ad3268786972c0cd24259d4c87a80f9d3963a3c3d999b0d910161055e565b3360009081526004602052604090206005015460ff166109225760405162461bcd60e51b81526004016105a690611dd5565b3360009081526004602081905260409091200161093f8282611fa5565b50336001600160a01b03167f6b397bb88467b92a1774b4b19bf728f2673bf763d0bd7a571d17714ba7bd8c6c826040516109799190611bae565b60405180910390a250565b60008181526009602052604081206003018054916109a183611e3a565b9091555050600081815260096020908152604091829020600301548251848152918201527f49aee041ac2bd73f2839e4f512ef08fc86986f573230e2ef14533d6a2b07a29e9101610811565b600380546109fa90611e53565b80601f0160208091040260200160405190810160405280929190818152602001828054610a2690611e53565b8015610a735780601f10610a4857610100808354040283529160200191610a73565b820191906000526020600020905b815481529060010190602001808311610a5657829003601f168201915b505050505081565b3360009081526004602052604090206005015460ff16610aad5760405162461bcd60e51b81526004016105a690611dd5565b336000908152600460205260409020600301610ac98282611fa5565b50336001600160a01b03167f3f838a7d0889a59b2445af5389196b3948170278848eb90d8d256ab14aaf4cf0826040516109799190611bae565b6001600160a01b038083166000908152600760209081526040808320938516835292905220545b92915050565b3360009081526004602052604090206005015460ff16610b625760405162461bcd60e51b81526004016105a690611dd5565b336000908152600460205260409020600201610b7e8282611fa5565b50336001600160a01b03167f74321da206c1b9fa34367f7ece59ca49371dcd13820b9a5c3767ae1ecceed51a826040516109799190611bae565b3360009081526004602052604090206005015460ff16610bea5760405162461bcd60e51b81526004016105a690611dd5565b60085460408051610120810182528281523360208201529081018490526000606082018190526080820181905260a0820190604051908082528060200260200182016040528015610c45578160200160208202803683370190505b508152600060208083018290526001604080850182905260609094018790528583526009825291839020845181559084015191810180546001600160a01b0319166001600160a01b0390931692909217909155908201516002820190610cab9082611fa5565b50606082015160038201556080820151600482015560a08201518051610cdb916005840191602090910190611925565b5060c0820151600682015560e082015160078201805460ff19169115159190911790556101008201516008820190610d139082611fa5565b5050506000818152600960205260409081902080546001820154600383015460048401546006850154600786015496517f6489302193cbf23afae4850b20a291b6d3ba62002f1c36c7a6a273510c4e641397610d90976001600160a01b0390961695600281019594936005820193909260ff169160080190612065565b60405180910390a160088054906000610da883611e3a565b9190505550505050565b6004602052600090815260409020805460018201546002830180546001600160a01b03909316939192610de490611e53565b80601f0160208091040260200160405190810160405280929190818152602001828054610e1090611e53565b8015610e5d5780601f10610e3257610100808354040283529160200191610e5d565b820191906000526020600020905b815481529060010190602001808311610e4057829003601f168201915b505050505090806003018054610e7290611e53565b80601f0160208091040260200160405190810160405280929190818152602001828054610e9e90611e53565b8015610eeb5780601f10610ec057610100808354040283529160200191610eeb565b820191906000526020600020905b815481529060010190602001808311610ece57829003601f168201915b505050505090806004018054610f0090611e53565b80601f0160208091040260200160405190810160405280929190818152602001828054610f2c90611e53565b8015610f795780601f10610f4e57610100808354040283529160200191610f79565b820191906000526020600020905b815481529060010190602001808311610f5c57829003601f168201915b5050506005909301549192505060ff1686565b3360009081526004602052604090206005015460ff1615610fe55760405162461bcd60e51b81526020600482015260136024820152725573657220616c72656164792065786973747360681b60448201526064016105a6565b6000610ff0600b5490565b6040805160c0810182523380825260208083018581528385018a8152606085018a905260808501899052600160a086018190526000948552600490935294909220835181546001600160a01b0319166001600160a01b0390911617815591519082015591519293509160028201906110689082611fa5565b506060820151600382019061107d9082611fa5565b50608082015160048201906110929082611fa5565b5060a091909101516005918201805460ff19169115159190911790553360008181526004602052604090819020600181015493015490517faa2585f21e6456ed4a8c9a8868301bdcbcfa7435429b0189e606aba6c1692fbe936111019392909189918991899160ff1690611c58565b60405180910390a1611117600b80546001019055565b50505050565b336001600160a01b038216146111855760405162461bcd60e51b815260206004820152602760248201527f4f6e6c792074686520666f6c6c6f7765722063616e2072656d6f7665207468656044820152666d73656c76657360c81b60648201526084016105a6565b6001600160a01b0380821660009081526006602090815260408083209386168352929052205460ff166111ea5760405162461bcd60e51b815260206004820152600d60248201526c4e6f7420666f6c6c6f77696e6760981b60448201526064016105a6565b6001600160a01b038083166000818152600760209081526040808320948616835293815283822054928252600590529182205490919061122c9060019061210f565b6001600160a01b03851660009081526005602052604090208054919250908290811061125a5761125a612122565b60009182526020808320909101546001600160a01b0387811684526005909252604090922080549190921691908490811061129757611297612122565b600091825260208083209190910180546001600160a01b0319166001600160a01b0394851617905591861681526007825260408082206005909352812080548593929190849081106112eb576112eb612122565b60009182526020808320909101546001600160a01b039081168452838201949094526040928301822094909455918716825260059092522080548061133257611332612138565b60008281526020808220830160001990810180546001600160a01b03191690559092019092556001600160a01b0385811680845260068084526040808620938a16808752938552808620805460ff19169055600785528086208387528552808620869055928552835281842090845290915290205460ff16156113f75760405162461bcd60e51b815260206004820152601d60248201527f4661696c656420746f2072656d6f76652074686520666f6c6c6f77657200000060448201526064016105a6565b6001600160a01b0380851660009081526004602052604080822092861682529081902090517f609a93f9eecec6c2f7c382d0a75e0dcd5422dfa2c9570ef2ea0d58c25ea968b9926114509260029182019291019061214e565b60405180910390a150505050565b336001600160a01b038216146114b65760405162461bcd60e51b815260206004820152601b60248201527f557365722043616e6e6f7420466f72636520466f6c6c6f77657273000000000060448201526064016105a6565b6001600160a01b03821660009081526004602052604090206005015460ff166114f15760405162461bcd60e51b81526004016105a690611dd5565b6001600160a01b03811660009081526004602052604090206005015460ff1661155c5760405162461bcd60e51b815260206004820152601760248201527f466f6c6c6f77657220646f6573206e6f7420657869737400000000000000000060448201526064016105a6565b6001600160a01b0380821660009081526006602090815260408083209386168352929052205460ff16156115c25760405162461bcd60e51b815260206004820152600d60248201526c4e6f7420666f6c6c6f77696e6760981b60448201526064016105a6565b6001600160a01b03828116600081815260056020908152604082208054600180820183558285529284200180546001600160a01b031916958716959095179094559181529154611612919061210f565b6001600160a01b038084166000818152600660209081526040808320898616808552908352818420805460ff1916600117905560078352818420858552835281842087905583526004909152808220805493835291819020805491519596507f7f97986d1d7d68a2c79189da13a1968cb1e994a7864de2a4af34be8e5f941f62956116af959485169460029485019492909201929091169061217c565b60405180910390a1505050565b60096020526000908152604090208054600182015460028301805492936001600160a01b03909216926116ee90611e53565b80601f016020809104026020016040519081016040528092919081815260200182805461171a90611e53565b80156117675780601f1061173c57610100808354040283529160200191611767565b820191906000526020600020905b81548152906001019060200180831161174a57829003601f168201915b50505060038401546004850154600686015460078701546008880180549798949793965091945060ff16929161179c90611e53565b80601f01602080910402602001604051908101604052809291908181526020018280546117c890611e53565b80156118155780601f106117ea57610100808354040283529160200191611815565b820191906000526020600020905b8154815290600101906020018083116117f857829003601f168201915b5050505050905088565b6005602052816000526040600020818154811061183b57600080fd5b6000918252602090912001546001600160a01b03169150829050565b3360009081526004602052604090206005015460ff166118895760405162461bcd60e51b81526004016105a690611dd5565b33600090815260046020526040812080546001600160a01b031916815560018101829055906118bb6002830182611970565b6118c9600383016000611970565b6118d7600483016000611970565b50600501805460ff19169055336000818152600460205260409081902090517f09c548a1a0ebbda4fe7f4ad39a7b6f70618bba50296b0b3aa871dce2b0dbea4c9261055e92600201916121c5565b828054828255906000526020600020908101928215611960579160200282015b82811115611960578251825591602001919060010190611945565b5061196c9291506119ad565b5090565b50805461197c90611e53565b6000825580601f1061198c575050565b601f0160209004906000526020600020908101906119aa91906119ad565b50565b5b8082111561196c57600081556001016119ae565b80356001600160a01b03811681146119d957600080fd5b919050565b6000602082840312156119f057600080fd5b6119f9826119c2565b9392505050565b6020808252825182820181905260009190848201906040850190845b81811015611a415783516001600160a01b031683529284019291840191600101611a1c565b50909695505050505050565b60008060408385031215611a6057600080fd5b50508035926020909101359150565b600060208284031215611a8157600080fd5b5035919050565b634e487b7160e01b600052604160045260246000fd5b600082601f830112611aaf57600080fd5b813567ffffffffffffffff80821115611aca57611aca611a88565b604051601f8301601f19908116603f01168101908282118183101715611af257611af2611a88565b81604052838152866020858801011115611b0b57600080fd5b836020870160208301376000602085830101528094505050505092915050565b600060208284031215611b3d57600080fd5b813567ffffffffffffffff811115611b5457600080fd5b611b6084828501611a9e565b949350505050565b6000815180845260005b81811015611b8e57602081850181015186830182015201611b72565b506000602082860101526020601f19601f83011685010191505092915050565b6020815260006119f96020830184611b68565b60008060408385031215611bd457600080fd5b611bdd836119c2565b9150611beb602084016119c2565b90509250929050565b60008060408385031215611c0757600080fd5b823567ffffffffffffffff80821115611c1f57600080fd5b611c2b86838701611a9e565b93506020850135915080821115611c4157600080fd5b50611c4e85828601611a9e565b9150509250929050565b60018060a01b038716815285602082015260c060408201526000611c7f60c0830187611b68565b8281036060840152611c918187611b68565b90508281036080840152611ca58186611b68565b91505082151560a0830152979650505050505050565b600080600060608486031215611cd057600080fd5b833567ffffffffffffffff80821115611ce857600080fd5b611cf487838801611a9e565b94506020860135915080821115611d0a57600080fd5b611d1687838801611a9e565b93506040860135915080821115611d2c57600080fd5b50611d3986828701611a9e565b9150509250925092565b8881526001600160a01b038816602082015261010060408201819052600090611d6e8382018a611b68565b90508760608401528660808401528560a084015284151560c084015282810360e0840152611d9c8185611b68565b9b9a5050505050505050505050565b60008060408385031215611dbe57600080fd5b611dc7836119c2565b946020939093013593505050565b602080825260139082015272155cd95c88191bd95cc81b9bdd08195e1a5cdd606a1b604082015260600190565b600060208284031215611e1457600080fd5b815180151581146119f957600080fd5b634e487b7160e01b600052601160045260246000fd5b600060018201611e4c57611e4c611e24565b5060010190565b600181811c90821680611e6757607f821691505b602082108103611e8757634e487b7160e01b600052602260045260246000fd5b50919050565b60008154611e9a81611e53565b808552602060018381168015611eb75760018114611ed157611eff565b60ff1985168884015283151560051b880183019550611eff565b866000528260002060005b85811015611ef75781548a8201860152908301908401611edc565b890184019650505b505050505092915050565b868152602081018690526001600160a01b0385811660408301528416606082015260c060808201819052600090611f4390830185611e8d565b90508260a0830152979650505050505050565b601f821115611fa057600081815260208120601f850160051c81016020861015611f7d5750805b601f850160051c820191505b81811015611f9c57828155600101611f89565b5050505b505050565b815167ffffffffffffffff811115611fbf57611fbf611a88565b611fd381611fcd8454611e53565b84611f56565b602080601f8311600181146120085760008415611ff05750858301515b600019600386901b1c1916600185901b178555611f9c565b600085815260208120601f198616915b8281101561203757888601518255948401946001909101908401612018565b50858210156120555787850151600019600388901b60f8161c191681555b5050505050600190811b01905550565b60006101208b8352602060018060a01b038c168185015281604085015261208e8285018c611e8d565b606085018b9052608085018a905284810360a0860152885480825260008a81528381209450918301915b818110156120d4578454835260019485019492840192016120b8565b50508760c08601526120ea60e086018815159052565b8481036101008601526120fd8187611e8d565b9e9d5050505050505050505050505050565b81810381811115610b2a57610b2a611e24565b634e487b7160e01b600052603260045260246000fd5b634e487b7160e01b600052603160045260246000fd5b6040815260006121616040830185611e8d565b82810360208401526121738185611e8d565b95945050505050565b600060018060a01b0380871683526080602084015261219e6080840187611e8d565b83810360408501526121b08187611e8d565b92505080841660608401525095945050505050565b6040815260006121d86040830185611e8d565b905060018060a01b0383166020830152939250505056fea2646970667358221220d935ae9896f77d70cfd14c8dd5149631f8e89148df239d55749918f9b2aa184864736f6c63430008130033",
    "sourcePath": "/Users/jamesstorage/Repos/decentralized-twitter/src/contracts/Twitter.sol",
    "compiler": {
        "name": "solc",
        "version": "0.8.19+commit.7dd6d404"
    },
    "functionHashes": {
        "baseURI()": "6c0360eb",
        "becomeFollower(address,address)": "dc23abf6",
        "createAccount(string,string,string)": "bc53c0c4",
        "createTweet(string,string)": "8cd14d30",
        "followers(address,uint256)": "ebd009d3",
        "following(address,address)": "ce9ae001",
        "getFollowerAddresses(address)": "0d95272a",
        "getFollowerIndex(address,address)": "812dca54",
        "isFollowing(address,address)": "99ec3a42",
        "likeTweet(uint256)": "5ffc6ceb",
        "owner()": "8da5cb5b",
        "receiveFunds()": "005c33e1",
        "removeUser()": "f944f4c7",
        "retweet(uint256)": "31b8ef87",
        "tipUser(uint256,uint256)": "164415ae",
        "tweetAuctions(uint256)": "f4b5ee4d",
        "tweetNFT()": "5802594f",
        "tweetToken()": "75de982e",
        "tweets(uint256)": "e8d857b0",
        "unfollow(address,address)": "c9f4b84a",
        "updateBio(string)": "76487b38",
        "updateName(string)": "84da92a7",
        "updateProfilePicture(string)": "565a4dc3",
        "users(address)": "a87430ba",
        "withdraw()": "3ccfd60b"
    },
    "gasEstimates": {
        "creation": {
            "codeDepositCost": "1748200",
            "executionCost": "infinite",
            "totalCost": "infinite"
        },
        "external": {
            "baseURI()": "infinite",
            "becomeFollower(address,address)": "infinite",
            "createAccount(string,string,string)": "infinite",
            "createTweet(string,string)": "infinite",
            "followers(address,uint256)": "4850",
            "following(address,address)": "infinite",
            "getFollowerAddresses(address)": "infinite",
            "getFollowerIndex(address,address)": "infinite",
            "isFollowing(address,address)": "infinite",
            "likeTweet(uint256)": "28147",
            "owner()": "2404",
            "receiveFunds()": "1474",
            "removeUser()": "infinite",
            "retweet(uint256)": "28181",
            "tipUser(uint256,uint256)": "infinite",
            "tweetAuctions(uint256)": "2565",
            "tweetNFT()": "2360",
            "tweetToken()": "2426",
            "tweets(uint256)": "infinite",
            "unfollow(address,address)": "infinite",
            "updateBio(string)": "infinite",
            "updateName(string)": "infinite",
            "updateProfilePicture(string)": "infinite",
            "users(address)": "infinite",
            "withdraw()": "infinite"
        }
    }
}